{
	"SmartCityParking.sol": {
		"SmartCityParking": {
			"abi": [
				{
					"inputs": [
						{
							"internalType": "address",
							"name": "_parkingTokenAddress",
							"type": "address"
						}
					],
					"stateMutability": "nonpayable",
					"type": "constructor"
				},
				{
					"anonymous": false,
					"inputs": [
						{
							"indexed": true,
							"internalType": "address",
							"name": "driver",
							"type": "address"
						},
						{
							"indexed": false,
							"internalType": "string",
							"name": "name",
							"type": "string"
						}
					],
					"name": "DriverRegistered",
					"type": "event"
				},
				{
					"anonymous": false,
					"inputs": [
						{
							"indexed": true,
							"internalType": "uint256",
							"name": "id",
							"type": "uint256"
						},
						{
							"indexed": false,
							"internalType": "string",
							"name": "location",
							"type": "string"
						}
					],
					"name": "ParkingSpotAdded",
					"type": "event"
				},
				{
					"anonymous": false,
					"inputs": [
						{
							"indexed": true,
							"internalType": "address",
							"name": "driver",
							"type": "address"
						},
						{
							"indexed": true,
							"internalType": "uint256",
							"name": "spotId",
							"type": "uint256"
						},
						{
							"indexed": false,
							"internalType": "uint256",
							"name": "amount",
							"type": "uint256"
						}
					],
					"name": "PaymentMade",
					"type": "event"
				},
				{
					"anonymous": false,
					"inputs": [
						{
							"indexed": true,
							"internalType": "address",
							"name": "driver",
							"type": "address"
						},
						{
							"indexed": false,
							"internalType": "uint256",
							"name": "amount",
							"type": "uint256"
						}
					],
					"name": "RewardIssued",
					"type": "event"
				},
				{
					"anonymous": false,
					"inputs": [
						{
							"indexed": true,
							"internalType": "address",
							"name": "driver",
							"type": "address"
						},
						{
							"indexed": true,
							"internalType": "uint256",
							"name": "spotId",
							"type": "uint256"
						}
					],
					"name": "SpotReleased",
					"type": "event"
				},
				{
					"anonymous": false,
					"inputs": [
						{
							"indexed": true,
							"internalType": "address",
							"name": "driver",
							"type": "address"
						},
						{
							"indexed": true,
							"internalType": "uint256",
							"name": "spotId",
							"type": "uint256"
						}
					],
					"name": "SpotReserved",
					"type": "event"
				},
				{
					"inputs": [
						{
							"internalType": "uint256",
							"name": "_id",
							"type": "uint256"
						},
						{
							"internalType": "string",
							"name": "_location",
							"type": "string"
						}
					],
					"name": "addParkingSpot",
					"outputs": [],
					"stateMutability": "nonpayable",
					"type": "function"
				},
				{
					"inputs": [],
					"name": "cityAuthority",
					"outputs": [
						{
							"internalType": "address",
							"name": "",
							"type": "address"
						}
					],
					"stateMutability": "view",
					"type": "function"
				},
				{
					"inputs": [
						{
							"internalType": "address",
							"name": "",
							"type": "address"
						}
					],
					"name": "drivers",
					"outputs": [
						{
							"internalType": "string",
							"name": "name",
							"type": "string"
						},
						{
							"internalType": "bool",
							"name": "isRegistered",
							"type": "bool"
						}
					],
					"stateMutability": "view",
					"type": "function"
				},
				{
					"inputs": [
						{
							"internalType": "uint256",
							"name": "",
							"type": "uint256"
						}
					],
					"name": "parkingSpots",
					"outputs": [
						{
							"internalType": "uint256",
							"name": "id",
							"type": "uint256"
						},
						{
							"internalType": "string",
							"name": "location",
							"type": "string"
						},
						{
							"internalType": "bool",
							"name": "isAvailable",
							"type": "bool"
						},
						{
							"internalType": "address",
							"name": "occupant",
							"type": "address"
						}
					],
					"stateMutability": "view",
					"type": "function"
				},
				{
					"inputs": [],
					"name": "parkingToken",
					"outputs": [
						{
							"internalType": "contract CityParkingToken",
							"name": "",
							"type": "address"
						}
					],
					"stateMutability": "view",
					"type": "function"
				},
				{
					"inputs": [
						{
							"internalType": "uint256",
							"name": "_spotId",
							"type": "uint256"
						},
						{
							"internalType": "uint256",
							"name": "_amount",
							"type": "uint256"
						}
					],
					"name": "payForParking",
					"outputs": [],
					"stateMutability": "nonpayable",
					"type": "function"
				},
				{
					"inputs": [
						{
							"internalType": "string",
							"name": "_name",
							"type": "string"
						}
					],
					"name": "registerDriver",
					"outputs": [],
					"stateMutability": "nonpayable",
					"type": "function"
				},
				{
					"inputs": [
						{
							"internalType": "uint256",
							"name": "_spotId",
							"type": "uint256"
						}
					],
					"name": "releaseSpot",
					"outputs": [],
					"stateMutability": "nonpayable",
					"type": "function"
				},
				{
					"inputs": [
						{
							"internalType": "uint256",
							"name": "_spotId",
							"type": "uint256"
						}
					],
					"name": "reserveSpot",
					"outputs": [],
					"stateMutability": "nonpayable",
					"type": "function"
				}
			],
			"devdoc": {
				"kind": "dev",
				"methods": {},
				"version": 1
			},
			"evm": {
				"assembly": "    /* \"SmartCityParking.sol\":157:6595  contract SmartCityParking {... */\n  mstore(0x40, 0x80)\n    /* \"SmartCityParking.sol\":1551:1818  constructor(address _parkingTokenAddress) {... */\n  callvalue\n  dup1\n  iszero\n  tag_1\n  jumpi\n  revert(0x00, 0x00)\ntag_1:\n  pop\n  mload(0x40)\n  sub(codesize, bytecodeSize)\n  dup1\n  bytecodeSize\n  dup4\n  codecopy\n  dup2\n  dup2\n  add\n  0x40\n  mstore\n  dup2\n  add\n  swap1\n  tag_2\n  swap2\n  swap1\n  tag_3\n  jump\t// in\ntag_2:\n    /* \"SmartCityParking.sol\":1667:1677  msg.sender */\n  caller\n    /* \"SmartCityParking.sol\":1651:1664  cityAuthority */\n  0x00\n  0x00\n    /* \"SmartCityParking.sol\":1651:1677  cityAuthority = msg.sender */\n  0x0100\n  exp\n  dup2\n  sload\n  dup2\n  0xffffffffffffffffffffffffffffffffffffffff\n  mul\n  not\n  and\n  swap1\n  dup4\n  0xffffffffffffffffffffffffffffffffffffffff\n  and\n  mul\n  or\n  swap1\n  sstore\n  pop\n    /* \"SmartCityParking.sol\":1758:1778  _parkingTokenAddress */\n  dup1\n    /* \"SmartCityParking.sol\":1726:1738  parkingToken */\n  0x01\n  0x00\n    /* \"SmartCityParking.sol\":1726:1779  parkingToken = CityParkingToken(_parkingTokenAddress) */\n  0x0100\n  exp\n  dup2\n  sload\n  dup2\n  0xffffffffffffffffffffffffffffffffffffffff\n  mul\n  not\n  and\n  swap1\n  dup4\n  0xffffffffffffffffffffffffffffffffffffffff\n  and\n  mul\n  or\n  swap1\n  sstore\n  pop\n    /* \"SmartCityParking.sol\":1551:1818  constructor(address _parkingTokenAddress) {... */\n  pop\n    /* \"SmartCityParking.sol\":157:6595  contract SmartCityParking {... */\n  jump(tag_6)\n    /* \"#utility.yul\":88:205   */\ntag_8:\n    /* \"#utility.yul\":197:198   */\n  0x00\n    /* \"#utility.yul\":194:195   */\n  0x00\n    /* \"#utility.yul\":187:199   */\n  revert\n    /* \"#utility.yul\":334:460   */\ntag_10:\n    /* \"#utility.yul\":371:378   */\n  0x00\n    /* \"#utility.yul\":411:453   */\n  0xffffffffffffffffffffffffffffffffffffffff\n    /* \"#utility.yul\":404:409   */\n  dup3\n    /* \"#utility.yul\":400:454   */\n  and\n    /* \"#utility.yul\":389:454   */\n  swap1\n  pop\n    /* \"#utility.yul\":334:460   */\n  swap2\n  swap1\n  pop\n  jump\t// out\n    /* \"#utility.yul\":466:562   */\ntag_11:\n    /* \"#utility.yul\":503:510   */\n  0x00\n    /* \"#utility.yul\":532:556   */\n  tag_20\n    /* \"#utility.yul\":550:555   */\n  dup3\n    /* \"#utility.yul\":532:556   */\n  tag_10\n  jump\t// in\ntag_20:\n    /* \"#utility.yul\":521:556   */\n  swap1\n  pop\n    /* \"#utility.yul\":466:562   */\n  swap2\n  swap1\n  pop\n  jump\t// out\n    /* \"#utility.yul\":568:690   */\ntag_12:\n    /* \"#utility.yul\":641:665   */\n  tag_22\n    /* \"#utility.yul\":659:664   */\n  dup2\n    /* \"#utility.yul\":641:665   */\n  tag_11\n  jump\t// in\ntag_22:\n    /* \"#utility.yul\":634:639   */\n  dup2\n    /* \"#utility.yul\":631:666   */\n  eq\n    /* \"#utility.yul\":621:684   */\n  tag_23\n  jumpi\n    /* \"#utility.yul\":680:681   */\n  0x00\n    /* \"#utility.yul\":677:678   */\n  0x00\n    /* \"#utility.yul\":670:682   */\n  revert\n    /* \"#utility.yul\":621:684   */\ntag_23:\n    /* \"#utility.yul\":568:690   */\n  pop\n  jump\t// out\n    /* \"#utility.yul\":696:839   */\ntag_13:\n    /* \"#utility.yul\":753:758   */\n  0x00\n    /* \"#utility.yul\":784:790   */\n  dup2\n    /* \"#utility.yul\":778:791   */\n  mload\n    /* \"#utility.yul\":769:791   */\n  swap1\n  pop\n    /* \"#utility.yul\":800:833   */\n  tag_25\n    /* \"#utility.yul\":827:832   */\n  dup2\n    /* \"#utility.yul\":800:833   */\n  tag_12\n  jump\t// in\ntag_25:\n    /* \"#utility.yul\":696:839   */\n  swap3\n  swap2\n  pop\n  pop\n  jump\t// out\n    /* \"#utility.yul\":845:1196   */\ntag_3:\n    /* \"#utility.yul\":915:921   */\n  0x00\n    /* \"#utility.yul\":964:966   */\n  0x20\n    /* \"#utility.yul\":952:961   */\n  dup3\n    /* \"#utility.yul\":943:950   */\n  dup5\n    /* \"#utility.yul\":939:962   */\n  sub\n    /* \"#utility.yul\":935:967   */\n  slt\n    /* \"#utility.yul\":932:1051   */\n  iszero\n  tag_27\n  jumpi\n    /* \"#utility.yul\":970:1049   */\n  tag_28\n  tag_8\n  jump\t// in\ntag_28:\n    /* \"#utility.yul\":932:1051   */\ntag_27:\n    /* \"#utility.yul\":1090:1091   */\n  0x00\n    /* \"#utility.yul\":1115:1179   */\n  tag_29\n    /* \"#utility.yul\":1171:1178   */\n  dup5\n    /* \"#utility.yul\":1162:1168   */\n  dup3\n    /* \"#utility.yul\":1151:1160   */\n  dup6\n    /* \"#utility.yul\":1147:1169   */\n  add\n    /* \"#utility.yul\":1115:1179   */\n  tag_13\n  jump\t// in\ntag_29:\n    /* \"#utility.yul\":1105:1179   */\n  swap2\n  pop\n    /* \"#utility.yul\":1061:1189   */\n  pop\n    /* \"#utility.yul\":845:1196   */\n  swap3\n  swap2\n  pop\n  pop\n  jump\t// out\n    /* \"SmartCityParking.sol\":157:6595  contract SmartCityParking {... */\ntag_6:\n  dataSize(sub_0)\n  dup1\n  dataOffset(sub_0)\n  0x00\n  codecopy\n  0x00\n  return\nstop\n\nsub_0: assembly {\n        /* \"SmartCityParking.sol\":157:6595  contract SmartCityParking {... */\n      mstore(0x40, 0x80)\n      callvalue\n      dup1\n      iszero\n      tag_1\n      jumpi\n      revert(0x00, 0x00)\n    tag_1:\n      pop\n      jumpi(tag_2, lt(calldatasize, 0x04))\n      shr(0xe0, calldataload(0x00))\n      dup1\n      0x642a79eb\n      gt\n      tag_12\n      jumpi\n      dup1\n      0x642a79eb\n      eq\n      tag_7\n      jumpi\n      dup1\n      0x728c34d7\n      eq\n      tag_8\n      jumpi\n      dup1\n      0xa127dcd3\n      eq\n      tag_9\n      jumpi\n      dup1\n      0xc36809e7\n      eq\n      tag_10\n      jumpi\n      dup1\n      0xf5defcd3\n      eq\n      tag_11\n      jumpi\n      jump(tag_2)\n    tag_12:\n      dup1\n      0x05f4804c\n      eq\n      tag_3\n      jumpi\n      dup1\n      0x309f225d\n      eq\n      tag_4\n      jumpi\n      dup1\n      0x383bb2d1\n      eq\n      tag_5\n      jumpi\n      dup1\n      0x4aa60186\n      eq\n      tag_6\n      jumpi\n    tag_2:\n      revert(0x00, 0x00)\n        /* \"SmartCityParking.sol\":1825:2573  function registerDriver(string memory _name) public {... */\n    tag_3:\n      tag_13\n      0x04\n      dup1\n      calldatasize\n      sub\n      dup2\n      add\n      swap1\n      tag_14\n      swap2\n      swap1\n      tag_15\n      jump\t// in\n    tag_14:\n      tag_16\n      jump\t// in\n    tag_13:\n      stop\n        /* \"SmartCityParking.sol\":269:305  CityParkingToken public parkingToken */\n    tag_4:\n      tag_17\n      tag_18\n      jump\t// in\n    tag_17:\n      mload(0x40)\n      tag_19\n      swap2\n      swap1\n      tag_20\n      jump\t// in\n    tag_19:\n      mload(0x40)\n      dup1\n      swap2\n      sub\n      swap1\n      return\n        /* \"SmartCityParking.sol\":2581:3519  function addParkingSpot(uint256 _id, string memory _location) public {... */\n    tag_5:\n      tag_21\n      0x04\n      dup1\n      calldatasize\n      sub\n      dup2\n      add\n      swap1\n      tag_22\n      swap2\n      swap1\n      tag_23\n      jump\t// in\n    tag_22:\n      tag_24\n      jump\t// in\n    tag_21:\n      stop\n        /* \"SmartCityParking.sol\":752:793  mapping(address => Driver) public drivers */\n    tag_6:\n      tag_25\n      0x04\n      dup1\n      calldatasize\n      sub\n      dup2\n      add\n      swap1\n      tag_26\n      swap2\n      swap1\n      tag_27\n      jump\t// in\n    tag_26:\n      tag_28\n      jump\t// in\n    tag_25:\n      mload(0x40)\n      tag_29\n      swap3\n      swap2\n      swap1\n      tag_30\n      jump\t// in\n    tag_29:\n      mload(0x40)\n      dup1\n      swap2\n      sub\n      swap1\n      return\n        /* \"SmartCityParking.sol\":3527:4446  function reserveSpot(uint256 _spotId) public {... */\n    tag_7:\n      tag_31\n      0x04\n      dup1\n      calldatasize\n      sub\n      dup2\n      add\n      swap1\n      tag_32\n      swap2\n      swap1\n      tag_33\n      jump\t// in\n    tag_32:\n      tag_34\n      jump\t// in\n    tag_31:\n      stop\n        /* \"SmartCityParking.sol\":5613:6592  function payForParking(uint256 _spotId, uint256 _amount) public {... */\n    tag_8:\n      tag_35\n      0x04\n      dup1\n      calldatasize\n      sub\n      dup2\n      add\n      swap1\n      tag_36\n      swap2\n      swap1\n      tag_37\n      jump\t// in\n    tag_36:\n      tag_38\n      jump\t// in\n    tag_35:\n      stop\n        /* \"SmartCityParking.sol\":4454:5605  function releaseSpot(uint256 _spotId) public {... */\n    tag_9:\n      tag_39\n      0x04\n      dup1\n      calldatasize\n      sub\n      dup2\n      add\n      swap1\n      tag_40\n      swap2\n      swap1\n      tag_33\n      jump\t// in\n    tag_40:\n      tag_41\n      jump\t// in\n    tag_39:\n      stop\n        /* \"SmartCityParking.sol\":190:218  address public cityAuthority */\n    tag_10:\n      tag_42\n      tag_43\n      jump\t// in\n    tag_42:\n      mload(0x40)\n      tag_44\n      swap2\n      swap1\n      tag_45\n      jump\t// in\n    tag_44:\n      mload(0x40)\n      dup1\n      swap2\n      sub\n      swap1\n      return\n        /* \"SmartCityParking.sol\":836:887  mapping(uint256 => ParkingSpot) public parkingSpots */\n    tag_11:\n      tag_46\n      0x04\n      dup1\n      calldatasize\n      sub\n      dup2\n      add\n      swap1\n      tag_47\n      swap2\n      swap1\n      tag_33\n      jump\t// in\n    tag_47:\n      tag_48\n      jump\t// in\n    tag_46:\n      mload(0x40)\n      tag_49\n      swap5\n      swap4\n      swap3\n      swap2\n      swap1\n      tag_50\n      jump\t// in\n    tag_49:\n      mload(0x40)\n      dup1\n      swap2\n      sub\n      swap1\n      return\n        /* \"SmartCityParking.sol\":1825:2573  function registerDriver(string memory _name) public {... */\n    tag_16:\n        /* \"SmartCityParking.sol\":1976:1983  drivers */\n      0x02\n        /* \"SmartCityParking.sol\":1976:1995  drivers[msg.sender] */\n      0x00\n        /* \"SmartCityParking.sol\":1984:1994  msg.sender */\n      caller\n        /* \"SmartCityParking.sol\":1976:1995  drivers[msg.sender] */\n      0xffffffffffffffffffffffffffffffffffffffff\n      and\n      0xffffffffffffffffffffffffffffffffffffffff\n      and\n      dup2\n      mstore\n      0x20\n      add\n      swap1\n      dup2\n      mstore\n      0x20\n      add\n      0x00\n      keccak256\n        /* \"SmartCityParking.sol\":1976:2008  drivers[msg.sender].isRegistered */\n      0x01\n      add\n      0x00\n      swap1\n      sload\n      swap1\n      0x0100\n      exp\n      swap1\n      div\n      0xff\n      and\n        /* \"SmartCityParking.sol\":1975:2008  !drivers[msg.sender].isRegistered */\n      iszero\n        /* \"SmartCityParking.sol\":1967:2031  require(!drivers[msg.sender].isRegistered, \"Already registered\") */\n      tag_52\n      jumpi\n      mload(0x40)\n      0x08c379a000000000000000000000000000000000000000000000000000000000\n      dup2\n      mstore\n      0x04\n      add\n      tag_53\n      swap1\n      tag_54\n      jump\t// in\n    tag_53:\n      mload(0x40)\n      dup1\n      swap2\n      sub\n      swap1\n      revert\n    tag_52:\n        /* \"SmartCityParking.sol\":2189:2190  0 */\n      0x00\n        /* \"SmartCityParking.sol\":2173:2178  _name */\n      dup2\n        /* \"SmartCityParking.sol\":2167:2186  bytes(_name).length */\n      mload\n        /* \"SmartCityParking.sol\":2167:2190  bytes(_name).length > 0 */\n      gt\n        /* \"SmartCityParking.sol\":2159:2208  require(bytes(_name).length > 0, \"Name required\") */\n      tag_55\n      jumpi\n      mload(0x40)\n      0x08c379a000000000000000000000000000000000000000000000000000000000\n      dup2\n      mstore\n      0x04\n      add\n      tag_56\n      swap1\n      tag_57\n      jump\t// in\n    tag_56:\n      mload(0x40)\n      dup1\n      swap2\n      sub\n      swap1\n      revert\n    tag_55:\n        /* \"SmartCityParking.sol\":2334:2353  Driver(_name, true) */\n      mload(0x40)\n      dup1\n      0x40\n      add\n      0x40\n      mstore\n      dup1\n        /* \"SmartCityParking.sol\":2341:2346  _name */\n      dup3\n        /* \"SmartCityParking.sol\":2334:2353  Driver(_name, true) */\n      dup2\n      mstore\n      0x20\n      add\n        /* \"SmartCityParking.sol\":2348:2352  true */\n      0x01\n        /* \"SmartCityParking.sol\":2334:2353  Driver(_name, true) */\n      iszero\n      iszero\n      dup2\n      mstore\n      pop\n        /* \"SmartCityParking.sol\":2312:2319  drivers */\n      0x02\n        /* \"SmartCityParking.sol\":2312:2331  drivers[msg.sender] */\n      0x00\n        /* \"SmartCityParking.sol\":2320:2330  msg.sender */\n      caller\n        /* \"SmartCityParking.sol\":2312:2331  drivers[msg.sender] */\n      0xffffffffffffffffffffffffffffffffffffffff\n      and\n      0xffffffffffffffffffffffffffffffffffffffff\n      and\n      dup2\n      mstore\n      0x20\n      add\n      swap1\n      dup2\n      mstore\n      0x20\n      add\n      0x00\n      keccak256\n        /* \"SmartCityParking.sol\":2312:2353  drivers[msg.sender] = Driver(_name, true) */\n      0x00\n      dup3\n      add\n      mload\n      dup2\n      0x00\n      add\n      swap1\n      dup2\n      tag_58\n      swap2\n      swap1\n      tag_59\n      jump\t// in\n    tag_58:\n      pop\n      0x20\n      dup3\n      add\n      mload\n      dup2\n      0x01\n      add\n      exp(0x0100, 0x00)\n      dup2\n      sload\n      dup2\n      0xff\n      mul\n      not\n      and\n      swap1\n      dup4\n      iszero\n      iszero\n      mul\n      or\n      swap1\n      sstore\n      pop\n      swap1\n      pop\n      pop\n        /* \"SmartCityParking.sol\":2476:2486  msg.sender */\n      caller\n        /* \"SmartCityParking.sol\":2459:2494  DriverRegistered(msg.sender, _name) */\n      0xffffffffffffffffffffffffffffffffffffffff\n      and\n      0x9b956fafd6b420070aaa3307dcf792c7a34a3118d4271ee745e1472b281a2f1f\n        /* \"SmartCityParking.sol\":2488:2493  _name */\n      dup3\n        /* \"SmartCityParking.sol\":2459:2494  DriverRegistered(msg.sender, _name) */\n      mload(0x40)\n      tag_60\n      swap2\n      swap1\n      tag_61\n      jump\t// in\n    tag_60:\n      mload(0x40)\n      dup1\n      swap2\n      sub\n      swap1\n      log2\n        /* \"SmartCityParking.sol\":1825:2573  function registerDriver(string memory _name) public {... */\n      pop\n      jump\t// out\n        /* \"SmartCityParking.sol\":269:305  CityParkingToken public parkingToken */\n    tag_18:\n      0x01\n      0x00\n      swap1\n      sload\n      swap1\n      0x0100\n      exp\n      swap1\n      div\n      0xffffffffffffffffffffffffffffffffffffffff\n      and\n      dup2\n      jump\t// out\n        /* \"SmartCityParking.sol\":2581:3519  function addParkingSpot(uint256 _id, string memory _location) public {... */\n    tag_24:\n        /* \"SmartCityParking.sol\":2771:2784  cityAuthority */\n      0x00\n      0x00\n      swap1\n      sload\n      swap1\n      0x0100\n      exp\n      swap1\n      div\n      0xffffffffffffffffffffffffffffffffffffffff\n      and\n        /* \"SmartCityParking.sol\":2757:2784  msg.sender == cityAuthority */\n      0xffffffffffffffffffffffffffffffffffffffff\n      and\n        /* \"SmartCityParking.sol\":2757:2767  msg.sender */\n      caller\n        /* \"SmartCityParking.sol\":2757:2784  msg.sender == cityAuthority */\n      0xffffffffffffffffffffffffffffffffffffffff\n      and\n      eq\n        /* \"SmartCityParking.sol\":2749:2803  require(msg.sender == cityAuthority, \"Only authority\") */\n      tag_63\n      jumpi\n      mload(0x40)\n      0x08c379a000000000000000000000000000000000000000000000000000000000\n      dup2\n      mstore\n      0x04\n      add\n      tag_64\n      swap1\n      tag_65\n      jump\t// in\n    tag_64:\n      mload(0x40)\n      dup1\n      swap2\n      sub\n      swap1\n      revert\n    tag_63:\n        /* \"SmartCityParking.sol\":2942:2943  0 */\n      0x00\n        /* \"SmartCityParking.sol\":2918:2930  parkingSpots */\n      0x03\n        /* \"SmartCityParking.sol\":2918:2935  parkingSpots[_id] */\n      0x00\n        /* \"SmartCityParking.sol\":2931:2934  _id */\n      dup5\n        /* \"SmartCityParking.sol\":2918:2935  parkingSpots[_id] */\n      dup2\n      mstore\n      0x20\n      add\n      swap1\n      dup2\n      mstore\n      0x20\n      add\n      0x00\n      keccak256\n        /* \"SmartCityParking.sol\":2918:2938  parkingSpots[_id].id */\n      0x00\n      add\n      sload\n        /* \"SmartCityParking.sol\":2918:2943  parkingSpots[_id].id == 0 */\n      eq\n        /* \"SmartCityParking.sol\":2910:2959  require(parkingSpots[_id].id == 0, \"Spot exists\") */\n      tag_66\n      jumpi\n      mload(0x40)\n      0x08c379a000000000000000000000000000000000000000000000000000000000\n      dup2\n      mstore\n      0x04\n      add\n      tag_67\n      swap1\n      tag_68\n      jump\t// in\n    tag_67:\n      mload(0x40)\n      dup1\n      swap2\n      sub\n      swap1\n      revert\n    tag_66:\n        /* \"SmartCityParking.sol\":3099:3100  0 */\n      0x00\n        /* \"SmartCityParking.sol\":3079:3088  _location */\n      dup2\n        /* \"SmartCityParking.sol\":3073:3096  bytes(_location).length */\n      mload\n        /* \"SmartCityParking.sol\":3073:3100  bytes(_location).length > 0 */\n      gt\n        /* \"SmartCityParking.sol\":3065:3122  require(bytes(_location).length > 0, \"Location required\") */\n      tag_69\n      jumpi\n      mload(0x40)\n      0x08c379a000000000000000000000000000000000000000000000000000000000\n      dup2\n      mstore\n      0x04\n      add\n      tag_70\n      swap1\n      tag_71\n      jump\t// in\n    tag_70:\n      mload(0x40)\n      dup1\n      swap2\n      sub\n      swap1\n      revert\n    tag_69:\n        /* \"SmartCityParking.sol\":3245:3290  ParkingSpot(_id, _location, true, address(0)) */\n      mload(0x40)\n      dup1\n      0x80\n      add\n      0x40\n      mstore\n      dup1\n        /* \"SmartCityParking.sol\":3257:3260  _id */\n      dup4\n        /* \"SmartCityParking.sol\":3245:3290  ParkingSpot(_id, _location, true, address(0)) */\n      dup2\n      mstore\n      0x20\n      add\n        /* \"SmartCityParking.sol\":3262:3271  _location */\n      dup3\n        /* \"SmartCityParking.sol\":3245:3290  ParkingSpot(_id, _location, true, address(0)) */\n      dup2\n      mstore\n      0x20\n      add\n        /* \"SmartCityParking.sol\":3273:3277  true */\n      0x01\n        /* \"SmartCityParking.sol\":3245:3290  ParkingSpot(_id, _location, true, address(0)) */\n      iszero\n      iszero\n      dup2\n      mstore\n      0x20\n      add\n        /* \"SmartCityParking.sol\":3287:3288  0 */\n      0x00\n        /* \"SmartCityParking.sol\":3245:3290  ParkingSpot(_id, _location, true, address(0)) */\n      0xffffffffffffffffffffffffffffffffffffffff\n      and\n      dup2\n      mstore\n      pop\n        /* \"SmartCityParking.sol\":3225:3237  parkingSpots */\n      0x03\n        /* \"SmartCityParking.sol\":3225:3242  parkingSpots[_id] */\n      0x00\n        /* \"SmartCityParking.sol\":3238:3241  _id */\n      dup5\n        /* \"SmartCityParking.sol\":3225:3242  parkingSpots[_id] */\n      dup2\n      mstore\n      0x20\n      add\n      swap1\n      dup2\n      mstore\n      0x20\n      add\n      0x00\n      keccak256\n        /* \"SmartCityParking.sol\":3225:3290  parkingSpots[_id] = ParkingSpot(_id, _location, true, address(0)) */\n      0x00\n      dup3\n      add\n      mload\n      dup2\n      0x00\n      add\n      sstore\n      0x20\n      dup3\n      add\n      mload\n      dup2\n      0x01\n      add\n      swap1\n      dup2\n      tag_72\n      swap2\n      swap1\n      tag_59\n      jump\t// in\n    tag_72:\n      pop\n      0x40\n      dup3\n      add\n      mload\n      dup2\n      0x02\n      add\n      exp(0x0100, 0x00)\n      dup2\n      sload\n      dup2\n      0xff\n      mul\n      not\n      and\n      swap1\n      dup4\n      iszero\n      iszero\n      mul\n      or\n      swap1\n      sstore\n      pop\n      0x60\n      dup3\n      add\n      mload\n      dup2\n      0x02\n      add\n      exp(0x0100, 0x01)\n      dup2\n      sload\n      dup2\n      0xffffffffffffffffffffffffffffffffffffffff\n      mul\n      not\n      and\n      swap1\n      dup4\n      0xffffffffffffffffffffffffffffffffffffffff\n      and\n      mul\n      or\n      swap1\n      sstore\n      pop\n      swap1\n      pop\n      pop\n        /* \"SmartCityParking.sol\":3435:3438  _id */\n      dup2\n        /* \"SmartCityParking.sol\":3418:3450  ParkingSpotAdded(_id, _location) */\n      0x3ece948a447a7f190b4bbf315d6e3c896b8b187f51af544e79890ac3cb07f560\n        /* \"SmartCityParking.sol\":3440:3449  _location */\n      dup3\n        /* \"SmartCityParking.sol\":3418:3450  ParkingSpotAdded(_id, _location) */\n      mload(0x40)\n      tag_73\n      swap2\n      swap1\n      tag_61\n      jump\t// in\n    tag_73:\n      mload(0x40)\n      dup1\n      swap2\n      sub\n      swap1\n      log2\n        /* \"SmartCityParking.sol\":2581:3519  function addParkingSpot(uint256 _id, string memory _location) public {... */\n      pop\n      pop\n      jump\t// out\n        /* \"SmartCityParking.sol\":752:793  mapping(address => Driver) public drivers */\n    tag_28:\n      mstore(0x20, 0x02)\n      dup1\n      0x00\n      mstore\n      keccak256(0x00, 0x40)\n      0x00\n      swap2\n      pop\n      swap1\n      pop\n      dup1\n      0x00\n      add\n      dup1\n      sload\n      tag_74\n      swap1\n      tag_75\n      jump\t// in\n    tag_74:\n      dup1\n      0x1f\n      add\n      0x20\n      dup1\n      swap2\n      div\n      mul\n      0x20\n      add\n      mload(0x40)\n      swap1\n      dup2\n      add\n      0x40\n      mstore\n      dup1\n      swap3\n      swap2\n      swap1\n      dup2\n      dup2\n      mstore\n      0x20\n      add\n      dup3\n      dup1\n      sload\n      tag_76\n      swap1\n      tag_75\n      jump\t// in\n    tag_76:\n      dup1\n      iszero\n      tag_77\n      jumpi\n      dup1\n      0x1f\n      lt\n      tag_78\n      jumpi\n      0x0100\n      dup1\n      dup4\n      sload\n      div\n      mul\n      dup4\n      mstore\n      swap2\n      0x20\n      add\n      swap2\n      jump(tag_77)\n    tag_78:\n      dup3\n      add\n      swap2\n      swap1\n      0x00\n      mstore\n      keccak256(0x00, 0x20)\n      swap1\n    tag_79:\n      dup2\n      sload\n      dup2\n      mstore\n      swap1\n      0x01\n      add\n      swap1\n      0x20\n      add\n      dup1\n      dup4\n      gt\n      tag_79\n      jumpi\n      dup3\n      swap1\n      sub\n      0x1f\n      and\n      dup3\n      add\n      swap2\n    tag_77:\n      pop\n      pop\n      pop\n      pop\n      pop\n      swap1\n      dup1\n      0x01\n      add\n      0x00\n      swap1\n      sload\n      swap1\n      0x0100\n      exp\n      swap1\n      div\n      0xff\n      and\n      swap1\n      pop\n      dup3\n      jump\t// out\n        /* \"SmartCityParking.sol\":3527:4446  function reserveSpot(uint256 _spotId) public {... */\n    tag_34:\n        /* \"SmartCityParking.sol\":3676:3683  drivers */\n      0x02\n        /* \"SmartCityParking.sol\":3676:3695  drivers[msg.sender] */\n      0x00\n        /* \"SmartCityParking.sol\":3684:3694  msg.sender */\n      caller\n        /* \"SmartCityParking.sol\":3676:3695  drivers[msg.sender] */\n      0xffffffffffffffffffffffffffffffffffffffff\n      and\n      0xffffffffffffffffffffffffffffffffffffffff\n      and\n      dup2\n      mstore\n      0x20\n      add\n      swap1\n      dup2\n      mstore\n      0x20\n      add\n      0x00\n      keccak256\n        /* \"SmartCityParking.sol\":3676:3708  drivers[msg.sender].isRegistered */\n      0x01\n      add\n      0x00\n      swap1\n      sload\n      swap1\n      0x0100\n      exp\n      swap1\n      div\n      0xff\n      and\n        /* \"SmartCityParking.sol\":3668:3727  require(drivers[msg.sender].isRegistered, \"Register first\") */\n      tag_81\n      jumpi\n      mload(0x40)\n      0x08c379a000000000000000000000000000000000000000000000000000000000\n      dup2\n      mstore\n      0x04\n      add\n      tag_82\n      swap1\n      tag_83\n      jump\t// in\n    tag_82:\n      mload(0x40)\n      dup1\n      swap2\n      sub\n      swap1\n      revert\n    tag_81:\n        /* \"SmartCityParking.sol\":3863:3864  0 */\n      0x00\n        /* \"SmartCityParking.sol\":3835:3847  parkingSpots */\n      0x03\n        /* \"SmartCityParking.sol\":3835:3856  parkingSpots[_spotId] */\n      0x00\n        /* \"SmartCityParking.sol\":3848:3855  _spotId */\n      dup4\n        /* \"SmartCityParking.sol\":3835:3856  parkingSpots[_spotId] */\n      dup2\n      mstore\n      0x20\n      add\n      swap1\n      dup2\n      mstore\n      0x20\n      add\n      0x00\n      keccak256\n        /* \"SmartCityParking.sol\":3835:3859  parkingSpots[_spotId].id */\n      0x00\n      add\n      sload\n        /* \"SmartCityParking.sol\":3835:3864  parkingSpots[_spotId].id != 0 */\n      sub\n        /* \"SmartCityParking.sol\":3827:3883  require(parkingSpots[_spotId].id != 0, \"Spot not found\") */\n      tag_84\n      jumpi\n      mload(0x40)\n      0x08c379a000000000000000000000000000000000000000000000000000000000\n      dup2\n      mstore\n      0x04\n      add\n      tag_85\n      swap1\n      tag_86\n      jump\t// in\n    tag_85:\n      mload(0x40)\n      dup1\n      swap2\n      sub\n      swap1\n      revert\n    tag_84:\n        /* \"SmartCityParking.sol\":4003:4015  parkingSpots */\n      0x03\n        /* \"SmartCityParking.sol\":4003:4024  parkingSpots[_spotId] */\n      0x00\n        /* \"SmartCityParking.sol\":4016:4023  _spotId */\n      dup3\n        /* \"SmartCityParking.sol\":4003:4024  parkingSpots[_spotId] */\n      dup2\n      mstore\n      0x20\n      add\n      swap1\n      dup2\n      mstore\n      0x20\n      add\n      0x00\n      keccak256\n        /* \"SmartCityParking.sol\":4003:4036  parkingSpots[_spotId].isAvailable */\n      0x02\n      add\n      0x00\n      swap1\n      sload\n      swap1\n      0x0100\n      exp\n      swap1\n      div\n      0xff\n      and\n        /* \"SmartCityParking.sol\":3995:4051  require(parkingSpots[_spotId].isAvailable, \"Spot taken\") */\n      tag_87\n      jumpi\n      mload(0x40)\n      0x08c379a000000000000000000000000000000000000000000000000000000000\n      dup2\n      mstore\n      0x04\n      add\n      tag_88\n      swap1\n      tag_89\n      jump\t// in\n    tag_88:\n      mload(0x40)\n      dup1\n      swap2\n      sub\n      swap1\n      revert\n    tag_87:\n        /* \"SmartCityParking.sol\":4180:4185  false */\n      0x00\n        /* \"SmartCityParking.sol\":4144:4156  parkingSpots */\n      0x03\n        /* \"SmartCityParking.sol\":4144:4165  parkingSpots[_spotId] */\n      0x00\n        /* \"SmartCityParking.sol\":4157:4164  _spotId */\n      dup4\n        /* \"SmartCityParking.sol\":4144:4165  parkingSpots[_spotId] */\n      dup2\n      mstore\n      0x20\n      add\n      swap1\n      dup2\n      mstore\n      0x20\n      add\n      0x00\n      keccak256\n        /* \"SmartCityParking.sol\":4144:4177  parkingSpots[_spotId].isAvailable */\n      0x02\n      add\n      0x00\n        /* \"SmartCityParking.sol\":4144:4185  parkingSpots[_spotId].isAvailable = false */\n      0x0100\n      exp\n      dup2\n      sload\n      dup2\n      0xff\n      mul\n      not\n      and\n      swap1\n      dup4\n      iszero\n      iszero\n      mul\n      or\n      swap1\n      sstore\n      pop\n        /* \"SmartCityParking.sol\":4262:4272  msg.sender */\n      caller\n        /* \"SmartCityParking.sol\":4229:4241  parkingSpots */\n      0x03\n        /* \"SmartCityParking.sol\":4229:4250  parkingSpots[_spotId] */\n      0x00\n        /* \"SmartCityParking.sol\":4242:4249  _spotId */\n      dup4\n        /* \"SmartCityParking.sol\":4229:4250  parkingSpots[_spotId] */\n      dup2\n      mstore\n      0x20\n      add\n      swap1\n      dup2\n      mstore\n      0x20\n      add\n      0x00\n      keccak256\n        /* \"SmartCityParking.sol\":4229:4259  parkingSpots[_spotId].occupant */\n      0x02\n      add\n      0x01\n        /* \"SmartCityParking.sol\":4229:4272  parkingSpots[_spotId].occupant = msg.sender */\n      0x0100\n      exp\n      dup2\n      sload\n      dup2\n      0xffffffffffffffffffffffffffffffffffffffff\n      mul\n      not\n      and\n      swap1\n      dup4\n      0xffffffffffffffffffffffffffffffffffffffff\n      and\n      mul\n      or\n      swap1\n      sstore\n      pop\n        /* \"SmartCityParking.sol\":4360:4367  _spotId */\n      dup1\n        /* \"SmartCityParking.sol\":4348:4358  msg.sender */\n      caller\n        /* \"SmartCityParking.sol\":4335:4368  SpotReserved(msg.sender, _spotId) */\n      0xffffffffffffffffffffffffffffffffffffffff\n      and\n      0xf188b1697a1957c8cf926acf3bd65c4bbfa00e37d369a477738e28c39aee097d\n      mload(0x40)\n      mload(0x40)\n      dup1\n      swap2\n      sub\n      swap1\n      log3\n        /* \"SmartCityParking.sol\":3527:4446  function reserveSpot(uint256 _spotId) public {... */\n      pop\n      jump\t// out\n        /* \"SmartCityParking.sol\":5613:6592  function payForParking(uint256 _spotId, uint256 _amount) public {... */\n    tag_38:\n        /* \"SmartCityParking.sol\":5807:5808  0 */\n      0x00\n        /* \"SmartCityParking.sol\":5779:5791  parkingSpots */\n      0x03\n        /* \"SmartCityParking.sol\":5779:5800  parkingSpots[_spotId] */\n      0x00\n        /* \"SmartCityParking.sol\":5792:5799  _spotId */\n      dup5\n        /* \"SmartCityParking.sol\":5779:5800  parkingSpots[_spotId] */\n      dup2\n      mstore\n      0x20\n      add\n      swap1\n      dup2\n      mstore\n      0x20\n      add\n      0x00\n      keccak256\n        /* \"SmartCityParking.sol\":5779:5803  parkingSpots[_spotId].id */\n      0x00\n      add\n      sload\n        /* \"SmartCityParking.sol\":5779:5808  parkingSpots[_spotId].id != 0 */\n      sub\n        /* \"SmartCityParking.sol\":5771:5827  require(parkingSpots[_spotId].id != 0, \"Spot not found\") */\n      tag_91\n      jumpi\n      mload(0x40)\n      0x08c379a000000000000000000000000000000000000000000000000000000000\n      dup2\n      mstore\n      0x04\n      add\n      tag_92\n      swap1\n      tag_86\n      jump\t// in\n    tag_92:\n      mload(0x40)\n      dup1\n      swap2\n      sub\n      swap1\n      revert\n    tag_91:\n        /* \"SmartCityParking.sol\":5981:5991  msg.sender */\n      caller\n        /* \"SmartCityParking.sol\":5947:5991  parkingSpots[_spotId].occupant == msg.sender */\n      0xffffffffffffffffffffffffffffffffffffffff\n      and\n        /* \"SmartCityParking.sol\":5947:5959  parkingSpots */\n      0x03\n        /* \"SmartCityParking.sol\":5947:5968  parkingSpots[_spotId] */\n      0x00\n        /* \"SmartCityParking.sol\":5960:5967  _spotId */\n      dup5\n        /* \"SmartCityParking.sol\":5947:5968  parkingSpots[_spotId] */\n      dup2\n      mstore\n      0x20\n      add\n      swap1\n      dup2\n      mstore\n      0x20\n      add\n      0x00\n      keccak256\n        /* \"SmartCityParking.sol\":5947:5977  parkingSpots[_spotId].occupant */\n      0x02\n      add\n      0x01\n      swap1\n      sload\n      swap1\n      0x0100\n      exp\n      swap1\n      div\n      0xffffffffffffffffffffffffffffffffffffffff\n      and\n        /* \"SmartCityParking.sol\":5947:5991  parkingSpots[_spotId].occupant == msg.sender */\n      0xffffffffffffffffffffffffffffffffffffffff\n      and\n      eq\n        /* \"SmartCityParking.sol\":5939:6009  require(parkingSpots[_spotId].occupant == msg.sender, \"Not your spot\") */\n      tag_93\n      jumpi\n      mload(0x40)\n      0x08c379a000000000000000000000000000000000000000000000000000000000\n      dup2\n      mstore\n      0x04\n      add\n      tag_94\n      swap1\n      tag_95\n      jump\t// in\n    tag_94:\n      mload(0x40)\n      dup1\n      swap2\n      sub\n      swap1\n      revert\n    tag_93:\n        /* \"SmartCityParking.sol\":6136:6137  0 */\n      0x00\n        /* \"SmartCityParking.sol\":6126:6133  _amount */\n      dup2\n        /* \"SmartCityParking.sol\":6126:6137  _amount > 0 */\n      gt\n        /* \"SmartCityParking.sol\":6118:6157  require(_amount > 0, \"Amount required\") */\n      tag_96\n      jumpi\n      mload(0x40)\n      0x08c379a000000000000000000000000000000000000000000000000000000000\n      dup2\n      mstore\n      0x04\n      add\n      tag_97\n      swap1\n      tag_98\n      jump\t// in\n    tag_97:\n      mload(0x40)\n      dup1\n      swap2\n      sub\n      swap1\n      revert\n    tag_96:\n        /* \"SmartCityParking.sol\":6273:6285  parkingToken */\n      0x01\n      0x00\n      swap1\n      sload\n      swap1\n      0x0100\n      exp\n      swap1\n      div\n      0xffffffffffffffffffffffffffffffffffffffff\n      and\n        /* \"SmartCityParking.sol\":6273:6298  parkingToken.transferFrom */\n      0xffffffffffffffffffffffffffffffffffffffff\n      and\n      0x23b872dd\n        /* \"SmartCityParking.sol\":6299:6309  msg.sender */\n      caller\n        /* \"SmartCityParking.sol\":6311:6324  cityAuthority */\n      0x00\n      0x00\n      swap1\n      sload\n      swap1\n      0x0100\n      exp\n      swap1\n      div\n      0xffffffffffffffffffffffffffffffffffffffff\n      and\n        /* \"SmartCityParking.sol\":6326:6333  _amount */\n      dup5\n        /* \"SmartCityParking.sol\":6273:6334  parkingToken.transferFrom(msg.sender, cityAuthority, _amount) */\n      mload(0x40)\n      dup5\n      0xffffffff\n      and\n      0xe0\n      shl\n      dup2\n      mstore\n      0x04\n      add\n      tag_99\n      swap4\n      swap3\n      swap2\n      swap1\n      tag_100\n      jump\t// in\n    tag_99:\n      0x20\n      mload(0x40)\n      dup1\n      dup4\n      sub\n      dup2\n      0x00\n      dup8\n      gas\n      call\n      iszero\n      dup1\n      iszero\n      tag_102\n      jumpi\n      returndatacopy(0x00, 0x00, returndatasize)\n      revert(0x00, returndatasize)\n    tag_102:\n      pop\n      pop\n      pop\n      pop\n      mload(0x40)\n      returndatasize\n      not(0x1f)\n      0x1f\n      dup3\n      add\n      and\n      dup3\n      add\n      dup1\n      0x40\n      mstore\n      pop\n      dup2\n      add\n      swap1\n      tag_103\n      swap2\n      swap1\n      tag_104\n      jump\t// in\n    tag_103:\n      pop\n        /* \"SmartCityParking.sol\":6489:6496  _spotId */\n      dup2\n        /* \"SmartCityParking.sol\":6477:6487  msg.sender */\n      caller\n        /* \"SmartCityParking.sol\":6465:6506  PaymentMade(msg.sender, _spotId, _amount) */\n      0xffffffffffffffffffffffffffffffffffffffff\n      and\n      0xc65a4e529c0450a515882508bea7ee3485fbfdf8436e0bd13dc38dfbc859b1cb\n        /* \"SmartCityParking.sol\":6498:6505  _amount */\n      dup4\n        /* \"SmartCityParking.sol\":6465:6506  PaymentMade(msg.sender, _spotId, _amount) */\n      mload(0x40)\n      tag_105\n      swap2\n      swap1\n      tag_106\n      jump\t// in\n    tag_105:\n      mload(0x40)\n      dup1\n      swap2\n      sub\n      swap1\n      log3\n        /* \"SmartCityParking.sol\":5613:6592  function payForParking(uint256 _spotId, uint256 _amount) public {... */\n      pop\n      pop\n      jump\t// out\n        /* \"SmartCityParking.sol\":4454:5605  function releaseSpot(uint256 _spotId) public {... */\n    tag_41:\n        /* \"SmartCityParking.sol\":4638:4639  0 */\n      0x00\n        /* \"SmartCityParking.sol\":4610:4622  parkingSpots */\n      0x03\n        /* \"SmartCityParking.sol\":4610:4631  parkingSpots[_spotId] */\n      0x00\n        /* \"SmartCityParking.sol\":4623:4630  _spotId */\n      dup4\n        /* \"SmartCityParking.sol\":4610:4631  parkingSpots[_spotId] */\n      dup2\n      mstore\n      0x20\n      add\n      swap1\n      dup2\n      mstore\n      0x20\n      add\n      0x00\n      keccak256\n        /* \"SmartCityParking.sol\":4610:4634  parkingSpots[_spotId].id */\n      0x00\n      add\n      sload\n        /* \"SmartCityParking.sol\":4610:4639  parkingSpots[_spotId].id != 0 */\n      sub\n        /* \"SmartCityParking.sol\":4602:4658  require(parkingSpots[_spotId].id != 0, \"Spot not found\") */\n      tag_108\n      jumpi\n      mload(0x40)\n      0x08c379a000000000000000000000000000000000000000000000000000000000\n      dup2\n      mstore\n      0x04\n      add\n      tag_109\n      swap1\n      tag_86\n      jump\t// in\n    tag_109:\n      mload(0x40)\n      dup1\n      swap2\n      sub\n      swap1\n      revert\n    tag_108:\n        /* \"SmartCityParking.sol\":4812:4822  msg.sender */\n      caller\n        /* \"SmartCityParking.sol\":4778:4822  parkingSpots[_spotId].occupant == msg.sender */\n      0xffffffffffffffffffffffffffffffffffffffff\n      and\n        /* \"SmartCityParking.sol\":4778:4790  parkingSpots */\n      0x03\n        /* \"SmartCityParking.sol\":4778:4799  parkingSpots[_spotId] */\n      0x00\n        /* \"SmartCityParking.sol\":4791:4798  _spotId */\n      dup4\n        /* \"SmartCityParking.sol\":4778:4799  parkingSpots[_spotId] */\n      dup2\n      mstore\n      0x20\n      add\n      swap1\n      dup2\n      mstore\n      0x20\n      add\n      0x00\n      keccak256\n        /* \"SmartCityParking.sol\":4778:4808  parkingSpots[_spotId].occupant */\n      0x02\n      add\n      0x01\n      swap1\n      sload\n      swap1\n      0x0100\n      exp\n      swap1\n      div\n      0xffffffffffffffffffffffffffffffffffffffff\n      and\n        /* \"SmartCityParking.sol\":4778:4822  parkingSpots[_spotId].occupant == msg.sender */\n      0xffffffffffffffffffffffffffffffffffffffff\n      and\n      eq\n        /* \"SmartCityParking.sol\":4770:4840  require(parkingSpots[_spotId].occupant == msg.sender, \"Not your spot\") */\n      tag_110\n      jumpi\n      mload(0x40)\n      0x08c379a000000000000000000000000000000000000000000000000000000000\n      dup2\n      mstore\n      0x04\n      add\n      tag_111\n      swap1\n      tag_95\n      jump\t// in\n    tag_111:\n      mload(0x40)\n      dup1\n      swap2\n      sub\n      swap1\n      revert\n    tag_110:\n        /* \"SmartCityParking.sol\":4985:4989  true */\n      0x01\n        /* \"SmartCityParking.sol\":4949:4961  parkingSpots */\n      0x03\n        /* \"SmartCityParking.sol\":4949:4970  parkingSpots[_spotId] */\n      0x00\n        /* \"SmartCityParking.sol\":4962:4969  _spotId */\n      dup4\n        /* \"SmartCityParking.sol\":4949:4970  parkingSpots[_spotId] */\n      dup2\n      mstore\n      0x20\n      add\n      swap1\n      dup2\n      mstore\n      0x20\n      add\n      0x00\n      keccak256\n        /* \"SmartCityParking.sol\":4949:4982  parkingSpots[_spotId].isAvailable */\n      0x02\n      add\n      0x00\n        /* \"SmartCityParking.sol\":4949:4989  parkingSpots[_spotId].isAvailable = true */\n      0x0100\n      exp\n      dup2\n      sload\n      dup2\n      0xff\n      mul\n      not\n      and\n      swap1\n      dup4\n      iszero\n      iszero\n      mul\n      or\n      swap1\n      sstore\n      pop\n        /* \"SmartCityParking.sol\":5072:5073  0 */\n      0x00\n        /* \"SmartCityParking.sol\":5031:5043  parkingSpots */\n      0x03\n        /* \"SmartCityParking.sol\":5031:5052  parkingSpots[_spotId] */\n      0x00\n        /* \"SmartCityParking.sol\":5044:5051  _spotId */\n      dup4\n        /* \"SmartCityParking.sol\":5031:5052  parkingSpots[_spotId] */\n      dup2\n      mstore\n      0x20\n      add\n      swap1\n      dup2\n      mstore\n      0x20\n      add\n      0x00\n      keccak256\n        /* \"SmartCityParking.sol\":5031:5061  parkingSpots[_spotId].occupant */\n      0x02\n      add\n      0x01\n        /* \"SmartCityParking.sol\":5031:5074  parkingSpots[_spotId].occupant = address(0) */\n      0x0100\n      exp\n      dup2\n      sload\n      dup2\n      0xffffffffffffffffffffffffffffffffffffffff\n      mul\n      not\n      and\n      swap1\n      dup4\n      0xffffffffffffffffffffffffffffffffffffffff\n      and\n      mul\n      or\n      swap1\n      sstore\n      pop\n        /* \"SmartCityParking.sol\":5108:5128  uint256 rewardAmount */\n      0x00\n        /* \"SmartCityParking.sol\":5131:5144  10 * 10 ** 18 */\n      0x8ac7230489e80000\n        /* \"SmartCityParking.sol\":5108:5144  uint256 rewardAmount = 10 * 10 ** 18 */\n      swap1\n      pop\n        /* \"SmartCityParking.sol\":5219:5231  parkingToken */\n      0x01\n      0x00\n      swap1\n      sload\n      swap1\n      0x0100\n      exp\n      swap1\n      div\n      0xffffffffffffffffffffffffffffffffffffffff\n      and\n        /* \"SmartCityParking.sol\":5219:5238  parkingToken.reward */\n      0xffffffffffffffffffffffffffffffffffffffff\n      and\n      0x21670f22\n        /* \"SmartCityParking.sol\":5239:5249  msg.sender */\n      caller\n        /* \"SmartCityParking.sol\":5251:5263  rewardAmount */\n      dup4\n        /* \"SmartCityParking.sol\":5219:5264  parkingToken.reward(msg.sender, rewardAmount) */\n      mload(0x40)\n      dup4\n      0xffffffff\n      and\n      0xe0\n      shl\n      dup2\n      mstore\n      0x04\n      add\n      tag_112\n      swap3\n      swap2\n      swap1\n      tag_113\n      jump\t// in\n    tag_112:\n      0x00\n      mload(0x40)\n      dup1\n      dup4\n      sub\n      dup2\n      0x00\n      dup8\n      dup1\n      extcodesize\n      iszero\n      dup1\n      iszero\n      tag_114\n      jumpi\n      revert(0x00, 0x00)\n    tag_114:\n      pop\n      gas\n      call\n      iszero\n      dup1\n      iszero\n      tag_116\n      jumpi\n      returndatacopy(0x00, 0x00, returndatasize)\n      revert(0x00, returndatasize)\n    tag_116:\n      pop\n      pop\n      pop\n      pop\n        /* \"SmartCityParking.sol\":5389:5396  _spotId */\n      dup2\n        /* \"SmartCityParking.sol\":5377:5387  msg.sender */\n      caller\n        /* \"SmartCityParking.sol\":5364:5397  SpotReleased(msg.sender, _spotId) */\n      0xffffffffffffffffffffffffffffffffffffffff\n      and\n      0xf2a04a20d3fa0a38ceccc0513ca932967ad7ab073b1547f867f0cac2380f3ddc\n      mload(0x40)\n      mload(0x40)\n      dup1\n      swap2\n      sub\n      swap1\n      log3\n        /* \"SmartCityParking.sol\":5496:5506  msg.sender */\n      caller\n        /* \"SmartCityParking.sol\":5483:5521  RewardIssued(msg.sender, rewardAmount) */\n      0xffffffffffffffffffffffffffffffffffffffff\n      and\n      0xf9b6ec770c96c3a6f9225bf3a8463a8ad03e884448af07b4ecd4d19d628946ee\n        /* \"SmartCityParking.sol\":5508:5520  rewardAmount */\n      dup3\n        /* \"SmartCityParking.sol\":5483:5521  RewardIssued(msg.sender, rewardAmount) */\n      mload(0x40)\n      tag_117\n      swap2\n      swap1\n      tag_106\n      jump\t// in\n    tag_117:\n      mload(0x40)\n      dup1\n      swap2\n      sub\n      swap1\n      log2\n        /* \"SmartCityParking.sol\":4499:5605  {... */\n      pop\n        /* \"SmartCityParking.sol\":4454:5605  function releaseSpot(uint256 _spotId) public {... */\n      pop\n      jump\t// out\n        /* \"SmartCityParking.sol\":190:218  address public cityAuthority */\n    tag_43:\n      0x00\n      0x00\n      swap1\n      sload\n      swap1\n      0x0100\n      exp\n      swap1\n      div\n      0xffffffffffffffffffffffffffffffffffffffff\n      and\n      dup2\n      jump\t// out\n        /* \"SmartCityParking.sol\":836:887  mapping(uint256 => ParkingSpot) public parkingSpots */\n    tag_48:\n      mstore(0x20, 0x03)\n      dup1\n      0x00\n      mstore\n      keccak256(0x00, 0x40)\n      0x00\n      swap2\n      pop\n      swap1\n      pop\n      dup1\n      0x00\n      add\n      sload\n      swap1\n      dup1\n      0x01\n      add\n      dup1\n      sload\n      tag_118\n      swap1\n      tag_75\n      jump\t// in\n    tag_118:\n      dup1\n      0x1f\n      add\n      0x20\n      dup1\n      swap2\n      div\n      mul\n      0x20\n      add\n      mload(0x40)\n      swap1\n      dup2\n      add\n      0x40\n      mstore\n      dup1\n      swap3\n      swap2\n      swap1\n      dup2\n      dup2\n      mstore\n      0x20\n      add\n      dup3\n      dup1\n      sload\n      tag_119\n      swap1\n      tag_75\n      jump\t// in\n    tag_119:\n      dup1\n      iszero\n      tag_120\n      jumpi\n      dup1\n      0x1f\n      lt\n      tag_121\n      jumpi\n      0x0100\n      dup1\n      dup4\n      sload\n      div\n      mul\n      dup4\n      mstore\n      swap2\n      0x20\n      add\n      swap2\n      jump(tag_120)\n    tag_121:\n      dup3\n      add\n      swap2\n      swap1\n      0x00\n      mstore\n      keccak256(0x00, 0x20)\n      swap1\n    tag_122:\n      dup2\n      sload\n      dup2\n      mstore\n      swap1\n      0x01\n      add\n      swap1\n      0x20\n      add\n      dup1\n      dup4\n      gt\n      tag_122\n      jumpi\n      dup3\n      swap1\n      sub\n      0x1f\n      and\n      dup3\n      add\n      swap2\n    tag_120:\n      pop\n      pop\n      pop\n      pop\n      pop\n      swap1\n      dup1\n      0x02\n      add\n      0x00\n      swap1\n      sload\n      swap1\n      0x0100\n      exp\n      swap1\n      div\n      0xff\n      and\n      swap1\n      dup1\n      0x02\n      add\n      0x01\n      swap1\n      sload\n      swap1\n      0x0100\n      exp\n      swap1\n      div\n      0xffffffffffffffffffffffffffffffffffffffff\n      and\n      swap1\n      pop\n      dup5\n      jump\t// out\n        /* \"#utility.yul\":7:82   */\n    tag_123:\n        /* \"#utility.yul\":40:46   */\n      0x00\n        /* \"#utility.yul\":73:75   */\n      0x40\n        /* \"#utility.yul\":67:76   */\n      mload\n        /* \"#utility.yul\":57:76   */\n      swap1\n      pop\n        /* \"#utility.yul\":7:82   */\n      swap1\n      jump\t// out\n        /* \"#utility.yul\":88:205   */\n    tag_124:\n        /* \"#utility.yul\":197:198   */\n      0x00\n        /* \"#utility.yul\":194:195   */\n      0x00\n        /* \"#utility.yul\":187:199   */\n      revert\n        /* \"#utility.yul\":211:328   */\n    tag_125:\n        /* \"#utility.yul\":320:321   */\n      0x00\n        /* \"#utility.yul\":317:318   */\n      0x00\n        /* \"#utility.yul\":310:322   */\n      revert\n        /* \"#utility.yul\":334:451   */\n    tag_126:\n        /* \"#utility.yul\":443:444   */\n      0x00\n        /* \"#utility.yul\":440:441   */\n      0x00\n        /* \"#utility.yul\":433:445   */\n      revert\n        /* \"#utility.yul\":457:574   */\n    tag_127:\n        /* \"#utility.yul\":566:567   */\n      0x00\n        /* \"#utility.yul\":563:564   */\n      0x00\n        /* \"#utility.yul\":556:568   */\n      revert\n        /* \"#utility.yul\":580:682   */\n    tag_128:\n        /* \"#utility.yul\":621:627   */\n      0x00\n        /* \"#utility.yul\":672:674   */\n      0x1f\n        /* \"#utility.yul\":668:675   */\n      not\n        /* \"#utility.yul\":663:665   */\n      0x1f\n        /* \"#utility.yul\":656:661   */\n      dup4\n        /* \"#utility.yul\":652:666   */\n      add\n        /* \"#utility.yul\":648:676   */\n      and\n        /* \"#utility.yul\":638:676   */\n      swap1\n      pop\n        /* \"#utility.yul\":580:682   */\n      swap2\n      swap1\n      pop\n      jump\t// out\n        /* \"#utility.yul\":688:868   */\n    tag_129:\n        /* \"#utility.yul\":736:813   */\n      0x4e487b7100000000000000000000000000000000000000000000000000000000\n        /* \"#utility.yul\":733:734   */\n      0x00\n        /* \"#utility.yul\":726:814   */\n      mstore\n        /* \"#utility.yul\":833:837   */\n      0x41\n        /* \"#utility.yul\":830:831   */\n      0x04\n        /* \"#utility.yul\":823:838   */\n      mstore\n        /* \"#utility.yul\":857:861   */\n      0x24\n        /* \"#utility.yul\":854:855   */\n      0x00\n        /* \"#utility.yul\":847:862   */\n      revert\n        /* \"#utility.yul\":874:1155   */\n    tag_130:\n        /* \"#utility.yul\":957:984   */\n      tag_202\n        /* \"#utility.yul\":979:983   */\n      dup3\n        /* \"#utility.yul\":957:984   */\n      tag_128\n      jump\t// in\n    tag_202:\n        /* \"#utility.yul\":949:955   */\n      dup2\n        /* \"#utility.yul\":945:985   */\n      add\n        /* \"#utility.yul\":1087:1093   */\n      dup2\n        /* \"#utility.yul\":1075:1085   */\n      dup2\n        /* \"#utility.yul\":1072:1094   */\n      lt\n        /* \"#utility.yul\":1051:1069   */\n      0xffffffffffffffff\n        /* \"#utility.yul\":1039:1049   */\n      dup3\n        /* \"#utility.yul\":1036:1070   */\n      gt\n        /* \"#utility.yul\":1033:1095   */\n      or\n        /* \"#utility.yul\":1030:1118   */\n      iszero\n      tag_203\n      jumpi\n        /* \"#utility.yul\":1098:1116   */\n      tag_204\n      tag_129\n      jump\t// in\n    tag_204:\n        /* \"#utility.yul\":1030:1118   */\n    tag_203:\n        /* \"#utility.yul\":1138:1148   */\n      dup1\n        /* \"#utility.yul\":1134:1136   */\n      0x40\n        /* \"#utility.yul\":1127:1149   */\n      mstore\n        /* \"#utility.yul\":917:1155   */\n      pop\n        /* \"#utility.yul\":874:1155   */\n      pop\n      pop\n      jump\t// out\n        /* \"#utility.yul\":1161:1290   */\n    tag_131:\n        /* \"#utility.yul\":1195:1201   */\n      0x00\n        /* \"#utility.yul\":1222:1242   */\n      tag_206\n      tag_123\n      jump\t// in\n    tag_206:\n        /* \"#utility.yul\":1212:1242   */\n      swap1\n      pop\n        /* \"#utility.yul\":1251:1284   */\n      tag_207\n        /* \"#utility.yul\":1279:1283   */\n      dup3\n        /* \"#utility.yul\":1271:1277   */\n      dup3\n        /* \"#utility.yul\":1251:1284   */\n      tag_130\n      jump\t// in\n    tag_207:\n        /* \"#utility.yul\":1161:1290   */\n      swap2\n      swap1\n      pop\n      jump\t// out\n        /* \"#utility.yul\":1296:1604   */\n    tag_132:\n        /* \"#utility.yul\":1358:1362   */\n      0x00\n        /* \"#utility.yul\":1448:1466   */\n      0xffffffffffffffff\n        /* \"#utility.yul\":1440:1446   */\n      dup3\n        /* \"#utility.yul\":1437:1467   */\n      gt\n        /* \"#utility.yul\":1434:1490   */\n      iszero\n      tag_209\n      jumpi\n        /* \"#utility.yul\":1470:1488   */\n      tag_210\n      tag_129\n      jump\t// in\n    tag_210:\n        /* \"#utility.yul\":1434:1490   */\n    tag_209:\n        /* \"#utility.yul\":1508:1537   */\n      tag_211\n        /* \"#utility.yul\":1530:1536   */\n      dup3\n        /* \"#utility.yul\":1508:1537   */\n      tag_128\n      jump\t// in\n    tag_211:\n        /* \"#utility.yul\":1500:1537   */\n      swap1\n      pop\n        /* \"#utility.yul\":1592:1596   */\n      0x20\n        /* \"#utility.yul\":1586:1590   */\n      dup2\n        /* \"#utility.yul\":1582:1597   */\n      add\n        /* \"#utility.yul\":1574:1597   */\n      swap1\n      pop\n        /* \"#utility.yul\":1296:1604   */\n      swap2\n      swap1\n      pop\n      jump\t// out\n        /* \"#utility.yul\":1610:1758   */\n    tag_133:\n        /* \"#utility.yul\":1708:1714   */\n      dup3\n        /* \"#utility.yul\":1703:1706   */\n      dup2\n        /* \"#utility.yul\":1698:1701   */\n      dup4\n        /* \"#utility.yul\":1685:1715   */\n      calldatacopy\n        /* \"#utility.yul\":1749:1750   */\n      0x00\n        /* \"#utility.yul\":1740:1746   */\n      dup4\n        /* \"#utility.yul\":1735:1738   */\n      dup4\n        /* \"#utility.yul\":1731:1747   */\n      add\n        /* \"#utility.yul\":1724:1751   */\n      mstore\n        /* \"#utility.yul\":1610:1758   */\n      pop\n      pop\n      pop\n      jump\t// out\n        /* \"#utility.yul\":1764:2189   */\n    tag_134:\n        /* \"#utility.yul\":1842:1847   */\n      0x00\n        /* \"#utility.yul\":1867:1933   */\n      tag_214\n        /* \"#utility.yul\":1883:1932   */\n      tag_215\n        /* \"#utility.yul\":1925:1931   */\n      dup5\n        /* \"#utility.yul\":1883:1932   */\n      tag_132\n      jump\t// in\n    tag_215:\n        /* \"#utility.yul\":1867:1933   */\n      tag_131\n      jump\t// in\n    tag_214:\n        /* \"#utility.yul\":1858:1933   */\n      swap1\n      pop\n        /* \"#utility.yul\":1956:1962   */\n      dup3\n        /* \"#utility.yul\":1949:1954   */\n      dup2\n        /* \"#utility.yul\":1942:1963   */\n      mstore\n        /* \"#utility.yul\":1994:1998   */\n      0x20\n        /* \"#utility.yul\":1987:1992   */\n      dup2\n        /* \"#utility.yul\":1983:1999   */\n      add\n        /* \"#utility.yul\":2032:2035   */\n      dup5\n        /* \"#utility.yul\":2023:2029   */\n      dup5\n        /* \"#utility.yul\":2018:2021   */\n      dup5\n        /* \"#utility.yul\":2014:2030   */\n      add\n        /* \"#utility.yul\":2011:2036   */\n      gt\n        /* \"#utility.yul\":2008:2120   */\n      iszero\n      tag_216\n      jumpi\n        /* \"#utility.yul\":2039:2118   */\n      tag_217\n      tag_127\n      jump\t// in\n    tag_217:\n        /* \"#utility.yul\":2008:2120   */\n    tag_216:\n        /* \"#utility.yul\":2129:2183   */\n      tag_218\n        /* \"#utility.yul\":2176:2182   */\n      dup5\n        /* \"#utility.yul\":2171:2174   */\n      dup3\n        /* \"#utility.yul\":2166:2169   */\n      dup6\n        /* \"#utility.yul\":2129:2183   */\n      tag_133\n      jump\t// in\n    tag_218:\n        /* \"#utility.yul\":1848:2189   */\n      pop\n        /* \"#utility.yul\":1764:2189   */\n      swap4\n      swap3\n      pop\n      pop\n      pop\n      jump\t// out\n        /* \"#utility.yul\":2209:2549   */\n    tag_135:\n        /* \"#utility.yul\":2265:2270   */\n      0x00\n        /* \"#utility.yul\":2314:2317   */\n      dup3\n        /* \"#utility.yul\":2307:2311   */\n      0x1f\n        /* \"#utility.yul\":2299:2305   */\n      dup4\n        /* \"#utility.yul\":2295:2312   */\n      add\n        /* \"#utility.yul\":2291:2318   */\n      slt\n        /* \"#utility.yul\":2281:2403   */\n      tag_220\n      jumpi\n        /* \"#utility.yul\":2322:2401   */\n      tag_221\n      tag_126\n      jump\t// in\n    tag_221:\n        /* \"#utility.yul\":2281:2403   */\n    tag_220:\n        /* \"#utility.yul\":2439:2445   */\n      dup2\n        /* \"#utility.yul\":2426:2446   */\n      calldataload\n        /* \"#utility.yul\":2464:2543   */\n      tag_222\n        /* \"#utility.yul\":2539:2542   */\n      dup5\n        /* \"#utility.yul\":2531:2537   */\n      dup3\n        /* \"#utility.yul\":2524:2528   */\n      0x20\n        /* \"#utility.yul\":2516:2522   */\n      dup7\n        /* \"#utility.yul\":2512:2529   */\n      add\n        /* \"#utility.yul\":2464:2543   */\n      tag_134\n      jump\t// in\n    tag_222:\n        /* \"#utility.yul\":2455:2543   */\n      swap2\n      pop\n        /* \"#utility.yul\":2271:2549   */\n      pop\n        /* \"#utility.yul\":2209:2549   */\n      swap3\n      swap2\n      pop\n      pop\n      jump\t// out\n        /* \"#utility.yul\":2555:3064   */\n    tag_15:\n        /* \"#utility.yul\":2624:2630   */\n      0x00\n        /* \"#utility.yul\":2673:2675   */\n      0x20\n        /* \"#utility.yul\":2661:2670   */\n      dup3\n        /* \"#utility.yul\":2652:2659   */\n      dup5\n        /* \"#utility.yul\":2648:2671   */\n      sub\n        /* \"#utility.yul\":2644:2676   */\n      slt\n        /* \"#utility.yul\":2641:2760   */\n      iszero\n      tag_224\n      jumpi\n        /* \"#utility.yul\":2679:2758   */\n      tag_225\n      tag_124\n      jump\t// in\n    tag_225:\n        /* \"#utility.yul\":2641:2760   */\n    tag_224:\n        /* \"#utility.yul\":2827:2828   */\n      0x00\n        /* \"#utility.yul\":2816:2825   */\n      dup3\n        /* \"#utility.yul\":2812:2829   */\n      add\n        /* \"#utility.yul\":2799:2830   */\n      calldataload\n        /* \"#utility.yul\":2857:2875   */\n      0xffffffffffffffff\n        /* \"#utility.yul\":2849:2855   */\n      dup2\n        /* \"#utility.yul\":2846:2876   */\n      gt\n        /* \"#utility.yul\":2843:2960   */\n      iszero\n      tag_226\n      jumpi\n        /* \"#utility.yul\":2879:2958   */\n      tag_227\n      tag_125\n      jump\t// in\n    tag_227:\n        /* \"#utility.yul\":2843:2960   */\n    tag_226:\n        /* \"#utility.yul\":2984:3047   */\n      tag_228\n        /* \"#utility.yul\":3039:3046   */\n      dup5\n        /* \"#utility.yul\":3030:3036   */\n      dup3\n        /* \"#utility.yul\":3019:3028   */\n      dup6\n        /* \"#utility.yul\":3015:3037   */\n      add\n        /* \"#utility.yul\":2984:3047   */\n      tag_135\n      jump\t// in\n    tag_228:\n        /* \"#utility.yul\":2974:3047   */\n      swap2\n      pop\n        /* \"#utility.yul\":2770:3057   */\n      pop\n        /* \"#utility.yul\":2555:3064   */\n      swap3\n      swap2\n      pop\n      pop\n      jump\t// out\n        /* \"#utility.yul\":3070:3196   */\n    tag_136:\n        /* \"#utility.yul\":3107:3114   */\n      0x00\n        /* \"#utility.yul\":3147:3189   */\n      0xffffffffffffffffffffffffffffffffffffffff\n        /* \"#utility.yul\":3140:3145   */\n      dup3\n        /* \"#utility.yul\":3136:3190   */\n      and\n        /* \"#utility.yul\":3125:3190   */\n      swap1\n      pop\n        /* \"#utility.yul\":3070:3196   */\n      swap2\n      swap1\n      pop\n      jump\t// out\n        /* \"#utility.yul\":3202:3262   */\n    tag_137:\n        /* \"#utility.yul\":3230:3233   */\n      0x00\n        /* \"#utility.yul\":3251:3256   */\n      dup2\n        /* \"#utility.yul\":3244:3256   */\n      swap1\n      pop\n        /* \"#utility.yul\":3202:3262   */\n      swap2\n      swap1\n      pop\n      jump\t// out\n        /* \"#utility.yul\":3268:3410   */\n    tag_138:\n        /* \"#utility.yul\":3318:3327   */\n      0x00\n        /* \"#utility.yul\":3351:3404   */\n      tag_232\n        /* \"#utility.yul\":3369:3403   */\n      tag_233\n        /* \"#utility.yul\":3378:3402   */\n      tag_234\n        /* \"#utility.yul\":3396:3401   */\n      dup5\n        /* \"#utility.yul\":3378:3402   */\n      tag_136\n      jump\t// in\n    tag_234:\n        /* \"#utility.yul\":3369:3403   */\n      tag_137\n      jump\t// in\n    tag_233:\n        /* \"#utility.yul\":3351:3404   */\n      tag_136\n      jump\t// in\n    tag_232:\n        /* \"#utility.yul\":3338:3404   */\n      swap1\n      pop\n        /* \"#utility.yul\":3268:3410   */\n      swap2\n      swap1\n      pop\n      jump\t// out\n        /* \"#utility.yul\":3416:3542   */\n    tag_139:\n        /* \"#utility.yul\":3466:3475   */\n      0x00\n        /* \"#utility.yul\":3499:3536   */\n      tag_236\n        /* \"#utility.yul\":3530:3535   */\n      dup3\n        /* \"#utility.yul\":3499:3536   */\n      tag_138\n      jump\t// in\n    tag_236:\n        /* \"#utility.yul\":3486:3536   */\n      swap1\n      pop\n        /* \"#utility.yul\":3416:3542   */\n      swap2\n      swap1\n      pop\n      jump\t// out\n        /* \"#utility.yul\":3548:3698   */\n    tag_140:\n        /* \"#utility.yul\":3622:3631   */\n      0x00\n        /* \"#utility.yul\":3655:3692   */\n      tag_238\n        /* \"#utility.yul\":3686:3691   */\n      dup3\n        /* \"#utility.yul\":3655:3692   */\n      tag_139\n      jump\t// in\n    tag_238:\n        /* \"#utility.yul\":3642:3692   */\n      swap1\n      pop\n        /* \"#utility.yul\":3548:3698   */\n      swap2\n      swap1\n      pop\n      jump\t// out\n        /* \"#utility.yul\":3704:3883   */\n    tag_141:\n        /* \"#utility.yul\":3815:3876   */\n      tag_240\n        /* \"#utility.yul\":3870:3875   */\n      dup2\n        /* \"#utility.yul\":3815:3876   */\n      tag_140\n      jump\t// in\n    tag_240:\n        /* \"#utility.yul\":3810:3813   */\n      dup3\n        /* \"#utility.yul\":3803:3877   */\n      mstore\n        /* \"#utility.yul\":3704:3883   */\n      pop\n      pop\n      jump\t// out\n        /* \"#utility.yul\":3889:4159   */\n    tag_20:\n        /* \"#utility.yul\":4006:4010   */\n      0x00\n        /* \"#utility.yul\":4044:4046   */\n      0x20\n        /* \"#utility.yul\":4033:4042   */\n      dup3\n        /* \"#utility.yul\":4029:4047   */\n      add\n        /* \"#utility.yul\":4021:4047   */\n      swap1\n      pop\n        /* \"#utility.yul\":4057:4152   */\n      tag_242\n        /* \"#utility.yul\":4149:4150   */\n      0x00\n        /* \"#utility.yul\":4138:4147   */\n      dup4\n        /* \"#utility.yul\":4134:4151   */\n      add\n        /* \"#utility.yul\":4125:4131   */\n      dup5\n        /* \"#utility.yul\":4057:4152   */\n      tag_141\n      jump\t// in\n    tag_242:\n        /* \"#utility.yul\":3889:4159   */\n      swap3\n      swap2\n      pop\n      pop\n      jump\t// out\n        /* \"#utility.yul\":4165:4242   */\n    tag_142:\n        /* \"#utility.yul\":4202:4209   */\n      0x00\n        /* \"#utility.yul\":4231:4236   */\n      dup2\n        /* \"#utility.yul\":4220:4236   */\n      swap1\n      pop\n        /* \"#utility.yul\":4165:4242   */\n      swap2\n      swap1\n      pop\n      jump\t// out\n        /* \"#utility.yul\":4248:4370   */\n    tag_143:\n        /* \"#utility.yul\":4321:4345   */\n      tag_245\n        /* \"#utility.yul\":4339:4344   */\n      dup2\n        /* \"#utility.yul\":4321:4345   */\n      tag_142\n      jump\t// in\n    tag_245:\n        /* \"#utility.yul\":4314:4319   */\n      dup2\n        /* \"#utility.yul\":4311:4346   */\n      eq\n        /* \"#utility.yul\":4301:4364   */\n      tag_246\n      jumpi\n        /* \"#utility.yul\":4360:4361   */\n      0x00\n        /* \"#utility.yul\":4357:4358   */\n      0x00\n        /* \"#utility.yul\":4350:4362   */\n      revert\n        /* \"#utility.yul\":4301:4364   */\n    tag_246:\n        /* \"#utility.yul\":4248:4370   */\n      pop\n      jump\t// out\n        /* \"#utility.yul\":4376:4515   */\n    tag_144:\n        /* \"#utility.yul\":4422:4427   */\n      0x00\n        /* \"#utility.yul\":4460:4466   */\n      dup2\n        /* \"#utility.yul\":4447:4467   */\n      calldataload\n        /* \"#utility.yul\":4438:4467   */\n      swap1\n      pop\n        /* \"#utility.yul\":4476:4509   */\n      tag_248\n        /* \"#utility.yul\":4503:4508   */\n      dup2\n        /* \"#utility.yul\":4476:4509   */\n      tag_143\n      jump\t// in\n    tag_248:\n        /* \"#utility.yul\":4376:4515   */\n      swap3\n      swap2\n      pop\n      pop\n      jump\t// out\n        /* \"#utility.yul\":4521:5175   */\n    tag_23:\n        /* \"#utility.yul\":4599:4605   */\n      0x00\n        /* \"#utility.yul\":4607:4613   */\n      0x00\n        /* \"#utility.yul\":4656:4658   */\n      0x40\n        /* \"#utility.yul\":4644:4653   */\n      dup4\n        /* \"#utility.yul\":4635:4642   */\n      dup6\n        /* \"#utility.yul\":4631:4654   */\n      sub\n        /* \"#utility.yul\":4627:4659   */\n      slt\n        /* \"#utility.yul\":4624:4743   */\n      iszero\n      tag_250\n      jumpi\n        /* \"#utility.yul\":4662:4741   */\n      tag_251\n      tag_124\n      jump\t// in\n    tag_251:\n        /* \"#utility.yul\":4624:4743   */\n    tag_250:\n        /* \"#utility.yul\":4782:4783   */\n      0x00\n        /* \"#utility.yul\":4807:4860   */\n      tag_252\n        /* \"#utility.yul\":4852:4859   */\n      dup6\n        /* \"#utility.yul\":4843:4849   */\n      dup3\n        /* \"#utility.yul\":4832:4841   */\n      dup7\n        /* \"#utility.yul\":4828:4850   */\n      add\n        /* \"#utility.yul\":4807:4860   */\n      tag_144\n      jump\t// in\n    tag_252:\n        /* \"#utility.yul\":4797:4860   */\n      swap3\n      pop\n        /* \"#utility.yul\":4753:4870   */\n      pop\n        /* \"#utility.yul\":4937:4939   */\n      0x20\n        /* \"#utility.yul\":4926:4935   */\n      dup4\n        /* \"#utility.yul\":4922:4940   */\n      add\n        /* \"#utility.yul\":4909:4941   */\n      calldataload\n        /* \"#utility.yul\":4968:4986   */\n      0xffffffffffffffff\n        /* \"#utility.yul\":4960:4966   */\n      dup2\n        /* \"#utility.yul\":4957:4987   */\n      gt\n        /* \"#utility.yul\":4954:5071   */\n      iszero\n      tag_253\n      jumpi\n        /* \"#utility.yul\":4990:5069   */\n      tag_254\n      tag_125\n      jump\t// in\n    tag_254:\n        /* \"#utility.yul\":4954:5071   */\n    tag_253:\n        /* \"#utility.yul\":5095:5158   */\n      tag_255\n        /* \"#utility.yul\":5150:5157   */\n      dup6\n        /* \"#utility.yul\":5141:5147   */\n      dup3\n        /* \"#utility.yul\":5130:5139   */\n      dup7\n        /* \"#utility.yul\":5126:5148   */\n      add\n        /* \"#utility.yul\":5095:5158   */\n      tag_135\n      jump\t// in\n    tag_255:\n        /* \"#utility.yul\":5085:5158   */\n      swap2\n      pop\n        /* \"#utility.yul\":4880:5168   */\n      pop\n        /* \"#utility.yul\":4521:5175   */\n      swap3\n      pop\n      swap3\n      swap1\n      pop\n      jump\t// out\n        /* \"#utility.yul\":5181:5277   */\n    tag_145:\n        /* \"#utility.yul\":5218:5225   */\n      0x00\n        /* \"#utility.yul\":5247:5271   */\n      tag_257\n        /* \"#utility.yul\":5265:5270   */\n      dup3\n        /* \"#utility.yul\":5247:5271   */\n      tag_136\n      jump\t// in\n    tag_257:\n        /* \"#utility.yul\":5236:5271   */\n      swap1\n      pop\n        /* \"#utility.yul\":5181:5277   */\n      swap2\n      swap1\n      pop\n      jump\t// out\n        /* \"#utility.yul\":5283:5405   */\n    tag_146:\n        /* \"#utility.yul\":5356:5380   */\n      tag_259\n        /* \"#utility.yul\":5374:5379   */\n      dup2\n        /* \"#utility.yul\":5356:5380   */\n      tag_145\n      jump\t// in\n    tag_259:\n        /* \"#utility.yul\":5349:5354   */\n      dup2\n        /* \"#utility.yul\":5346:5381   */\n      eq\n        /* \"#utility.yul\":5336:5399   */\n      tag_260\n      jumpi\n        /* \"#utility.yul\":5395:5396   */\n      0x00\n        /* \"#utility.yul\":5392:5393   */\n      0x00\n        /* \"#utility.yul\":5385:5397   */\n      revert\n        /* \"#utility.yul\":5336:5399   */\n    tag_260:\n        /* \"#utility.yul\":5283:5405   */\n      pop\n      jump\t// out\n        /* \"#utility.yul\":5411:5550   */\n    tag_147:\n        /* \"#utility.yul\":5457:5462   */\n      0x00\n        /* \"#utility.yul\":5495:5501   */\n      dup2\n        /* \"#utility.yul\":5482:5502   */\n      calldataload\n        /* \"#utility.yul\":5473:5502   */\n      swap1\n      pop\n        /* \"#utility.yul\":5511:5544   */\n      tag_262\n        /* \"#utility.yul\":5538:5543   */\n      dup2\n        /* \"#utility.yul\":5511:5544   */\n      tag_146\n      jump\t// in\n    tag_262:\n        /* \"#utility.yul\":5411:5550   */\n      swap3\n      swap2\n      pop\n      pop\n      jump\t// out\n        /* \"#utility.yul\":5556:5885   */\n    tag_27:\n        /* \"#utility.yul\":5615:5621   */\n      0x00\n        /* \"#utility.yul\":5664:5666   */\n      0x20\n        /* \"#utility.yul\":5652:5661   */\n      dup3\n        /* \"#utility.yul\":5643:5650   */\n      dup5\n        /* \"#utility.yul\":5639:5662   */\n      sub\n        /* \"#utility.yul\":5635:5667   */\n      slt\n        /* \"#utility.yul\":5632:5751   */\n      iszero\n      tag_264\n      jumpi\n        /* \"#utility.yul\":5670:5749   */\n      tag_265\n      tag_124\n      jump\t// in\n    tag_265:\n        /* \"#utility.yul\":5632:5751   */\n    tag_264:\n        /* \"#utility.yul\":5790:5791   */\n      0x00\n        /* \"#utility.yul\":5815:5868   */\n      tag_266\n        /* \"#utility.yul\":5860:5867   */\n      dup5\n        /* \"#utility.yul\":5851:5857   */\n      dup3\n        /* \"#utility.yul\":5840:5849   */\n      dup6\n        /* \"#utility.yul\":5836:5858   */\n      add\n        /* \"#utility.yul\":5815:5868   */\n      tag_147\n      jump\t// in\n    tag_266:\n        /* \"#utility.yul\":5805:5868   */\n      swap2\n      pop\n        /* \"#utility.yul\":5761:5878   */\n      pop\n        /* \"#utility.yul\":5556:5885   */\n      swap3\n      swap2\n      pop\n      pop\n      jump\t// out\n        /* \"#utility.yul\":5891:5990   */\n    tag_148:\n        /* \"#utility.yul\":5943:5949   */\n      0x00\n        /* \"#utility.yul\":5977:5982   */\n      dup2\n        /* \"#utility.yul\":5971:5983   */\n      mload\n        /* \"#utility.yul\":5961:5983   */\n      swap1\n      pop\n        /* \"#utility.yul\":5891:5990   */\n      swap2\n      swap1\n      pop\n      jump\t// out\n        /* \"#utility.yul\":5996:6165   */\n    tag_149:\n        /* \"#utility.yul\":6080:6091   */\n      0x00\n        /* \"#utility.yul\":6114:6120   */\n      dup3\n        /* \"#utility.yul\":6109:6112   */\n      dup3\n        /* \"#utility.yul\":6102:6121   */\n      mstore\n        /* \"#utility.yul\":6154:6158   */\n      0x20\n        /* \"#utility.yul\":6149:6152   */\n      dup3\n        /* \"#utility.yul\":6145:6159   */\n      add\n        /* \"#utility.yul\":6130:6159   */\n      swap1\n      pop\n        /* \"#utility.yul\":5996:6165   */\n      swap3\n      swap2\n      pop\n      pop\n      jump\t// out\n        /* \"#utility.yul\":6171:6310   */\n    tag_150:\n        /* \"#utility.yul\":6260:6266   */\n      dup3\n        /* \"#utility.yul\":6255:6258   */\n      dup2\n        /* \"#utility.yul\":6250:6253   */\n      dup4\n        /* \"#utility.yul\":6244:6267   */\n      mcopy\n        /* \"#utility.yul\":6301:6302   */\n      0x00\n        /* \"#utility.yul\":6292:6298   */\n      dup4\n        /* \"#utility.yul\":6287:6290   */\n      dup4\n        /* \"#utility.yul\":6283:6299   */\n      add\n        /* \"#utility.yul\":6276:6303   */\n      mstore\n        /* \"#utility.yul\":6171:6310   */\n      pop\n      pop\n      pop\n      jump\t// out\n        /* \"#utility.yul\":6316:6693   */\n    tag_151:\n        /* \"#utility.yul\":6404:6407   */\n      0x00\n        /* \"#utility.yul\":6432:6471   */\n      tag_271\n        /* \"#utility.yul\":6465:6470   */\n      dup3\n        /* \"#utility.yul\":6432:6471   */\n      tag_148\n      jump\t// in\n    tag_271:\n        /* \"#utility.yul\":6487:6558   */\n      tag_272\n        /* \"#utility.yul\":6551:6557   */\n      dup2\n        /* \"#utility.yul\":6546:6549   */\n      dup6\n        /* \"#utility.yul\":6487:6558   */\n      tag_149\n      jump\t// in\n    tag_272:\n        /* \"#utility.yul\":6480:6558   */\n      swap4\n      pop\n        /* \"#utility.yul\":6567:6632   */\n      tag_273\n        /* \"#utility.yul\":6625:6631   */\n      dup2\n        /* \"#utility.yul\":6620:6623   */\n      dup6\n        /* \"#utility.yul\":6613:6617   */\n      0x20\n        /* \"#utility.yul\":6606:6611   */\n      dup7\n        /* \"#utility.yul\":6602:6618   */\n      add\n        /* \"#utility.yul\":6567:6632   */\n      tag_150\n      jump\t// in\n    tag_273:\n        /* \"#utility.yul\":6657:6686   */\n      tag_274\n        /* \"#utility.yul\":6679:6685   */\n      dup2\n        /* \"#utility.yul\":6657:6686   */\n      tag_128\n      jump\t// in\n    tag_274:\n        /* \"#utility.yul\":6652:6655   */\n      dup5\n        /* \"#utility.yul\":6648:6687   */\n      add\n        /* \"#utility.yul\":6641:6687   */\n      swap2\n      pop\n        /* \"#utility.yul\":6408:6693   */\n      pop\n        /* \"#utility.yul\":6316:6693   */\n      swap3\n      swap2\n      pop\n      pop\n      jump\t// out\n        /* \"#utility.yul\":6699:6789   */\n    tag_152:\n        /* \"#utility.yul\":6733:6740   */\n      0x00\n        /* \"#utility.yul\":6776:6781   */\n      dup2\n        /* \"#utility.yul\":6769:6782   */\n      iszero\n        /* \"#utility.yul\":6762:6783   */\n      iszero\n        /* \"#utility.yul\":6751:6783   */\n      swap1\n      pop\n        /* \"#utility.yul\":6699:6789   */\n      swap2\n      swap1\n      pop\n      jump\t// out\n        /* \"#utility.yul\":6795:6904   */\n    tag_153:\n        /* \"#utility.yul\":6876:6897   */\n      tag_277\n        /* \"#utility.yul\":6891:6896   */\n      dup2\n        /* \"#utility.yul\":6876:6897   */\n      tag_152\n      jump\t// in\n    tag_277:\n        /* \"#utility.yul\":6871:6874   */\n      dup3\n        /* \"#utility.yul\":6864:6898   */\n      mstore\n        /* \"#utility.yul\":6795:6904   */\n      pop\n      pop\n      jump\t// out\n        /* \"#utility.yul\":6910:7321   */\n    tag_30:\n        /* \"#utility.yul\":7045:7049   */\n      0x00\n        /* \"#utility.yul\":7083:7085   */\n      0x40\n        /* \"#utility.yul\":7072:7081   */\n      dup3\n        /* \"#utility.yul\":7068:7086   */\n      add\n        /* \"#utility.yul\":7060:7086   */\n      swap1\n      pop\n        /* \"#utility.yul\":7132:7141   */\n      dup2\n        /* \"#utility.yul\":7126:7130   */\n      dup2\n        /* \"#utility.yul\":7122:7142   */\n      sub\n        /* \"#utility.yul\":7118:7119   */\n      0x00\n        /* \"#utility.yul\":7107:7116   */\n      dup4\n        /* \"#utility.yul\":7103:7120   */\n      add\n        /* \"#utility.yul\":7096:7143   */\n      mstore\n        /* \"#utility.yul\":7160:7238   */\n      tag_279\n        /* \"#utility.yul\":7233:7237   */\n      dup2\n        /* \"#utility.yul\":7224:7230   */\n      dup6\n        /* \"#utility.yul\":7160:7238   */\n      tag_151\n      jump\t// in\n    tag_279:\n        /* \"#utility.yul\":7152:7238   */\n      swap1\n      pop\n        /* \"#utility.yul\":7248:7314   */\n      tag_280\n        /* \"#utility.yul\":7310:7312   */\n      0x20\n        /* \"#utility.yul\":7299:7308   */\n      dup4\n        /* \"#utility.yul\":7295:7313   */\n      add\n        /* \"#utility.yul\":7286:7292   */\n      dup5\n        /* \"#utility.yul\":7248:7314   */\n      tag_153\n      jump\t// in\n    tag_280:\n        /* \"#utility.yul\":6910:7321   */\n      swap4\n      swap3\n      pop\n      pop\n      pop\n      jump\t// out\n        /* \"#utility.yul\":7327:7656   */\n    tag_33:\n        /* \"#utility.yul\":7386:7392   */\n      0x00\n        /* \"#utility.yul\":7435:7437   */\n      0x20\n        /* \"#utility.yul\":7423:7432   */\n      dup3\n        /* \"#utility.yul\":7414:7421   */\n      dup5\n        /* \"#utility.yul\":7410:7433   */\n      sub\n        /* \"#utility.yul\":7406:7438   */\n      slt\n        /* \"#utility.yul\":7403:7522   */\n      iszero\n      tag_282\n      jumpi\n        /* \"#utility.yul\":7441:7520   */\n      tag_283\n      tag_124\n      jump\t// in\n    tag_283:\n        /* \"#utility.yul\":7403:7522   */\n    tag_282:\n        /* \"#utility.yul\":7561:7562   */\n      0x00\n        /* \"#utility.yul\":7586:7639   */\n      tag_284\n        /* \"#utility.yul\":7631:7638   */\n      dup5\n        /* \"#utility.yul\":7622:7628   */\n      dup3\n        /* \"#utility.yul\":7611:7620   */\n      dup6\n        /* \"#utility.yul\":7607:7629   */\n      add\n        /* \"#utility.yul\":7586:7639   */\n      tag_144\n      jump\t// in\n    tag_284:\n        /* \"#utility.yul\":7576:7639   */\n      swap2\n      pop\n        /* \"#utility.yul\":7532:7649   */\n      pop\n        /* \"#utility.yul\":7327:7656   */\n      swap3\n      swap2\n      pop\n      pop\n      jump\t// out\n        /* \"#utility.yul\":7662:8136   */\n    tag_37:\n        /* \"#utility.yul\":7730:7736   */\n      0x00\n        /* \"#utility.yul\":7738:7744   */\n      0x00\n        /* \"#utility.yul\":7787:7789   */\n      0x40\n        /* \"#utility.yul\":7775:7784   */\n      dup4\n        /* \"#utility.yul\":7766:7773   */\n      dup6\n        /* \"#utility.yul\":7762:7785   */\n      sub\n        /* \"#utility.yul\":7758:7790   */\n      slt\n        /* \"#utility.yul\":7755:7874   */\n      iszero\n      tag_286\n      jumpi\n        /* \"#utility.yul\":7793:7872   */\n      tag_287\n      tag_124\n      jump\t// in\n    tag_287:\n        /* \"#utility.yul\":7755:7874   */\n    tag_286:\n        /* \"#utility.yul\":7913:7914   */\n      0x00\n        /* \"#utility.yul\":7938:7991   */\n      tag_288\n        /* \"#utility.yul\":7983:7990   */\n      dup6\n        /* \"#utility.yul\":7974:7980   */\n      dup3\n        /* \"#utility.yul\":7963:7972   */\n      dup7\n        /* \"#utility.yul\":7959:7981   */\n      add\n        /* \"#utility.yul\":7938:7991   */\n      tag_144\n      jump\t// in\n    tag_288:\n        /* \"#utility.yul\":7928:7991   */\n      swap3\n      pop\n        /* \"#utility.yul\":7884:8001   */\n      pop\n        /* \"#utility.yul\":8040:8042   */\n      0x20\n        /* \"#utility.yul\":8066:8119   */\n      tag_289\n        /* \"#utility.yul\":8111:8118   */\n      dup6\n        /* \"#utility.yul\":8102:8108   */\n      dup3\n        /* \"#utility.yul\":8091:8100   */\n      dup7\n        /* \"#utility.yul\":8087:8109   */\n      add\n        /* \"#utility.yul\":8066:8119   */\n      tag_144\n      jump\t// in\n    tag_289:\n        /* \"#utility.yul\":8056:8119   */\n      swap2\n      pop\n        /* \"#utility.yul\":8011:8129   */\n      pop\n        /* \"#utility.yul\":7662:8136   */\n      swap3\n      pop\n      swap3\n      swap1\n      pop\n      jump\t// out\n        /* \"#utility.yul\":8142:8260   */\n    tag_154:\n        /* \"#utility.yul\":8229:8253   */\n      tag_291\n        /* \"#utility.yul\":8247:8252   */\n      dup2\n        /* \"#utility.yul\":8229:8253   */\n      tag_145\n      jump\t// in\n    tag_291:\n        /* \"#utility.yul\":8224:8227   */\n      dup3\n        /* \"#utility.yul\":8217:8254   */\n      mstore\n        /* \"#utility.yul\":8142:8260   */\n      pop\n      pop\n      jump\t// out\n        /* \"#utility.yul\":8266:8488   */\n    tag_45:\n        /* \"#utility.yul\":8359:8363   */\n      0x00\n        /* \"#utility.yul\":8397:8399   */\n      0x20\n        /* \"#utility.yul\":8386:8395   */\n      dup3\n        /* \"#utility.yul\":8382:8400   */\n      add\n        /* \"#utility.yul\":8374:8400   */\n      swap1\n      pop\n        /* \"#utility.yul\":8410:8481   */\n      tag_293\n        /* \"#utility.yul\":8478:8479   */\n      0x00\n        /* \"#utility.yul\":8467:8476   */\n      dup4\n        /* \"#utility.yul\":8463:8480   */\n      add\n        /* \"#utility.yul\":8454:8460   */\n      dup5\n        /* \"#utility.yul\":8410:8481   */\n      tag_154\n      jump\t// in\n    tag_293:\n        /* \"#utility.yul\":8266:8488   */\n      swap3\n      swap2\n      pop\n      pop\n      jump\t// out\n        /* \"#utility.yul\":8494:8612   */\n    tag_155:\n        /* \"#utility.yul\":8581:8605   */\n      tag_295\n        /* \"#utility.yul\":8599:8604   */\n      dup2\n        /* \"#utility.yul\":8581:8605   */\n      tag_142\n      jump\t// in\n    tag_295:\n        /* \"#utility.yul\":8576:8579   */\n      dup3\n        /* \"#utility.yul\":8569:8606   */\n      mstore\n        /* \"#utility.yul\":8494:8612   */\n      pop\n      pop\n      jump\t// out\n        /* \"#utility.yul\":8618:9250   */\n    tag_50:\n        /* \"#utility.yul\":8809:8813   */\n      0x00\n        /* \"#utility.yul\":8847:8850   */\n      0x80\n        /* \"#utility.yul\":8836:8845   */\n      dup3\n        /* \"#utility.yul\":8832:8851   */\n      add\n        /* \"#utility.yul\":8824:8851   */\n      swap1\n      pop\n        /* \"#utility.yul\":8861:8932   */\n      tag_297\n        /* \"#utility.yul\":8929:8930   */\n      0x00\n        /* \"#utility.yul\":8918:8927   */\n      dup4\n        /* \"#utility.yul\":8914:8931   */\n      add\n        /* \"#utility.yul\":8905:8911   */\n      dup8\n        /* \"#utility.yul\":8861:8932   */\n      tag_155\n      jump\t// in\n    tag_297:\n        /* \"#utility.yul\":8979:8988   */\n      dup2\n        /* \"#utility.yul\":8973:8977   */\n      dup2\n        /* \"#utility.yul\":8969:8989   */\n      sub\n        /* \"#utility.yul\":8964:8966   */\n      0x20\n        /* \"#utility.yul\":8953:8962   */\n      dup4\n        /* \"#utility.yul\":8949:8967   */\n      add\n        /* \"#utility.yul\":8942:8990   */\n      mstore\n        /* \"#utility.yul\":9007:9085   */\n      tag_298\n        /* \"#utility.yul\":9080:9084   */\n      dup2\n        /* \"#utility.yul\":9071:9077   */\n      dup7\n        /* \"#utility.yul\":9007:9085   */\n      tag_151\n      jump\t// in\n    tag_298:\n        /* \"#utility.yul\":8999:9085   */\n      swap1\n      pop\n        /* \"#utility.yul\":9095:9161   */\n      tag_299\n        /* \"#utility.yul\":9157:9159   */\n      0x40\n        /* \"#utility.yul\":9146:9155   */\n      dup4\n        /* \"#utility.yul\":9142:9160   */\n      add\n        /* \"#utility.yul\":9133:9139   */\n      dup6\n        /* \"#utility.yul\":9095:9161   */\n      tag_153\n      jump\t// in\n    tag_299:\n        /* \"#utility.yul\":9171:9243   */\n      tag_300\n        /* \"#utility.yul\":9239:9241   */\n      0x60\n        /* \"#utility.yul\":9228:9237   */\n      dup4\n        /* \"#utility.yul\":9224:9242   */\n      add\n        /* \"#utility.yul\":9215:9221   */\n      dup5\n        /* \"#utility.yul\":9171:9243   */\n      tag_154\n      jump\t// in\n    tag_300:\n        /* \"#utility.yul\":8618:9250   */\n      swap6\n      swap5\n      pop\n      pop\n      pop\n      pop\n      pop\n      jump\t// out\n        /* \"#utility.yul\":9256:9424   */\n    tag_156:\n        /* \"#utility.yul\":9396:9416   */\n      0x416c726561647920726567697374657265640000000000000000000000000000\n        /* \"#utility.yul\":9392:9393   */\n      0x00\n        /* \"#utility.yul\":9384:9390   */\n      dup3\n        /* \"#utility.yul\":9380:9394   */\n      add\n        /* \"#utility.yul\":9373:9417   */\n      mstore\n        /* \"#utility.yul\":9256:9424   */\n      pop\n      jump\t// out\n        /* \"#utility.yul\":9430:9796   */\n    tag_157:\n        /* \"#utility.yul\":9572:9575   */\n      0x00\n        /* \"#utility.yul\":9593:9660   */\n      tag_303\n        /* \"#utility.yul\":9657:9659   */\n      0x12\n        /* \"#utility.yul\":9652:9655   */\n      dup4\n        /* \"#utility.yul\":9593:9660   */\n      tag_149\n      jump\t// in\n    tag_303:\n        /* \"#utility.yul\":9586:9660   */\n      swap2\n      pop\n        /* \"#utility.yul\":9669:9762   */\n      tag_304\n        /* \"#utility.yul\":9758:9761   */\n      dup3\n        /* \"#utility.yul\":9669:9762   */\n      tag_156\n      jump\t// in\n    tag_304:\n        /* \"#utility.yul\":9787:9789   */\n      0x20\n        /* \"#utility.yul\":9782:9785   */\n      dup3\n        /* \"#utility.yul\":9778:9790   */\n      add\n        /* \"#utility.yul\":9771:9790   */\n      swap1\n      pop\n        /* \"#utility.yul\":9430:9796   */\n      swap2\n      swap1\n      pop\n      jump\t// out\n        /* \"#utility.yul\":9802:10221   */\n    tag_54:\n        /* \"#utility.yul\":9968:9972   */\n      0x00\n        /* \"#utility.yul\":10006:10008   */\n      0x20\n        /* \"#utility.yul\":9995:10004   */\n      dup3\n        /* \"#utility.yul\":9991:10009   */\n      add\n        /* \"#utility.yul\":9983:10009   */\n      swap1\n      pop\n        /* \"#utility.yul\":10055:10064   */\n      dup2\n        /* \"#utility.yul\":10049:10053   */\n      dup2\n        /* \"#utility.yul\":10045:10065   */\n      sub\n        /* \"#utility.yul\":10041:10042   */\n      0x00\n        /* \"#utility.yul\":10030:10039   */\n      dup4\n        /* \"#utility.yul\":10026:10043   */\n      add\n        /* \"#utility.yul\":10019:10066   */\n      mstore\n        /* \"#utility.yul\":10083:10214   */\n      tag_306\n        /* \"#utility.yul\":10209:10213   */\n      dup2\n        /* \"#utility.yul\":10083:10214   */\n      tag_157\n      jump\t// in\n    tag_306:\n        /* \"#utility.yul\":10075:10214   */\n      swap1\n      pop\n        /* \"#utility.yul\":9802:10221   */\n      swap2\n      swap1\n      pop\n      jump\t// out\n        /* \"#utility.yul\":10227:10390   */\n    tag_158:\n        /* \"#utility.yul\":10367:10382   */\n      0x4e616d6520726571756972656400000000000000000000000000000000000000\n        /* \"#utility.yul\":10363:10364   */\n      0x00\n        /* \"#utility.yul\":10355:10361   */\n      dup3\n        /* \"#utility.yul\":10351:10365   */\n      add\n        /* \"#utility.yul\":10344:10383   */\n      mstore\n        /* \"#utility.yul\":10227:10390   */\n      pop\n      jump\t// out\n        /* \"#utility.yul\":10396:10762   */\n    tag_159:\n        /* \"#utility.yul\":10538:10541   */\n      0x00\n        /* \"#utility.yul\":10559:10626   */\n      tag_309\n        /* \"#utility.yul\":10623:10625   */\n      0x0d\n        /* \"#utility.yul\":10618:10621   */\n      dup4\n        /* \"#utility.yul\":10559:10626   */\n      tag_149\n      jump\t// in\n    tag_309:\n        /* \"#utility.yul\":10552:10626   */\n      swap2\n      pop\n        /* \"#utility.yul\":10635:10728   */\n      tag_310\n        /* \"#utility.yul\":10724:10727   */\n      dup3\n        /* \"#utility.yul\":10635:10728   */\n      tag_158\n      jump\t// in\n    tag_310:\n        /* \"#utility.yul\":10753:10755   */\n      0x20\n        /* \"#utility.yul\":10748:10751   */\n      dup3\n        /* \"#utility.yul\":10744:10756   */\n      add\n        /* \"#utility.yul\":10737:10756   */\n      swap1\n      pop\n        /* \"#utility.yul\":10396:10762   */\n      swap2\n      swap1\n      pop\n      jump\t// out\n        /* \"#utility.yul\":10768:11187   */\n    tag_57:\n        /* \"#utility.yul\":10934:10938   */\n      0x00\n        /* \"#utility.yul\":10972:10974   */\n      0x20\n        /* \"#utility.yul\":10961:10970   */\n      dup3\n        /* \"#utility.yul\":10957:10975   */\n      add\n        /* \"#utility.yul\":10949:10975   */\n      swap1\n      pop\n        /* \"#utility.yul\":11021:11030   */\n      dup2\n        /* \"#utility.yul\":11015:11019   */\n      dup2\n        /* \"#utility.yul\":11011:11031   */\n      sub\n        /* \"#utility.yul\":11007:11008   */\n      0x00\n        /* \"#utility.yul\":10996:11005   */\n      dup4\n        /* \"#utility.yul\":10992:11009   */\n      add\n        /* \"#utility.yul\":10985:11032   */\n      mstore\n        /* \"#utility.yul\":11049:11180   */\n      tag_312\n        /* \"#utility.yul\":11175:11179   */\n      dup2\n        /* \"#utility.yul\":11049:11180   */\n      tag_159\n      jump\t// in\n    tag_312:\n        /* \"#utility.yul\":11041:11180   */\n      swap1\n      pop\n        /* \"#utility.yul\":10768:11187   */\n      swap2\n      swap1\n      pop\n      jump\t// out\n        /* \"#utility.yul\":11193:11373   */\n    tag_160:\n        /* \"#utility.yul\":11241:11318   */\n      0x4e487b7100000000000000000000000000000000000000000000000000000000\n        /* \"#utility.yul\":11238:11239   */\n      0x00\n        /* \"#utility.yul\":11231:11319   */\n      mstore\n        /* \"#utility.yul\":11338:11342   */\n      0x22\n        /* \"#utility.yul\":11335:11336   */\n      0x04\n        /* \"#utility.yul\":11328:11343   */\n      mstore\n        /* \"#utility.yul\":11362:11366   */\n      0x24\n        /* \"#utility.yul\":11359:11360   */\n      0x00\n        /* \"#utility.yul\":11352:11367   */\n      revert\n        /* \"#utility.yul\":11379:11699   */\n    tag_75:\n        /* \"#utility.yul\":11423:11429   */\n      0x00\n        /* \"#utility.yul\":11460:11461   */\n      0x02\n        /* \"#utility.yul\":11454:11458   */\n      dup3\n        /* \"#utility.yul\":11450:11462   */\n      div\n        /* \"#utility.yul\":11440:11462   */\n      swap1\n      pop\n        /* \"#utility.yul\":11507:11508   */\n      0x01\n        /* \"#utility.yul\":11501:11505   */\n      dup3\n        /* \"#utility.yul\":11497:11509   */\n      and\n        /* \"#utility.yul\":11528:11546   */\n      dup1\n        /* \"#utility.yul\":11518:11599   */\n      tag_315\n      jumpi\n        /* \"#utility.yul\":11584:11588   */\n      0x7f\n        /* \"#utility.yul\":11576:11582   */\n      dup3\n        /* \"#utility.yul\":11572:11589   */\n      and\n        /* \"#utility.yul\":11562:11589   */\n      swap2\n      pop\n        /* \"#utility.yul\":11518:11599   */\n    tag_315:\n        /* \"#utility.yul\":11646:11648   */\n      0x20\n        /* \"#utility.yul\":11638:11644   */\n      dup3\n        /* \"#utility.yul\":11635:11649   */\n      lt\n        /* \"#utility.yul\":11615:11633   */\n      dup2\n        /* \"#utility.yul\":11612:11650   */\n      sub\n        /* \"#utility.yul\":11609:11693   */\n      tag_316\n      jumpi\n        /* \"#utility.yul\":11665:11683   */\n      tag_317\n      tag_160\n      jump\t// in\n    tag_317:\n        /* \"#utility.yul\":11609:11693   */\n    tag_316:\n        /* \"#utility.yul\":11430:11699   */\n      pop\n        /* \"#utility.yul\":11379:11699   */\n      swap2\n      swap1\n      pop\n      jump\t// out\n        /* \"#utility.yul\":11705:11846   */\n    tag_161:\n        /* \"#utility.yul\":11754:11758   */\n      0x00\n        /* \"#utility.yul\":11777:11780   */\n      dup2\n        /* \"#utility.yul\":11769:11780   */\n      swap1\n      pop\n        /* \"#utility.yul\":11800:11803   */\n      dup2\n        /* \"#utility.yul\":11797:11798   */\n      0x00\n        /* \"#utility.yul\":11790:11804   */\n      mstore\n        /* \"#utility.yul\":11834:11838   */\n      0x20\n        /* \"#utility.yul\":11831:11832   */\n      0x00\n        /* \"#utility.yul\":11821:11839   */\n      keccak256\n        /* \"#utility.yul\":11813:11839   */\n      swap1\n      pop\n        /* \"#utility.yul\":11705:11846   */\n      swap2\n      swap1\n      pop\n      jump\t// out\n        /* \"#utility.yul\":11852:11945   */\n    tag_162:\n        /* \"#utility.yul\":11889:11895   */\n      0x00\n        /* \"#utility.yul\":11936:11938   */\n      0x20\n        /* \"#utility.yul\":11931:11933   */\n      0x1f\n        /* \"#utility.yul\":11924:11929   */\n      dup4\n        /* \"#utility.yul\":11920:11934   */\n      add\n        /* \"#utility.yul\":11916:11939   */\n      div\n        /* \"#utility.yul\":11906:11939   */\n      swap1\n      pop\n        /* \"#utility.yul\":11852:11945   */\n      swap2\n      swap1\n      pop\n      jump\t// out\n        /* \"#utility.yul\":11951:12058   */\n    tag_163:\n        /* \"#utility.yul\":11995:12003   */\n      0x00\n        /* \"#utility.yul\":12045:12050   */\n      dup3\n        /* \"#utility.yul\":12039:12043   */\n      dup3\n        /* \"#utility.yul\":12035:12051   */\n      shl\n        /* \"#utility.yul\":12014:12051   */\n      swap1\n      pop\n        /* \"#utility.yul\":11951:12058   */\n      swap3\n      swap2\n      pop\n      pop\n      jump\t// out\n        /* \"#utility.yul\":12064:12457   */\n    tag_164:\n        /* \"#utility.yul\":12133:12139   */\n      0x00\n        /* \"#utility.yul\":12183:12184   */\n      0x08\n        /* \"#utility.yul\":12171:12181   */\n      dup4\n        /* \"#utility.yul\":12167:12185   */\n      mul\n        /* \"#utility.yul\":12206:12303   */\n      tag_322\n        /* \"#utility.yul\":12236:12302   */\n      0xffffffffffffffffffffffffffffffffffffffffffffffffffffffffffffffff\n        /* \"#utility.yul\":12225:12234   */\n      dup3\n        /* \"#utility.yul\":12206:12303   */\n      tag_163\n      jump\t// in\n    tag_322:\n        /* \"#utility.yul\":12324:12363   */\n      tag_323\n        /* \"#utility.yul\":12354:12362   */\n      dup7\n        /* \"#utility.yul\":12343:12352   */\n      dup4\n        /* \"#utility.yul\":12324:12363   */\n      tag_163\n      jump\t// in\n    tag_323:\n        /* \"#utility.yul\":12312:12363   */\n      swap6\n      pop\n        /* \"#utility.yul\":12396:12400   */\n      dup1\n        /* \"#utility.yul\":12392:12401   */\n      not\n        /* \"#utility.yul\":12385:12390   */\n      dup5\n        /* \"#utility.yul\":12381:12402   */\n      and\n        /* \"#utility.yul\":12372:12402   */\n      swap4\n      pop\n        /* \"#utility.yul\":12445:12449   */\n      dup1\n        /* \"#utility.yul\":12435:12443   */\n      dup7\n        /* \"#utility.yul\":12431:12450   */\n      and\n        /* \"#utility.yul\":12424:12429   */\n      dup5\n        /* \"#utility.yul\":12421:12451   */\n      or\n        /* \"#utility.yul\":12411:12451   */\n      swap3\n      pop\n        /* \"#utility.yul\":12140:12457   */\n      pop\n      pop\n        /* \"#utility.yul\":12064:12457   */\n      swap4\n      swap3\n      pop\n      pop\n      pop\n      jump\t// out\n        /* \"#utility.yul\":12463:12605   */\n    tag_165:\n        /* \"#utility.yul\":12513:12522   */\n      0x00\n        /* \"#utility.yul\":12546:12599   */\n      tag_325\n        /* \"#utility.yul\":12564:12598   */\n      tag_326\n        /* \"#utility.yul\":12573:12597   */\n      tag_327\n        /* \"#utility.yul\":12591:12596   */\n      dup5\n        /* \"#utility.yul\":12573:12597   */\n      tag_142\n      jump\t// in\n    tag_327:\n        /* \"#utility.yul\":12564:12598   */\n      tag_137\n      jump\t// in\n    tag_326:\n        /* \"#utility.yul\":12546:12599   */\n      tag_142\n      jump\t// in\n    tag_325:\n        /* \"#utility.yul\":12533:12599   */\n      swap1\n      pop\n        /* \"#utility.yul\":12463:12605   */\n      swap2\n      swap1\n      pop\n      jump\t// out\n        /* \"#utility.yul\":12611:12686   */\n    tag_166:\n        /* \"#utility.yul\":12654:12657   */\n      0x00\n        /* \"#utility.yul\":12675:12680   */\n      dup2\n        /* \"#utility.yul\":12668:12680   */\n      swap1\n      pop\n        /* \"#utility.yul\":12611:12686   */\n      swap2\n      swap1\n      pop\n      jump\t// out\n        /* \"#utility.yul\":12692:12961   */\n    tag_167:\n        /* \"#utility.yul\":12802:12841   */\n      tag_330\n        /* \"#utility.yul\":12833:12840   */\n      dup4\n        /* \"#utility.yul\":12802:12841   */\n      tag_165\n      jump\t// in\n    tag_330:\n        /* \"#utility.yul\":12863:12954   */\n      tag_331\n        /* \"#utility.yul\":12912:12953   */\n      tag_332\n        /* \"#utility.yul\":12936:12952   */\n      dup3\n        /* \"#utility.yul\":12912:12953   */\n      tag_166\n      jump\t// in\n    tag_332:\n        /* \"#utility.yul\":12904:12910   */\n      dup5\n        /* \"#utility.yul\":12897:12901   */\n      dup5\n        /* \"#utility.yul\":12891:12902   */\n      sload\n        /* \"#utility.yul\":12863:12954   */\n      tag_164\n      jump\t// in\n    tag_331:\n        /* \"#utility.yul\":12857:12861   */\n      dup3\n        /* \"#utility.yul\":12850:12955   */\n      sstore\n        /* \"#utility.yul\":12768:12961   */\n      pop\n        /* \"#utility.yul\":12692:12961   */\n      pop\n      pop\n      pop\n      jump\t// out\n        /* \"#utility.yul\":12967:13040   */\n    tag_168:\n        /* \"#utility.yul\":13012:13015   */\n      0x00\n        /* \"#utility.yul\":13033:13034   */\n      0x00\n        /* \"#utility.yul\":13026:13034   */\n      swap1\n      pop\n        /* \"#utility.yul\":12967:13040   */\n      swap1\n      jump\t// out\n        /* \"#utility.yul\":13046:13235   */\n    tag_169:\n        /* \"#utility.yul\":13123:13155   */\n      tag_335\n      tag_168\n      jump\t// in\n    tag_335:\n        /* \"#utility.yul\":13164:13229   */\n      tag_336\n        /* \"#utility.yul\":13222:13228   */\n      dup2\n        /* \"#utility.yul\":13214:13220   */\n      dup5\n        /* \"#utility.yul\":13208:13212   */\n      dup5\n        /* \"#utility.yul\":13164:13229   */\n      tag_167\n      jump\t// in\n    tag_336:\n        /* \"#utility.yul\":13099:13235   */\n      pop\n        /* \"#utility.yul\":13046:13235   */\n      pop\n      pop\n      jump\t// out\n        /* \"#utility.yul\":13241:13427   */\n    tag_170:\n        /* \"#utility.yul\":13301:13421   */\n    tag_338:\n        /* \"#utility.yul\":13318:13321   */\n      dup2\n        /* \"#utility.yul\":13311:13316   */\n      dup2\n        /* \"#utility.yul\":13308:13322   */\n      lt\n        /* \"#utility.yul\":13301:13421   */\n      iszero\n      tag_340\n      jumpi\n        /* \"#utility.yul\":13372:13411   */\n      tag_341\n        /* \"#utility.yul\":13409:13410   */\n      0x00\n        /* \"#utility.yul\":13402:13407   */\n      dup3\n        /* \"#utility.yul\":13372:13411   */\n      tag_169\n      jump\t// in\n    tag_341:\n        /* \"#utility.yul\":13345:13346   */\n      0x01\n        /* \"#utility.yul\":13338:13343   */\n      dup2\n        /* \"#utility.yul\":13334:13347   */\n      add\n        /* \"#utility.yul\":13325:13347   */\n      swap1\n      pop\n        /* \"#utility.yul\":13301:13421   */\n      jump(tag_338)\n    tag_340:\n        /* \"#utility.yul\":13241:13427   */\n      pop\n      pop\n      jump\t// out\n        /* \"#utility.yul\":13433:13976   */\n    tag_171:\n        /* \"#utility.yul\":13534:13536   */\n      0x1f\n        /* \"#utility.yul\":13529:13532   */\n      dup3\n        /* \"#utility.yul\":13526:13537   */\n      gt\n        /* \"#utility.yul\":13523:13969   */\n      iszero\n      tag_343\n      jumpi\n        /* \"#utility.yul\":13568:13606   */\n      tag_344\n        /* \"#utility.yul\":13600:13605   */\n      dup2\n        /* \"#utility.yul\":13568:13606   */\n      tag_161\n      jump\t// in\n    tag_344:\n        /* \"#utility.yul\":13652:13681   */\n      tag_345\n        /* \"#utility.yul\":13670:13680   */\n      dup5\n        /* \"#utility.yul\":13652:13681   */\n      tag_162\n      jump\t// in\n    tag_345:\n        /* \"#utility.yul\":13642:13650   */\n      dup2\n        /* \"#utility.yul\":13638:13682   */\n      add\n        /* \"#utility.yul\":13835:13837   */\n      0x20\n        /* \"#utility.yul\":13823:13833   */\n      dup6\n        /* \"#utility.yul\":13820:13838   */\n      lt\n        /* \"#utility.yul\":13817:13866   */\n      iszero\n      tag_346\n      jumpi\n        /* \"#utility.yul\":13856:13864   */\n      dup2\n        /* \"#utility.yul\":13841:13864   */\n      swap1\n      pop\n        /* \"#utility.yul\":13817:13866   */\n    tag_346:\n        /* \"#utility.yul\":13879:13959   */\n      tag_347\n        /* \"#utility.yul\":13935:13957   */\n      tag_348\n        /* \"#utility.yul\":13953:13956   */\n      dup6\n        /* \"#utility.yul\":13935:13957   */\n      tag_162\n      jump\t// in\n    tag_348:\n        /* \"#utility.yul\":13925:13933   */\n      dup4\n        /* \"#utility.yul\":13921:13958   */\n      add\n        /* \"#utility.yul\":13908:13919   */\n      dup3\n        /* \"#utility.yul\":13879:13959   */\n      tag_170\n      jump\t// in\n    tag_347:\n        /* \"#utility.yul\":13538:13969   */\n      pop\n      pop\n        /* \"#utility.yul\":13523:13969   */\n    tag_343:\n        /* \"#utility.yul\":13433:13976   */\n      pop\n      pop\n      pop\n      jump\t// out\n        /* \"#utility.yul\":13982:14099   */\n    tag_172:\n        /* \"#utility.yul\":14036:14044   */\n      0x00\n        /* \"#utility.yul\":14086:14091   */\n      dup3\n        /* \"#utility.yul\":14080:14084   */\n      dup3\n        /* \"#utility.yul\":14076:14092   */\n      shr\n        /* \"#utility.yul\":14055:14092   */\n      swap1\n      pop\n        /* \"#utility.yul\":13982:14099   */\n      swap3\n      swap2\n      pop\n      pop\n      jump\t// out\n        /* \"#utility.yul\":14105:14274   */\n    tag_173:\n        /* \"#utility.yul\":14149:14155   */\n      0x00\n        /* \"#utility.yul\":14182:14233   */\n      tag_351\n        /* \"#utility.yul\":14230:14231   */\n      0x00\n        /* \"#utility.yul\":14226:14232   */\n      not\n        /* \"#utility.yul\":14218:14223   */\n      dup5\n        /* \"#utility.yul\":14215:14216   */\n      0x08\n        /* \"#utility.yul\":14211:14224   */\n      mul\n        /* \"#utility.yul\":14182:14233   */\n      tag_172\n      jump\t// in\n    tag_351:\n        /* \"#utility.yul\":14178:14234   */\n      not\n        /* \"#utility.yul\":14263:14267   */\n      dup1\n        /* \"#utility.yul\":14257:14261   */\n      dup4\n        /* \"#utility.yul\":14253:14268   */\n      and\n        /* \"#utility.yul\":14243:14268   */\n      swap2\n      pop\n        /* \"#utility.yul\":14156:14274   */\n      pop\n        /* \"#utility.yul\":14105:14274   */\n      swap3\n      swap2\n      pop\n      pop\n      jump\t// out\n        /* \"#utility.yul\":14279:14574   */\n    tag_174:\n        /* \"#utility.yul\":14355:14359   */\n      0x00\n        /* \"#utility.yul\":14501:14530   */\n      tag_353\n        /* \"#utility.yul\":14526:14529   */\n      dup4\n        /* \"#utility.yul\":14520:14524   */\n      dup4\n        /* \"#utility.yul\":14501:14530   */\n      tag_173\n      jump\t// in\n    tag_353:\n        /* \"#utility.yul\":14493:14530   */\n      swap2\n      pop\n        /* \"#utility.yul\":14563:14566   */\n      dup3\n        /* \"#utility.yul\":14560:14561   */\n      0x02\n        /* \"#utility.yul\":14556:14567   */\n      mul\n        /* \"#utility.yul\":14550:14554   */\n      dup3\n        /* \"#utility.yul\":14547:14568   */\n      or\n        /* \"#utility.yul\":14539:14568   */\n      swap1\n      pop\n        /* \"#utility.yul\":14279:14574   */\n      swap3\n      swap2\n      pop\n      pop\n      jump\t// out\n        /* \"#utility.yul\":14579:15974   */\n    tag_59:\n        /* \"#utility.yul\":14696:14733   */\n      tag_355\n        /* \"#utility.yul\":14729:14732   */\n      dup3\n        /* \"#utility.yul\":14696:14733   */\n      tag_148\n      jump\t// in\n    tag_355:\n        /* \"#utility.yul\":14798:14816   */\n      0xffffffffffffffff\n        /* \"#utility.yul\":14790:14796   */\n      dup2\n        /* \"#utility.yul\":14787:14817   */\n      gt\n        /* \"#utility.yul\":14784:14840   */\n      iszero\n      tag_356\n      jumpi\n        /* \"#utility.yul\":14820:14838   */\n      tag_357\n      tag_129\n      jump\t// in\n    tag_357:\n        /* \"#utility.yul\":14784:14840   */\n    tag_356:\n        /* \"#utility.yul\":14864:14902   */\n      tag_358\n        /* \"#utility.yul\":14896:14900   */\n      dup3\n        /* \"#utility.yul\":14890:14901   */\n      sload\n        /* \"#utility.yul\":14864:14902   */\n      tag_75\n      jump\t// in\n    tag_358:\n        /* \"#utility.yul\":14949:15016   */\n      tag_359\n        /* \"#utility.yul\":15009:15015   */\n      dup3\n        /* \"#utility.yul\":15001:15007   */\n      dup3\n        /* \"#utility.yul\":14995:14999   */\n      dup6\n        /* \"#utility.yul\":14949:15016   */\n      tag_171\n      jump\t// in\n    tag_359:\n        /* \"#utility.yul\":15043:15044   */\n      0x00\n        /* \"#utility.yul\":15067:15071   */\n      0x20\n        /* \"#utility.yul\":15054:15071   */\n      swap1\n      pop\n        /* \"#utility.yul\":15099:15101   */\n      0x1f\n        /* \"#utility.yul\":15091:15097   */\n      dup4\n        /* \"#utility.yul\":15088:15102   */\n      gt\n        /* \"#utility.yul\":15116:15117   */\n      0x01\n        /* \"#utility.yul\":15111:15729   */\n      dup2\n      eq\n      tag_361\n      jumpi\n        /* \"#utility.yul\":15773:15774   */\n      0x00\n        /* \"#utility.yul\":15790:15796   */\n      dup5\n        /* \"#utility.yul\":15787:15864   */\n      iszero\n      tag_362\n      jumpi\n        /* \"#utility.yul\":15839:15848   */\n      dup3\n        /* \"#utility.yul\":15834:15837   */\n      dup8\n        /* \"#utility.yul\":15830:15849   */\n      add\n        /* \"#utility.yul\":15824:15850   */\n      mload\n        /* \"#utility.yul\":15815:15850   */\n      swap1\n      pop\n        /* \"#utility.yul\":15787:15864   */\n    tag_362:\n        /* \"#utility.yul\":15890:15957   */\n      tag_363\n        /* \"#utility.yul\":15950:15956   */\n      dup6\n        /* \"#utility.yul\":15943:15948   */\n      dup3\n        /* \"#utility.yul\":15890:15957   */\n      tag_174\n      jump\t// in\n    tag_363:\n        /* \"#utility.yul\":15884:15888   */\n      dup7\n        /* \"#utility.yul\":15877:15958   */\n      sstore\n        /* \"#utility.yul\":15746:15968   */\n      pop\n        /* \"#utility.yul\":15081:15968   */\n      jump(tag_360)\n        /* \"#utility.yul\":15111:15729   */\n    tag_361:\n        /* \"#utility.yul\":15163:15167   */\n      0x1f\n        /* \"#utility.yul\":15159:15168   */\n      not\n        /* \"#utility.yul\":15151:15157   */\n      dup5\n        /* \"#utility.yul\":15147:15169   */\n      and\n        /* \"#utility.yul\":15197:15234   */\n      tag_364\n        /* \"#utility.yul\":15229:15233   */\n      dup7\n        /* \"#utility.yul\":15197:15234   */\n      tag_161\n      jump\t// in\n    tag_364:\n        /* \"#utility.yul\":15256:15257   */\n      0x00\n        /* \"#utility.yul\":15270:15478   */\n    tag_365:\n        /* \"#utility.yul\":15284:15291   */\n      dup3\n        /* \"#utility.yul\":15281:15282   */\n      dup2\n        /* \"#utility.yul\":15278:15292   */\n      lt\n        /* \"#utility.yul\":15270:15478   */\n      iszero\n      tag_367\n      jumpi\n        /* \"#utility.yul\":15363:15372   */\n      dup5\n        /* \"#utility.yul\":15358:15361   */\n      dup10\n        /* \"#utility.yul\":15354:15373   */\n      add\n        /* \"#utility.yul\":15348:15374   */\n      mload\n        /* \"#utility.yul\":15340:15346   */\n      dup3\n        /* \"#utility.yul\":15333:15375   */\n      sstore\n        /* \"#utility.yul\":15414:15415   */\n      0x01\n        /* \"#utility.yul\":15406:15412   */\n      dup3\n        /* \"#utility.yul\":15402:15416   */\n      add\n        /* \"#utility.yul\":15392:15416   */\n      swap2\n      pop\n        /* \"#utility.yul\":15461:15463   */\n      0x20\n        /* \"#utility.yul\":15450:15459   */\n      dup6\n        /* \"#utility.yul\":15446:15464   */\n      add\n        /* \"#utility.yul\":15433:15464   */\n      swap5\n      pop\n        /* \"#utility.yul\":15307:15311   */\n      0x20\n        /* \"#utility.yul\":15304:15305   */\n      dup2\n        /* \"#utility.yul\":15300:15312   */\n      add\n        /* \"#utility.yul\":15295:15312   */\n      swap1\n      pop\n        /* \"#utility.yul\":15270:15478   */\n      jump(tag_365)\n    tag_367:\n        /* \"#utility.yul\":15506:15512   */\n      dup7\n        /* \"#utility.yul\":15497:15504   */\n      dup4\n        /* \"#utility.yul\":15494:15513   */\n      lt\n        /* \"#utility.yul\":15491:15670   */\n      iszero\n      tag_368\n      jumpi\n        /* \"#utility.yul\":15564:15573   */\n      dup5\n        /* \"#utility.yul\":15559:15562   */\n      dup10\n        /* \"#utility.yul\":15555:15574   */\n      add\n        /* \"#utility.yul\":15549:15575   */\n      mload\n        /* \"#utility.yul\":15607:15655   */\n      tag_369\n        /* \"#utility.yul\":15649:15653   */\n      0x1f\n        /* \"#utility.yul\":15641:15647   */\n      dup10\n        /* \"#utility.yul\":15637:15654   */\n      and\n        /* \"#utility.yul\":15626:15635   */\n      dup3\n        /* \"#utility.yul\":15607:15655   */\n      tag_173\n      jump\t// in\n    tag_369:\n        /* \"#utility.yul\":15599:15605   */\n      dup4\n        /* \"#utility.yul\":15592:15656   */\n      sstore\n        /* \"#utility.yul\":15514:15670   */\n      pop\n        /* \"#utility.yul\":15491:15670   */\n    tag_368:\n        /* \"#utility.yul\":15716:15717   */\n      0x01\n        /* \"#utility.yul\":15712:15713   */\n      0x02\n        /* \"#utility.yul\":15704:15710   */\n      dup9\n        /* \"#utility.yul\":15700:15714   */\n      mul\n        /* \"#utility.yul\":15696:15718   */\n      add\n        /* \"#utility.yul\":15690:15694   */\n      dup9\n        /* \"#utility.yul\":15683:15719   */\n      sstore\n        /* \"#utility.yul\":15118:15729   */\n      pop\n      pop\n      pop\n        /* \"#utility.yul\":15081:15968   */\n    tag_360:\n      pop\n        /* \"#utility.yul\":14671:15974   */\n      pop\n      pop\n      pop\n        /* \"#utility.yul\":14579:15974   */\n      pop\n      pop\n      jump\t// out\n        /* \"#utility.yul\":15980:16293   */\n    tag_61:\n        /* \"#utility.yul\":16093:16097   */\n      0x00\n        /* \"#utility.yul\":16131:16133   */\n      0x20\n        /* \"#utility.yul\":16120:16129   */\n      dup3\n        /* \"#utility.yul\":16116:16134   */\n      add\n        /* \"#utility.yul\":16108:16134   */\n      swap1\n      pop\n        /* \"#utility.yul\":16180:16189   */\n      dup2\n        /* \"#utility.yul\":16174:16178   */\n      dup2\n        /* \"#utility.yul\":16170:16190   */\n      sub\n        /* \"#utility.yul\":16166:16167   */\n      0x00\n        /* \"#utility.yul\":16155:16164   */\n      dup4\n        /* \"#utility.yul\":16151:16168   */\n      add\n        /* \"#utility.yul\":16144:16191   */\n      mstore\n        /* \"#utility.yul\":16208:16286   */\n      tag_371\n        /* \"#utility.yul\":16281:16285   */\n      dup2\n        /* \"#utility.yul\":16272:16278   */\n      dup5\n        /* \"#utility.yul\":16208:16286   */\n      tag_151\n      jump\t// in\n    tag_371:\n        /* \"#utility.yul\":16200:16286   */\n      swap1\n      pop\n        /* \"#utility.yul\":15980:16293   */\n      swap3\n      swap2\n      pop\n      pop\n      jump\t// out\n        /* \"#utility.yul\":16299:16463   */\n    tag_175:\n        /* \"#utility.yul\":16439:16455   */\n      0x4f6e6c7920617574686f72697479000000000000000000000000000000000000\n        /* \"#utility.yul\":16435:16436   */\n      0x00\n        /* \"#utility.yul\":16427:16433   */\n      dup3\n        /* \"#utility.yul\":16423:16437   */\n      add\n        /* \"#utility.yul\":16416:16456   */\n      mstore\n        /* \"#utility.yul\":16299:16463   */\n      pop\n      jump\t// out\n        /* \"#utility.yul\":16469:16835   */\n    tag_176:\n        /* \"#utility.yul\":16611:16614   */\n      0x00\n        /* \"#utility.yul\":16632:16699   */\n      tag_374\n        /* \"#utility.yul\":16696:16698   */\n      0x0e\n        /* \"#utility.yul\":16691:16694   */\n      dup4\n        /* \"#utility.yul\":16632:16699   */\n      tag_149\n      jump\t// in\n    tag_374:\n        /* \"#utility.yul\":16625:16699   */\n      swap2\n      pop\n        /* \"#utility.yul\":16708:16801   */\n      tag_375\n        /* \"#utility.yul\":16797:16800   */\n      dup3\n        /* \"#utility.yul\":16708:16801   */\n      tag_175\n      jump\t// in\n    tag_375:\n        /* \"#utility.yul\":16826:16828   */\n      0x20\n        /* \"#utility.yul\":16821:16824   */\n      dup3\n        /* \"#utility.yul\":16817:16829   */\n      add\n        /* \"#utility.yul\":16810:16829   */\n      swap1\n      pop\n        /* \"#utility.yul\":16469:16835   */\n      swap2\n      swap1\n      pop\n      jump\t// out\n        /* \"#utility.yul\":16841:17260   */\n    tag_65:\n        /* \"#utility.yul\":17007:17011   */\n      0x00\n        /* \"#utility.yul\":17045:17047   */\n      0x20\n        /* \"#utility.yul\":17034:17043   */\n      dup3\n        /* \"#utility.yul\":17030:17048   */\n      add\n        /* \"#utility.yul\":17022:17048   */\n      swap1\n      pop\n        /* \"#utility.yul\":17094:17103   */\n      dup2\n        /* \"#utility.yul\":17088:17092   */\n      dup2\n        /* \"#utility.yul\":17084:17104   */\n      sub\n        /* \"#utility.yul\":17080:17081   */\n      0x00\n        /* \"#utility.yul\":17069:17078   */\n      dup4\n        /* \"#utility.yul\":17065:17082   */\n      add\n        /* \"#utility.yul\":17058:17105   */\n      mstore\n        /* \"#utility.yul\":17122:17253   */\n      tag_377\n        /* \"#utility.yul\":17248:17252   */\n      dup2\n        /* \"#utility.yul\":17122:17253   */\n      tag_176\n      jump\t// in\n    tag_377:\n        /* \"#utility.yul\":17114:17253   */\n      swap1\n      pop\n        /* \"#utility.yul\":16841:17260   */\n      swap2\n      swap1\n      pop\n      jump\t// out\n        /* \"#utility.yul\":17266:17427   */\n    tag_177:\n        /* \"#utility.yul\":17406:17419   */\n      0x53706f7420657869737473000000000000000000000000000000000000000000\n        /* \"#utility.yul\":17402:17403   */\n      0x00\n        /* \"#utility.yul\":17394:17400   */\n      dup3\n        /* \"#utility.yul\":17390:17404   */\n      add\n        /* \"#utility.yul\":17383:17420   */\n      mstore\n        /* \"#utility.yul\":17266:17427   */\n      pop\n      jump\t// out\n        /* \"#utility.yul\":17433:17799   */\n    tag_178:\n        /* \"#utility.yul\":17575:17578   */\n      0x00\n        /* \"#utility.yul\":17596:17663   */\n      tag_380\n        /* \"#utility.yul\":17660:17662   */\n      0x0b\n        /* \"#utility.yul\":17655:17658   */\n      dup4\n        /* \"#utility.yul\":17596:17663   */\n      tag_149\n      jump\t// in\n    tag_380:\n        /* \"#utility.yul\":17589:17663   */\n      swap2\n      pop\n        /* \"#utility.yul\":17672:17765   */\n      tag_381\n        /* \"#utility.yul\":17761:17764   */\n      dup3\n        /* \"#utility.yul\":17672:17765   */\n      tag_177\n      jump\t// in\n    tag_381:\n        /* \"#utility.yul\":17790:17792   */\n      0x20\n        /* \"#utility.yul\":17785:17788   */\n      dup3\n        /* \"#utility.yul\":17781:17793   */\n      add\n        /* \"#utility.yul\":17774:17793   */\n      swap1\n      pop\n        /* \"#utility.yul\":17433:17799   */\n      swap2\n      swap1\n      pop\n      jump\t// out\n        /* \"#utility.yul\":17805:18224   */\n    tag_68:\n        /* \"#utility.yul\":17971:17975   */\n      0x00\n        /* \"#utility.yul\":18009:18011   */\n      0x20\n        /* \"#utility.yul\":17998:18007   */\n      dup3\n        /* \"#utility.yul\":17994:18012   */\n      add\n        /* \"#utility.yul\":17986:18012   */\n      swap1\n      pop\n        /* \"#utility.yul\":18058:18067   */\n      dup2\n        /* \"#utility.yul\":18052:18056   */\n      dup2\n        /* \"#utility.yul\":18048:18068   */\n      sub\n        /* \"#utility.yul\":18044:18045   */\n      0x00\n        /* \"#utility.yul\":18033:18042   */\n      dup4\n        /* \"#utility.yul\":18029:18046   */\n      add\n        /* \"#utility.yul\":18022:18069   */\n      mstore\n        /* \"#utility.yul\":18086:18217   */\n      tag_383\n        /* \"#utility.yul\":18212:18216   */\n      dup2\n        /* \"#utility.yul\":18086:18217   */\n      tag_178\n      jump\t// in\n    tag_383:\n        /* \"#utility.yul\":18078:18217   */\n      swap1\n      pop\n        /* \"#utility.yul\":17805:18224   */\n      swap2\n      swap1\n      pop\n      jump\t// out\n        /* \"#utility.yul\":18230:18397   */\n    tag_179:\n        /* \"#utility.yul\":18370:18389   */\n      0x4c6f636174696f6e207265717569726564000000000000000000000000000000\n        /* \"#utility.yul\":18366:18367   */\n      0x00\n        /* \"#utility.yul\":18358:18364   */\n      dup3\n        /* \"#utility.yul\":18354:18368   */\n      add\n        /* \"#utility.yul\":18347:18390   */\n      mstore\n        /* \"#utility.yul\":18230:18397   */\n      pop\n      jump\t// out\n        /* \"#utility.yul\":18403:18769   */\n    tag_180:\n        /* \"#utility.yul\":18545:18548   */\n      0x00\n        /* \"#utility.yul\":18566:18633   */\n      tag_386\n        /* \"#utility.yul\":18630:18632   */\n      0x11\n        /* \"#utility.yul\":18625:18628   */\n      dup4\n        /* \"#utility.yul\":18566:18633   */\n      tag_149\n      jump\t// in\n    tag_386:\n        /* \"#utility.yul\":18559:18633   */\n      swap2\n      pop\n        /* \"#utility.yul\":18642:18735   */\n      tag_387\n        /* \"#utility.yul\":18731:18734   */\n      dup3\n        /* \"#utility.yul\":18642:18735   */\n      tag_179\n      jump\t// in\n    tag_387:\n        /* \"#utility.yul\":18760:18762   */\n      0x20\n        /* \"#utility.yul\":18755:18758   */\n      dup3\n        /* \"#utility.yul\":18751:18763   */\n      add\n        /* \"#utility.yul\":18744:18763   */\n      swap1\n      pop\n        /* \"#utility.yul\":18403:18769   */\n      swap2\n      swap1\n      pop\n      jump\t// out\n        /* \"#utility.yul\":18775:19194   */\n    tag_71:\n        /* \"#utility.yul\":18941:18945   */\n      0x00\n        /* \"#utility.yul\":18979:18981   */\n      0x20\n        /* \"#utility.yul\":18968:18977   */\n      dup3\n        /* \"#utility.yul\":18964:18982   */\n      add\n        /* \"#utility.yul\":18956:18982   */\n      swap1\n      pop\n        /* \"#utility.yul\":19028:19037   */\n      dup2\n        /* \"#utility.yul\":19022:19026   */\n      dup2\n        /* \"#utility.yul\":19018:19038   */\n      sub\n        /* \"#utility.yul\":19014:19015   */\n      0x00\n        /* \"#utility.yul\":19003:19012   */\n      dup4\n        /* \"#utility.yul\":18999:19016   */\n      add\n        /* \"#utility.yul\":18992:19039   */\n      mstore\n        /* \"#utility.yul\":19056:19187   */\n      tag_389\n        /* \"#utility.yul\":19182:19186   */\n      dup2\n        /* \"#utility.yul\":19056:19187   */\n      tag_180\n      jump\t// in\n    tag_389:\n        /* \"#utility.yul\":19048:19187   */\n      swap1\n      pop\n        /* \"#utility.yul\":18775:19194   */\n      swap2\n      swap1\n      pop\n      jump\t// out\n        /* \"#utility.yul\":19200:19364   */\n    tag_181:\n        /* \"#utility.yul\":19340:19356   */\n      0x5265676973746572206669727374000000000000000000000000000000000000\n        /* \"#utility.yul\":19336:19337   */\n      0x00\n        /* \"#utility.yul\":19328:19334   */\n      dup3\n        /* \"#utility.yul\":19324:19338   */\n      add\n        /* \"#utility.yul\":19317:19357   */\n      mstore\n        /* \"#utility.yul\":19200:19364   */\n      pop\n      jump\t// out\n        /* \"#utility.yul\":19370:19736   */\n    tag_182:\n        /* \"#utility.yul\":19512:19515   */\n      0x00\n        /* \"#utility.yul\":19533:19600   */\n      tag_392\n        /* \"#utility.yul\":19597:19599   */\n      0x0e\n        /* \"#utility.yul\":19592:19595   */\n      dup4\n        /* \"#utility.yul\":19533:19600   */\n      tag_149\n      jump\t// in\n    tag_392:\n        /* \"#utility.yul\":19526:19600   */\n      swap2\n      pop\n        /* \"#utility.yul\":19609:19702   */\n      tag_393\n        /* \"#utility.yul\":19698:19701   */\n      dup3\n        /* \"#utility.yul\":19609:19702   */\n      tag_181\n      jump\t// in\n    tag_393:\n        /* \"#utility.yul\":19727:19729   */\n      0x20\n        /* \"#utility.yul\":19722:19725   */\n      dup3\n        /* \"#utility.yul\":19718:19730   */\n      add\n        /* \"#utility.yul\":19711:19730   */\n      swap1\n      pop\n        /* \"#utility.yul\":19370:19736   */\n      swap2\n      swap1\n      pop\n      jump\t// out\n        /* \"#utility.yul\":19742:20161   */\n    tag_83:\n        /* \"#utility.yul\":19908:19912   */\n      0x00\n        /* \"#utility.yul\":19946:19948   */\n      0x20\n        /* \"#utility.yul\":19935:19944   */\n      dup3\n        /* \"#utility.yul\":19931:19949   */\n      add\n        /* \"#utility.yul\":19923:19949   */\n      swap1\n      pop\n        /* \"#utility.yul\":19995:20004   */\n      dup2\n        /* \"#utility.yul\":19989:19993   */\n      dup2\n        /* \"#utility.yul\":19985:20005   */\n      sub\n        /* \"#utility.yul\":19981:19982   */\n      0x00\n        /* \"#utility.yul\":19970:19979   */\n      dup4\n        /* \"#utility.yul\":19966:19983   */\n      add\n        /* \"#utility.yul\":19959:20006   */\n      mstore\n        /* \"#utility.yul\":20023:20154   */\n      tag_395\n        /* \"#utility.yul\":20149:20153   */\n      dup2\n        /* \"#utility.yul\":20023:20154   */\n      tag_182\n      jump\t// in\n    tag_395:\n        /* \"#utility.yul\":20015:20154   */\n      swap1\n      pop\n        /* \"#utility.yul\":19742:20161   */\n      swap2\n      swap1\n      pop\n      jump\t// out\n        /* \"#utility.yul\":20167:20331   */\n    tag_183:\n        /* \"#utility.yul\":20307:20323   */\n      0x53706f74206e6f7420666f756e64000000000000000000000000000000000000\n        /* \"#utility.yul\":20303:20304   */\n      0x00\n        /* \"#utility.yul\":20295:20301   */\n      dup3\n        /* \"#utility.yul\":20291:20305   */\n      add\n        /* \"#utility.yul\":20284:20324   */\n      mstore\n        /* \"#utility.yul\":20167:20331   */\n      pop\n      jump\t// out\n        /* \"#utility.yul\":20337:20703   */\n    tag_184:\n        /* \"#utility.yul\":20479:20482   */\n      0x00\n        /* \"#utility.yul\":20500:20567   */\n      tag_398\n        /* \"#utility.yul\":20564:20566   */\n      0x0e\n        /* \"#utility.yul\":20559:20562   */\n      dup4\n        /* \"#utility.yul\":20500:20567   */\n      tag_149\n      jump\t// in\n    tag_398:\n        /* \"#utility.yul\":20493:20567   */\n      swap2\n      pop\n        /* \"#utility.yul\":20576:20669   */\n      tag_399\n        /* \"#utility.yul\":20665:20668   */\n      dup3\n        /* \"#utility.yul\":20576:20669   */\n      tag_183\n      jump\t// in\n    tag_399:\n        /* \"#utility.yul\":20694:20696   */\n      0x20\n        /* \"#utility.yul\":20689:20692   */\n      dup3\n        /* \"#utility.yul\":20685:20697   */\n      add\n        /* \"#utility.yul\":20678:20697   */\n      swap1\n      pop\n        /* \"#utility.yul\":20337:20703   */\n      swap2\n      swap1\n      pop\n      jump\t// out\n        /* \"#utility.yul\":20709:21128   */\n    tag_86:\n        /* \"#utility.yul\":20875:20879   */\n      0x00\n        /* \"#utility.yul\":20913:20915   */\n      0x20\n        /* \"#utility.yul\":20902:20911   */\n      dup3\n        /* \"#utility.yul\":20898:20916   */\n      add\n        /* \"#utility.yul\":20890:20916   */\n      swap1\n      pop\n        /* \"#utility.yul\":20962:20971   */\n      dup2\n        /* \"#utility.yul\":20956:20960   */\n      dup2\n        /* \"#utility.yul\":20952:20972   */\n      sub\n        /* \"#utility.yul\":20948:20949   */\n      0x00\n        /* \"#utility.yul\":20937:20946   */\n      dup4\n        /* \"#utility.yul\":20933:20950   */\n      add\n        /* \"#utility.yul\":20926:20973   */\n      mstore\n        /* \"#utility.yul\":20990:21121   */\n      tag_401\n        /* \"#utility.yul\":21116:21120   */\n      dup2\n        /* \"#utility.yul\":20990:21121   */\n      tag_184\n      jump\t// in\n    tag_401:\n        /* \"#utility.yul\":20982:21121   */\n      swap1\n      pop\n        /* \"#utility.yul\":20709:21128   */\n      swap2\n      swap1\n      pop\n      jump\t// out\n        /* \"#utility.yul\":21134:21294   */\n    tag_185:\n        /* \"#utility.yul\":21274:21286   */\n      0x53706f742074616b656e00000000000000000000000000000000000000000000\n        /* \"#utility.yul\":21270:21271   */\n      0x00\n        /* \"#utility.yul\":21262:21268   */\n      dup3\n        /* \"#utility.yul\":21258:21272   */\n      add\n        /* \"#utility.yul\":21251:21287   */\n      mstore\n        /* \"#utility.yul\":21134:21294   */\n      pop\n      jump\t// out\n        /* \"#utility.yul\":21300:21666   */\n    tag_186:\n        /* \"#utility.yul\":21442:21445   */\n      0x00\n        /* \"#utility.yul\":21463:21530   */\n      tag_404\n        /* \"#utility.yul\":21527:21529   */\n      0x0a\n        /* \"#utility.yul\":21522:21525   */\n      dup4\n        /* \"#utility.yul\":21463:21530   */\n      tag_149\n      jump\t// in\n    tag_404:\n        /* \"#utility.yul\":21456:21530   */\n      swap2\n      pop\n        /* \"#utility.yul\":21539:21632   */\n      tag_405\n        /* \"#utility.yul\":21628:21631   */\n      dup3\n        /* \"#utility.yul\":21539:21632   */\n      tag_185\n      jump\t// in\n    tag_405:\n        /* \"#utility.yul\":21657:21659   */\n      0x20\n        /* \"#utility.yul\":21652:21655   */\n      dup3\n        /* \"#utility.yul\":21648:21660   */\n      add\n        /* \"#utility.yul\":21641:21660   */\n      swap1\n      pop\n        /* \"#utility.yul\":21300:21666   */\n      swap2\n      swap1\n      pop\n      jump\t// out\n        /* \"#utility.yul\":21672:22091   */\n    tag_89:\n        /* \"#utility.yul\":21838:21842   */\n      0x00\n        /* \"#utility.yul\":21876:21878   */\n      0x20\n        /* \"#utility.yul\":21865:21874   */\n      dup3\n        /* \"#utility.yul\":21861:21879   */\n      add\n        /* \"#utility.yul\":21853:21879   */\n      swap1\n      pop\n        /* \"#utility.yul\":21925:21934   */\n      dup2\n        /* \"#utility.yul\":21919:21923   */\n      dup2\n        /* \"#utility.yul\":21915:21935   */\n      sub\n        /* \"#utility.yul\":21911:21912   */\n      0x00\n        /* \"#utility.yul\":21900:21909   */\n      dup4\n        /* \"#utility.yul\":21896:21913   */\n      add\n        /* \"#utility.yul\":21889:21936   */\n      mstore\n        /* \"#utility.yul\":21953:22084   */\n      tag_407\n        /* \"#utility.yul\":22079:22083   */\n      dup2\n        /* \"#utility.yul\":21953:22084   */\n      tag_186\n      jump\t// in\n    tag_407:\n        /* \"#utility.yul\":21945:22084   */\n      swap1\n      pop\n        /* \"#utility.yul\":21672:22091   */\n      swap2\n      swap1\n      pop\n      jump\t// out\n        /* \"#utility.yul\":22097:22260   */\n    tag_187:\n        /* \"#utility.yul\":22237:22252   */\n      0x4e6f7420796f75722073706f7400000000000000000000000000000000000000\n        /* \"#utility.yul\":22233:22234   */\n      0x00\n        /* \"#utility.yul\":22225:22231   */\n      dup3\n        /* \"#utility.yul\":22221:22235   */\n      add\n        /* \"#utility.yul\":22214:22253   */\n      mstore\n        /* \"#utility.yul\":22097:22260   */\n      pop\n      jump\t// out\n        /* \"#utility.yul\":22266:22632   */\n    tag_188:\n        /* \"#utility.yul\":22408:22411   */\n      0x00\n        /* \"#utility.yul\":22429:22496   */\n      tag_410\n        /* \"#utility.yul\":22493:22495   */\n      0x0d\n        /* \"#utility.yul\":22488:22491   */\n      dup4\n        /* \"#utility.yul\":22429:22496   */\n      tag_149\n      jump\t// in\n    tag_410:\n        /* \"#utility.yul\":22422:22496   */\n      swap2\n      pop\n        /* \"#utility.yul\":22505:22598   */\n      tag_411\n        /* \"#utility.yul\":22594:22597   */\n      dup3\n        /* \"#utility.yul\":22505:22598   */\n      tag_187\n      jump\t// in\n    tag_411:\n        /* \"#utility.yul\":22623:22625   */\n      0x20\n        /* \"#utility.yul\":22618:22621   */\n      dup3\n        /* \"#utility.yul\":22614:22626   */\n      add\n        /* \"#utility.yul\":22607:22626   */\n      swap1\n      pop\n        /* \"#utility.yul\":22266:22632   */\n      swap2\n      swap1\n      pop\n      jump\t// out\n        /* \"#utility.yul\":22638:23057   */\n    tag_95:\n        /* \"#utility.yul\":22804:22808   */\n      0x00\n        /* \"#utility.yul\":22842:22844   */\n      0x20\n        /* \"#utility.yul\":22831:22840   */\n      dup3\n        /* \"#utility.yul\":22827:22845   */\n      add\n        /* \"#utility.yul\":22819:22845   */\n      swap1\n      pop\n        /* \"#utility.yul\":22891:22900   */\n      dup2\n        /* \"#utility.yul\":22885:22889   */\n      dup2\n        /* \"#utility.yul\":22881:22901   */\n      sub\n        /* \"#utility.yul\":22877:22878   */\n      0x00\n        /* \"#utility.yul\":22866:22875   */\n      dup4\n        /* \"#utility.yul\":22862:22879   */\n      add\n        /* \"#utility.yul\":22855:22902   */\n      mstore\n        /* \"#utility.yul\":22919:23050   */\n      tag_413\n        /* \"#utility.yul\":23045:23049   */\n      dup2\n        /* \"#utility.yul\":22919:23050   */\n      tag_188\n      jump\t// in\n    tag_413:\n        /* \"#utility.yul\":22911:23050   */\n      swap1\n      pop\n        /* \"#utility.yul\":22638:23057   */\n      swap2\n      swap1\n      pop\n      jump\t// out\n        /* \"#utility.yul\":23063:23228   */\n    tag_189:\n        /* \"#utility.yul\":23203:23220   */\n      0x416d6f756e742072657175697265640000000000000000000000000000000000\n        /* \"#utility.yul\":23199:23200   */\n      0x00\n        /* \"#utility.yul\":23191:23197   */\n      dup3\n        /* \"#utility.yul\":23187:23201   */\n      add\n        /* \"#utility.yul\":23180:23221   */\n      mstore\n        /* \"#utility.yul\":23063:23228   */\n      pop\n      jump\t// out\n        /* \"#utility.yul\":23234:23600   */\n    tag_190:\n        /* \"#utility.yul\":23376:23379   */\n      0x00\n        /* \"#utility.yul\":23397:23464   */\n      tag_416\n        /* \"#utility.yul\":23461:23463   */\n      0x0f\n        /* \"#utility.yul\":23456:23459   */\n      dup4\n        /* \"#utility.yul\":23397:23464   */\n      tag_149\n      jump\t// in\n    tag_416:\n        /* \"#utility.yul\":23390:23464   */\n      swap2\n      pop\n        /* \"#utility.yul\":23473:23566   */\n      tag_417\n        /* \"#utility.yul\":23562:23565   */\n      dup3\n        /* \"#utility.yul\":23473:23566   */\n      tag_189\n      jump\t// in\n    tag_417:\n        /* \"#utility.yul\":23591:23593   */\n      0x20\n        /* \"#utility.yul\":23586:23589   */\n      dup3\n        /* \"#utility.yul\":23582:23594   */\n      add\n        /* \"#utility.yul\":23575:23594   */\n      swap1\n      pop\n        /* \"#utility.yul\":23234:23600   */\n      swap2\n      swap1\n      pop\n      jump\t// out\n        /* \"#utility.yul\":23606:24025   */\n    tag_98:\n        /* \"#utility.yul\":23772:23776   */\n      0x00\n        /* \"#utility.yul\":23810:23812   */\n      0x20\n        /* \"#utility.yul\":23799:23808   */\n      dup3\n        /* \"#utility.yul\":23795:23813   */\n      add\n        /* \"#utility.yul\":23787:23813   */\n      swap1\n      pop\n        /* \"#utility.yul\":23859:23868   */\n      dup2\n        /* \"#utility.yul\":23853:23857   */\n      dup2\n        /* \"#utility.yul\":23849:23869   */\n      sub\n        /* \"#utility.yul\":23845:23846   */\n      0x00\n        /* \"#utility.yul\":23834:23843   */\n      dup4\n        /* \"#utility.yul\":23830:23847   */\n      add\n        /* \"#utility.yul\":23823:23870   */\n      mstore\n        /* \"#utility.yul\":23887:24018   */\n      tag_419\n        /* \"#utility.yul\":24013:24017   */\n      dup2\n        /* \"#utility.yul\":23887:24018   */\n      tag_190\n      jump\t// in\n    tag_419:\n        /* \"#utility.yul\":23879:24018   */\n      swap1\n      pop\n        /* \"#utility.yul\":23606:24025   */\n      swap2\n      swap1\n      pop\n      jump\t// out\n        /* \"#utility.yul\":24031:24473   */\n    tag_100:\n        /* \"#utility.yul\":24180:24184   */\n      0x00\n        /* \"#utility.yul\":24218:24220   */\n      0x60\n        /* \"#utility.yul\":24207:24216   */\n      dup3\n        /* \"#utility.yul\":24203:24221   */\n      add\n        /* \"#utility.yul\":24195:24221   */\n      swap1\n      pop\n        /* \"#utility.yul\":24231:24302   */\n      tag_421\n        /* \"#utility.yul\":24299:24300   */\n      0x00\n        /* \"#utility.yul\":24288:24297   */\n      dup4\n        /* \"#utility.yul\":24284:24301   */\n      add\n        /* \"#utility.yul\":24275:24281   */\n      dup7\n        /* \"#utility.yul\":24231:24302   */\n      tag_154\n      jump\t// in\n    tag_421:\n        /* \"#utility.yul\":24312:24384   */\n      tag_422\n        /* \"#utility.yul\":24380:24382   */\n      0x20\n        /* \"#utility.yul\":24369:24378   */\n      dup4\n        /* \"#utility.yul\":24365:24383   */\n      add\n        /* \"#utility.yul\":24356:24362   */\n      dup6\n        /* \"#utility.yul\":24312:24384   */\n      tag_154\n      jump\t// in\n    tag_422:\n        /* \"#utility.yul\":24394:24466   */\n      tag_423\n        /* \"#utility.yul\":24462:24464   */\n      0x40\n        /* \"#utility.yul\":24451:24460   */\n      dup4\n        /* \"#utility.yul\":24447:24465   */\n      add\n        /* \"#utility.yul\":24438:24444   */\n      dup5\n        /* \"#utility.yul\":24394:24466   */\n      tag_155\n      jump\t// in\n    tag_423:\n        /* \"#utility.yul\":24031:24473   */\n      swap5\n      swap4\n      pop\n      pop\n      pop\n      pop\n      jump\t// out\n        /* \"#utility.yul\":24479:24595   */\n    tag_191:\n        /* \"#utility.yul\":24549:24570   */\n      tag_425\n        /* \"#utility.yul\":24564:24569   */\n      dup2\n        /* \"#utility.yul\":24549:24570   */\n      tag_152\n      jump\t// in\n    tag_425:\n        /* \"#utility.yul\":24542:24547   */\n      dup2\n        /* \"#utility.yul\":24539:24571   */\n      eq\n        /* \"#utility.yul\":24529:24589   */\n      tag_426\n      jumpi\n        /* \"#utility.yul\":24585:24586   */\n      0x00\n        /* \"#utility.yul\":24582:24583   */\n      0x00\n        /* \"#utility.yul\":24575:24587   */\n      revert\n        /* \"#utility.yul\":24529:24589   */\n    tag_426:\n        /* \"#utility.yul\":24479:24595   */\n      pop\n      jump\t// out\n        /* \"#utility.yul\":24601:24738   */\n    tag_192:\n        /* \"#utility.yul\":24655:24660   */\n      0x00\n        /* \"#utility.yul\":24686:24692   */\n      dup2\n        /* \"#utility.yul\":24680:24693   */\n      mload\n        /* \"#utility.yul\":24671:24693   */\n      swap1\n      pop\n        /* \"#utility.yul\":24702:24732   */\n      tag_428\n        /* \"#utility.yul\":24726:24731   */\n      dup2\n        /* \"#utility.yul\":24702:24732   */\n      tag_191\n      jump\t// in\n    tag_428:\n        /* \"#utility.yul\":24601:24738   */\n      swap3\n      swap2\n      pop\n      pop\n      jump\t// out\n        /* \"#utility.yul\":24744:25089   */\n    tag_104:\n        /* \"#utility.yul\":24811:24817   */\n      0x00\n        /* \"#utility.yul\":24860:24862   */\n      0x20\n        /* \"#utility.yul\":24848:24857   */\n      dup3\n        /* \"#utility.yul\":24839:24846   */\n      dup5\n        /* \"#utility.yul\":24835:24858   */\n      sub\n        /* \"#utility.yul\":24831:24863   */\n      slt\n        /* \"#utility.yul\":24828:24947   */\n      iszero\n      tag_430\n      jumpi\n        /* \"#utility.yul\":24866:24945   */\n      tag_431\n      tag_124\n      jump\t// in\n    tag_431:\n        /* \"#utility.yul\":24828:24947   */\n    tag_430:\n        /* \"#utility.yul\":24986:24987   */\n      0x00\n        /* \"#utility.yul\":25011:25072   */\n      tag_432\n        /* \"#utility.yul\":25064:25071   */\n      dup5\n        /* \"#utility.yul\":25055:25061   */\n      dup3\n        /* \"#utility.yul\":25044:25053   */\n      dup6\n        /* \"#utility.yul\":25040:25062   */\n      add\n        /* \"#utility.yul\":25011:25072   */\n      tag_192\n      jump\t// in\n    tag_432:\n        /* \"#utility.yul\":25001:25072   */\n      swap2\n      pop\n        /* \"#utility.yul\":24957:25082   */\n      pop\n        /* \"#utility.yul\":24744:25089   */\n      swap3\n      swap2\n      pop\n      pop\n      jump\t// out\n        /* \"#utility.yul\":25095:25317   */\n    tag_106:\n        /* \"#utility.yul\":25188:25192   */\n      0x00\n        /* \"#utility.yul\":25226:25228   */\n      0x20\n        /* \"#utility.yul\":25215:25224   */\n      dup3\n        /* \"#utility.yul\":25211:25229   */\n      add\n        /* \"#utility.yul\":25203:25229   */\n      swap1\n      pop\n        /* \"#utility.yul\":25239:25310   */\n      tag_434\n        /* \"#utility.yul\":25307:25308   */\n      0x00\n        /* \"#utility.yul\":25296:25305   */\n      dup4\n        /* \"#utility.yul\":25292:25309   */\n      add\n        /* \"#utility.yul\":25283:25289   */\n      dup5\n        /* \"#utility.yul\":25239:25310   */\n      tag_155\n      jump\t// in\n    tag_434:\n        /* \"#utility.yul\":25095:25317   */\n      swap3\n      swap2\n      pop\n      pop\n      jump\t// out\n        /* \"#utility.yul\":25323:25655   */\n    tag_113:\n        /* \"#utility.yul\":25444:25448   */\n      0x00\n        /* \"#utility.yul\":25482:25484   */\n      0x40\n        /* \"#utility.yul\":25471:25480   */\n      dup3\n        /* \"#utility.yul\":25467:25485   */\n      add\n        /* \"#utility.yul\":25459:25485   */\n      swap1\n      pop\n        /* \"#utility.yul\":25495:25566   */\n      tag_436\n        /* \"#utility.yul\":25563:25564   */\n      0x00\n        /* \"#utility.yul\":25552:25561   */\n      dup4\n        /* \"#utility.yul\":25548:25565   */\n      add\n        /* \"#utility.yul\":25539:25545   */\n      dup6\n        /* \"#utility.yul\":25495:25566   */\n      tag_154\n      jump\t// in\n    tag_436:\n        /* \"#utility.yul\":25576:25648   */\n      tag_437\n        /* \"#utility.yul\":25644:25646   */\n      0x20\n        /* \"#utility.yul\":25633:25642   */\n      dup4\n        /* \"#utility.yul\":25629:25647   */\n      add\n        /* \"#utility.yul\":25620:25626   */\n      dup5\n        /* \"#utility.yul\":25576:25648   */\n      tag_155\n      jump\t// in\n    tag_437:\n        /* \"#utility.yul\":25323:25655   */\n      swap4\n      swap3\n      pop\n      pop\n      pop\n      jump\t// out\n\n    auxdata: 0xa2646970667358221220f22727d82aac0f84e64f581015d128403fd58178cf32fe7cd7acd353c8ce5d6e64736f6c634300081e0033\n}\n",
				"bytecode": {
					"linkReferences": {},
					"object": "608060405234801561000f575f5ffd5b50604051611c57380380611c5783398181016040528101906100319190610114565b335f5f6101000a81548173ffffffffffffffffffffffffffffffffffffffff021916908373ffffffffffffffffffffffffffffffffffffffff1602179055508060015f6101000a81548173ffffffffffffffffffffffffffffffffffffffff021916908373ffffffffffffffffffffffffffffffffffffffff1602179055505061013f565b5f5ffd5b5f73ffffffffffffffffffffffffffffffffffffffff82169050919050565b5f6100e3826100ba565b9050919050565b6100f3816100d9565b81146100fd575f5ffd5b50565b5f8151905061010e816100ea565b92915050565b5f60208284031215610129576101286100b6565b5b5f61013684828501610100565b91505092915050565b611b0b8061014c5f395ff3fe608060405234801561000f575f5ffd5b5060043610610091575f3560e01c8063642a79eb11610064578063642a79eb1461011c578063728c34d714610138578063a127dcd314610154578063c36809e714610170578063f5defcd31461018e57610091565b806305f4804c14610095578063309f225d146100b1578063383bb2d1146100cf5780634aa60186146100eb575b5f5ffd5b6100af60048036038101906100aa9190610fb9565b6101c1565b005b6100b961036d565b6040516100c6919061107a565b60405180910390f35b6100e960048036038101906100e491906110c6565b610392565b005b6101056004803603810190610100919061115b565b6105c6565b604051610113929190611200565b60405180910390f35b6101366004803603810190610131919061122e565b610678565b005b610152600480360381019061014d9190611259565b61087e565b005b61016e6004803603810190610169919061122e565b610ac9565b005b610178610d6a565b60405161018591906112a6565b60405180910390f35b6101a860048036038101906101a3919061122e565b610d8e565b6040516101b894939291906112ce565b60405180910390f35b60025f3373ffffffffffffffffffffffffffffffffffffffff1673ffffffffffffffffffffffffffffffffffffffff1681526020019081526020015f206001015f9054906101000a900460ff161561024e576040517f08c379a000000000000000000000000000000000000000000000000000000000815260040161024590611362565b60405180910390fd5b5f815111610291576040517f08c379a0000000000000000000000000000000000000000000000000000000008152600401610288906113ca565b60405180910390fd5b60405180604001604052808281526020016001151581525060025f3373ffffffffffffffffffffffffffffffffffffffff1673ffffffffffffffffffffffffffffffffffffffff1681526020019081526020015f205f820151815f0190816102f991906115dc565b506020820151816001015f6101000a81548160ff0219169083151502179055509050503373ffffffffffffffffffffffffffffffffffffffff167f9b956fafd6b420070aaa3307dcf792c7a34a3118d4271ee745e1472b281a2f1f8260405161036291906116ab565b60405180910390a250565b60015f9054906101000a900473ffffffffffffffffffffffffffffffffffffffff1681565b5f5f9054906101000a900473ffffffffffffffffffffffffffffffffffffffff1673ffffffffffffffffffffffffffffffffffffffff163373ffffffffffffffffffffffffffffffffffffffff1614610420576040517f08c379a000000000000000000000000000000000000000000000000000000000815260040161041790611715565b60405180910390fd5b5f60035f8481526020019081526020015f205f015414610475576040517f08c379a000000000000000000000000000000000000000000000000000000000815260040161046c9061177d565b60405180910390fd5b5f8151116104b8576040517f08c379a00000000000000000000000000000000000000000000000000000000081526004016104af906117e5565b60405180910390fd5b60405180608001604052808381526020018281526020016001151581526020015f73ffffffffffffffffffffffffffffffffffffffff1681525060035f8481526020019081526020015f205f820151815f0155602082015181600101908161052091906115dc565b506040820151816002015f6101000a81548160ff02191690831515021790555060608201518160020160016101000a81548173ffffffffffffffffffffffffffffffffffffffff021916908373ffffffffffffffffffffffffffffffffffffffff160217905550905050817f3ece948a447a7f190b4bbf315d6e3c896b8b187f51af544e79890ac3cb07f560826040516105ba91906116ab565b60405180910390a25050565b6002602052805f5260405f205f91509050805f0180546105e590611415565b80601f016020809104026020016040519081016040528092919081815260200182805461061190611415565b801561065c5780601f106106335761010080835404028352916020019161065c565b820191905f5260205f20905b81548152906001019060200180831161063f57829003601f168201915b505050505090806001015f9054906101000a900460ff16905082565b60025f3373ffffffffffffffffffffffffffffffffffffffff1673ffffffffffffffffffffffffffffffffffffffff1681526020019081526020015f206001015f9054906101000a900460ff16610704576040517f08c379a00000000000000000000000000000000000000000000000000000000081526004016106fb9061184d565b60405180910390fd5b5f60035f8381526020019081526020015f205f015403610759576040517f08c379a0000000000000000000000000000000000000000000000000000000008152600401610750906118b5565b60405180910390fd5b60035f8281526020019081526020015f206002015f9054906101000a900460ff166107b9576040517f08c379a00000000000000000000000000000000000000000000000000000000081526004016107b09061191d565b60405180910390fd5b5f60035f8381526020019081526020015f206002015f6101000a81548160ff0219169083151502179055503360035f8381526020019081526020015f2060020160016101000a81548173ffffffffffffffffffffffffffffffffffffffff021916908373ffffffffffffffffffffffffffffffffffffffff160217905550803373ffffffffffffffffffffffffffffffffffffffff167ff188b1697a1957c8cf926acf3bd65c4bbfa00e37d369a477738e28c39aee097d60405160405180910390a350565b5f60035f8481526020019081526020015f205f0154036108d3576040517f08c379a00000000000000000000000000000000000000000000000000000000081526004016108ca906118b5565b60405180910390fd5b3373ffffffffffffffffffffffffffffffffffffffff1660035f8481526020019081526020015f2060020160019054906101000a900473ffffffffffffffffffffffffffffffffffffffff1673ffffffffffffffffffffffffffffffffffffffff1614610975576040517f08c379a000000000000000000000000000000000000000000000000000000000815260040161096c90611985565b60405180910390fd5b5f81116109b7576040517f08c379a00000000000000000000000000000000000000000000000000000000081526004016109ae906119ed565b60405180910390fd5b60015f9054906101000a900473ffffffffffffffffffffffffffffffffffffffff1673ffffffffffffffffffffffffffffffffffffffff166323b872dd335f5f9054906101000a900473ffffffffffffffffffffffffffffffffffffffff16846040518463ffffffff1660e01b8152600401610a3593929190611a0b565b6020604051808303815f875af1158015610a51573d5f5f3e3d5ffd5b505050506040513d601f19601f82011682018060405250810190610a759190611a6a565b50813373ffffffffffffffffffffffffffffffffffffffff167fc65a4e529c0450a515882508bea7ee3485fbfdf8436e0bd13dc38dfbc859b1cb83604051610abd9190611a95565b60405180910390a35050565b5f60035f8381526020019081526020015f205f015403610b1e576040517f08c379a0000000000000000000000000000000000000000000000000000000008152600401610b15906118b5565b60405180910390fd5b3373ffffffffffffffffffffffffffffffffffffffff1660035f8381526020019081526020015f2060020160019054906101000a900473ffffffffffffffffffffffffffffffffffffffff1673ffffffffffffffffffffffffffffffffffffffff1614610bc0576040517f08c379a0000000000000000000000000000000000000000000000000000000008152600401610bb790611985565b60405180910390fd5b600160035f8381526020019081526020015f206002015f6101000a81548160ff0219169083151502179055505f60035f8381526020019081526020015f2060020160016101000a81548173ffffffffffffffffffffffffffffffffffffffff021916908373ffffffffffffffffffffffffffffffffffffffff1602179055505f678ac7230489e80000905060015f9054906101000a900473ffffffffffffffffffffffffffffffffffffffff1673ffffffffffffffffffffffffffffffffffffffff166321670f2233836040518363ffffffff1660e01b8152600401610ca7929190611aae565b5f604051808303815f87803b158015610cbe575f5ffd5b505af1158015610cd0573d5f5f3e3d5ffd5b50505050813373ffffffffffffffffffffffffffffffffffffffff167ff2a04a20d3fa0a38ceccc0513ca932967ad7ab073b1547f867f0cac2380f3ddc60405160405180910390a33373ffffffffffffffffffffffffffffffffffffffff167ff9b6ec770c96c3a6f9225bf3a8463a8ad03e884448af07b4ecd4d19d628946ee82604051610d5e9190611a95565b60405180910390a25050565b5f5f9054906101000a900473ffffffffffffffffffffffffffffffffffffffff1681565b6003602052805f5260405f205f91509050805f015490806001018054610db390611415565b80601f0160208091040260200160405190810160405280929190818152602001828054610ddf90611415565b8015610e2a5780601f10610e0157610100808354040283529160200191610e2a565b820191905f5260205f20905b815481529060010190602001808311610e0d57829003601f168201915b505050505090806002015f9054906101000a900460ff16908060020160019054906101000a900473ffffffffffffffffffffffffffffffffffffffff16905084565b5f604051905090565b5f5ffd5b5f5ffd5b5f5ffd5b5f5ffd5b5f601f19601f8301169050919050565b7f4e487b71000000000000000000000000000000000000000000000000000000005f52604160045260245ffd5b610ecb82610e85565b810181811067ffffffffffffffff82111715610eea57610ee9610e95565b5b80604052505050565b5f610efc610e6c565b9050610f088282610ec2565b919050565b5f67ffffffffffffffff821115610f2757610f26610e95565b5b610f3082610e85565b9050602081019050919050565b828183375f83830152505050565b5f610f5d610f5884610f0d565b610ef3565b905082815260208101848484011115610f7957610f78610e81565b5b610f84848285610f3d565b509392505050565b5f82601f830112610fa057610f9f610e7d565b5b8135610fb0848260208601610f4b565b91505092915050565b5f60208284031215610fce57610fcd610e75565b5b5f82013567ffffffffffffffff811115610feb57610fea610e79565b5b610ff784828501610f8c565b91505092915050565b5f73ffffffffffffffffffffffffffffffffffffffff82169050919050565b5f819050919050565b5f61104261103d61103884611000565b61101f565b611000565b9050919050565b5f61105382611028565b9050919050565b5f61106482611049565b9050919050565b6110748161105a565b82525050565b5f60208201905061108d5f83018461106b565b92915050565b5f819050919050565b6110a581611093565b81146110af575f5ffd5b50565b5f813590506110c08161109c565b92915050565b5f5f604083850312156110dc576110db610e75565b5b5f6110e9858286016110b2565b925050602083013567ffffffffffffffff81111561110a57611109610e79565b5b61111685828601610f8c565b9150509250929050565b5f61112a82611000565b9050919050565b61113a81611120565b8114611144575f5ffd5b50565b5f8135905061115581611131565b92915050565b5f602082840312156111705761116f610e75565b5b5f61117d84828501611147565b91505092915050565b5f81519050919050565b5f82825260208201905092915050565b8281835e5f83830152505050565b5f6111b882611186565b6111c28185611190565b93506111d28185602086016111a0565b6111db81610e85565b840191505092915050565b5f8115159050919050565b6111fa816111e6565b82525050565b5f6040820190508181035f83015261121881856111ae565b905061122760208301846111f1565b9392505050565b5f6020828403121561124357611242610e75565b5b5f611250848285016110b2565b91505092915050565b5f5f6040838503121561126f5761126e610e75565b5b5f61127c858286016110b2565b925050602061128d858286016110b2565b9150509250929050565b6112a081611120565b82525050565b5f6020820190506112b95f830184611297565b92915050565b6112c881611093565b82525050565b5f6080820190506112e15f8301876112bf565b81810360208301526112f381866111ae565b905061130260408301856111f1565b61130f6060830184611297565b95945050505050565b7f416c7265616479207265676973746572656400000000000000000000000000005f82015250565b5f61134c601283611190565b915061135782611318565b602082019050919050565b5f6020820190508181035f83015261137981611340565b9050919050565b7f4e616d65207265717569726564000000000000000000000000000000000000005f82015250565b5f6113b4600d83611190565b91506113bf82611380565b602082019050919050565b5f6020820190508181035f8301526113e1816113a8565b9050919050565b7f4e487b71000000000000000000000000000000000000000000000000000000005f52602260045260245ffd5b5f600282049050600182168061142c57607f821691505b60208210810361143f5761143e6113e8565b5b50919050565b5f819050815f5260205f209050919050565b5f6020601f8301049050919050565b5f82821b905092915050565b5f600883026114a17fffffffffffffffffffffffffffffffffffffffffffffffffffffffffffffffff82611466565b6114ab8683611466565b95508019841693508086168417925050509392505050565b5f6114dd6114d86114d384611093565b61101f565b611093565b9050919050565b5f819050919050565b6114f6836114c3565b61150a611502826114e4565b848454611472565b825550505050565b5f5f905090565b611521611512565b61152c8184846114ed565b505050565b5b8181101561154f576115445f82611519565b600181019050611532565b5050565b601f8211156115945761156581611445565b61156e84611457565b8101602085101561157d578190505b61159161158985611457565b830182611531565b50505b505050565b5f82821c905092915050565b5f6115b45f1984600802611599565b1980831691505092915050565b5f6115cc83836115a5565b9150826002028217905092915050565b6115e582611186565b67ffffffffffffffff8111156115fe576115fd610e95565b5b6116088254611415565b611613828285611553565b5f60209050601f831160018114611644575f8415611632578287015190505b61163c85826115c1565b8655506116a3565b601f19841661165286611445565b5f5b8281101561167957848901518255600182019150602085019450602081019050611654565b868310156116965784890151611692601f8916826115a5565b8355505b6001600288020188555050505b505050505050565b5f6020820190508181035f8301526116c381846111ae565b905092915050565b7f4f6e6c7920617574686f726974790000000000000000000000000000000000005f82015250565b5f6116ff600e83611190565b915061170a826116cb565b602082019050919050565b5f6020820190508181035f83015261172c816116f3565b9050919050565b7f53706f74206578697374730000000000000000000000000000000000000000005f82015250565b5f611767600b83611190565b915061177282611733565b602082019050919050565b5f6020820190508181035f8301526117948161175b565b9050919050565b7f4c6f636174696f6e2072657175697265640000000000000000000000000000005f82015250565b5f6117cf601183611190565b91506117da8261179b565b602082019050919050565b5f6020820190508181035f8301526117fc816117c3565b9050919050565b7f52656769737465722066697273740000000000000000000000000000000000005f82015250565b5f611837600e83611190565b915061184282611803565b602082019050919050565b5f6020820190508181035f8301526118648161182b565b9050919050565b7f53706f74206e6f7420666f756e640000000000000000000000000000000000005f82015250565b5f61189f600e83611190565b91506118aa8261186b565b602082019050919050565b5f6020820190508181035f8301526118cc81611893565b9050919050565b7f53706f742074616b656e000000000000000000000000000000000000000000005f82015250565b5f611907600a83611190565b9150611912826118d3565b602082019050919050565b5f6020820190508181035f830152611934816118fb565b9050919050565b7f4e6f7420796f75722073706f74000000000000000000000000000000000000005f82015250565b5f61196f600d83611190565b915061197a8261193b565b602082019050919050565b5f6020820190508181035f83015261199c81611963565b9050919050565b7f416d6f756e7420726571756972656400000000000000000000000000000000005f82015250565b5f6119d7600f83611190565b91506119e2826119a3565b602082019050919050565b5f6020820190508181035f830152611a04816119cb565b9050919050565b5f606082019050611a1e5f830186611297565b611a2b6020830185611297565b611a3860408301846112bf565b949350505050565b611a49816111e6565b8114611a53575f5ffd5b50565b5f81519050611a6481611a40565b92915050565b5f60208284031215611a7f57611a7e610e75565b5b5f611a8c84828501611a56565b91505092915050565b5f602082019050611aa85f8301846112bf565b92915050565b5f604082019050611ac15f830185611297565b611ace60208301846112bf565b939250505056fea2646970667358221220f22727d82aac0f84e64f581015d128403fd58178cf32fe7cd7acd353c8ce5d6e64736f6c634300081e0033",
					"opcodes": "PUSH1 0x80 PUSH1 0x40 MSTORE CALLVALUE DUP1 ISZERO PUSH2 0xF JUMPI PUSH0 PUSH0 REVERT JUMPDEST POP PUSH1 0x40 MLOAD PUSH2 0x1C57 CODESIZE SUB DUP1 PUSH2 0x1C57 DUP4 CODECOPY DUP2 DUP2 ADD PUSH1 0x40 MSTORE DUP2 ADD SWAP1 PUSH2 0x31 SWAP2 SWAP1 PUSH2 0x114 JUMP JUMPDEST CALLER PUSH0 PUSH0 PUSH2 0x100 EXP DUP2 SLOAD DUP2 PUSH20 0xFFFFFFFFFFFFFFFFFFFFFFFFFFFFFFFFFFFFFFFF MUL NOT AND SWAP1 DUP4 PUSH20 0xFFFFFFFFFFFFFFFFFFFFFFFFFFFFFFFFFFFFFFFF AND MUL OR SWAP1 SSTORE POP DUP1 PUSH1 0x1 PUSH0 PUSH2 0x100 EXP DUP2 SLOAD DUP2 PUSH20 0xFFFFFFFFFFFFFFFFFFFFFFFFFFFFFFFFFFFFFFFF MUL NOT AND SWAP1 DUP4 PUSH20 0xFFFFFFFFFFFFFFFFFFFFFFFFFFFFFFFFFFFFFFFF AND MUL OR SWAP1 SSTORE POP POP PUSH2 0x13F JUMP JUMPDEST PUSH0 PUSH0 REVERT JUMPDEST PUSH0 PUSH20 0xFFFFFFFFFFFFFFFFFFFFFFFFFFFFFFFFFFFFFFFF DUP3 AND SWAP1 POP SWAP2 SWAP1 POP JUMP JUMPDEST PUSH0 PUSH2 0xE3 DUP3 PUSH2 0xBA JUMP JUMPDEST SWAP1 POP SWAP2 SWAP1 POP JUMP JUMPDEST PUSH2 0xF3 DUP2 PUSH2 0xD9 JUMP JUMPDEST DUP2 EQ PUSH2 0xFD JUMPI PUSH0 PUSH0 REVERT JUMPDEST POP JUMP JUMPDEST PUSH0 DUP2 MLOAD SWAP1 POP PUSH2 0x10E DUP2 PUSH2 0xEA JUMP JUMPDEST SWAP3 SWAP2 POP POP JUMP JUMPDEST PUSH0 PUSH1 0x20 DUP3 DUP5 SUB SLT ISZERO PUSH2 0x129 JUMPI PUSH2 0x128 PUSH2 0xB6 JUMP JUMPDEST JUMPDEST PUSH0 PUSH2 0x136 DUP5 DUP3 DUP6 ADD PUSH2 0x100 JUMP JUMPDEST SWAP2 POP POP SWAP3 SWAP2 POP POP JUMP JUMPDEST PUSH2 0x1B0B DUP1 PUSH2 0x14C PUSH0 CODECOPY PUSH0 RETURN INVALID PUSH1 0x80 PUSH1 0x40 MSTORE CALLVALUE DUP1 ISZERO PUSH2 0xF JUMPI PUSH0 PUSH0 REVERT JUMPDEST POP PUSH1 0x4 CALLDATASIZE LT PUSH2 0x91 JUMPI PUSH0 CALLDATALOAD PUSH1 0xE0 SHR DUP1 PUSH4 0x642A79EB GT PUSH2 0x64 JUMPI DUP1 PUSH4 0x642A79EB EQ PUSH2 0x11C JUMPI DUP1 PUSH4 0x728C34D7 EQ PUSH2 0x138 JUMPI DUP1 PUSH4 0xA127DCD3 EQ PUSH2 0x154 JUMPI DUP1 PUSH4 0xC36809E7 EQ PUSH2 0x170 JUMPI DUP1 PUSH4 0xF5DEFCD3 EQ PUSH2 0x18E JUMPI PUSH2 0x91 JUMP JUMPDEST DUP1 PUSH4 0x5F4804C EQ PUSH2 0x95 JUMPI DUP1 PUSH4 0x309F225D EQ PUSH2 0xB1 JUMPI DUP1 PUSH4 0x383BB2D1 EQ PUSH2 0xCF JUMPI DUP1 PUSH4 0x4AA60186 EQ PUSH2 0xEB JUMPI JUMPDEST PUSH0 PUSH0 REVERT JUMPDEST PUSH2 0xAF PUSH1 0x4 DUP1 CALLDATASIZE SUB DUP2 ADD SWAP1 PUSH2 0xAA SWAP2 SWAP1 PUSH2 0xFB9 JUMP JUMPDEST PUSH2 0x1C1 JUMP JUMPDEST STOP JUMPDEST PUSH2 0xB9 PUSH2 0x36D JUMP JUMPDEST PUSH1 0x40 MLOAD PUSH2 0xC6 SWAP2 SWAP1 PUSH2 0x107A JUMP JUMPDEST PUSH1 0x40 MLOAD DUP1 SWAP2 SUB SWAP1 RETURN JUMPDEST PUSH2 0xE9 PUSH1 0x4 DUP1 CALLDATASIZE SUB DUP2 ADD SWAP1 PUSH2 0xE4 SWAP2 SWAP1 PUSH2 0x10C6 JUMP JUMPDEST PUSH2 0x392 JUMP JUMPDEST STOP JUMPDEST PUSH2 0x105 PUSH1 0x4 DUP1 CALLDATASIZE SUB DUP2 ADD SWAP1 PUSH2 0x100 SWAP2 SWAP1 PUSH2 0x115B JUMP JUMPDEST PUSH2 0x5C6 JUMP JUMPDEST PUSH1 0x40 MLOAD PUSH2 0x113 SWAP3 SWAP2 SWAP1 PUSH2 0x1200 JUMP JUMPDEST PUSH1 0x40 MLOAD DUP1 SWAP2 SUB SWAP1 RETURN JUMPDEST PUSH2 0x136 PUSH1 0x4 DUP1 CALLDATASIZE SUB DUP2 ADD SWAP1 PUSH2 0x131 SWAP2 SWAP1 PUSH2 0x122E JUMP JUMPDEST PUSH2 0x678 JUMP JUMPDEST STOP JUMPDEST PUSH2 0x152 PUSH1 0x4 DUP1 CALLDATASIZE SUB DUP2 ADD SWAP1 PUSH2 0x14D SWAP2 SWAP1 PUSH2 0x1259 JUMP JUMPDEST PUSH2 0x87E JUMP JUMPDEST STOP JUMPDEST PUSH2 0x16E PUSH1 0x4 DUP1 CALLDATASIZE SUB DUP2 ADD SWAP1 PUSH2 0x169 SWAP2 SWAP1 PUSH2 0x122E JUMP JUMPDEST PUSH2 0xAC9 JUMP JUMPDEST STOP JUMPDEST PUSH2 0x178 PUSH2 0xD6A JUMP JUMPDEST PUSH1 0x40 MLOAD PUSH2 0x185 SWAP2 SWAP1 PUSH2 0x12A6 JUMP JUMPDEST PUSH1 0x40 MLOAD DUP1 SWAP2 SUB SWAP1 RETURN JUMPDEST PUSH2 0x1A8 PUSH1 0x4 DUP1 CALLDATASIZE SUB DUP2 ADD SWAP1 PUSH2 0x1A3 SWAP2 SWAP1 PUSH2 0x122E JUMP JUMPDEST PUSH2 0xD8E JUMP JUMPDEST PUSH1 0x40 MLOAD PUSH2 0x1B8 SWAP5 SWAP4 SWAP3 SWAP2 SWAP1 PUSH2 0x12CE JUMP JUMPDEST PUSH1 0x40 MLOAD DUP1 SWAP2 SUB SWAP1 RETURN JUMPDEST PUSH1 0x2 PUSH0 CALLER PUSH20 0xFFFFFFFFFFFFFFFFFFFFFFFFFFFFFFFFFFFFFFFF AND PUSH20 0xFFFFFFFFFFFFFFFFFFFFFFFFFFFFFFFFFFFFFFFF AND DUP2 MSTORE PUSH1 0x20 ADD SWAP1 DUP2 MSTORE PUSH1 0x20 ADD PUSH0 KECCAK256 PUSH1 0x1 ADD PUSH0 SWAP1 SLOAD SWAP1 PUSH2 0x100 EXP SWAP1 DIV PUSH1 0xFF AND ISZERO PUSH2 0x24E JUMPI PUSH1 0x40 MLOAD PUSH32 0x8C379A000000000000000000000000000000000000000000000000000000000 DUP2 MSTORE PUSH1 0x4 ADD PUSH2 0x245 SWAP1 PUSH2 0x1362 JUMP JUMPDEST PUSH1 0x40 MLOAD DUP1 SWAP2 SUB SWAP1 REVERT JUMPDEST PUSH0 DUP2 MLOAD GT PUSH2 0x291 JUMPI PUSH1 0x40 MLOAD PUSH32 0x8C379A000000000000000000000000000000000000000000000000000000000 DUP2 MSTORE PUSH1 0x4 ADD PUSH2 0x288 SWAP1 PUSH2 0x13CA JUMP JUMPDEST PUSH1 0x40 MLOAD DUP1 SWAP2 SUB SWAP1 REVERT JUMPDEST PUSH1 0x40 MLOAD DUP1 PUSH1 0x40 ADD PUSH1 0x40 MSTORE DUP1 DUP3 DUP2 MSTORE PUSH1 0x20 ADD PUSH1 0x1 ISZERO ISZERO DUP2 MSTORE POP PUSH1 0x2 PUSH0 CALLER PUSH20 0xFFFFFFFFFFFFFFFFFFFFFFFFFFFFFFFFFFFFFFFF AND PUSH20 0xFFFFFFFFFFFFFFFFFFFFFFFFFFFFFFFFFFFFFFFF AND DUP2 MSTORE PUSH1 0x20 ADD SWAP1 DUP2 MSTORE PUSH1 0x20 ADD PUSH0 KECCAK256 PUSH0 DUP3 ADD MLOAD DUP2 PUSH0 ADD SWAP1 DUP2 PUSH2 0x2F9 SWAP2 SWAP1 PUSH2 0x15DC JUMP JUMPDEST POP PUSH1 0x20 DUP3 ADD MLOAD DUP2 PUSH1 0x1 ADD PUSH0 PUSH2 0x100 EXP DUP2 SLOAD DUP2 PUSH1 0xFF MUL NOT AND SWAP1 DUP4 ISZERO ISZERO MUL OR SWAP1 SSTORE POP SWAP1 POP POP CALLER PUSH20 0xFFFFFFFFFFFFFFFFFFFFFFFFFFFFFFFFFFFFFFFF AND PUSH32 0x9B956FAFD6B420070AAA3307DCF792C7A34A3118D4271EE745E1472B281A2F1F DUP3 PUSH1 0x40 MLOAD PUSH2 0x362 SWAP2 SWAP1 PUSH2 0x16AB JUMP JUMPDEST PUSH1 0x40 MLOAD DUP1 SWAP2 SUB SWAP1 LOG2 POP JUMP JUMPDEST PUSH1 0x1 PUSH0 SWAP1 SLOAD SWAP1 PUSH2 0x100 EXP SWAP1 DIV PUSH20 0xFFFFFFFFFFFFFFFFFFFFFFFFFFFFFFFFFFFFFFFF AND DUP2 JUMP JUMPDEST PUSH0 PUSH0 SWAP1 SLOAD SWAP1 PUSH2 0x100 EXP SWAP1 DIV PUSH20 0xFFFFFFFFFFFFFFFFFFFFFFFFFFFFFFFFFFFFFFFF AND PUSH20 0xFFFFFFFFFFFFFFFFFFFFFFFFFFFFFFFFFFFFFFFF AND CALLER PUSH20 0xFFFFFFFFFFFFFFFFFFFFFFFFFFFFFFFFFFFFFFFF AND EQ PUSH2 0x420 JUMPI PUSH1 0x40 MLOAD PUSH32 0x8C379A000000000000000000000000000000000000000000000000000000000 DUP2 MSTORE PUSH1 0x4 ADD PUSH2 0x417 SWAP1 PUSH2 0x1715 JUMP JUMPDEST PUSH1 0x40 MLOAD DUP1 SWAP2 SUB SWAP1 REVERT JUMPDEST PUSH0 PUSH1 0x3 PUSH0 DUP5 DUP2 MSTORE PUSH1 0x20 ADD SWAP1 DUP2 MSTORE PUSH1 0x20 ADD PUSH0 KECCAK256 PUSH0 ADD SLOAD EQ PUSH2 0x475 JUMPI PUSH1 0x40 MLOAD PUSH32 0x8C379A000000000000000000000000000000000000000000000000000000000 DUP2 MSTORE PUSH1 0x4 ADD PUSH2 0x46C SWAP1 PUSH2 0x177D JUMP JUMPDEST PUSH1 0x40 MLOAD DUP1 SWAP2 SUB SWAP1 REVERT JUMPDEST PUSH0 DUP2 MLOAD GT PUSH2 0x4B8 JUMPI PUSH1 0x40 MLOAD PUSH32 0x8C379A000000000000000000000000000000000000000000000000000000000 DUP2 MSTORE PUSH1 0x4 ADD PUSH2 0x4AF SWAP1 PUSH2 0x17E5 JUMP JUMPDEST PUSH1 0x40 MLOAD DUP1 SWAP2 SUB SWAP1 REVERT JUMPDEST PUSH1 0x40 MLOAD DUP1 PUSH1 0x80 ADD PUSH1 0x40 MSTORE DUP1 DUP4 DUP2 MSTORE PUSH1 0x20 ADD DUP3 DUP2 MSTORE PUSH1 0x20 ADD PUSH1 0x1 ISZERO ISZERO DUP2 MSTORE PUSH1 0x20 ADD PUSH0 PUSH20 0xFFFFFFFFFFFFFFFFFFFFFFFFFFFFFFFFFFFFFFFF AND DUP2 MSTORE POP PUSH1 0x3 PUSH0 DUP5 DUP2 MSTORE PUSH1 0x20 ADD SWAP1 DUP2 MSTORE PUSH1 0x20 ADD PUSH0 KECCAK256 PUSH0 DUP3 ADD MLOAD DUP2 PUSH0 ADD SSTORE PUSH1 0x20 DUP3 ADD MLOAD DUP2 PUSH1 0x1 ADD SWAP1 DUP2 PUSH2 0x520 SWAP2 SWAP1 PUSH2 0x15DC JUMP JUMPDEST POP PUSH1 0x40 DUP3 ADD MLOAD DUP2 PUSH1 0x2 ADD PUSH0 PUSH2 0x100 EXP DUP2 SLOAD DUP2 PUSH1 0xFF MUL NOT AND SWAP1 DUP4 ISZERO ISZERO MUL OR SWAP1 SSTORE POP PUSH1 0x60 DUP3 ADD MLOAD DUP2 PUSH1 0x2 ADD PUSH1 0x1 PUSH2 0x100 EXP DUP2 SLOAD DUP2 PUSH20 0xFFFFFFFFFFFFFFFFFFFFFFFFFFFFFFFFFFFFFFFF MUL NOT AND SWAP1 DUP4 PUSH20 0xFFFFFFFFFFFFFFFFFFFFFFFFFFFFFFFFFFFFFFFF AND MUL OR SWAP1 SSTORE POP SWAP1 POP POP DUP2 PUSH32 0x3ECE948A447A7F190B4BBF315D6E3C896B8B187F51AF544E79890AC3CB07F560 DUP3 PUSH1 0x40 MLOAD PUSH2 0x5BA SWAP2 SWAP1 PUSH2 0x16AB JUMP JUMPDEST PUSH1 0x40 MLOAD DUP1 SWAP2 SUB SWAP1 LOG2 POP POP JUMP JUMPDEST PUSH1 0x2 PUSH1 0x20 MSTORE DUP1 PUSH0 MSTORE PUSH1 0x40 PUSH0 KECCAK256 PUSH0 SWAP2 POP SWAP1 POP DUP1 PUSH0 ADD DUP1 SLOAD PUSH2 0x5E5 SWAP1 PUSH2 0x1415 JUMP JUMPDEST DUP1 PUSH1 0x1F ADD PUSH1 0x20 DUP1 SWAP2 DIV MUL PUSH1 0x20 ADD PUSH1 0x40 MLOAD SWAP1 DUP2 ADD PUSH1 0x40 MSTORE DUP1 SWAP3 SWAP2 SWAP1 DUP2 DUP2 MSTORE PUSH1 0x20 ADD DUP3 DUP1 SLOAD PUSH2 0x611 SWAP1 PUSH2 0x1415 JUMP JUMPDEST DUP1 ISZERO PUSH2 0x65C JUMPI DUP1 PUSH1 0x1F LT PUSH2 0x633 JUMPI PUSH2 0x100 DUP1 DUP4 SLOAD DIV MUL DUP4 MSTORE SWAP2 PUSH1 0x20 ADD SWAP2 PUSH2 0x65C JUMP JUMPDEST DUP3 ADD SWAP2 SWAP1 PUSH0 MSTORE PUSH1 0x20 PUSH0 KECCAK256 SWAP1 JUMPDEST DUP2 SLOAD DUP2 MSTORE SWAP1 PUSH1 0x1 ADD SWAP1 PUSH1 0x20 ADD DUP1 DUP4 GT PUSH2 0x63F JUMPI DUP3 SWAP1 SUB PUSH1 0x1F AND DUP3 ADD SWAP2 JUMPDEST POP POP POP POP POP SWAP1 DUP1 PUSH1 0x1 ADD PUSH0 SWAP1 SLOAD SWAP1 PUSH2 0x100 EXP SWAP1 DIV PUSH1 0xFF AND SWAP1 POP DUP3 JUMP JUMPDEST PUSH1 0x2 PUSH0 CALLER PUSH20 0xFFFFFFFFFFFFFFFFFFFFFFFFFFFFFFFFFFFFFFFF AND PUSH20 0xFFFFFFFFFFFFFFFFFFFFFFFFFFFFFFFFFFFFFFFF AND DUP2 MSTORE PUSH1 0x20 ADD SWAP1 DUP2 MSTORE PUSH1 0x20 ADD PUSH0 KECCAK256 PUSH1 0x1 ADD PUSH0 SWAP1 SLOAD SWAP1 PUSH2 0x100 EXP SWAP1 DIV PUSH1 0xFF AND PUSH2 0x704 JUMPI PUSH1 0x40 MLOAD PUSH32 0x8C379A000000000000000000000000000000000000000000000000000000000 DUP2 MSTORE PUSH1 0x4 ADD PUSH2 0x6FB SWAP1 PUSH2 0x184D JUMP JUMPDEST PUSH1 0x40 MLOAD DUP1 SWAP2 SUB SWAP1 REVERT JUMPDEST PUSH0 PUSH1 0x3 PUSH0 DUP4 DUP2 MSTORE PUSH1 0x20 ADD SWAP1 DUP2 MSTORE PUSH1 0x20 ADD PUSH0 KECCAK256 PUSH0 ADD SLOAD SUB PUSH2 0x759 JUMPI PUSH1 0x40 MLOAD PUSH32 0x8C379A000000000000000000000000000000000000000000000000000000000 DUP2 MSTORE PUSH1 0x4 ADD PUSH2 0x750 SWAP1 PUSH2 0x18B5 JUMP JUMPDEST PUSH1 0x40 MLOAD DUP1 SWAP2 SUB SWAP1 REVERT JUMPDEST PUSH1 0x3 PUSH0 DUP3 DUP2 MSTORE PUSH1 0x20 ADD SWAP1 DUP2 MSTORE PUSH1 0x20 ADD PUSH0 KECCAK256 PUSH1 0x2 ADD PUSH0 SWAP1 SLOAD SWAP1 PUSH2 0x100 EXP SWAP1 DIV PUSH1 0xFF AND PUSH2 0x7B9 JUMPI PUSH1 0x40 MLOAD PUSH32 0x8C379A000000000000000000000000000000000000000000000000000000000 DUP2 MSTORE PUSH1 0x4 ADD PUSH2 0x7B0 SWAP1 PUSH2 0x191D JUMP JUMPDEST PUSH1 0x40 MLOAD DUP1 SWAP2 SUB SWAP1 REVERT JUMPDEST PUSH0 PUSH1 0x3 PUSH0 DUP4 DUP2 MSTORE PUSH1 0x20 ADD SWAP1 DUP2 MSTORE PUSH1 0x20 ADD PUSH0 KECCAK256 PUSH1 0x2 ADD PUSH0 PUSH2 0x100 EXP DUP2 SLOAD DUP2 PUSH1 0xFF MUL NOT AND SWAP1 DUP4 ISZERO ISZERO MUL OR SWAP1 SSTORE POP CALLER PUSH1 0x3 PUSH0 DUP4 DUP2 MSTORE PUSH1 0x20 ADD SWAP1 DUP2 MSTORE PUSH1 0x20 ADD PUSH0 KECCAK256 PUSH1 0x2 ADD PUSH1 0x1 PUSH2 0x100 EXP DUP2 SLOAD DUP2 PUSH20 0xFFFFFFFFFFFFFFFFFFFFFFFFFFFFFFFFFFFFFFFF MUL NOT AND SWAP1 DUP4 PUSH20 0xFFFFFFFFFFFFFFFFFFFFFFFFFFFFFFFFFFFFFFFF AND MUL OR SWAP1 SSTORE POP DUP1 CALLER PUSH20 0xFFFFFFFFFFFFFFFFFFFFFFFFFFFFFFFFFFFFFFFF AND PUSH32 0xF188B1697A1957C8CF926ACF3BD65C4BBFA00E37D369A477738E28C39AEE097D PUSH1 0x40 MLOAD PUSH1 0x40 MLOAD DUP1 SWAP2 SUB SWAP1 LOG3 POP JUMP JUMPDEST PUSH0 PUSH1 0x3 PUSH0 DUP5 DUP2 MSTORE PUSH1 0x20 ADD SWAP1 DUP2 MSTORE PUSH1 0x20 ADD PUSH0 KECCAK256 PUSH0 ADD SLOAD SUB PUSH2 0x8D3 JUMPI PUSH1 0x40 MLOAD PUSH32 0x8C379A000000000000000000000000000000000000000000000000000000000 DUP2 MSTORE PUSH1 0x4 ADD PUSH2 0x8CA SWAP1 PUSH2 0x18B5 JUMP JUMPDEST PUSH1 0x40 MLOAD DUP1 SWAP2 SUB SWAP1 REVERT JUMPDEST CALLER PUSH20 0xFFFFFFFFFFFFFFFFFFFFFFFFFFFFFFFFFFFFFFFF AND PUSH1 0x3 PUSH0 DUP5 DUP2 MSTORE PUSH1 0x20 ADD SWAP1 DUP2 MSTORE PUSH1 0x20 ADD PUSH0 KECCAK256 PUSH1 0x2 ADD PUSH1 0x1 SWAP1 SLOAD SWAP1 PUSH2 0x100 EXP SWAP1 DIV PUSH20 0xFFFFFFFFFFFFFFFFFFFFFFFFFFFFFFFFFFFFFFFF AND PUSH20 0xFFFFFFFFFFFFFFFFFFFFFFFFFFFFFFFFFFFFFFFF AND EQ PUSH2 0x975 JUMPI PUSH1 0x40 MLOAD PUSH32 0x8C379A000000000000000000000000000000000000000000000000000000000 DUP2 MSTORE PUSH1 0x4 ADD PUSH2 0x96C SWAP1 PUSH2 0x1985 JUMP JUMPDEST PUSH1 0x40 MLOAD DUP1 SWAP2 SUB SWAP1 REVERT JUMPDEST PUSH0 DUP2 GT PUSH2 0x9B7 JUMPI PUSH1 0x40 MLOAD PUSH32 0x8C379A000000000000000000000000000000000000000000000000000000000 DUP2 MSTORE PUSH1 0x4 ADD PUSH2 0x9AE SWAP1 PUSH2 0x19ED JUMP JUMPDEST PUSH1 0x40 MLOAD DUP1 SWAP2 SUB SWAP1 REVERT JUMPDEST PUSH1 0x1 PUSH0 SWAP1 SLOAD SWAP1 PUSH2 0x100 EXP SWAP1 DIV PUSH20 0xFFFFFFFFFFFFFFFFFFFFFFFFFFFFFFFFFFFFFFFF AND PUSH20 0xFFFFFFFFFFFFFFFFFFFFFFFFFFFFFFFFFFFFFFFF AND PUSH4 0x23B872DD CALLER PUSH0 PUSH0 SWAP1 SLOAD SWAP1 PUSH2 0x100 EXP SWAP1 DIV PUSH20 0xFFFFFFFFFFFFFFFFFFFFFFFFFFFFFFFFFFFFFFFF AND DUP5 PUSH1 0x40 MLOAD DUP5 PUSH4 0xFFFFFFFF AND PUSH1 0xE0 SHL DUP2 MSTORE PUSH1 0x4 ADD PUSH2 0xA35 SWAP4 SWAP3 SWAP2 SWAP1 PUSH2 0x1A0B JUMP JUMPDEST PUSH1 0x20 PUSH1 0x40 MLOAD DUP1 DUP4 SUB DUP2 PUSH0 DUP8 GAS CALL ISZERO DUP1 ISZERO PUSH2 0xA51 JUMPI RETURNDATASIZE PUSH0 PUSH0 RETURNDATACOPY RETURNDATASIZE PUSH0 REVERT JUMPDEST POP POP POP POP PUSH1 0x40 MLOAD RETURNDATASIZE PUSH1 0x1F NOT PUSH1 0x1F DUP3 ADD AND DUP3 ADD DUP1 PUSH1 0x40 MSTORE POP DUP2 ADD SWAP1 PUSH2 0xA75 SWAP2 SWAP1 PUSH2 0x1A6A JUMP JUMPDEST POP DUP2 CALLER PUSH20 0xFFFFFFFFFFFFFFFFFFFFFFFFFFFFFFFFFFFFFFFF AND PUSH32 0xC65A4E529C0450A515882508BEA7EE3485FBFDF8436E0BD13DC38DFBC859B1CB DUP4 PUSH1 0x40 MLOAD PUSH2 0xABD SWAP2 SWAP1 PUSH2 0x1A95 JUMP JUMPDEST PUSH1 0x40 MLOAD DUP1 SWAP2 SUB SWAP1 LOG3 POP POP JUMP JUMPDEST PUSH0 PUSH1 0x3 PUSH0 DUP4 DUP2 MSTORE PUSH1 0x20 ADD SWAP1 DUP2 MSTORE PUSH1 0x20 ADD PUSH0 KECCAK256 PUSH0 ADD SLOAD SUB PUSH2 0xB1E JUMPI PUSH1 0x40 MLOAD PUSH32 0x8C379A000000000000000000000000000000000000000000000000000000000 DUP2 MSTORE PUSH1 0x4 ADD PUSH2 0xB15 SWAP1 PUSH2 0x18B5 JUMP JUMPDEST PUSH1 0x40 MLOAD DUP1 SWAP2 SUB SWAP1 REVERT JUMPDEST CALLER PUSH20 0xFFFFFFFFFFFFFFFFFFFFFFFFFFFFFFFFFFFFFFFF AND PUSH1 0x3 PUSH0 DUP4 DUP2 MSTORE PUSH1 0x20 ADD SWAP1 DUP2 MSTORE PUSH1 0x20 ADD PUSH0 KECCAK256 PUSH1 0x2 ADD PUSH1 0x1 SWAP1 SLOAD SWAP1 PUSH2 0x100 EXP SWAP1 DIV PUSH20 0xFFFFFFFFFFFFFFFFFFFFFFFFFFFFFFFFFFFFFFFF AND PUSH20 0xFFFFFFFFFFFFFFFFFFFFFFFFFFFFFFFFFFFFFFFF AND EQ PUSH2 0xBC0 JUMPI PUSH1 0x40 MLOAD PUSH32 0x8C379A000000000000000000000000000000000000000000000000000000000 DUP2 MSTORE PUSH1 0x4 ADD PUSH2 0xBB7 SWAP1 PUSH2 0x1985 JUMP JUMPDEST PUSH1 0x40 MLOAD DUP1 SWAP2 SUB SWAP1 REVERT JUMPDEST PUSH1 0x1 PUSH1 0x3 PUSH0 DUP4 DUP2 MSTORE PUSH1 0x20 ADD SWAP1 DUP2 MSTORE PUSH1 0x20 ADD PUSH0 KECCAK256 PUSH1 0x2 ADD PUSH0 PUSH2 0x100 EXP DUP2 SLOAD DUP2 PUSH1 0xFF MUL NOT AND SWAP1 DUP4 ISZERO ISZERO MUL OR SWAP1 SSTORE POP PUSH0 PUSH1 0x3 PUSH0 DUP4 DUP2 MSTORE PUSH1 0x20 ADD SWAP1 DUP2 MSTORE PUSH1 0x20 ADD PUSH0 KECCAK256 PUSH1 0x2 ADD PUSH1 0x1 PUSH2 0x100 EXP DUP2 SLOAD DUP2 PUSH20 0xFFFFFFFFFFFFFFFFFFFFFFFFFFFFFFFFFFFFFFFF MUL NOT AND SWAP1 DUP4 PUSH20 0xFFFFFFFFFFFFFFFFFFFFFFFFFFFFFFFFFFFFFFFF AND MUL OR SWAP1 SSTORE POP PUSH0 PUSH8 0x8AC7230489E80000 SWAP1 POP PUSH1 0x1 PUSH0 SWAP1 SLOAD SWAP1 PUSH2 0x100 EXP SWAP1 DIV PUSH20 0xFFFFFFFFFFFFFFFFFFFFFFFFFFFFFFFFFFFFFFFF AND PUSH20 0xFFFFFFFFFFFFFFFFFFFFFFFFFFFFFFFFFFFFFFFF AND PUSH4 0x21670F22 CALLER DUP4 PUSH1 0x40 MLOAD DUP4 PUSH4 0xFFFFFFFF AND PUSH1 0xE0 SHL DUP2 MSTORE PUSH1 0x4 ADD PUSH2 0xCA7 SWAP3 SWAP2 SWAP1 PUSH2 0x1AAE JUMP JUMPDEST PUSH0 PUSH1 0x40 MLOAD DUP1 DUP4 SUB DUP2 PUSH0 DUP8 DUP1 EXTCODESIZE ISZERO DUP1 ISZERO PUSH2 0xCBE JUMPI PUSH0 PUSH0 REVERT JUMPDEST POP GAS CALL ISZERO DUP1 ISZERO PUSH2 0xCD0 JUMPI RETURNDATASIZE PUSH0 PUSH0 RETURNDATACOPY RETURNDATASIZE PUSH0 REVERT JUMPDEST POP POP POP POP DUP2 CALLER PUSH20 0xFFFFFFFFFFFFFFFFFFFFFFFFFFFFFFFFFFFFFFFF AND PUSH32 0xF2A04A20D3FA0A38CECCC0513CA932967AD7AB073B1547F867F0CAC2380F3DDC PUSH1 0x40 MLOAD PUSH1 0x40 MLOAD DUP1 SWAP2 SUB SWAP1 LOG3 CALLER PUSH20 0xFFFFFFFFFFFFFFFFFFFFFFFFFFFFFFFFFFFFFFFF AND PUSH32 0xF9B6EC770C96C3A6F9225BF3A8463A8AD03E884448AF07B4ECD4D19D628946EE DUP3 PUSH1 0x40 MLOAD PUSH2 0xD5E SWAP2 SWAP1 PUSH2 0x1A95 JUMP JUMPDEST PUSH1 0x40 MLOAD DUP1 SWAP2 SUB SWAP1 LOG2 POP POP JUMP JUMPDEST PUSH0 PUSH0 SWAP1 SLOAD SWAP1 PUSH2 0x100 EXP SWAP1 DIV PUSH20 0xFFFFFFFFFFFFFFFFFFFFFFFFFFFFFFFFFFFFFFFF AND DUP2 JUMP JUMPDEST PUSH1 0x3 PUSH1 0x20 MSTORE DUP1 PUSH0 MSTORE PUSH1 0x40 PUSH0 KECCAK256 PUSH0 SWAP2 POP SWAP1 POP DUP1 PUSH0 ADD SLOAD SWAP1 DUP1 PUSH1 0x1 ADD DUP1 SLOAD PUSH2 0xDB3 SWAP1 PUSH2 0x1415 JUMP JUMPDEST DUP1 PUSH1 0x1F ADD PUSH1 0x20 DUP1 SWAP2 DIV MUL PUSH1 0x20 ADD PUSH1 0x40 MLOAD SWAP1 DUP2 ADD PUSH1 0x40 MSTORE DUP1 SWAP3 SWAP2 SWAP1 DUP2 DUP2 MSTORE PUSH1 0x20 ADD DUP3 DUP1 SLOAD PUSH2 0xDDF SWAP1 PUSH2 0x1415 JUMP JUMPDEST DUP1 ISZERO PUSH2 0xE2A JUMPI DUP1 PUSH1 0x1F LT PUSH2 0xE01 JUMPI PUSH2 0x100 DUP1 DUP4 SLOAD DIV MUL DUP4 MSTORE SWAP2 PUSH1 0x20 ADD SWAP2 PUSH2 0xE2A JUMP JUMPDEST DUP3 ADD SWAP2 SWAP1 PUSH0 MSTORE PUSH1 0x20 PUSH0 KECCAK256 SWAP1 JUMPDEST DUP2 SLOAD DUP2 MSTORE SWAP1 PUSH1 0x1 ADD SWAP1 PUSH1 0x20 ADD DUP1 DUP4 GT PUSH2 0xE0D JUMPI DUP3 SWAP1 SUB PUSH1 0x1F AND DUP3 ADD SWAP2 JUMPDEST POP POP POP POP POP SWAP1 DUP1 PUSH1 0x2 ADD PUSH0 SWAP1 SLOAD SWAP1 PUSH2 0x100 EXP SWAP1 DIV PUSH1 0xFF AND SWAP1 DUP1 PUSH1 0x2 ADD PUSH1 0x1 SWAP1 SLOAD SWAP1 PUSH2 0x100 EXP SWAP1 DIV PUSH20 0xFFFFFFFFFFFFFFFFFFFFFFFFFFFFFFFFFFFFFFFF AND SWAP1 POP DUP5 JUMP JUMPDEST PUSH0 PUSH1 0x40 MLOAD SWAP1 POP SWAP1 JUMP JUMPDEST PUSH0 PUSH0 REVERT JUMPDEST PUSH0 PUSH0 REVERT JUMPDEST PUSH0 PUSH0 REVERT JUMPDEST PUSH0 PUSH0 REVERT JUMPDEST PUSH0 PUSH1 0x1F NOT PUSH1 0x1F DUP4 ADD AND SWAP1 POP SWAP2 SWAP1 POP JUMP JUMPDEST PUSH32 0x4E487B7100000000000000000000000000000000000000000000000000000000 PUSH0 MSTORE PUSH1 0x41 PUSH1 0x4 MSTORE PUSH1 0x24 PUSH0 REVERT JUMPDEST PUSH2 0xECB DUP3 PUSH2 0xE85 JUMP JUMPDEST DUP2 ADD DUP2 DUP2 LT PUSH8 0xFFFFFFFFFFFFFFFF DUP3 GT OR ISZERO PUSH2 0xEEA JUMPI PUSH2 0xEE9 PUSH2 0xE95 JUMP JUMPDEST JUMPDEST DUP1 PUSH1 0x40 MSTORE POP POP POP JUMP JUMPDEST PUSH0 PUSH2 0xEFC PUSH2 0xE6C JUMP JUMPDEST SWAP1 POP PUSH2 0xF08 DUP3 DUP3 PUSH2 0xEC2 JUMP JUMPDEST SWAP2 SWAP1 POP JUMP JUMPDEST PUSH0 PUSH8 0xFFFFFFFFFFFFFFFF DUP3 GT ISZERO PUSH2 0xF27 JUMPI PUSH2 0xF26 PUSH2 0xE95 JUMP JUMPDEST JUMPDEST PUSH2 0xF30 DUP3 PUSH2 0xE85 JUMP JUMPDEST SWAP1 POP PUSH1 0x20 DUP2 ADD SWAP1 POP SWAP2 SWAP1 POP JUMP JUMPDEST DUP3 DUP2 DUP4 CALLDATACOPY PUSH0 DUP4 DUP4 ADD MSTORE POP POP POP JUMP JUMPDEST PUSH0 PUSH2 0xF5D PUSH2 0xF58 DUP5 PUSH2 0xF0D JUMP JUMPDEST PUSH2 0xEF3 JUMP JUMPDEST SWAP1 POP DUP3 DUP2 MSTORE PUSH1 0x20 DUP2 ADD DUP5 DUP5 DUP5 ADD GT ISZERO PUSH2 0xF79 JUMPI PUSH2 0xF78 PUSH2 0xE81 JUMP JUMPDEST JUMPDEST PUSH2 0xF84 DUP5 DUP3 DUP6 PUSH2 0xF3D JUMP JUMPDEST POP SWAP4 SWAP3 POP POP POP JUMP JUMPDEST PUSH0 DUP3 PUSH1 0x1F DUP4 ADD SLT PUSH2 0xFA0 JUMPI PUSH2 0xF9F PUSH2 0xE7D JUMP JUMPDEST JUMPDEST DUP2 CALLDATALOAD PUSH2 0xFB0 DUP5 DUP3 PUSH1 0x20 DUP7 ADD PUSH2 0xF4B JUMP JUMPDEST SWAP2 POP POP SWAP3 SWAP2 POP POP JUMP JUMPDEST PUSH0 PUSH1 0x20 DUP3 DUP5 SUB SLT ISZERO PUSH2 0xFCE JUMPI PUSH2 0xFCD PUSH2 0xE75 JUMP JUMPDEST JUMPDEST PUSH0 DUP3 ADD CALLDATALOAD PUSH8 0xFFFFFFFFFFFFFFFF DUP2 GT ISZERO PUSH2 0xFEB JUMPI PUSH2 0xFEA PUSH2 0xE79 JUMP JUMPDEST JUMPDEST PUSH2 0xFF7 DUP5 DUP3 DUP6 ADD PUSH2 0xF8C JUMP JUMPDEST SWAP2 POP POP SWAP3 SWAP2 POP POP JUMP JUMPDEST PUSH0 PUSH20 0xFFFFFFFFFFFFFFFFFFFFFFFFFFFFFFFFFFFFFFFF DUP3 AND SWAP1 POP SWAP2 SWAP1 POP JUMP JUMPDEST PUSH0 DUP2 SWAP1 POP SWAP2 SWAP1 POP JUMP JUMPDEST PUSH0 PUSH2 0x1042 PUSH2 0x103D PUSH2 0x1038 DUP5 PUSH2 0x1000 JUMP JUMPDEST PUSH2 0x101F JUMP JUMPDEST PUSH2 0x1000 JUMP JUMPDEST SWAP1 POP SWAP2 SWAP1 POP JUMP JUMPDEST PUSH0 PUSH2 0x1053 DUP3 PUSH2 0x1028 JUMP JUMPDEST SWAP1 POP SWAP2 SWAP1 POP JUMP JUMPDEST PUSH0 PUSH2 0x1064 DUP3 PUSH2 0x1049 JUMP JUMPDEST SWAP1 POP SWAP2 SWAP1 POP JUMP JUMPDEST PUSH2 0x1074 DUP2 PUSH2 0x105A JUMP JUMPDEST DUP3 MSTORE POP POP JUMP JUMPDEST PUSH0 PUSH1 0x20 DUP3 ADD SWAP1 POP PUSH2 0x108D PUSH0 DUP4 ADD DUP5 PUSH2 0x106B JUMP JUMPDEST SWAP3 SWAP2 POP POP JUMP JUMPDEST PUSH0 DUP2 SWAP1 POP SWAP2 SWAP1 POP JUMP JUMPDEST PUSH2 0x10A5 DUP2 PUSH2 0x1093 JUMP JUMPDEST DUP2 EQ PUSH2 0x10AF JUMPI PUSH0 PUSH0 REVERT JUMPDEST POP JUMP JUMPDEST PUSH0 DUP2 CALLDATALOAD SWAP1 POP PUSH2 0x10C0 DUP2 PUSH2 0x109C JUMP JUMPDEST SWAP3 SWAP2 POP POP JUMP JUMPDEST PUSH0 PUSH0 PUSH1 0x40 DUP4 DUP6 SUB SLT ISZERO PUSH2 0x10DC JUMPI PUSH2 0x10DB PUSH2 0xE75 JUMP JUMPDEST JUMPDEST PUSH0 PUSH2 0x10E9 DUP6 DUP3 DUP7 ADD PUSH2 0x10B2 JUMP JUMPDEST SWAP3 POP POP PUSH1 0x20 DUP4 ADD CALLDATALOAD PUSH8 0xFFFFFFFFFFFFFFFF DUP2 GT ISZERO PUSH2 0x110A JUMPI PUSH2 0x1109 PUSH2 0xE79 JUMP JUMPDEST JUMPDEST PUSH2 0x1116 DUP6 DUP3 DUP7 ADD PUSH2 0xF8C JUMP JUMPDEST SWAP2 POP POP SWAP3 POP SWAP3 SWAP1 POP JUMP JUMPDEST PUSH0 PUSH2 0x112A DUP3 PUSH2 0x1000 JUMP JUMPDEST SWAP1 POP SWAP2 SWAP1 POP JUMP JUMPDEST PUSH2 0x113A DUP2 PUSH2 0x1120 JUMP JUMPDEST DUP2 EQ PUSH2 0x1144 JUMPI PUSH0 PUSH0 REVERT JUMPDEST POP JUMP JUMPDEST PUSH0 DUP2 CALLDATALOAD SWAP1 POP PUSH2 0x1155 DUP2 PUSH2 0x1131 JUMP JUMPDEST SWAP3 SWAP2 POP POP JUMP JUMPDEST PUSH0 PUSH1 0x20 DUP3 DUP5 SUB SLT ISZERO PUSH2 0x1170 JUMPI PUSH2 0x116F PUSH2 0xE75 JUMP JUMPDEST JUMPDEST PUSH0 PUSH2 0x117D DUP5 DUP3 DUP6 ADD PUSH2 0x1147 JUMP JUMPDEST SWAP2 POP POP SWAP3 SWAP2 POP POP JUMP JUMPDEST PUSH0 DUP2 MLOAD SWAP1 POP SWAP2 SWAP1 POP JUMP JUMPDEST PUSH0 DUP3 DUP3 MSTORE PUSH1 0x20 DUP3 ADD SWAP1 POP SWAP3 SWAP2 POP POP JUMP JUMPDEST DUP3 DUP2 DUP4 MCOPY PUSH0 DUP4 DUP4 ADD MSTORE POP POP POP JUMP JUMPDEST PUSH0 PUSH2 0x11B8 DUP3 PUSH2 0x1186 JUMP JUMPDEST PUSH2 0x11C2 DUP2 DUP6 PUSH2 0x1190 JUMP JUMPDEST SWAP4 POP PUSH2 0x11D2 DUP2 DUP6 PUSH1 0x20 DUP7 ADD PUSH2 0x11A0 JUMP JUMPDEST PUSH2 0x11DB DUP2 PUSH2 0xE85 JUMP JUMPDEST DUP5 ADD SWAP2 POP POP SWAP3 SWAP2 POP POP JUMP JUMPDEST PUSH0 DUP2 ISZERO ISZERO SWAP1 POP SWAP2 SWAP1 POP JUMP JUMPDEST PUSH2 0x11FA DUP2 PUSH2 0x11E6 JUMP JUMPDEST DUP3 MSTORE POP POP JUMP JUMPDEST PUSH0 PUSH1 0x40 DUP3 ADD SWAP1 POP DUP2 DUP2 SUB PUSH0 DUP4 ADD MSTORE PUSH2 0x1218 DUP2 DUP6 PUSH2 0x11AE JUMP JUMPDEST SWAP1 POP PUSH2 0x1227 PUSH1 0x20 DUP4 ADD DUP5 PUSH2 0x11F1 JUMP JUMPDEST SWAP4 SWAP3 POP POP POP JUMP JUMPDEST PUSH0 PUSH1 0x20 DUP3 DUP5 SUB SLT ISZERO PUSH2 0x1243 JUMPI PUSH2 0x1242 PUSH2 0xE75 JUMP JUMPDEST JUMPDEST PUSH0 PUSH2 0x1250 DUP5 DUP3 DUP6 ADD PUSH2 0x10B2 JUMP JUMPDEST SWAP2 POP POP SWAP3 SWAP2 POP POP JUMP JUMPDEST PUSH0 PUSH0 PUSH1 0x40 DUP4 DUP6 SUB SLT ISZERO PUSH2 0x126F JUMPI PUSH2 0x126E PUSH2 0xE75 JUMP JUMPDEST JUMPDEST PUSH0 PUSH2 0x127C DUP6 DUP3 DUP7 ADD PUSH2 0x10B2 JUMP JUMPDEST SWAP3 POP POP PUSH1 0x20 PUSH2 0x128D DUP6 DUP3 DUP7 ADD PUSH2 0x10B2 JUMP JUMPDEST SWAP2 POP POP SWAP3 POP SWAP3 SWAP1 POP JUMP JUMPDEST PUSH2 0x12A0 DUP2 PUSH2 0x1120 JUMP JUMPDEST DUP3 MSTORE POP POP JUMP JUMPDEST PUSH0 PUSH1 0x20 DUP3 ADD SWAP1 POP PUSH2 0x12B9 PUSH0 DUP4 ADD DUP5 PUSH2 0x1297 JUMP JUMPDEST SWAP3 SWAP2 POP POP JUMP JUMPDEST PUSH2 0x12C8 DUP2 PUSH2 0x1093 JUMP JUMPDEST DUP3 MSTORE POP POP JUMP JUMPDEST PUSH0 PUSH1 0x80 DUP3 ADD SWAP1 POP PUSH2 0x12E1 PUSH0 DUP4 ADD DUP8 PUSH2 0x12BF JUMP JUMPDEST DUP2 DUP2 SUB PUSH1 0x20 DUP4 ADD MSTORE PUSH2 0x12F3 DUP2 DUP7 PUSH2 0x11AE JUMP JUMPDEST SWAP1 POP PUSH2 0x1302 PUSH1 0x40 DUP4 ADD DUP6 PUSH2 0x11F1 JUMP JUMPDEST PUSH2 0x130F PUSH1 0x60 DUP4 ADD DUP5 PUSH2 0x1297 JUMP JUMPDEST SWAP6 SWAP5 POP POP POP POP POP JUMP JUMPDEST PUSH32 0x416C726561647920726567697374657265640000000000000000000000000000 PUSH0 DUP3 ADD MSTORE POP JUMP JUMPDEST PUSH0 PUSH2 0x134C PUSH1 0x12 DUP4 PUSH2 0x1190 JUMP JUMPDEST SWAP2 POP PUSH2 0x1357 DUP3 PUSH2 0x1318 JUMP JUMPDEST PUSH1 0x20 DUP3 ADD SWAP1 POP SWAP2 SWAP1 POP JUMP JUMPDEST PUSH0 PUSH1 0x20 DUP3 ADD SWAP1 POP DUP2 DUP2 SUB PUSH0 DUP4 ADD MSTORE PUSH2 0x1379 DUP2 PUSH2 0x1340 JUMP JUMPDEST SWAP1 POP SWAP2 SWAP1 POP JUMP JUMPDEST PUSH32 0x4E616D6520726571756972656400000000000000000000000000000000000000 PUSH0 DUP3 ADD MSTORE POP JUMP JUMPDEST PUSH0 PUSH2 0x13B4 PUSH1 0xD DUP4 PUSH2 0x1190 JUMP JUMPDEST SWAP2 POP PUSH2 0x13BF DUP3 PUSH2 0x1380 JUMP JUMPDEST PUSH1 0x20 DUP3 ADD SWAP1 POP SWAP2 SWAP1 POP JUMP JUMPDEST PUSH0 PUSH1 0x20 DUP3 ADD SWAP1 POP DUP2 DUP2 SUB PUSH0 DUP4 ADD MSTORE PUSH2 0x13E1 DUP2 PUSH2 0x13A8 JUMP JUMPDEST SWAP1 POP SWAP2 SWAP1 POP JUMP JUMPDEST PUSH32 0x4E487B7100000000000000000000000000000000000000000000000000000000 PUSH0 MSTORE PUSH1 0x22 PUSH1 0x4 MSTORE PUSH1 0x24 PUSH0 REVERT JUMPDEST PUSH0 PUSH1 0x2 DUP3 DIV SWAP1 POP PUSH1 0x1 DUP3 AND DUP1 PUSH2 0x142C JUMPI PUSH1 0x7F DUP3 AND SWAP2 POP JUMPDEST PUSH1 0x20 DUP3 LT DUP2 SUB PUSH2 0x143F JUMPI PUSH2 0x143E PUSH2 0x13E8 JUMP JUMPDEST JUMPDEST POP SWAP2 SWAP1 POP JUMP JUMPDEST PUSH0 DUP2 SWAP1 POP DUP2 PUSH0 MSTORE PUSH1 0x20 PUSH0 KECCAK256 SWAP1 POP SWAP2 SWAP1 POP JUMP JUMPDEST PUSH0 PUSH1 0x20 PUSH1 0x1F DUP4 ADD DIV SWAP1 POP SWAP2 SWAP1 POP JUMP JUMPDEST PUSH0 DUP3 DUP3 SHL SWAP1 POP SWAP3 SWAP2 POP POP JUMP JUMPDEST PUSH0 PUSH1 0x8 DUP4 MUL PUSH2 0x14A1 PUSH32 0xFFFFFFFFFFFFFFFFFFFFFFFFFFFFFFFFFFFFFFFFFFFFFFFFFFFFFFFFFFFFFFFF DUP3 PUSH2 0x1466 JUMP JUMPDEST PUSH2 0x14AB DUP7 DUP4 PUSH2 0x1466 JUMP JUMPDEST SWAP6 POP DUP1 NOT DUP5 AND SWAP4 POP DUP1 DUP7 AND DUP5 OR SWAP3 POP POP POP SWAP4 SWAP3 POP POP POP JUMP JUMPDEST PUSH0 PUSH2 0x14DD PUSH2 0x14D8 PUSH2 0x14D3 DUP5 PUSH2 0x1093 JUMP JUMPDEST PUSH2 0x101F JUMP JUMPDEST PUSH2 0x1093 JUMP JUMPDEST SWAP1 POP SWAP2 SWAP1 POP JUMP JUMPDEST PUSH0 DUP2 SWAP1 POP SWAP2 SWAP1 POP JUMP JUMPDEST PUSH2 0x14F6 DUP4 PUSH2 0x14C3 JUMP JUMPDEST PUSH2 0x150A PUSH2 0x1502 DUP3 PUSH2 0x14E4 JUMP JUMPDEST DUP5 DUP5 SLOAD PUSH2 0x1472 JUMP JUMPDEST DUP3 SSTORE POP POP POP POP JUMP JUMPDEST PUSH0 PUSH0 SWAP1 POP SWAP1 JUMP JUMPDEST PUSH2 0x1521 PUSH2 0x1512 JUMP JUMPDEST PUSH2 0x152C DUP2 DUP5 DUP5 PUSH2 0x14ED JUMP JUMPDEST POP POP POP JUMP JUMPDEST JUMPDEST DUP2 DUP2 LT ISZERO PUSH2 0x154F JUMPI PUSH2 0x1544 PUSH0 DUP3 PUSH2 0x1519 JUMP JUMPDEST PUSH1 0x1 DUP2 ADD SWAP1 POP PUSH2 0x1532 JUMP JUMPDEST POP POP JUMP JUMPDEST PUSH1 0x1F DUP3 GT ISZERO PUSH2 0x1594 JUMPI PUSH2 0x1565 DUP2 PUSH2 0x1445 JUMP JUMPDEST PUSH2 0x156E DUP5 PUSH2 0x1457 JUMP JUMPDEST DUP2 ADD PUSH1 0x20 DUP6 LT ISZERO PUSH2 0x157D JUMPI DUP2 SWAP1 POP JUMPDEST PUSH2 0x1591 PUSH2 0x1589 DUP6 PUSH2 0x1457 JUMP JUMPDEST DUP4 ADD DUP3 PUSH2 0x1531 JUMP JUMPDEST POP POP JUMPDEST POP POP POP JUMP JUMPDEST PUSH0 DUP3 DUP3 SHR SWAP1 POP SWAP3 SWAP2 POP POP JUMP JUMPDEST PUSH0 PUSH2 0x15B4 PUSH0 NOT DUP5 PUSH1 0x8 MUL PUSH2 0x1599 JUMP JUMPDEST NOT DUP1 DUP4 AND SWAP2 POP POP SWAP3 SWAP2 POP POP JUMP JUMPDEST PUSH0 PUSH2 0x15CC DUP4 DUP4 PUSH2 0x15A5 JUMP JUMPDEST SWAP2 POP DUP3 PUSH1 0x2 MUL DUP3 OR SWAP1 POP SWAP3 SWAP2 POP POP JUMP JUMPDEST PUSH2 0x15E5 DUP3 PUSH2 0x1186 JUMP JUMPDEST PUSH8 0xFFFFFFFFFFFFFFFF DUP2 GT ISZERO PUSH2 0x15FE JUMPI PUSH2 0x15FD PUSH2 0xE95 JUMP JUMPDEST JUMPDEST PUSH2 0x1608 DUP3 SLOAD PUSH2 0x1415 JUMP JUMPDEST PUSH2 0x1613 DUP3 DUP3 DUP6 PUSH2 0x1553 JUMP JUMPDEST PUSH0 PUSH1 0x20 SWAP1 POP PUSH1 0x1F DUP4 GT PUSH1 0x1 DUP2 EQ PUSH2 0x1644 JUMPI PUSH0 DUP5 ISZERO PUSH2 0x1632 JUMPI DUP3 DUP8 ADD MLOAD SWAP1 POP JUMPDEST PUSH2 0x163C DUP6 DUP3 PUSH2 0x15C1 JUMP JUMPDEST DUP7 SSTORE POP PUSH2 0x16A3 JUMP JUMPDEST PUSH1 0x1F NOT DUP5 AND PUSH2 0x1652 DUP7 PUSH2 0x1445 JUMP JUMPDEST PUSH0 JUMPDEST DUP3 DUP2 LT ISZERO PUSH2 0x1679 JUMPI DUP5 DUP10 ADD MLOAD DUP3 SSTORE PUSH1 0x1 DUP3 ADD SWAP2 POP PUSH1 0x20 DUP6 ADD SWAP5 POP PUSH1 0x20 DUP2 ADD SWAP1 POP PUSH2 0x1654 JUMP JUMPDEST DUP7 DUP4 LT ISZERO PUSH2 0x1696 JUMPI DUP5 DUP10 ADD MLOAD PUSH2 0x1692 PUSH1 0x1F DUP10 AND DUP3 PUSH2 0x15A5 JUMP JUMPDEST DUP4 SSTORE POP JUMPDEST PUSH1 0x1 PUSH1 0x2 DUP9 MUL ADD DUP9 SSTORE POP POP POP JUMPDEST POP POP POP POP POP POP JUMP JUMPDEST PUSH0 PUSH1 0x20 DUP3 ADD SWAP1 POP DUP2 DUP2 SUB PUSH0 DUP4 ADD MSTORE PUSH2 0x16C3 DUP2 DUP5 PUSH2 0x11AE JUMP JUMPDEST SWAP1 POP SWAP3 SWAP2 POP POP JUMP JUMPDEST PUSH32 0x4F6E6C7920617574686F72697479000000000000000000000000000000000000 PUSH0 DUP3 ADD MSTORE POP JUMP JUMPDEST PUSH0 PUSH2 0x16FF PUSH1 0xE DUP4 PUSH2 0x1190 JUMP JUMPDEST SWAP2 POP PUSH2 0x170A DUP3 PUSH2 0x16CB JUMP JUMPDEST PUSH1 0x20 DUP3 ADD SWAP1 POP SWAP2 SWAP1 POP JUMP JUMPDEST PUSH0 PUSH1 0x20 DUP3 ADD SWAP1 POP DUP2 DUP2 SUB PUSH0 DUP4 ADD MSTORE PUSH2 0x172C DUP2 PUSH2 0x16F3 JUMP JUMPDEST SWAP1 POP SWAP2 SWAP1 POP JUMP JUMPDEST PUSH32 0x53706F7420657869737473000000000000000000000000000000000000000000 PUSH0 DUP3 ADD MSTORE POP JUMP JUMPDEST PUSH0 PUSH2 0x1767 PUSH1 0xB DUP4 PUSH2 0x1190 JUMP JUMPDEST SWAP2 POP PUSH2 0x1772 DUP3 PUSH2 0x1733 JUMP JUMPDEST PUSH1 0x20 DUP3 ADD SWAP1 POP SWAP2 SWAP1 POP JUMP JUMPDEST PUSH0 PUSH1 0x20 DUP3 ADD SWAP1 POP DUP2 DUP2 SUB PUSH0 DUP4 ADD MSTORE PUSH2 0x1794 DUP2 PUSH2 0x175B JUMP JUMPDEST SWAP1 POP SWAP2 SWAP1 POP JUMP JUMPDEST PUSH32 0x4C6F636174696F6E207265717569726564000000000000000000000000000000 PUSH0 DUP3 ADD MSTORE POP JUMP JUMPDEST PUSH0 PUSH2 0x17CF PUSH1 0x11 DUP4 PUSH2 0x1190 JUMP JUMPDEST SWAP2 POP PUSH2 0x17DA DUP3 PUSH2 0x179B JUMP JUMPDEST PUSH1 0x20 DUP3 ADD SWAP1 POP SWAP2 SWAP1 POP JUMP JUMPDEST PUSH0 PUSH1 0x20 DUP3 ADD SWAP1 POP DUP2 DUP2 SUB PUSH0 DUP4 ADD MSTORE PUSH2 0x17FC DUP2 PUSH2 0x17C3 JUMP JUMPDEST SWAP1 POP SWAP2 SWAP1 POP JUMP JUMPDEST PUSH32 0x5265676973746572206669727374000000000000000000000000000000000000 PUSH0 DUP3 ADD MSTORE POP JUMP JUMPDEST PUSH0 PUSH2 0x1837 PUSH1 0xE DUP4 PUSH2 0x1190 JUMP JUMPDEST SWAP2 POP PUSH2 0x1842 DUP3 PUSH2 0x1803 JUMP JUMPDEST PUSH1 0x20 DUP3 ADD SWAP1 POP SWAP2 SWAP1 POP JUMP JUMPDEST PUSH0 PUSH1 0x20 DUP3 ADD SWAP1 POP DUP2 DUP2 SUB PUSH0 DUP4 ADD MSTORE PUSH2 0x1864 DUP2 PUSH2 0x182B JUMP JUMPDEST SWAP1 POP SWAP2 SWAP1 POP JUMP JUMPDEST PUSH32 0x53706F74206E6F7420666F756E64000000000000000000000000000000000000 PUSH0 DUP3 ADD MSTORE POP JUMP JUMPDEST PUSH0 PUSH2 0x189F PUSH1 0xE DUP4 PUSH2 0x1190 JUMP JUMPDEST SWAP2 POP PUSH2 0x18AA DUP3 PUSH2 0x186B JUMP JUMPDEST PUSH1 0x20 DUP3 ADD SWAP1 POP SWAP2 SWAP1 POP JUMP JUMPDEST PUSH0 PUSH1 0x20 DUP3 ADD SWAP1 POP DUP2 DUP2 SUB PUSH0 DUP4 ADD MSTORE PUSH2 0x18CC DUP2 PUSH2 0x1893 JUMP JUMPDEST SWAP1 POP SWAP2 SWAP1 POP JUMP JUMPDEST PUSH32 0x53706F742074616B656E00000000000000000000000000000000000000000000 PUSH0 DUP3 ADD MSTORE POP JUMP JUMPDEST PUSH0 PUSH2 0x1907 PUSH1 0xA DUP4 PUSH2 0x1190 JUMP JUMPDEST SWAP2 POP PUSH2 0x1912 DUP3 PUSH2 0x18D3 JUMP JUMPDEST PUSH1 0x20 DUP3 ADD SWAP1 POP SWAP2 SWAP1 POP JUMP JUMPDEST PUSH0 PUSH1 0x20 DUP3 ADD SWAP1 POP DUP2 DUP2 SUB PUSH0 DUP4 ADD MSTORE PUSH2 0x1934 DUP2 PUSH2 0x18FB JUMP JUMPDEST SWAP1 POP SWAP2 SWAP1 POP JUMP JUMPDEST PUSH32 0x4E6F7420796F75722073706F7400000000000000000000000000000000000000 PUSH0 DUP3 ADD MSTORE POP JUMP JUMPDEST PUSH0 PUSH2 0x196F PUSH1 0xD DUP4 PUSH2 0x1190 JUMP JUMPDEST SWAP2 POP PUSH2 0x197A DUP3 PUSH2 0x193B JUMP JUMPDEST PUSH1 0x20 DUP3 ADD SWAP1 POP SWAP2 SWAP1 POP JUMP JUMPDEST PUSH0 PUSH1 0x20 DUP3 ADD SWAP1 POP DUP2 DUP2 SUB PUSH0 DUP4 ADD MSTORE PUSH2 0x199C DUP2 PUSH2 0x1963 JUMP JUMPDEST SWAP1 POP SWAP2 SWAP1 POP JUMP JUMPDEST PUSH32 0x416D6F756E742072657175697265640000000000000000000000000000000000 PUSH0 DUP3 ADD MSTORE POP JUMP JUMPDEST PUSH0 PUSH2 0x19D7 PUSH1 0xF DUP4 PUSH2 0x1190 JUMP JUMPDEST SWAP2 POP PUSH2 0x19E2 DUP3 PUSH2 0x19A3 JUMP JUMPDEST PUSH1 0x20 DUP3 ADD SWAP1 POP SWAP2 SWAP1 POP JUMP JUMPDEST PUSH0 PUSH1 0x20 DUP3 ADD SWAP1 POP DUP2 DUP2 SUB PUSH0 DUP4 ADD MSTORE PUSH2 0x1A04 DUP2 PUSH2 0x19CB JUMP JUMPDEST SWAP1 POP SWAP2 SWAP1 POP JUMP JUMPDEST PUSH0 PUSH1 0x60 DUP3 ADD SWAP1 POP PUSH2 0x1A1E PUSH0 DUP4 ADD DUP7 PUSH2 0x1297 JUMP JUMPDEST PUSH2 0x1A2B PUSH1 0x20 DUP4 ADD DUP6 PUSH2 0x1297 JUMP JUMPDEST PUSH2 0x1A38 PUSH1 0x40 DUP4 ADD DUP5 PUSH2 0x12BF JUMP JUMPDEST SWAP5 SWAP4 POP POP POP POP JUMP JUMPDEST PUSH2 0x1A49 DUP2 PUSH2 0x11E6 JUMP JUMPDEST DUP2 EQ PUSH2 0x1A53 JUMPI PUSH0 PUSH0 REVERT JUMPDEST POP JUMP JUMPDEST PUSH0 DUP2 MLOAD SWAP1 POP PUSH2 0x1A64 DUP2 PUSH2 0x1A40 JUMP JUMPDEST SWAP3 SWAP2 POP POP JUMP JUMPDEST PUSH0 PUSH1 0x20 DUP3 DUP5 SUB SLT ISZERO PUSH2 0x1A7F JUMPI PUSH2 0x1A7E PUSH2 0xE75 JUMP JUMPDEST JUMPDEST PUSH0 PUSH2 0x1A8C DUP5 DUP3 DUP6 ADD PUSH2 0x1A56 JUMP JUMPDEST SWAP2 POP POP SWAP3 SWAP2 POP POP JUMP JUMPDEST PUSH0 PUSH1 0x20 DUP3 ADD SWAP1 POP PUSH2 0x1AA8 PUSH0 DUP4 ADD DUP5 PUSH2 0x12BF JUMP JUMPDEST SWAP3 SWAP2 POP POP JUMP JUMPDEST PUSH0 PUSH1 0x40 DUP3 ADD SWAP1 POP PUSH2 0x1AC1 PUSH0 DUP4 ADD DUP6 PUSH2 0x1297 JUMP JUMPDEST PUSH2 0x1ACE PUSH1 0x20 DUP4 ADD DUP5 PUSH2 0x12BF JUMP JUMPDEST SWAP4 SWAP3 POP POP POP JUMP INVALID LOG2 PUSH5 0x6970667358 0x22 SLT KECCAK256 CALLCODE 0x27 0x27 0xD8 0x2A 0xAC 0xF DUP5 DUPN 0x4F PC LT ISZERO DATALOADN 0x2840 EXTCODEHASH 0xD5 DUP2 PUSH25 0xCF32FE7CD7ACD353C8CE5D6E64736F6C634300081E00330000 "
				},
				"gasEstimates": {
					"creation": {
						"codeDepositCost": "1384600",
						"executionCost": "infinite",
						"totalCost": "infinite"
					},
					"external": {
						"addParkingSpot(uint256,string)": "infinite",
						"cityAuthority()": "2573",
						"drivers(address)": "infinite",
						"parkingSpots(uint256)": "infinite",
						"parkingToken()": "infinite",
						"payForParking(uint256,uint256)": "infinite",
						"registerDriver(string)": "infinite",
						"releaseSpot(uint256)": "infinite",
						"reserveSpot(uint256)": "57366"
					}
				},
				"methodIdentifiers": {
					"addParkingSpot(uint256,string)": "383bb2d1",
					"cityAuthority()": "c36809e7",
					"drivers(address)": "4aa60186",
					"parkingSpots(uint256)": "f5defcd3",
					"parkingToken()": "309f225d",
					"payForParking(uint256,uint256)": "728c34d7",
					"registerDriver(string)": "05f4804c",
					"releaseSpot(uint256)": "a127dcd3",
					"reserveSpot(uint256)": "642a79eb"
				}
			},
			"storageLayout": {
				"storage": [
					{
						"astId": 309,
						"contract": "SmartCityParking.sol:SmartCityParking",
						"label": "cityAuthority",
						"offset": 0,
						"slot": "0",
						"type": "t_address"
					},
					{
						"astId": 312,
						"contract": "SmartCityParking.sol:SmartCityParking",
						"label": "parkingToken",
						"offset": 0,
						"slot": "1",
						"type": "t_contract(CityParkingToken)304"
					},
					{
						"astId": 331,
						"contract": "SmartCityParking.sol:SmartCityParking",
						"label": "drivers",
						"offset": 0,
						"slot": "2",
						"type": "t_mapping(t_address,t_struct(Driver)317_storage)"
					},
					{
						"astId": 336,
						"contract": "SmartCityParking.sol:SmartCityParking",
						"label": "parkingSpots",
						"offset": 0,
						"slot": "3",
						"type": "t_mapping(t_uint256,t_struct(ParkingSpot)326_storage)"
					}
				],
				"types": {
					"t_address": {
						"encoding": "inplace",
						"label": "address",
						"numberOfBytes": "20"
					},
					"t_bool": {
						"encoding": "inplace",
						"label": "bool",
						"numberOfBytes": "1"
					},
					"t_contract(CityParkingToken)304": {
						"encoding": "inplace",
						"label": "contract CityParkingToken",
						"numberOfBytes": "20"
					},
					"t_mapping(t_address,t_struct(Driver)317_storage)": {
						"encoding": "mapping",
						"key": "t_address",
						"label": "mapping(address => struct SmartCityParking.Driver)",
						"numberOfBytes": "32",
						"value": "t_struct(Driver)317_storage"
					},
					"t_mapping(t_uint256,t_struct(ParkingSpot)326_storage)": {
						"encoding": "mapping",
						"key": "t_uint256",
						"label": "mapping(uint256 => struct SmartCityParking.ParkingSpot)",
						"numberOfBytes": "32",
						"value": "t_struct(ParkingSpot)326_storage"
					},
					"t_string_storage": {
						"encoding": "bytes",
						"label": "string",
						"numberOfBytes": "32"
					},
					"t_struct(Driver)317_storage": {
						"encoding": "inplace",
						"label": "struct SmartCityParking.Driver",
						"members": [
							{
								"astId": 314,
								"contract": "SmartCityParking.sol:SmartCityParking",
								"label": "name",
								"offset": 0,
								"slot": "0",
								"type": "t_string_storage"
							},
							{
								"astId": 316,
								"contract": "SmartCityParking.sol:SmartCityParking",
								"label": "isRegistered",
								"offset": 0,
								"slot": "1",
								"type": "t_bool"
							}
						],
						"numberOfBytes": "64"
					},
					"t_struct(ParkingSpot)326_storage": {
						"encoding": "inplace",
						"label": "struct SmartCityParking.ParkingSpot",
						"members": [
							{
								"astId": 319,
								"contract": "SmartCityParking.sol:SmartCityParking",
								"label": "id",
								"offset": 0,
								"slot": "0",
								"type": "t_uint256"
							},
							{
								"astId": 321,
								"contract": "SmartCityParking.sol:SmartCityParking",
								"label": "location",
								"offset": 0,
								"slot": "1",
								"type": "t_string_storage"
							},
							{
								"astId": 323,
								"contract": "SmartCityParking.sol:SmartCityParking",
								"label": "isAvailable",
								"offset": 0,
								"slot": "2",
								"type": "t_bool"
							},
							{
								"astId": 325,
								"contract": "SmartCityParking.sol:SmartCityParking",
								"label": "occupant",
								"offset": 1,
								"slot": "2",
								"type": "t_address"
							}
						],
						"numberOfBytes": "96"
					},
					"t_uint256": {
						"encoding": "inplace",
						"label": "uint256",
						"numberOfBytes": "32"
					}
				}
			},
			"userdoc": {
				"kind": "user",
				"methods": {},
				"version": 1
			}
		}
	}
}