{
	"SmartCityParking.sol": {
		"SmartCityParking": {
			"abi": [
				{
					"inputs": [
						{
							"internalType": "address",
							"name": "_parkingTokenAddress",
							"type": "address"
						}
					],
					"stateMutability": "nonpayable",
					"type": "constructor"
				},
				{
					"anonymous": false,
					"inputs": [
						{
							"indexed": true,
							"internalType": "address",
							"name": "driver",
							"type": "address"
						},
						{
							"indexed": false,
							"internalType": "string",
							"name": "name",
							"type": "string"
						}
					],
					"name": "DriverRegistered",
					"type": "event"
				},
				{
					"anonymous": false,
					"inputs": [
						{
							"indexed": true,
							"internalType": "address",
							"name": "driver",
							"type": "address"
						},
						{
							"indexed": true,
							"internalType": "uint256",
							"name": "spotId",
							"type": "uint256"
						},
						{
							"indexed": false,
							"internalType": "uint256",
							"name": "amount",
							"type": "uint256"
						}
					],
					"name": "ParkingPaid",
					"type": "event"
				},
				{
					"anonymous": false,
					"inputs": [
						{
							"indexed": true,
							"internalType": "uint256",
							"name": "id",
							"type": "uint256"
						},
						{
							"indexed": false,
							"internalType": "string",
							"name": "location",
							"type": "string"
						}
					],
					"name": "ParkingSpotRegistered",
					"type": "event"
				},
				{
					"anonymous": false,
					"inputs": [
						{
							"indexed": true,
							"internalType": "uint256",
							"name": "spotId",
							"type": "uint256"
						}
					],
					"name": "SpotReleased",
					"type": "event"
				},
				{
					"anonymous": false,
					"inputs": [
						{
							"indexed": true,
							"internalType": "address",
							"name": "driver",
							"type": "address"
						},
						{
							"indexed": true,
							"internalType": "uint256",
							"name": "spotId",
							"type": "uint256"
						}
					],
					"name": "SpotReserved",
					"type": "event"
				},
				{
					"inputs": [],
					"name": "cityAuthority",
					"outputs": [
						{
							"internalType": "address",
							"name": "",
							"type": "address"
						}
					],
					"stateMutability": "view",
					"type": "function"
				},
				{
					"inputs": [
						{
							"internalType": "address",
							"name": "",
							"type": "address"
						}
					],
					"name": "drivers",
					"outputs": [
						{
							"internalType": "string",
							"name": "name",
							"type": "string"
						},
						{
							"internalType": "bool",
							"name": "isRegistered",
							"type": "bool"
						}
					],
					"stateMutability": "view",
					"type": "function"
				},
				{
					"inputs": [
						{
							"internalType": "uint256",
							"name": "",
							"type": "uint256"
						}
					],
					"name": "parkingSpots",
					"outputs": [
						{
							"internalType": "uint256",
							"name": "id",
							"type": "uint256"
						},
						{
							"internalType": "string",
							"name": "location",
							"type": "string"
						},
						{
							"internalType": "bool",
							"name": "isAvailable",
							"type": "bool"
						},
						{
							"internalType": "address",
							"name": "occupant",
							"type": "address"
						}
					],
					"stateMutability": "view",
					"type": "function"
				},
				{
					"inputs": [],
					"name": "parkingToken",
					"outputs": [
						{
							"internalType": "contract CityParkingToken",
							"name": "",
							"type": "address"
						}
					],
					"stateMutability": "view",
					"type": "function"
				},
				{
					"inputs": [
						{
							"internalType": "uint256",
							"name": "_spotId",
							"type": "uint256"
						},
						{
							"internalType": "uint256",
							"name": "_amount",
							"type": "uint256"
						}
					],
					"name": "payForParking",
					"outputs": [],
					"stateMutability": "nonpayable",
					"type": "function"
				},
				{
					"inputs": [
						{
							"internalType": "string",
							"name": "_name",
							"type": "string"
						}
					],
					"name": "registerDriver",
					"outputs": [],
					"stateMutability": "nonpayable",
					"type": "function"
				},
				{
					"inputs": [
						{
							"internalType": "uint256",
							"name": "_id",
							"type": "uint256"
						},
						{
							"internalType": "string",
							"name": "_location",
							"type": "string"
						}
					],
					"name": "registerParkingSpot",
					"outputs": [],
					"stateMutability": "nonpayable",
					"type": "function"
				},
				{
					"inputs": [
						{
							"internalType": "uint256",
							"name": "_spotId",
							"type": "uint256"
						}
					],
					"name": "releaseSpot",
					"outputs": [],
					"stateMutability": "nonpayable",
					"type": "function"
				},
				{
					"inputs": [
						{
							"internalType": "uint256",
							"name": "_spotId",
							"type": "uint256"
						}
					],
					"name": "reserveSpot",
					"outputs": [],
					"stateMutability": "nonpayable",
					"type": "function"
				}
			],
			"devdoc": {
				"kind": "dev",
				"methods": {},
				"version": 1
			},
			"evm": {
				"assembly": "    /* \"SmartCityParking.sol\":290:4380  contract SmartCityParking {... */\n  mstore(0x40, 0x80)\n    /* \"SmartCityParking.sol\":1997:2148  constructor(address _parkingTokenAddress) {... */\n  callvalue\n  dup1\n  iszero\n  tag_1\n  jumpi\n  revert(0x00, 0x00)\ntag_1:\n  pop\n  mload(0x40)\n  sub(codesize, bytecodeSize)\n  dup1\n  bytecodeSize\n  dup4\n  codecopy\n  dup2\n  dup2\n  add\n  0x40\n  mstore\n  dup2\n  add\n  swap1\n  tag_2\n  swap2\n  swap1\n  tag_3\n  jump\t// in\ntag_2:\n    /* \"SmartCityParking.sol\":2066:2076  msg.sender */\n  caller\n    /* \"SmartCityParking.sol\":2050:2063  cityAuthority */\n  0x00\n  0x00\n    /* \"SmartCityParking.sol\":2050:2076  cityAuthority = msg.sender */\n  0x0100\n  exp\n  dup2\n  sload\n  dup2\n  0xffffffffffffffffffffffffffffffffffffffff\n  mul\n  not\n  and\n  swap1\n  dup4\n  0xffffffffffffffffffffffffffffffffffffffff\n  and\n  mul\n  or\n  swap1\n  sstore\n  pop\n    /* \"SmartCityParking.sol\":2119:2139  _parkingTokenAddress */\n  dup1\n    /* \"SmartCityParking.sol\":2087:2099  parkingToken */\n  0x01\n  0x00\n    /* \"SmartCityParking.sol\":2087:2140  parkingToken = CityParkingToken(_parkingTokenAddress) */\n  0x0100\n  exp\n  dup2\n  sload\n  dup2\n  0xffffffffffffffffffffffffffffffffffffffff\n  mul\n  not\n  and\n  swap1\n  dup4\n  0xffffffffffffffffffffffffffffffffffffffff\n  and\n  mul\n  or\n  swap1\n  sstore\n  pop\n    /* \"SmartCityParking.sol\":1997:2148  constructor(address _parkingTokenAddress) {... */\n  pop\n    /* \"SmartCityParking.sol\":290:4380  contract SmartCityParking {... */\n  jump(tag_6)\n    /* \"#utility.yul\":88:205   */\ntag_8:\n    /* \"#utility.yul\":197:198   */\n  0x00\n    /* \"#utility.yul\":194:195   */\n  0x00\n    /* \"#utility.yul\":187:199   */\n  revert\n    /* \"#utility.yul\":334:460   */\ntag_10:\n    /* \"#utility.yul\":371:378   */\n  0x00\n    /* \"#utility.yul\":411:453   */\n  0xffffffffffffffffffffffffffffffffffffffff\n    /* \"#utility.yul\":404:409   */\n  dup3\n    /* \"#utility.yul\":400:454   */\n  and\n    /* \"#utility.yul\":389:454   */\n  swap1\n  pop\n    /* \"#utility.yul\":334:460   */\n  swap2\n  swap1\n  pop\n  jump\t// out\n    /* \"#utility.yul\":466:562   */\ntag_11:\n    /* \"#utility.yul\":503:510   */\n  0x00\n    /* \"#utility.yul\":532:556   */\n  tag_20\n    /* \"#utility.yul\":550:555   */\n  dup3\n    /* \"#utility.yul\":532:556   */\n  tag_10\n  jump\t// in\ntag_20:\n    /* \"#utility.yul\":521:556   */\n  swap1\n  pop\n    /* \"#utility.yul\":466:562   */\n  swap2\n  swap1\n  pop\n  jump\t// out\n    /* \"#utility.yul\":568:690   */\ntag_12:\n    /* \"#utility.yul\":641:665   */\n  tag_22\n    /* \"#utility.yul\":659:664   */\n  dup2\n    /* \"#utility.yul\":641:665   */\n  tag_11\n  jump\t// in\ntag_22:\n    /* \"#utility.yul\":634:639   */\n  dup2\n    /* \"#utility.yul\":631:666   */\n  eq\n    /* \"#utility.yul\":621:684   */\n  tag_23\n  jumpi\n    /* \"#utility.yul\":680:681   */\n  0x00\n    /* \"#utility.yul\":677:678   */\n  0x00\n    /* \"#utility.yul\":670:682   */\n  revert\n    /* \"#utility.yul\":621:684   */\ntag_23:\n    /* \"#utility.yul\":568:690   */\n  pop\n  jump\t// out\n    /* \"#utility.yul\":696:839   */\ntag_13:\n    /* \"#utility.yul\":753:758   */\n  0x00\n    /* \"#utility.yul\":784:790   */\n  dup2\n    /* \"#utility.yul\":778:791   */\n  mload\n    /* \"#utility.yul\":769:791   */\n  swap1\n  pop\n    /* \"#utility.yul\":800:833   */\n  tag_25\n    /* \"#utility.yul\":827:832   */\n  dup2\n    /* \"#utility.yul\":800:833   */\n  tag_12\n  jump\t// in\ntag_25:\n    /* \"#utility.yul\":696:839   */\n  swap3\n  swap2\n  pop\n  pop\n  jump\t// out\n    /* \"#utility.yul\":845:1196   */\ntag_3:\n    /* \"#utility.yul\":915:921   */\n  0x00\n    /* \"#utility.yul\":964:966   */\n  0x20\n    /* \"#utility.yul\":952:961   */\n  dup3\n    /* \"#utility.yul\":943:950   */\n  dup5\n    /* \"#utility.yul\":939:962   */\n  sub\n    /* \"#utility.yul\":935:967   */\n  slt\n    /* \"#utility.yul\":932:1051   */\n  iszero\n  tag_27\n  jumpi\n    /* \"#utility.yul\":970:1049   */\n  tag_28\n  tag_8\n  jump\t// in\ntag_28:\n    /* \"#utility.yul\":932:1051   */\ntag_27:\n    /* \"#utility.yul\":1090:1091   */\n  0x00\n    /* \"#utility.yul\":1115:1179   */\n  tag_29\n    /* \"#utility.yul\":1171:1178   */\n  dup5\n    /* \"#utility.yul\":1162:1168   */\n  dup3\n    /* \"#utility.yul\":1151:1160   */\n  dup6\n    /* \"#utility.yul\":1147:1169   */\n  add\n    /* \"#utility.yul\":1115:1179   */\n  tag_13\n  jump\t// in\ntag_29:\n    /* \"#utility.yul\":1105:1179   */\n  swap2\n  pop\n    /* \"#utility.yul\":1061:1189   */\n  pop\n    /* \"#utility.yul\":845:1196   */\n  swap3\n  swap2\n  pop\n  pop\n  jump\t// out\n    /* \"SmartCityParking.sol\":290:4380  contract SmartCityParking {... */\ntag_6:\n  dataSize(sub_0)\n  dup1\n  dataOffset(sub_0)\n  0x00\n  codecopy\n  0x00\n  return\nstop\n\nsub_0: assembly {\n        /* \"SmartCityParking.sol\":290:4380  contract SmartCityParking {... */\n      mstore(0x40, 0x80)\n      callvalue\n      dup1\n      iszero\n      tag_1\n      jumpi\n      revert(0x00, 0x00)\n    tag_1:\n      pop\n      jumpi(tag_2, lt(calldatasize, 0x04))\n      shr(0xe0, calldataload(0x00))\n      dup1\n      0x728c34d7\n      gt\n      tag_12\n      jumpi\n      dup1\n      0x728c34d7\n      eq\n      tag_7\n      jumpi\n      dup1\n      0xa127dcd3\n      eq\n      tag_8\n      jumpi\n      dup1\n      0xc36809e7\n      eq\n      tag_9\n      jumpi\n      dup1\n      0xf12d4f09\n      eq\n      tag_10\n      jumpi\n      dup1\n      0xf5defcd3\n      eq\n      tag_11\n      jumpi\n      jump(tag_2)\n    tag_12:\n      dup1\n      0x05f4804c\n      eq\n      tag_3\n      jumpi\n      dup1\n      0x309f225d\n      eq\n      tag_4\n      jumpi\n      dup1\n      0x4aa60186\n      eq\n      tag_5\n      jumpi\n      dup1\n      0x642a79eb\n      eq\n      tag_6\n      jumpi\n    tag_2:\n      revert(0x00, 0x00)\n        /* \"SmartCityParking.sol\":2196:2510  function registerDriver(string memory _name) public {... */\n    tag_3:\n      tag_13\n      0x04\n      dup1\n      calldatasize\n      sub\n      dup2\n      add\n      swap1\n      tag_14\n      swap2\n      swap1\n      tag_15\n      jump\t// in\n    tag_14:\n      tag_16\n      jump\t// in\n    tag_13:\n      stop\n        /* \"SmartCityParking.sol\":462:498  CityParkingToken public parkingToken */\n    tag_4:\n      tag_17\n      tag_18\n      jump\t// in\n    tag_17:\n      mload(0x40)\n      tag_19\n      swap2\n      swap1\n      tag_20\n      jump\t// in\n    tag_19:\n      mload(0x40)\n      dup1\n      swap2\n      sub\n      swap1\n      return\n        /* \"SmartCityParking.sol\":996:1037  mapping(address => Driver) public drivers */\n    tag_5:\n      tag_21\n      0x04\n      dup1\n      calldatasize\n      sub\n      dup2\n      add\n      swap1\n      tag_22\n      swap2\n      swap1\n      tag_23\n      jump\t// in\n    tag_22:\n      tag_24\n      jump\t// in\n    tag_21:\n      mload(0x40)\n      tag_25\n      swap3\n      swap2\n      swap1\n      tag_26\n      jump\t// in\n    tag_25:\n      mload(0x40)\n      dup1\n      swap2\n      sub\n      swap1\n      return\n        /* \"SmartCityParking.sol\":2997:3388  function reserveSpot(uint256 _spotId) public onlyRegistered {... */\n    tag_6:\n      tag_27\n      0x04\n      dup1\n      calldatasize\n      sub\n      dup2\n      add\n      swap1\n      tag_28\n      swap2\n      swap1\n      tag_29\n      jump\t// in\n    tag_28:\n      tag_30\n      jump\t// in\n    tag_27:\n      stop\n        /* \"SmartCityParking.sol\":3877:4377  function payForParking(uint256 _spotId, uint256 _amount) public onlyRegistered {... */\n    tag_7:\n      tag_31\n      0x04\n      dup1\n      calldatasize\n      sub\n      dup2\n      add\n      swap1\n      tag_32\n      swap2\n      swap1\n      tag_33\n      jump\t// in\n    tag_32:\n      tag_34\n      jump\t// in\n    tag_31:\n      stop\n        /* \"SmartCityParking.sol\":3427:3833  function releaseSpot(uint256 _spotId) public onlyRegistered {... */\n    tag_8:\n      tag_35\n      0x04\n      dup1\n      calldatasize\n      sub\n      dup2\n      add\n      swap1\n      tag_36\n      swap2\n      swap1\n      tag_29\n      jump\t// in\n    tag_36:\n      tag_37\n      jump\t// in\n    tag_35:\n      stop\n        /* \"SmartCityParking.sol\":380:408  address public cityAuthority */\n    tag_9:\n      tag_38\n      tag_39\n      jump\t// in\n    tag_38:\n      mload(0x40)\n      tag_40\n      swap2\n      swap1\n      tag_41\n      jump\t// in\n    tag_40:\n      mload(0x40)\n      dup1\n      swap2\n      sub\n      swap1\n      return\n        /* \"SmartCityParking.sol\":2576:2958  function registerParkingSpot(uint256 _id, string memory _location) public onlyCityAuthority {... */\n    tag_10:\n      tag_42\n      0x04\n      dup1\n      calldatasize\n      sub\n      dup2\n      add\n      swap1\n      tag_43\n      swap2\n      swap1\n      tag_44\n      jump\t// in\n    tag_43:\n      tag_45\n      jump\t// in\n    tag_42:\n      stop\n        /* \"SmartCityParking.sol\":1069:1120  mapping(uint256 => ParkingSpot) public parkingSpots */\n    tag_11:\n      tag_46\n      0x04\n      dup1\n      calldatasize\n      sub\n      dup2\n      add\n      swap1\n      tag_47\n      swap2\n      swap1\n      tag_29\n      jump\t// in\n    tag_47:\n      tag_48\n      jump\t// in\n    tag_46:\n      mload(0x40)\n      tag_49\n      swap5\n      swap4\n      swap3\n      swap2\n      swap1\n      tag_50\n      jump\t// in\n    tag_49:\n      mload(0x40)\n      dup1\n      swap2\n      sub\n      swap1\n      return\n        /* \"SmartCityParking.sol\":2196:2510  function registerDriver(string memory _name) public {... */\n    tag_16:\n        /* \"SmartCityParking.sol\":2268:2275  drivers */\n      0x02\n        /* \"SmartCityParking.sol\":2268:2287  drivers[msg.sender] */\n      0x00\n        /* \"SmartCityParking.sol\":2276:2286  msg.sender */\n      caller\n        /* \"SmartCityParking.sol\":2268:2287  drivers[msg.sender] */\n      0xffffffffffffffffffffffffffffffffffffffff\n      and\n      0xffffffffffffffffffffffffffffffffffffffff\n      and\n      dup2\n      mstore\n      0x20\n      add\n      swap1\n      dup2\n      mstore\n      0x20\n      add\n      0x00\n      keccak256\n        /* \"SmartCityParking.sol\":2268:2300  drivers[msg.sender].isRegistered */\n      0x01\n      add\n      0x00\n      swap1\n      sload\n      swap1\n      0x0100\n      exp\n      swap1\n      div\n      0xff\n      and\n        /* \"SmartCityParking.sol\":2267:2300  !drivers[msg.sender].isRegistered */\n      iszero\n        /* \"SmartCityParking.sol\":2259:2330  require(!drivers[msg.sender].isRegistered, \"Driver already registered\") */\n      tag_52\n      jumpi\n      mload(0x40)\n      0x08c379a000000000000000000000000000000000000000000000000000000000\n      dup2\n      mstore\n      0x04\n      add\n      tag_53\n      swap1\n      tag_54\n      jump\t// in\n    tag_53:\n      mload(0x40)\n      dup1\n      swap2\n      sub\n      swap1\n      revert\n    tag_52:\n        /* \"SmartCityParking.sol\":2371:2372  0 */\n      0x00\n        /* \"SmartCityParking.sol\":2355:2360  _name */\n      dup2\n        /* \"SmartCityParking.sol\":2349:2368  bytes(_name).length */\n      mload\n        /* \"SmartCityParking.sol\":2349:2372  bytes(_name).length > 0 */\n      gt\n        /* \"SmartCityParking.sol\":2341:2397  require(bytes(_name).length > 0, \"Name cannot be empty\") */\n      tag_55\n      jumpi\n      mload(0x40)\n      0x08c379a000000000000000000000000000000000000000000000000000000000\n      dup2\n      mstore\n      0x04\n      add\n      tag_56\n      swap1\n      tag_57\n      jump\t// in\n    tag_56:\n      mload(0x40)\n      dup1\n      swap2\n      sub\n      swap1\n      revert\n    tag_55:\n        /* \"SmartCityParking.sol\":2432:2451  Driver(_name, true) */\n      mload(0x40)\n      dup1\n      0x40\n      add\n      0x40\n      mstore\n      dup1\n        /* \"SmartCityParking.sol\":2439:2444  _name */\n      dup3\n        /* \"SmartCityParking.sol\":2432:2451  Driver(_name, true) */\n      dup2\n      mstore\n      0x20\n      add\n        /* \"SmartCityParking.sol\":2446:2450  true */\n      0x01\n        /* \"SmartCityParking.sol\":2432:2451  Driver(_name, true) */\n      iszero\n      iszero\n      dup2\n      mstore\n      pop\n        /* \"SmartCityParking.sol\":2410:2417  drivers */\n      0x02\n        /* \"SmartCityParking.sol\":2410:2429  drivers[msg.sender] */\n      0x00\n        /* \"SmartCityParking.sol\":2418:2428  msg.sender */\n      caller\n        /* \"SmartCityParking.sol\":2410:2429  drivers[msg.sender] */\n      0xffffffffffffffffffffffffffffffffffffffff\n      and\n      0xffffffffffffffffffffffffffffffffffffffff\n      and\n      dup2\n      mstore\n      0x20\n      add\n      swap1\n      dup2\n      mstore\n      0x20\n      add\n      0x00\n      keccak256\n        /* \"SmartCityParking.sol\":2410:2451  drivers[msg.sender] = Driver(_name, true) */\n      0x00\n      dup3\n      add\n      mload\n      dup2\n      0x00\n      add\n      swap1\n      dup2\n      tag_58\n      swap2\n      swap1\n      tag_59\n      jump\t// in\n    tag_58:\n      pop\n      0x20\n      dup3\n      add\n      mload\n      dup2\n      0x01\n      add\n      exp(0x0100, 0x00)\n      dup2\n      sload\n      dup2\n      0xff\n      mul\n      not\n      and\n      swap1\n      dup4\n      iszero\n      iszero\n      mul\n      or\n      swap1\n      sstore\n      pop\n      swap1\n      pop\n      pop\n        /* \"SmartCityParking.sol\":2484:2494  msg.sender */\n      caller\n        /* \"SmartCityParking.sol\":2467:2502  DriverRegistered(msg.sender, _name) */\n      0xffffffffffffffffffffffffffffffffffffffff\n      and\n      0x9b956fafd6b420070aaa3307dcf792c7a34a3118d4271ee745e1472b281a2f1f\n        /* \"SmartCityParking.sol\":2496:2501  _name */\n      dup3\n        /* \"SmartCityParking.sol\":2467:2502  DriverRegistered(msg.sender, _name) */\n      mload(0x40)\n      tag_60\n      swap2\n      swap1\n      tag_61\n      jump\t// in\n    tag_60:\n      mload(0x40)\n      dup1\n      swap2\n      sub\n      swap1\n      log2\n        /* \"SmartCityParking.sol\":2196:2510  function registerDriver(string memory _name) public {... */\n      pop\n      jump\t// out\n        /* \"SmartCityParking.sol\":462:498  CityParkingToken public parkingToken */\n    tag_18:\n      0x01\n      0x00\n      swap1\n      sload\n      swap1\n      0x0100\n      exp\n      swap1\n      div\n      0xffffffffffffffffffffffffffffffffffffffff\n      and\n      dup2\n      jump\t// out\n        /* \"SmartCityParking.sol\":996:1037  mapping(address => Driver) public drivers */\n    tag_24:\n      mstore(0x20, 0x02)\n      dup1\n      0x00\n      mstore\n      keccak256(0x00, 0x40)\n      0x00\n      swap2\n      pop\n      swap1\n      pop\n      dup1\n      0x00\n      add\n      dup1\n      sload\n      tag_62\n      swap1\n      tag_63\n      jump\t// in\n    tag_62:\n      dup1\n      0x1f\n      add\n      0x20\n      dup1\n      swap2\n      div\n      mul\n      0x20\n      add\n      mload(0x40)\n      swap1\n      dup2\n      add\n      0x40\n      mstore\n      dup1\n      swap3\n      swap2\n      swap1\n      dup2\n      dup2\n      mstore\n      0x20\n      add\n      dup3\n      dup1\n      sload\n      tag_64\n      swap1\n      tag_63\n      jump\t// in\n    tag_64:\n      dup1\n      iszero\n      tag_65\n      jumpi\n      dup1\n      0x1f\n      lt\n      tag_66\n      jumpi\n      0x0100\n      dup1\n      dup4\n      sload\n      div\n      mul\n      dup4\n      mstore\n      swap2\n      0x20\n      add\n      swap2\n      jump(tag_65)\n    tag_66:\n      dup3\n      add\n      swap2\n      swap1\n      0x00\n      mstore\n      keccak256(0x00, 0x20)\n      swap1\n    tag_67:\n      dup2\n      sload\n      dup2\n      mstore\n      swap1\n      0x01\n      add\n      swap1\n      0x20\n      add\n      dup1\n      dup4\n      gt\n      tag_67\n      jumpi\n      dup3\n      swap1\n      sub\n      0x1f\n      and\n      dup3\n      add\n      swap2\n    tag_65:\n      pop\n      pop\n      pop\n      pop\n      pop\n      swap1\n      dup1\n      0x01\n      add\n      0x00\n      swap1\n      sload\n      swap1\n      0x0100\n      exp\n      swap1\n      div\n      0xff\n      and\n      swap1\n      pop\n      dup3\n      jump\t// out\n        /* \"SmartCityParking.sol\":2997:3388  function reserveSpot(uint256 _spotId) public onlyRegistered {... */\n    tag_30:\n        /* \"SmartCityParking.sol\":1834:1841  drivers */\n      0x02\n        /* \"SmartCityParking.sol\":1834:1853  drivers[msg.sender] */\n      0x00\n        /* \"SmartCityParking.sol\":1842:1852  msg.sender */\n      caller\n        /* \"SmartCityParking.sol\":1834:1853  drivers[msg.sender] */\n      0xffffffffffffffffffffffffffffffffffffffff\n      and\n      0xffffffffffffffffffffffffffffffffffffffff\n      and\n      dup2\n      mstore\n      0x20\n      add\n      swap1\n      dup2\n      mstore\n      0x20\n      add\n      0x00\n      keccak256\n        /* \"SmartCityParking.sol\":1834:1866  drivers[msg.sender].isRegistered */\n      0x01\n      add\n      0x00\n      swap1\n      sload\n      swap1\n      0x0100\n      exp\n      swap1\n      div\n      0xff\n      and\n        /* \"SmartCityParking.sol\":1826:1892  require(drivers[msg.sender].isRegistered, \"Driver not registered\") */\n      tag_69\n      jumpi\n      mload(0x40)\n      0x08c379a000000000000000000000000000000000000000000000000000000000\n      dup2\n      mstore\n      0x04\n      add\n      tag_70\n      swap1\n      tag_71\n      jump\t// in\n    tag_70:\n      mload(0x40)\n      dup1\n      swap2\n      sub\n      swap1\n      revert\n    tag_69:\n        /* \"SmartCityParking.sol\":3104:3105  0 */\n      0x00\n        /* \"SmartCityParking.sol\":3076:3088  parkingSpots */\n      0x03\n        /* \"SmartCityParking.sol\":3076:3097  parkingSpots[_spotId] */\n      0x00\n        /* \"SmartCityParking.sol\":3089:3096  _spotId */\n      dup4\n        /* \"SmartCityParking.sol\":3076:3097  parkingSpots[_spotId] */\n      dup2\n      mstore\n      0x20\n      add\n      swap1\n      dup2\n      mstore\n      0x20\n      add\n      0x00\n      keccak256\n        /* \"SmartCityParking.sol\":3076:3100  parkingSpots[_spotId].id */\n      0x00\n      add\n      sload\n        /* \"SmartCityParking.sol\":3076:3105  parkingSpots[_spotId].id != 0 */\n      sub\n        /* \"SmartCityParking.sol\":3068:3137  require(parkingSpots[_spotId].id != 0, \"Parking spot does not exist\") */\n      tag_73\n      jumpi\n      mload(0x40)\n      0x08c379a000000000000000000000000000000000000000000000000000000000\n      dup2\n      mstore\n      0x04\n      add\n      tag_74\n      swap1\n      tag_75\n      jump\t// in\n    tag_74:\n      mload(0x40)\n      dup1\n      swap2\n      sub\n      swap1\n      revert\n    tag_73:\n        /* \"SmartCityParking.sol\":3156:3168  parkingSpots */\n      0x03\n        /* \"SmartCityParking.sol\":3156:3177  parkingSpots[_spotId] */\n      0x00\n        /* \"SmartCityParking.sol\":3169:3176  _spotId */\n      dup3\n        /* \"SmartCityParking.sol\":3156:3177  parkingSpots[_spotId] */\n      dup2\n      mstore\n      0x20\n      add\n      swap1\n      dup2\n      mstore\n      0x20\n      add\n      0x00\n      keccak256\n        /* \"SmartCityParking.sol\":3156:3189  parkingSpots[_spotId].isAvailable */\n      0x02\n      add\n      0x00\n      swap1\n      sload\n      swap1\n      0x0100\n      exp\n      swap1\n      div\n      0xff\n      and\n        /* \"SmartCityParking.sol\":3148:3223  require(parkingSpots[_spotId].isAvailable, \"Parking spot is not available\") */\n      tag_76\n      jumpi\n      mload(0x40)\n      0x08c379a000000000000000000000000000000000000000000000000000000000\n      dup2\n      mstore\n      0x04\n      add\n      tag_77\n      swap1\n      tag_78\n      jump\t// in\n    tag_77:\n      mload(0x40)\n      dup1\n      swap2\n      sub\n      swap1\n      revert\n    tag_76:\n        /* \"SmartCityParking.sol\":3272:3277  false */\n      0x00\n        /* \"SmartCityParking.sol\":3236:3248  parkingSpots */\n      0x03\n        /* \"SmartCityParking.sol\":3236:3257  parkingSpots[_spotId] */\n      0x00\n        /* \"SmartCityParking.sol\":3249:3256  _spotId */\n      dup4\n        /* \"SmartCityParking.sol\":3236:3257  parkingSpots[_spotId] */\n      dup2\n      mstore\n      0x20\n      add\n      swap1\n      dup2\n      mstore\n      0x20\n      add\n      0x00\n      keccak256\n        /* \"SmartCityParking.sol\":3236:3269  parkingSpots[_spotId].isAvailable */\n      0x02\n      add\n      0x00\n        /* \"SmartCityParking.sol\":3236:3277  parkingSpots[_spotId].isAvailable = false */\n      0x0100\n      exp\n      dup2\n      sload\n      dup2\n      0xff\n      mul\n      not\n      and\n      swap1\n      dup4\n      iszero\n      iszero\n      mul\n      or\n      swap1\n      sstore\n      pop\n        /* \"SmartCityParking.sol\":3321:3331  msg.sender */\n      caller\n        /* \"SmartCityParking.sol\":3288:3300  parkingSpots */\n      0x03\n        /* \"SmartCityParking.sol\":3288:3309  parkingSpots[_spotId] */\n      0x00\n        /* \"SmartCityParking.sol\":3301:3308  _spotId */\n      dup4\n        /* \"SmartCityParking.sol\":3288:3309  parkingSpots[_spotId] */\n      dup2\n      mstore\n      0x20\n      add\n      swap1\n      dup2\n      mstore\n      0x20\n      add\n      0x00\n      keccak256\n        /* \"SmartCityParking.sol\":3288:3318  parkingSpots[_spotId].occupant */\n      0x02\n      add\n      0x01\n        /* \"SmartCityParking.sol\":3288:3331  parkingSpots[_spotId].occupant = msg.sender */\n      0x0100\n      exp\n      dup2\n      sload\n      dup2\n      0xffffffffffffffffffffffffffffffffffffffff\n      mul\n      not\n      and\n      swap1\n      dup4\n      0xffffffffffffffffffffffffffffffffffffffff\n      and\n      mul\n      or\n      swap1\n      sstore\n      pop\n        /* \"SmartCityParking.sol\":3372:3379  _spotId */\n      dup1\n        /* \"SmartCityParking.sol\":3360:3370  msg.sender */\n      caller\n        /* \"SmartCityParking.sol\":3347:3380  SpotReserved(msg.sender, _spotId) */\n      0xffffffffffffffffffffffffffffffffffffffff\n      and\n      0xf188b1697a1957c8cf926acf3bd65c4bbfa00e37d369a477738e28c39aee097d\n      mload(0x40)\n      mload(0x40)\n      dup1\n      swap2\n      sub\n      swap1\n      log3\n        /* \"SmartCityParking.sol\":2997:3388  function reserveSpot(uint256 _spotId) public onlyRegistered {... */\n      pop\n      jump\t// out\n        /* \"SmartCityParking.sol\":3877:4377  function payForParking(uint256 _spotId, uint256 _amount) public onlyRegistered {... */\n    tag_34:\n        /* \"SmartCityParking.sol\":1834:1841  drivers */\n      0x02\n        /* \"SmartCityParking.sol\":1834:1853  drivers[msg.sender] */\n      0x00\n        /* \"SmartCityParking.sol\":1842:1852  msg.sender */\n      caller\n        /* \"SmartCityParking.sol\":1834:1853  drivers[msg.sender] */\n      0xffffffffffffffffffffffffffffffffffffffff\n      and\n      0xffffffffffffffffffffffffffffffffffffffff\n      and\n      dup2\n      mstore\n      0x20\n      add\n      swap1\n      dup2\n      mstore\n      0x20\n      add\n      0x00\n      keccak256\n        /* \"SmartCityParking.sol\":1834:1866  drivers[msg.sender].isRegistered */\n      0x01\n      add\n      0x00\n      swap1\n      sload\n      swap1\n      0x0100\n      exp\n      swap1\n      div\n      0xff\n      and\n        /* \"SmartCityParking.sol\":1826:1892  require(drivers[msg.sender].isRegistered, \"Driver not registered\") */\n      tag_80\n      jumpi\n      mload(0x40)\n      0x08c379a000000000000000000000000000000000000000000000000000000000\n      dup2\n      mstore\n      0x04\n      add\n      tag_81\n      swap1\n      tag_71\n      jump\t// in\n    tag_81:\n      mload(0x40)\n      dup1\n      swap2\n      sub\n      swap1\n      revert\n    tag_80:\n        /* \"SmartCityParking.sol\":4003:4004  0 */\n      0x00\n        /* \"SmartCityParking.sol\":3975:3987  parkingSpots */\n      0x03\n        /* \"SmartCityParking.sol\":3975:3996  parkingSpots[_spotId] */\n      0x00\n        /* \"SmartCityParking.sol\":3988:3995  _spotId */\n      dup5\n        /* \"SmartCityParking.sol\":3975:3996  parkingSpots[_spotId] */\n      dup2\n      mstore\n      0x20\n      add\n      swap1\n      dup2\n      mstore\n      0x20\n      add\n      0x00\n      keccak256\n        /* \"SmartCityParking.sol\":3975:3999  parkingSpots[_spotId].id */\n      0x00\n      add\n      sload\n        /* \"SmartCityParking.sol\":3975:4004  parkingSpots[_spotId].id != 0 */\n      sub\n        /* \"SmartCityParking.sol\":3967:4036  require(parkingSpots[_spotId].id != 0, \"Parking spot does not exist\") */\n      tag_83\n      jumpi\n      mload(0x40)\n      0x08c379a000000000000000000000000000000000000000000000000000000000\n      dup2\n      mstore\n      0x04\n      add\n      tag_84\n      swap1\n      tag_75\n      jump\t// in\n    tag_84:\n      mload(0x40)\n      dup1\n      swap2\n      sub\n      swap1\n      revert\n    tag_83:\n        /* \"SmartCityParking.sol\":4089:4099  msg.sender */\n      caller\n        /* \"SmartCityParking.sol\":4055:4099  parkingSpots[_spotId].occupant == msg.sender */\n      0xffffffffffffffffffffffffffffffffffffffff\n      and\n        /* \"SmartCityParking.sol\":4055:4067  parkingSpots */\n      0x03\n        /* \"SmartCityParking.sol\":4055:4076  parkingSpots[_spotId] */\n      0x00\n        /* \"SmartCityParking.sol\":4068:4075  _spotId */\n      dup5\n        /* \"SmartCityParking.sol\":4055:4076  parkingSpots[_spotId] */\n      dup2\n      mstore\n      0x20\n      add\n      swap1\n      dup2\n      mstore\n      0x20\n      add\n      0x00\n      keccak256\n        /* \"SmartCityParking.sol\":4055:4085  parkingSpots[_spotId].occupant */\n      0x02\n      add\n      0x01\n      swap1\n      sload\n      swap1\n      0x0100\n      exp\n      swap1\n      div\n      0xffffffffffffffffffffffffffffffffffffffff\n      and\n        /* \"SmartCityParking.sol\":4055:4099  parkingSpots[_spotId].occupant == msg.sender */\n      0xffffffffffffffffffffffffffffffffffffffff\n      and\n      eq\n        /* \"SmartCityParking.sol\":4047:4117  require(parkingSpots[_spotId].occupant == msg.sender, \"Not your spot\") */\n      tag_85\n      jumpi\n      mload(0x40)\n      0x08c379a000000000000000000000000000000000000000000000000000000000\n      dup2\n      mstore\n      0x04\n      add\n      tag_86\n      swap1\n      tag_87\n      jump\t// in\n    tag_86:\n      mload(0x40)\n      dup1\n      swap2\n      sub\n      swap1\n      revert\n    tag_85:\n        /* \"SmartCityParking.sol\":4146:4147  0 */\n      0x00\n        /* \"SmartCityParking.sol\":4136:4143  _amount */\n      dup2\n        /* \"SmartCityParking.sol\":4136:4147  _amount > 0 */\n      gt\n        /* \"SmartCityParking.sol\":4128:4192  require(_amount > 0, \"Payment amount must be greater than zero\") */\n      tag_88\n      jumpi\n      mload(0x40)\n      0x08c379a000000000000000000000000000000000000000000000000000000000\n      dup2\n      mstore\n      0x04\n      add\n      tag_89\n      swap1\n      tag_90\n      jump\t// in\n    tag_89:\n      mload(0x40)\n      dup1\n      swap2\n      sub\n      swap1\n      revert\n    tag_88:\n        /* \"SmartCityParking.sol\":4251:4263  parkingToken */\n      0x01\n      0x00\n      swap1\n      sload\n      swap1\n      0x0100\n      exp\n      swap1\n      div\n      0xffffffffffffffffffffffffffffffffffffffff\n      and\n        /* \"SmartCityParking.sol\":4251:4276  parkingToken.transferFrom */\n      0xffffffffffffffffffffffffffffffffffffffff\n      and\n      0x23b872dd\n        /* \"SmartCityParking.sol\":4277:4287  msg.sender */\n      caller\n        /* \"SmartCityParking.sol\":4289:4302  cityAuthority */\n      0x00\n      0x00\n      swap1\n      sload\n      swap1\n      0x0100\n      exp\n      swap1\n      div\n      0xffffffffffffffffffffffffffffffffffffffff\n      and\n        /* \"SmartCityParking.sol\":4304:4311  _amount */\n      dup5\n        /* \"SmartCityParking.sol\":4251:4312  parkingToken.transferFrom(msg.sender, cityAuthority, _amount) */\n      mload(0x40)\n      dup5\n      0xffffffff\n      and\n      0xe0\n      shl\n      dup2\n      mstore\n      0x04\n      add\n      tag_91\n      swap4\n      swap3\n      swap2\n      swap1\n      tag_92\n      jump\t// in\n    tag_91:\n      0x20\n      mload(0x40)\n      dup1\n      dup4\n      sub\n      dup2\n      0x00\n      dup8\n      gas\n      call\n      iszero\n      dup1\n      iszero\n      tag_94\n      jumpi\n      returndatacopy(0x00, 0x00, returndatasize)\n      revert(0x00, returndatasize)\n    tag_94:\n      pop\n      pop\n      pop\n      pop\n      mload(0x40)\n      returndatasize\n      not(0x1f)\n      0x1f\n      dup3\n      add\n      and\n      dup3\n      add\n      dup1\n      0x40\n      mstore\n      pop\n      dup2\n      add\n      swap1\n      tag_95\n      swap2\n      swap1\n      tag_96\n      jump\t// in\n    tag_95:\n      pop\n        /* \"SmartCityParking.sol\":4352:4359  _spotId */\n      dup2\n        /* \"SmartCityParking.sol\":4340:4350  msg.sender */\n      caller\n        /* \"SmartCityParking.sol\":4328:4369  ParkingPaid(msg.sender, _spotId, _amount) */\n      0xffffffffffffffffffffffffffffffffffffffff\n      and\n      0xe1f3e4d81d3488956ba3579a4ab6f949d3abc6e4d8b93199a9a5dac467110377\n        /* \"SmartCityParking.sol\":4361:4368  _amount */\n      dup4\n        /* \"SmartCityParking.sol\":4328:4369  ParkingPaid(msg.sender, _spotId, _amount) */\n      mload(0x40)\n      tag_97\n      swap2\n      swap1\n      tag_98\n      jump\t// in\n    tag_97:\n      mload(0x40)\n      dup1\n      swap2\n      sub\n      swap1\n      log3\n        /* \"SmartCityParking.sol\":3877:4377  function payForParking(uint256 _spotId, uint256 _amount) public onlyRegistered {... */\n      pop\n      pop\n      jump\t// out\n        /* \"SmartCityParking.sol\":3427:3833  function releaseSpot(uint256 _spotId) public onlyRegistered {... */\n    tag_37:\n        /* \"SmartCityParking.sol\":1834:1841  drivers */\n      0x02\n        /* \"SmartCityParking.sol\":1834:1853  drivers[msg.sender] */\n      0x00\n        /* \"SmartCityParking.sol\":1842:1852  msg.sender */\n      caller\n        /* \"SmartCityParking.sol\":1834:1853  drivers[msg.sender] */\n      0xffffffffffffffffffffffffffffffffffffffff\n      and\n      0xffffffffffffffffffffffffffffffffffffffff\n      and\n      dup2\n      mstore\n      0x20\n      add\n      swap1\n      dup2\n      mstore\n      0x20\n      add\n      0x00\n      keccak256\n        /* \"SmartCityParking.sol\":1834:1866  drivers[msg.sender].isRegistered */\n      0x01\n      add\n      0x00\n      swap1\n      sload\n      swap1\n      0x0100\n      exp\n      swap1\n      div\n      0xff\n      and\n        /* \"SmartCityParking.sol\":1826:1892  require(drivers[msg.sender].isRegistered, \"Driver not registered\") */\n      tag_100\n      jumpi\n      mload(0x40)\n      0x08c379a000000000000000000000000000000000000000000000000000000000\n      dup2\n      mstore\n      0x04\n      add\n      tag_101\n      swap1\n      tag_71\n      jump\t// in\n    tag_101:\n      mload(0x40)\n      dup1\n      swap2\n      sub\n      swap1\n      revert\n    tag_100:\n        /* \"SmartCityParking.sol\":3534:3535  0 */\n      0x00\n        /* \"SmartCityParking.sol\":3506:3518  parkingSpots */\n      0x03\n        /* \"SmartCityParking.sol\":3506:3527  parkingSpots[_spotId] */\n      0x00\n        /* \"SmartCityParking.sol\":3519:3526  _spotId */\n      dup4\n        /* \"SmartCityParking.sol\":3506:3527  parkingSpots[_spotId] */\n      dup2\n      mstore\n      0x20\n      add\n      swap1\n      dup2\n      mstore\n      0x20\n      add\n      0x00\n      keccak256\n        /* \"SmartCityParking.sol\":3506:3530  parkingSpots[_spotId].id */\n      0x00\n      add\n      sload\n        /* \"SmartCityParking.sol\":3506:3535  parkingSpots[_spotId].id != 0 */\n      sub\n        /* \"SmartCityParking.sol\":3498:3567  require(parkingSpots[_spotId].id != 0, \"Parking spot does not exist\") */\n      tag_103\n      jumpi\n      mload(0x40)\n      0x08c379a000000000000000000000000000000000000000000000000000000000\n      dup2\n      mstore\n      0x04\n      add\n      tag_104\n      swap1\n      tag_75\n      jump\t// in\n    tag_104:\n      mload(0x40)\n      dup1\n      swap2\n      sub\n      swap1\n      revert\n    tag_103:\n        /* \"SmartCityParking.sol\":3653:3663  msg.sender */\n      caller\n        /* \"SmartCityParking.sol\":3619:3663  parkingSpots[_spotId].occupant == msg.sender */\n      0xffffffffffffffffffffffffffffffffffffffff\n      and\n        /* \"SmartCityParking.sol\":3619:3631  parkingSpots */\n      0x03\n        /* \"SmartCityParking.sol\":3619:3640  parkingSpots[_spotId] */\n      0x00\n        /* \"SmartCityParking.sol\":3632:3639  _spotId */\n      dup4\n        /* \"SmartCityParking.sol\":3619:3640  parkingSpots[_spotId] */\n      dup2\n      mstore\n      0x20\n      add\n      swap1\n      dup2\n      mstore\n      0x20\n      add\n      0x00\n      keccak256\n        /* \"SmartCityParking.sol\":3619:3649  parkingSpots[_spotId].occupant */\n      0x02\n      add\n      0x01\n      swap1\n      sload\n      swap1\n      0x0100\n      exp\n      swap1\n      div\n      0xffffffffffffffffffffffffffffffffffffffff\n      and\n        /* \"SmartCityParking.sol\":3619:3663  parkingSpots[_spotId].occupant == msg.sender */\n      0xffffffffffffffffffffffffffffffffffffffff\n      and\n      eq\n        /* \"SmartCityParking.sol\":3611:3681  require(parkingSpots[_spotId].occupant == msg.sender, \"Not your spot\") */\n      tag_105\n      jumpi\n      mload(0x40)\n      0x08c379a000000000000000000000000000000000000000000000000000000000\n      dup2\n      mstore\n      0x04\n      add\n      tag_106\n      swap1\n      tag_87\n      jump\t// in\n    tag_106:\n      mload(0x40)\n      dup1\n      swap2\n      sub\n      swap1\n      revert\n    tag_105:\n        /* \"SmartCityParking.sol\":3730:3734  true */\n      0x01\n        /* \"SmartCityParking.sol\":3694:3706  parkingSpots */\n      0x03\n        /* \"SmartCityParking.sol\":3694:3715  parkingSpots[_spotId] */\n      0x00\n        /* \"SmartCityParking.sol\":3707:3714  _spotId */\n      dup4\n        /* \"SmartCityParking.sol\":3694:3715  parkingSpots[_spotId] */\n      dup2\n      mstore\n      0x20\n      add\n      swap1\n      dup2\n      mstore\n      0x20\n      add\n      0x00\n      keccak256\n        /* \"SmartCityParking.sol\":3694:3727  parkingSpots[_spotId].isAvailable */\n      0x02\n      add\n      0x00\n        /* \"SmartCityParking.sol\":3694:3734  parkingSpots[_spotId].isAvailable = true */\n      0x0100\n      exp\n      dup2\n      sload\n      dup2\n      0xff\n      mul\n      not\n      and\n      swap1\n      dup4\n      iszero\n      iszero\n      mul\n      or\n      swap1\n      sstore\n      pop\n        /* \"SmartCityParking.sol\":3786:3787  0 */\n      0x00\n        /* \"SmartCityParking.sol\":3745:3757  parkingSpots */\n      0x03\n        /* \"SmartCityParking.sol\":3745:3766  parkingSpots[_spotId] */\n      0x00\n        /* \"SmartCityParking.sol\":3758:3765  _spotId */\n      dup4\n        /* \"SmartCityParking.sol\":3745:3766  parkingSpots[_spotId] */\n      dup2\n      mstore\n      0x20\n      add\n      swap1\n      dup2\n      mstore\n      0x20\n      add\n      0x00\n      keccak256\n        /* \"SmartCityParking.sol\":3745:3775  parkingSpots[_spotId].occupant */\n      0x02\n      add\n      0x01\n        /* \"SmartCityParking.sol\":3745:3788  parkingSpots[_spotId].occupant = address(0) */\n      0x0100\n      exp\n      dup2\n      sload\n      dup2\n      0xffffffffffffffffffffffffffffffffffffffff\n      mul\n      not\n      and\n      swap1\n      dup4\n      0xffffffffffffffffffffffffffffffffffffffff\n      and\n      mul\n      or\n      swap1\n      sstore\n      pop\n        /* \"SmartCityParking.sol\":3817:3824  _spotId */\n      dup1\n        /* \"SmartCityParking.sol\":3804:3825  SpotReleased(_spotId) */\n      0xae4b5c6d3ebba1a8d3f627e4fc926a0fd83c51769b8f1eb37356bbb02f45275e\n      mload(0x40)\n      mload(0x40)\n      dup1\n      swap2\n      sub\n      swap1\n      log2\n        /* \"SmartCityParking.sol\":3427:3833  function releaseSpot(uint256 _spotId) public onlyRegistered {... */\n      pop\n      jump\t// out\n        /* \"SmartCityParking.sol\":380:408  address public cityAuthority */\n    tag_39:\n      0x00\n      0x00\n      swap1\n      sload\n      swap1\n      0x0100\n      exp\n      swap1\n      div\n      0xffffffffffffffffffffffffffffffffffffffff\n      and\n      dup2\n      jump\t// out\n        /* \"SmartCityParking.sol\":2576:2958  function registerParkingSpot(uint256 _id, string memory _location) public onlyCityAuthority {... */\n    tag_45:\n        /* \"SmartCityParking.sol\":1649:1662  cityAuthority */\n      0x00\n      0x00\n      swap1\n      sload\n      swap1\n      0x0100\n      exp\n      swap1\n      div\n      0xffffffffffffffffffffffffffffffffffffffff\n      and\n        /* \"SmartCityParking.sol\":1635:1662  msg.sender == cityAuthority */\n      0xffffffffffffffffffffffffffffffffffffffff\n      and\n        /* \"SmartCityParking.sol\":1635:1645  msg.sender */\n      caller\n        /* \"SmartCityParking.sol\":1635:1662  msg.sender == cityAuthority */\n      0xffffffffffffffffffffffffffffffffffffffff\n      and\n      eq\n        /* \"SmartCityParking.sol\":1627:1710  require(msg.sender == cityAuthority, \"Only city authority can perform this action\") */\n      tag_108\n      jumpi\n      mload(0x40)\n      0x08c379a000000000000000000000000000000000000000000000000000000000\n      dup2\n      mstore\n      0x04\n      add\n      tag_109\n      swap1\n      tag_110\n      jump\t// in\n    tag_109:\n      mload(0x40)\n      dup1\n      swap2\n      sub\n      swap1\n      revert\n    tag_108:\n        /* \"SmartCityParking.sol\":2711:2712  0 */\n      0x00\n        /* \"SmartCityParking.sol\":2687:2699  parkingSpots */\n      0x03\n        /* \"SmartCityParking.sol\":2687:2704  parkingSpots[_id] */\n      0x00\n        /* \"SmartCityParking.sol\":2700:2703  _id */\n      dup5\n        /* \"SmartCityParking.sol\":2687:2704  parkingSpots[_id] */\n      dup2\n      mstore\n      0x20\n      add\n      swap1\n      dup2\n      mstore\n      0x20\n      add\n      0x00\n      keccak256\n        /* \"SmartCityParking.sol\":2687:2707  parkingSpots[_id].id */\n      0x00\n      add\n      sload\n        /* \"SmartCityParking.sol\":2687:2712  parkingSpots[_id].id == 0 */\n      eq\n        /* \"SmartCityParking.sol\":2679:2744  require(parkingSpots[_id].id == 0, \"Parking spot already exists\") */\n      tag_112\n      jumpi\n      mload(0x40)\n      0x08c379a000000000000000000000000000000000000000000000000000000000\n      dup2\n      mstore\n      0x04\n      add\n      tag_113\n      swap1\n      tag_114\n      jump\t// in\n    tag_113:\n      mload(0x40)\n      dup1\n      swap2\n      sub\n      swap1\n      revert\n    tag_112:\n        /* \"SmartCityParking.sol\":2789:2790  0 */\n      0x00\n        /* \"SmartCityParking.sol\":2769:2778  _location */\n      dup2\n        /* \"SmartCityParking.sol\":2763:2786  bytes(_location).length */\n      mload\n        /* \"SmartCityParking.sol\":2763:2790  bytes(_location).length > 0 */\n      gt\n        /* \"SmartCityParking.sol\":2755:2819  require(bytes(_location).length > 0, \"Location cannot be empty\") */\n      tag_115\n      jumpi\n      mload(0x40)\n      0x08c379a000000000000000000000000000000000000000000000000000000000\n      dup2\n      mstore\n      0x04\n      add\n      tag_116\n      swap1\n      tag_117\n      jump\t// in\n    tag_116:\n      mload(0x40)\n      dup1\n      swap2\n      sub\n      swap1\n      revert\n    tag_115:\n        /* \"SmartCityParking.sol\":2852:2897  ParkingSpot(_id, _location, true, address(0)) */\n      mload(0x40)\n      dup1\n      0x80\n      add\n      0x40\n      mstore\n      dup1\n        /* \"SmartCityParking.sol\":2864:2867  _id */\n      dup4\n        /* \"SmartCityParking.sol\":2852:2897  ParkingSpot(_id, _location, true, address(0)) */\n      dup2\n      mstore\n      0x20\n      add\n        /* \"SmartCityParking.sol\":2869:2878  _location */\n      dup3\n        /* \"SmartCityParking.sol\":2852:2897  ParkingSpot(_id, _location, true, address(0)) */\n      dup2\n      mstore\n      0x20\n      add\n        /* \"SmartCityParking.sol\":2880:2884  true */\n      0x01\n        /* \"SmartCityParking.sol\":2852:2897  ParkingSpot(_id, _location, true, address(0)) */\n      iszero\n      iszero\n      dup2\n      mstore\n      0x20\n      add\n        /* \"SmartCityParking.sol\":2894:2895  0 */\n      0x00\n        /* \"SmartCityParking.sol\":2852:2897  ParkingSpot(_id, _location, true, address(0)) */\n      0xffffffffffffffffffffffffffffffffffffffff\n      and\n      dup2\n      mstore\n      pop\n        /* \"SmartCityParking.sol\":2832:2844  parkingSpots */\n      0x03\n        /* \"SmartCityParking.sol\":2832:2849  parkingSpots[_id] */\n      0x00\n        /* \"SmartCityParking.sol\":2845:2848  _id */\n      dup5\n        /* \"SmartCityParking.sol\":2832:2849  parkingSpots[_id] */\n      dup2\n      mstore\n      0x20\n      add\n      swap1\n      dup2\n      mstore\n      0x20\n      add\n      0x00\n      keccak256\n        /* \"SmartCityParking.sol\":2832:2897  parkingSpots[_id] = ParkingSpot(_id, _location, true, address(0)) */\n      0x00\n      dup3\n      add\n      mload\n      dup2\n      0x00\n      add\n      sstore\n      0x20\n      dup3\n      add\n      mload\n      dup2\n      0x01\n      add\n      swap1\n      dup2\n      tag_118\n      swap2\n      swap1\n      tag_59\n      jump\t// in\n    tag_118:\n      pop\n      0x40\n      dup3\n      add\n      mload\n      dup2\n      0x02\n      add\n      exp(0x0100, 0x00)\n      dup2\n      sload\n      dup2\n      0xff\n      mul\n      not\n      and\n      swap1\n      dup4\n      iszero\n      iszero\n      mul\n      or\n      swap1\n      sstore\n      pop\n      0x60\n      dup3\n      add\n      mload\n      dup2\n      0x02\n      add\n      exp(0x0100, 0x01)\n      dup2\n      sload\n      dup2\n      0xffffffffffffffffffffffffffffffffffffffff\n      mul\n      not\n      and\n      swap1\n      dup4\n      0xffffffffffffffffffffffffffffffffffffffff\n      and\n      mul\n      or\n      swap1\n      sstore\n      pop\n      swap1\n      pop\n      pop\n        /* \"SmartCityParking.sol\":2935:2938  _id */\n      dup2\n        /* \"SmartCityParking.sol\":2913:2950  ParkingSpotRegistered(_id, _location) */\n      0xdd3fb50a435b63cd06a48cc218b64ede0ad21819d0f89b6e7625fed8d1eb6996\n        /* \"SmartCityParking.sol\":2940:2949  _location */\n      dup3\n        /* \"SmartCityParking.sol\":2913:2950  ParkingSpotRegistered(_id, _location) */\n      mload(0x40)\n      tag_119\n      swap2\n      swap1\n      tag_61\n      jump\t// in\n    tag_119:\n      mload(0x40)\n      dup1\n      swap2\n      sub\n      swap1\n      log2\n        /* \"SmartCityParking.sol\":2576:2958  function registerParkingSpot(uint256 _id, string memory _location) public onlyCityAuthority {... */\n      pop\n      pop\n      jump\t// out\n        /* \"SmartCityParking.sol\":1069:1120  mapping(uint256 => ParkingSpot) public parkingSpots */\n    tag_48:\n      mstore(0x20, 0x03)\n      dup1\n      0x00\n      mstore\n      keccak256(0x00, 0x40)\n      0x00\n      swap2\n      pop\n      swap1\n      pop\n      dup1\n      0x00\n      add\n      sload\n      swap1\n      dup1\n      0x01\n      add\n      dup1\n      sload\n      tag_120\n      swap1\n      tag_63\n      jump\t// in\n    tag_120:\n      dup1\n      0x1f\n      add\n      0x20\n      dup1\n      swap2\n      div\n      mul\n      0x20\n      add\n      mload(0x40)\n      swap1\n      dup2\n      add\n      0x40\n      mstore\n      dup1\n      swap3\n      swap2\n      swap1\n      dup2\n      dup2\n      mstore\n      0x20\n      add\n      dup3\n      dup1\n      sload\n      tag_121\n      swap1\n      tag_63\n      jump\t// in\n    tag_121:\n      dup1\n      iszero\n      tag_122\n      jumpi\n      dup1\n      0x1f\n      lt\n      tag_123\n      jumpi\n      0x0100\n      dup1\n      dup4\n      sload\n      div\n      mul\n      dup4\n      mstore\n      swap2\n      0x20\n      add\n      swap2\n      jump(tag_122)\n    tag_123:\n      dup3\n      add\n      swap2\n      swap1\n      0x00\n      mstore\n      keccak256(0x00, 0x20)\n      swap1\n    tag_124:\n      dup2\n      sload\n      dup2\n      mstore\n      swap1\n      0x01\n      add\n      swap1\n      0x20\n      add\n      dup1\n      dup4\n      gt\n      tag_124\n      jumpi\n      dup3\n      swap1\n      sub\n      0x1f\n      and\n      dup3\n      add\n      swap2\n    tag_122:\n      pop\n      pop\n      pop\n      pop\n      pop\n      swap1\n      dup1\n      0x02\n      add\n      0x00\n      swap1\n      sload\n      swap1\n      0x0100\n      exp\n      swap1\n      div\n      0xff\n      and\n      swap1\n      dup1\n      0x02\n      add\n      0x01\n      swap1\n      sload\n      swap1\n      0x0100\n      exp\n      swap1\n      div\n      0xffffffffffffffffffffffffffffffffffffffff\n      and\n      swap1\n      pop\n      dup5\n      jump\t// out\n        /* \"#utility.yul\":7:82   */\n    tag_125:\n        /* \"#utility.yul\":40:46   */\n      0x00\n        /* \"#utility.yul\":73:75   */\n      0x40\n        /* \"#utility.yul\":67:76   */\n      mload\n        /* \"#utility.yul\":57:76   */\n      swap1\n      pop\n        /* \"#utility.yul\":7:82   */\n      swap1\n      jump\t// out\n        /* \"#utility.yul\":88:205   */\n    tag_126:\n        /* \"#utility.yul\":197:198   */\n      0x00\n        /* \"#utility.yul\":194:195   */\n      0x00\n        /* \"#utility.yul\":187:199   */\n      revert\n        /* \"#utility.yul\":211:328   */\n    tag_127:\n        /* \"#utility.yul\":320:321   */\n      0x00\n        /* \"#utility.yul\":317:318   */\n      0x00\n        /* \"#utility.yul\":310:322   */\n      revert\n        /* \"#utility.yul\":334:451   */\n    tag_128:\n        /* \"#utility.yul\":443:444   */\n      0x00\n        /* \"#utility.yul\":440:441   */\n      0x00\n        /* \"#utility.yul\":433:445   */\n      revert\n        /* \"#utility.yul\":457:574   */\n    tag_129:\n        /* \"#utility.yul\":566:567   */\n      0x00\n        /* \"#utility.yul\":563:564   */\n      0x00\n        /* \"#utility.yul\":556:568   */\n      revert\n        /* \"#utility.yul\":580:682   */\n    tag_130:\n        /* \"#utility.yul\":621:627   */\n      0x00\n        /* \"#utility.yul\":672:674   */\n      0x1f\n        /* \"#utility.yul\":668:675   */\n      not\n        /* \"#utility.yul\":663:665   */\n      0x1f\n        /* \"#utility.yul\":656:661   */\n      dup4\n        /* \"#utility.yul\":652:666   */\n      add\n        /* \"#utility.yul\":648:676   */\n      and\n        /* \"#utility.yul\":638:676   */\n      swap1\n      pop\n        /* \"#utility.yul\":580:682   */\n      swap2\n      swap1\n      pop\n      jump\t// out\n        /* \"#utility.yul\":688:868   */\n    tag_131:\n        /* \"#utility.yul\":736:813   */\n      0x4e487b7100000000000000000000000000000000000000000000000000000000\n        /* \"#utility.yul\":733:734   */\n      0x00\n        /* \"#utility.yul\":726:814   */\n      mstore\n        /* \"#utility.yul\":833:837   */\n      0x41\n        /* \"#utility.yul\":830:831   */\n      0x04\n        /* \"#utility.yul\":823:838   */\n      mstore\n        /* \"#utility.yul\":857:861   */\n      0x24\n        /* \"#utility.yul\":854:855   */\n      0x00\n        /* \"#utility.yul\":847:862   */\n      revert\n        /* \"#utility.yul\":874:1155   */\n    tag_132:\n        /* \"#utility.yul\":957:984   */\n      tag_204\n        /* \"#utility.yul\":979:983   */\n      dup3\n        /* \"#utility.yul\":957:984   */\n      tag_130\n      jump\t// in\n    tag_204:\n        /* \"#utility.yul\":949:955   */\n      dup2\n        /* \"#utility.yul\":945:985   */\n      add\n        /* \"#utility.yul\":1087:1093   */\n      dup2\n        /* \"#utility.yul\":1075:1085   */\n      dup2\n        /* \"#utility.yul\":1072:1094   */\n      lt\n        /* \"#utility.yul\":1051:1069   */\n      0xffffffffffffffff\n        /* \"#utility.yul\":1039:1049   */\n      dup3\n        /* \"#utility.yul\":1036:1070   */\n      gt\n        /* \"#utility.yul\":1033:1095   */\n      or\n        /* \"#utility.yul\":1030:1118   */\n      iszero\n      tag_205\n      jumpi\n        /* \"#utility.yul\":1098:1116   */\n      tag_206\n      tag_131\n      jump\t// in\n    tag_206:\n        /* \"#utility.yul\":1030:1118   */\n    tag_205:\n        /* \"#utility.yul\":1138:1148   */\n      dup1\n        /* \"#utility.yul\":1134:1136   */\n      0x40\n        /* \"#utility.yul\":1127:1149   */\n      mstore\n        /* \"#utility.yul\":917:1155   */\n      pop\n        /* \"#utility.yul\":874:1155   */\n      pop\n      pop\n      jump\t// out\n        /* \"#utility.yul\":1161:1290   */\n    tag_133:\n        /* \"#utility.yul\":1195:1201   */\n      0x00\n        /* \"#utility.yul\":1222:1242   */\n      tag_208\n      tag_125\n      jump\t// in\n    tag_208:\n        /* \"#utility.yul\":1212:1242   */\n      swap1\n      pop\n        /* \"#utility.yul\":1251:1284   */\n      tag_209\n        /* \"#utility.yul\":1279:1283   */\n      dup3\n        /* \"#utility.yul\":1271:1277   */\n      dup3\n        /* \"#utility.yul\":1251:1284   */\n      tag_132\n      jump\t// in\n    tag_209:\n        /* \"#utility.yul\":1161:1290   */\n      swap2\n      swap1\n      pop\n      jump\t// out\n        /* \"#utility.yul\":1296:1604   */\n    tag_134:\n        /* \"#utility.yul\":1358:1362   */\n      0x00\n        /* \"#utility.yul\":1448:1466   */\n      0xffffffffffffffff\n        /* \"#utility.yul\":1440:1446   */\n      dup3\n        /* \"#utility.yul\":1437:1467   */\n      gt\n        /* \"#utility.yul\":1434:1490   */\n      iszero\n      tag_211\n      jumpi\n        /* \"#utility.yul\":1470:1488   */\n      tag_212\n      tag_131\n      jump\t// in\n    tag_212:\n        /* \"#utility.yul\":1434:1490   */\n    tag_211:\n        /* \"#utility.yul\":1508:1537   */\n      tag_213\n        /* \"#utility.yul\":1530:1536   */\n      dup3\n        /* \"#utility.yul\":1508:1537   */\n      tag_130\n      jump\t// in\n    tag_213:\n        /* \"#utility.yul\":1500:1537   */\n      swap1\n      pop\n        /* \"#utility.yul\":1592:1596   */\n      0x20\n        /* \"#utility.yul\":1586:1590   */\n      dup2\n        /* \"#utility.yul\":1582:1597   */\n      add\n        /* \"#utility.yul\":1574:1597   */\n      swap1\n      pop\n        /* \"#utility.yul\":1296:1604   */\n      swap2\n      swap1\n      pop\n      jump\t// out\n        /* \"#utility.yul\":1610:1758   */\n    tag_135:\n        /* \"#utility.yul\":1708:1714   */\n      dup3\n        /* \"#utility.yul\":1703:1706   */\n      dup2\n        /* \"#utility.yul\":1698:1701   */\n      dup4\n        /* \"#utility.yul\":1685:1715   */\n      calldatacopy\n        /* \"#utility.yul\":1749:1750   */\n      0x00\n        /* \"#utility.yul\":1740:1746   */\n      dup4\n        /* \"#utility.yul\":1735:1738   */\n      dup4\n        /* \"#utility.yul\":1731:1747   */\n      add\n        /* \"#utility.yul\":1724:1751   */\n      mstore\n        /* \"#utility.yul\":1610:1758   */\n      pop\n      pop\n      pop\n      jump\t// out\n        /* \"#utility.yul\":1764:2189   */\n    tag_136:\n        /* \"#utility.yul\":1842:1847   */\n      0x00\n        /* \"#utility.yul\":1867:1933   */\n      tag_216\n        /* \"#utility.yul\":1883:1932   */\n      tag_217\n        /* \"#utility.yul\":1925:1931   */\n      dup5\n        /* \"#utility.yul\":1883:1932   */\n      tag_134\n      jump\t// in\n    tag_217:\n        /* \"#utility.yul\":1867:1933   */\n      tag_133\n      jump\t// in\n    tag_216:\n        /* \"#utility.yul\":1858:1933   */\n      swap1\n      pop\n        /* \"#utility.yul\":1956:1962   */\n      dup3\n        /* \"#utility.yul\":1949:1954   */\n      dup2\n        /* \"#utility.yul\":1942:1963   */\n      mstore\n        /* \"#utility.yul\":1994:1998   */\n      0x20\n        /* \"#utility.yul\":1987:1992   */\n      dup2\n        /* \"#utility.yul\":1983:1999   */\n      add\n        /* \"#utility.yul\":2032:2035   */\n      dup5\n        /* \"#utility.yul\":2023:2029   */\n      dup5\n        /* \"#utility.yul\":2018:2021   */\n      dup5\n        /* \"#utility.yul\":2014:2030   */\n      add\n        /* \"#utility.yul\":2011:2036   */\n      gt\n        /* \"#utility.yul\":2008:2120   */\n      iszero\n      tag_218\n      jumpi\n        /* \"#utility.yul\":2039:2118   */\n      tag_219\n      tag_129\n      jump\t// in\n    tag_219:\n        /* \"#utility.yul\":2008:2120   */\n    tag_218:\n        /* \"#utility.yul\":2129:2183   */\n      tag_220\n        /* \"#utility.yul\":2176:2182   */\n      dup5\n        /* \"#utility.yul\":2171:2174   */\n      dup3\n        /* \"#utility.yul\":2166:2169   */\n      dup6\n        /* \"#utility.yul\":2129:2183   */\n      tag_135\n      jump\t// in\n    tag_220:\n        /* \"#utility.yul\":1848:2189   */\n      pop\n        /* \"#utility.yul\":1764:2189   */\n      swap4\n      swap3\n      pop\n      pop\n      pop\n      jump\t// out\n        /* \"#utility.yul\":2209:2549   */\n    tag_137:\n        /* \"#utility.yul\":2265:2270   */\n      0x00\n        /* \"#utility.yul\":2314:2317   */\n      dup3\n        /* \"#utility.yul\":2307:2311   */\n      0x1f\n        /* \"#utility.yul\":2299:2305   */\n      dup4\n        /* \"#utility.yul\":2295:2312   */\n      add\n        /* \"#utility.yul\":2291:2318   */\n      slt\n        /* \"#utility.yul\":2281:2403   */\n      tag_222\n      jumpi\n        /* \"#utility.yul\":2322:2401   */\n      tag_223\n      tag_128\n      jump\t// in\n    tag_223:\n        /* \"#utility.yul\":2281:2403   */\n    tag_222:\n        /* \"#utility.yul\":2439:2445   */\n      dup2\n        /* \"#utility.yul\":2426:2446   */\n      calldataload\n        /* \"#utility.yul\":2464:2543   */\n      tag_224\n        /* \"#utility.yul\":2539:2542   */\n      dup5\n        /* \"#utility.yul\":2531:2537   */\n      dup3\n        /* \"#utility.yul\":2524:2528   */\n      0x20\n        /* \"#utility.yul\":2516:2522   */\n      dup7\n        /* \"#utility.yul\":2512:2529   */\n      add\n        /* \"#utility.yul\":2464:2543   */\n      tag_136\n      jump\t// in\n    tag_224:\n        /* \"#utility.yul\":2455:2543   */\n      swap2\n      pop\n        /* \"#utility.yul\":2271:2549   */\n      pop\n        /* \"#utility.yul\":2209:2549   */\n      swap3\n      swap2\n      pop\n      pop\n      jump\t// out\n        /* \"#utility.yul\":2555:3064   */\n    tag_15:\n        /* \"#utility.yul\":2624:2630   */\n      0x00\n        /* \"#utility.yul\":2673:2675   */\n      0x20\n        /* \"#utility.yul\":2661:2670   */\n      dup3\n        /* \"#utility.yul\":2652:2659   */\n      dup5\n        /* \"#utility.yul\":2648:2671   */\n      sub\n        /* \"#utility.yul\":2644:2676   */\n      slt\n        /* \"#utility.yul\":2641:2760   */\n      iszero\n      tag_226\n      jumpi\n        /* \"#utility.yul\":2679:2758   */\n      tag_227\n      tag_126\n      jump\t// in\n    tag_227:\n        /* \"#utility.yul\":2641:2760   */\n    tag_226:\n        /* \"#utility.yul\":2827:2828   */\n      0x00\n        /* \"#utility.yul\":2816:2825   */\n      dup3\n        /* \"#utility.yul\":2812:2829   */\n      add\n        /* \"#utility.yul\":2799:2830   */\n      calldataload\n        /* \"#utility.yul\":2857:2875   */\n      0xffffffffffffffff\n        /* \"#utility.yul\":2849:2855   */\n      dup2\n        /* \"#utility.yul\":2846:2876   */\n      gt\n        /* \"#utility.yul\":2843:2960   */\n      iszero\n      tag_228\n      jumpi\n        /* \"#utility.yul\":2879:2958   */\n      tag_229\n      tag_127\n      jump\t// in\n    tag_229:\n        /* \"#utility.yul\":2843:2960   */\n    tag_228:\n        /* \"#utility.yul\":2984:3047   */\n      tag_230\n        /* \"#utility.yul\":3039:3046   */\n      dup5\n        /* \"#utility.yul\":3030:3036   */\n      dup3\n        /* \"#utility.yul\":3019:3028   */\n      dup6\n        /* \"#utility.yul\":3015:3037   */\n      add\n        /* \"#utility.yul\":2984:3047   */\n      tag_137\n      jump\t// in\n    tag_230:\n        /* \"#utility.yul\":2974:3047   */\n      swap2\n      pop\n        /* \"#utility.yul\":2770:3057   */\n      pop\n        /* \"#utility.yul\":2555:3064   */\n      swap3\n      swap2\n      pop\n      pop\n      jump\t// out\n        /* \"#utility.yul\":3070:3196   */\n    tag_138:\n        /* \"#utility.yul\":3107:3114   */\n      0x00\n        /* \"#utility.yul\":3147:3189   */\n      0xffffffffffffffffffffffffffffffffffffffff\n        /* \"#utility.yul\":3140:3145   */\n      dup3\n        /* \"#utility.yul\":3136:3190   */\n      and\n        /* \"#utility.yul\":3125:3190   */\n      swap1\n      pop\n        /* \"#utility.yul\":3070:3196   */\n      swap2\n      swap1\n      pop\n      jump\t// out\n        /* \"#utility.yul\":3202:3262   */\n    tag_139:\n        /* \"#utility.yul\":3230:3233   */\n      0x00\n        /* \"#utility.yul\":3251:3256   */\n      dup2\n        /* \"#utility.yul\":3244:3256   */\n      swap1\n      pop\n        /* \"#utility.yul\":3202:3262   */\n      swap2\n      swap1\n      pop\n      jump\t// out\n        /* \"#utility.yul\":3268:3410   */\n    tag_140:\n        /* \"#utility.yul\":3318:3327   */\n      0x00\n        /* \"#utility.yul\":3351:3404   */\n      tag_234\n        /* \"#utility.yul\":3369:3403   */\n      tag_235\n        /* \"#utility.yul\":3378:3402   */\n      tag_236\n        /* \"#utility.yul\":3396:3401   */\n      dup5\n        /* \"#utility.yul\":3378:3402   */\n      tag_138\n      jump\t// in\n    tag_236:\n        /* \"#utility.yul\":3369:3403   */\n      tag_139\n      jump\t// in\n    tag_235:\n        /* \"#utility.yul\":3351:3404   */\n      tag_138\n      jump\t// in\n    tag_234:\n        /* \"#utility.yul\":3338:3404   */\n      swap1\n      pop\n        /* \"#utility.yul\":3268:3410   */\n      swap2\n      swap1\n      pop\n      jump\t// out\n        /* \"#utility.yul\":3416:3542   */\n    tag_141:\n        /* \"#utility.yul\":3466:3475   */\n      0x00\n        /* \"#utility.yul\":3499:3536   */\n      tag_238\n        /* \"#utility.yul\":3530:3535   */\n      dup3\n        /* \"#utility.yul\":3499:3536   */\n      tag_140\n      jump\t// in\n    tag_238:\n        /* \"#utility.yul\":3486:3536   */\n      swap1\n      pop\n        /* \"#utility.yul\":3416:3542   */\n      swap2\n      swap1\n      pop\n      jump\t// out\n        /* \"#utility.yul\":3548:3698   */\n    tag_142:\n        /* \"#utility.yul\":3622:3631   */\n      0x00\n        /* \"#utility.yul\":3655:3692   */\n      tag_240\n        /* \"#utility.yul\":3686:3691   */\n      dup3\n        /* \"#utility.yul\":3655:3692   */\n      tag_141\n      jump\t// in\n    tag_240:\n        /* \"#utility.yul\":3642:3692   */\n      swap1\n      pop\n        /* \"#utility.yul\":3548:3698   */\n      swap2\n      swap1\n      pop\n      jump\t// out\n        /* \"#utility.yul\":3704:3883   */\n    tag_143:\n        /* \"#utility.yul\":3815:3876   */\n      tag_242\n        /* \"#utility.yul\":3870:3875   */\n      dup2\n        /* \"#utility.yul\":3815:3876   */\n      tag_142\n      jump\t// in\n    tag_242:\n        /* \"#utility.yul\":3810:3813   */\n      dup3\n        /* \"#utility.yul\":3803:3877   */\n      mstore\n        /* \"#utility.yul\":3704:3883   */\n      pop\n      pop\n      jump\t// out\n        /* \"#utility.yul\":3889:4159   */\n    tag_20:\n        /* \"#utility.yul\":4006:4010   */\n      0x00\n        /* \"#utility.yul\":4044:4046   */\n      0x20\n        /* \"#utility.yul\":4033:4042   */\n      dup3\n        /* \"#utility.yul\":4029:4047   */\n      add\n        /* \"#utility.yul\":4021:4047   */\n      swap1\n      pop\n        /* \"#utility.yul\":4057:4152   */\n      tag_244\n        /* \"#utility.yul\":4149:4150   */\n      0x00\n        /* \"#utility.yul\":4138:4147   */\n      dup4\n        /* \"#utility.yul\":4134:4151   */\n      add\n        /* \"#utility.yul\":4125:4131   */\n      dup5\n        /* \"#utility.yul\":4057:4152   */\n      tag_143\n      jump\t// in\n    tag_244:\n        /* \"#utility.yul\":3889:4159   */\n      swap3\n      swap2\n      pop\n      pop\n      jump\t// out\n        /* \"#utility.yul\":4165:4261   */\n    tag_144:\n        /* \"#utility.yul\":4202:4209   */\n      0x00\n        /* \"#utility.yul\":4231:4255   */\n      tag_246\n        /* \"#utility.yul\":4249:4254   */\n      dup3\n        /* \"#utility.yul\":4231:4255   */\n      tag_138\n      jump\t// in\n    tag_246:\n        /* \"#utility.yul\":4220:4255   */\n      swap1\n      pop\n        /* \"#utility.yul\":4165:4261   */\n      swap2\n      swap1\n      pop\n      jump\t// out\n        /* \"#utility.yul\":4267:4389   */\n    tag_145:\n        /* \"#utility.yul\":4340:4364   */\n      tag_248\n        /* \"#utility.yul\":4358:4363   */\n      dup2\n        /* \"#utility.yul\":4340:4364   */\n      tag_144\n      jump\t// in\n    tag_248:\n        /* \"#utility.yul\":4333:4338   */\n      dup2\n        /* \"#utility.yul\":4330:4365   */\n      eq\n        /* \"#utility.yul\":4320:4383   */\n      tag_249\n      jumpi\n        /* \"#utility.yul\":4379:4380   */\n      0x00\n        /* \"#utility.yul\":4376:4377   */\n      0x00\n        /* \"#utility.yul\":4369:4381   */\n      revert\n        /* \"#utility.yul\":4320:4383   */\n    tag_249:\n        /* \"#utility.yul\":4267:4389   */\n      pop\n      jump\t// out\n        /* \"#utility.yul\":4395:4534   */\n    tag_146:\n        /* \"#utility.yul\":4441:4446   */\n      0x00\n        /* \"#utility.yul\":4479:4485   */\n      dup2\n        /* \"#utility.yul\":4466:4486   */\n      calldataload\n        /* \"#utility.yul\":4457:4486   */\n      swap1\n      pop\n        /* \"#utility.yul\":4495:4528   */\n      tag_251\n        /* \"#utility.yul\":4522:4527   */\n      dup2\n        /* \"#utility.yul\":4495:4528   */\n      tag_145\n      jump\t// in\n    tag_251:\n        /* \"#utility.yul\":4395:4534   */\n      swap3\n      swap2\n      pop\n      pop\n      jump\t// out\n        /* \"#utility.yul\":4540:4869   */\n    tag_23:\n        /* \"#utility.yul\":4599:4605   */\n      0x00\n        /* \"#utility.yul\":4648:4650   */\n      0x20\n        /* \"#utility.yul\":4636:4645   */\n      dup3\n        /* \"#utility.yul\":4627:4634   */\n      dup5\n        /* \"#utility.yul\":4623:4646   */\n      sub\n        /* \"#utility.yul\":4619:4651   */\n      slt\n        /* \"#utility.yul\":4616:4735   */\n      iszero\n      tag_253\n      jumpi\n        /* \"#utility.yul\":4654:4733   */\n      tag_254\n      tag_126\n      jump\t// in\n    tag_254:\n        /* \"#utility.yul\":4616:4735   */\n    tag_253:\n        /* \"#utility.yul\":4774:4775   */\n      0x00\n        /* \"#utility.yul\":4799:4852   */\n      tag_255\n        /* \"#utility.yul\":4844:4851   */\n      dup5\n        /* \"#utility.yul\":4835:4841   */\n      dup3\n        /* \"#utility.yul\":4824:4833   */\n      dup6\n        /* \"#utility.yul\":4820:4842   */\n      add\n        /* \"#utility.yul\":4799:4852   */\n      tag_146\n      jump\t// in\n    tag_255:\n        /* \"#utility.yul\":4789:4852   */\n      swap2\n      pop\n        /* \"#utility.yul\":4745:4862   */\n      pop\n        /* \"#utility.yul\":4540:4869   */\n      swap3\n      swap2\n      pop\n      pop\n      jump\t// out\n        /* \"#utility.yul\":4875:4974   */\n    tag_147:\n        /* \"#utility.yul\":4927:4933   */\n      0x00\n        /* \"#utility.yul\":4961:4966   */\n      dup2\n        /* \"#utility.yul\":4955:4967   */\n      mload\n        /* \"#utility.yul\":4945:4967   */\n      swap1\n      pop\n        /* \"#utility.yul\":4875:4974   */\n      swap2\n      swap1\n      pop\n      jump\t// out\n        /* \"#utility.yul\":4980:5149   */\n    tag_148:\n        /* \"#utility.yul\":5064:5075   */\n      0x00\n        /* \"#utility.yul\":5098:5104   */\n      dup3\n        /* \"#utility.yul\":5093:5096   */\n      dup3\n        /* \"#utility.yul\":5086:5105   */\n      mstore\n        /* \"#utility.yul\":5138:5142   */\n      0x20\n        /* \"#utility.yul\":5133:5136   */\n      dup3\n        /* \"#utility.yul\":5129:5143   */\n      add\n        /* \"#utility.yul\":5114:5143   */\n      swap1\n      pop\n        /* \"#utility.yul\":4980:5149   */\n      swap3\n      swap2\n      pop\n      pop\n      jump\t// out\n        /* \"#utility.yul\":5155:5294   */\n    tag_149:\n        /* \"#utility.yul\":5244:5250   */\n      dup3\n        /* \"#utility.yul\":5239:5242   */\n      dup2\n        /* \"#utility.yul\":5234:5237   */\n      dup4\n        /* \"#utility.yul\":5228:5251   */\n      mcopy\n        /* \"#utility.yul\":5285:5286   */\n      0x00\n        /* \"#utility.yul\":5276:5282   */\n      dup4\n        /* \"#utility.yul\":5271:5274   */\n      dup4\n        /* \"#utility.yul\":5267:5283   */\n      add\n        /* \"#utility.yul\":5260:5287   */\n      mstore\n        /* \"#utility.yul\":5155:5294   */\n      pop\n      pop\n      pop\n      jump\t// out\n        /* \"#utility.yul\":5300:5677   */\n    tag_150:\n        /* \"#utility.yul\":5388:5391   */\n      0x00\n        /* \"#utility.yul\":5416:5455   */\n      tag_260\n        /* \"#utility.yul\":5449:5454   */\n      dup3\n        /* \"#utility.yul\":5416:5455   */\n      tag_147\n      jump\t// in\n    tag_260:\n        /* \"#utility.yul\":5471:5542   */\n      tag_261\n        /* \"#utility.yul\":5535:5541   */\n      dup2\n        /* \"#utility.yul\":5530:5533   */\n      dup6\n        /* \"#utility.yul\":5471:5542   */\n      tag_148\n      jump\t// in\n    tag_261:\n        /* \"#utility.yul\":5464:5542   */\n      swap4\n      pop\n        /* \"#utility.yul\":5551:5616   */\n      tag_262\n        /* \"#utility.yul\":5609:5615   */\n      dup2\n        /* \"#utility.yul\":5604:5607   */\n      dup6\n        /* \"#utility.yul\":5597:5601   */\n      0x20\n        /* \"#utility.yul\":5590:5595   */\n      dup7\n        /* \"#utility.yul\":5586:5602   */\n      add\n        /* \"#utility.yul\":5551:5616   */\n      tag_149\n      jump\t// in\n    tag_262:\n        /* \"#utility.yul\":5641:5670   */\n      tag_263\n        /* \"#utility.yul\":5663:5669   */\n      dup2\n        /* \"#utility.yul\":5641:5670   */\n      tag_130\n      jump\t// in\n    tag_263:\n        /* \"#utility.yul\":5636:5639   */\n      dup5\n        /* \"#utility.yul\":5632:5671   */\n      add\n        /* \"#utility.yul\":5625:5671   */\n      swap2\n      pop\n        /* \"#utility.yul\":5392:5677   */\n      pop\n        /* \"#utility.yul\":5300:5677   */\n      swap3\n      swap2\n      pop\n      pop\n      jump\t// out\n        /* \"#utility.yul\":5683:5773   */\n    tag_151:\n        /* \"#utility.yul\":5717:5724   */\n      0x00\n        /* \"#utility.yul\":5760:5765   */\n      dup2\n        /* \"#utility.yul\":5753:5766   */\n      iszero\n        /* \"#utility.yul\":5746:5767   */\n      iszero\n        /* \"#utility.yul\":5735:5767   */\n      swap1\n      pop\n        /* \"#utility.yul\":5683:5773   */\n      swap2\n      swap1\n      pop\n      jump\t// out\n        /* \"#utility.yul\":5779:5888   */\n    tag_152:\n        /* \"#utility.yul\":5860:5881   */\n      tag_266\n        /* \"#utility.yul\":5875:5880   */\n      dup2\n        /* \"#utility.yul\":5860:5881   */\n      tag_151\n      jump\t// in\n    tag_266:\n        /* \"#utility.yul\":5855:5858   */\n      dup3\n        /* \"#utility.yul\":5848:5882   */\n      mstore\n        /* \"#utility.yul\":5779:5888   */\n      pop\n      pop\n      jump\t// out\n        /* \"#utility.yul\":5894:6305   */\n    tag_26:\n        /* \"#utility.yul\":6029:6033   */\n      0x00\n        /* \"#utility.yul\":6067:6069   */\n      0x40\n        /* \"#utility.yul\":6056:6065   */\n      dup3\n        /* \"#utility.yul\":6052:6070   */\n      add\n        /* \"#utility.yul\":6044:6070   */\n      swap1\n      pop\n        /* \"#utility.yul\":6116:6125   */\n      dup2\n        /* \"#utility.yul\":6110:6114   */\n      dup2\n        /* \"#utility.yul\":6106:6126   */\n      sub\n        /* \"#utility.yul\":6102:6103   */\n      0x00\n        /* \"#utility.yul\":6091:6100   */\n      dup4\n        /* \"#utility.yul\":6087:6104   */\n      add\n        /* \"#utility.yul\":6080:6127   */\n      mstore\n        /* \"#utility.yul\":6144:6222   */\n      tag_268\n        /* \"#utility.yul\":6217:6221   */\n      dup2\n        /* \"#utility.yul\":6208:6214   */\n      dup6\n        /* \"#utility.yul\":6144:6222   */\n      tag_150\n      jump\t// in\n    tag_268:\n        /* \"#utility.yul\":6136:6222   */\n      swap1\n      pop\n        /* \"#utility.yul\":6232:6298   */\n      tag_269\n        /* \"#utility.yul\":6294:6296   */\n      0x20\n        /* \"#utility.yul\":6283:6292   */\n      dup4\n        /* \"#utility.yul\":6279:6297   */\n      add\n        /* \"#utility.yul\":6270:6276   */\n      dup5\n        /* \"#utility.yul\":6232:6298   */\n      tag_152\n      jump\t// in\n    tag_269:\n        /* \"#utility.yul\":5894:6305   */\n      swap4\n      swap3\n      pop\n      pop\n      pop\n      jump\t// out\n        /* \"#utility.yul\":6311:6388   */\n    tag_153:\n        /* \"#utility.yul\":6348:6355   */\n      0x00\n        /* \"#utility.yul\":6377:6382   */\n      dup2\n        /* \"#utility.yul\":6366:6382   */\n      swap1\n      pop\n        /* \"#utility.yul\":6311:6388   */\n      swap2\n      swap1\n      pop\n      jump\t// out\n        /* \"#utility.yul\":6394:6516   */\n    tag_154:\n        /* \"#utility.yul\":6467:6491   */\n      tag_272\n        /* \"#utility.yul\":6485:6490   */\n      dup2\n        /* \"#utility.yul\":6467:6491   */\n      tag_153\n      jump\t// in\n    tag_272:\n        /* \"#utility.yul\":6460:6465   */\n      dup2\n        /* \"#utility.yul\":6457:6492   */\n      eq\n        /* \"#utility.yul\":6447:6510   */\n      tag_273\n      jumpi\n        /* \"#utility.yul\":6506:6507   */\n      0x00\n        /* \"#utility.yul\":6503:6504   */\n      0x00\n        /* \"#utility.yul\":6496:6508   */\n      revert\n        /* \"#utility.yul\":6447:6510   */\n    tag_273:\n        /* \"#utility.yul\":6394:6516   */\n      pop\n      jump\t// out\n        /* \"#utility.yul\":6522:6661   */\n    tag_155:\n        /* \"#utility.yul\":6568:6573   */\n      0x00\n        /* \"#utility.yul\":6606:6612   */\n      dup2\n        /* \"#utility.yul\":6593:6613   */\n      calldataload\n        /* \"#utility.yul\":6584:6613   */\n      swap1\n      pop\n        /* \"#utility.yul\":6622:6655   */\n      tag_275\n        /* \"#utility.yul\":6649:6654   */\n      dup2\n        /* \"#utility.yul\":6622:6655   */\n      tag_154\n      jump\t// in\n    tag_275:\n        /* \"#utility.yul\":6522:6661   */\n      swap3\n      swap2\n      pop\n      pop\n      jump\t// out\n        /* \"#utility.yul\":6667:6996   */\n    tag_29:\n        /* \"#utility.yul\":6726:6732   */\n      0x00\n        /* \"#utility.yul\":6775:6777   */\n      0x20\n        /* \"#utility.yul\":6763:6772   */\n      dup3\n        /* \"#utility.yul\":6754:6761   */\n      dup5\n        /* \"#utility.yul\":6750:6773   */\n      sub\n        /* \"#utility.yul\":6746:6778   */\n      slt\n        /* \"#utility.yul\":6743:6862   */\n      iszero\n      tag_277\n      jumpi\n        /* \"#utility.yul\":6781:6860   */\n      tag_278\n      tag_126\n      jump\t// in\n    tag_278:\n        /* \"#utility.yul\":6743:6862   */\n    tag_277:\n        /* \"#utility.yul\":6901:6902   */\n      0x00\n        /* \"#utility.yul\":6926:6979   */\n      tag_279\n        /* \"#utility.yul\":6971:6978   */\n      dup5\n        /* \"#utility.yul\":6962:6968   */\n      dup3\n        /* \"#utility.yul\":6951:6960   */\n      dup6\n        /* \"#utility.yul\":6947:6969   */\n      add\n        /* \"#utility.yul\":6926:6979   */\n      tag_155\n      jump\t// in\n    tag_279:\n        /* \"#utility.yul\":6916:6979   */\n      swap2\n      pop\n        /* \"#utility.yul\":6872:6989   */\n      pop\n        /* \"#utility.yul\":6667:6996   */\n      swap3\n      swap2\n      pop\n      pop\n      jump\t// out\n        /* \"#utility.yul\":7002:7476   */\n    tag_33:\n        /* \"#utility.yul\":7070:7076   */\n      0x00\n        /* \"#utility.yul\":7078:7084   */\n      0x00\n        /* \"#utility.yul\":7127:7129   */\n      0x40\n        /* \"#utility.yul\":7115:7124   */\n      dup4\n        /* \"#utility.yul\":7106:7113   */\n      dup6\n        /* \"#utility.yul\":7102:7125   */\n      sub\n        /* \"#utility.yul\":7098:7130   */\n      slt\n        /* \"#utility.yul\":7095:7214   */\n      iszero\n      tag_281\n      jumpi\n        /* \"#utility.yul\":7133:7212   */\n      tag_282\n      tag_126\n      jump\t// in\n    tag_282:\n        /* \"#utility.yul\":7095:7214   */\n    tag_281:\n        /* \"#utility.yul\":7253:7254   */\n      0x00\n        /* \"#utility.yul\":7278:7331   */\n      tag_283\n        /* \"#utility.yul\":7323:7330   */\n      dup6\n        /* \"#utility.yul\":7314:7320   */\n      dup3\n        /* \"#utility.yul\":7303:7312   */\n      dup7\n        /* \"#utility.yul\":7299:7321   */\n      add\n        /* \"#utility.yul\":7278:7331   */\n      tag_155\n      jump\t// in\n    tag_283:\n        /* \"#utility.yul\":7268:7331   */\n      swap3\n      pop\n        /* \"#utility.yul\":7224:7341   */\n      pop\n        /* \"#utility.yul\":7380:7382   */\n      0x20\n        /* \"#utility.yul\":7406:7459   */\n      tag_284\n        /* \"#utility.yul\":7451:7458   */\n      dup6\n        /* \"#utility.yul\":7442:7448   */\n      dup3\n        /* \"#utility.yul\":7431:7440   */\n      dup7\n        /* \"#utility.yul\":7427:7449   */\n      add\n        /* \"#utility.yul\":7406:7459   */\n      tag_155\n      jump\t// in\n    tag_284:\n        /* \"#utility.yul\":7396:7459   */\n      swap2\n      pop\n        /* \"#utility.yul\":7351:7469   */\n      pop\n        /* \"#utility.yul\":7002:7476   */\n      swap3\n      pop\n      swap3\n      swap1\n      pop\n      jump\t// out\n        /* \"#utility.yul\":7482:7600   */\n    tag_156:\n        /* \"#utility.yul\":7569:7593   */\n      tag_286\n        /* \"#utility.yul\":7587:7592   */\n      dup2\n        /* \"#utility.yul\":7569:7593   */\n      tag_144\n      jump\t// in\n    tag_286:\n        /* \"#utility.yul\":7564:7567   */\n      dup3\n        /* \"#utility.yul\":7557:7594   */\n      mstore\n        /* \"#utility.yul\":7482:7600   */\n      pop\n      pop\n      jump\t// out\n        /* \"#utility.yul\":7606:7828   */\n    tag_41:\n        /* \"#utility.yul\":7699:7703   */\n      0x00\n        /* \"#utility.yul\":7737:7739   */\n      0x20\n        /* \"#utility.yul\":7726:7735   */\n      dup3\n        /* \"#utility.yul\":7722:7740   */\n      add\n        /* \"#utility.yul\":7714:7740   */\n      swap1\n      pop\n        /* \"#utility.yul\":7750:7821   */\n      tag_288\n        /* \"#utility.yul\":7818:7819   */\n      0x00\n        /* \"#utility.yul\":7807:7816   */\n      dup4\n        /* \"#utility.yul\":7803:7820   */\n      add\n        /* \"#utility.yul\":7794:7800   */\n      dup5\n        /* \"#utility.yul\":7750:7821   */\n      tag_156\n      jump\t// in\n    tag_288:\n        /* \"#utility.yul\":7606:7828   */\n      swap3\n      swap2\n      pop\n      pop\n      jump\t// out\n        /* \"#utility.yul\":7834:8488   */\n    tag_44:\n        /* \"#utility.yul\":7912:7918   */\n      0x00\n        /* \"#utility.yul\":7920:7926   */\n      0x00\n        /* \"#utility.yul\":7969:7971   */\n      0x40\n        /* \"#utility.yul\":7957:7966   */\n      dup4\n        /* \"#utility.yul\":7948:7955   */\n      dup6\n        /* \"#utility.yul\":7944:7967   */\n      sub\n        /* \"#utility.yul\":7940:7972   */\n      slt\n        /* \"#utility.yul\":7937:8056   */\n      iszero\n      tag_290\n      jumpi\n        /* \"#utility.yul\":7975:8054   */\n      tag_291\n      tag_126\n      jump\t// in\n    tag_291:\n        /* \"#utility.yul\":7937:8056   */\n    tag_290:\n        /* \"#utility.yul\":8095:8096   */\n      0x00\n        /* \"#utility.yul\":8120:8173   */\n      tag_292\n        /* \"#utility.yul\":8165:8172   */\n      dup6\n        /* \"#utility.yul\":8156:8162   */\n      dup3\n        /* \"#utility.yul\":8145:8154   */\n      dup7\n        /* \"#utility.yul\":8141:8163   */\n      add\n        /* \"#utility.yul\":8120:8173   */\n      tag_155\n      jump\t// in\n    tag_292:\n        /* \"#utility.yul\":8110:8173   */\n      swap3\n      pop\n        /* \"#utility.yul\":8066:8183   */\n      pop\n        /* \"#utility.yul\":8250:8252   */\n      0x20\n        /* \"#utility.yul\":8239:8248   */\n      dup4\n        /* \"#utility.yul\":8235:8253   */\n      add\n        /* \"#utility.yul\":8222:8254   */\n      calldataload\n        /* \"#utility.yul\":8281:8299   */\n      0xffffffffffffffff\n        /* \"#utility.yul\":8273:8279   */\n      dup2\n        /* \"#utility.yul\":8270:8300   */\n      gt\n        /* \"#utility.yul\":8267:8384   */\n      iszero\n      tag_293\n      jumpi\n        /* \"#utility.yul\":8303:8382   */\n      tag_294\n      tag_127\n      jump\t// in\n    tag_294:\n        /* \"#utility.yul\":8267:8384   */\n    tag_293:\n        /* \"#utility.yul\":8408:8471   */\n      tag_295\n        /* \"#utility.yul\":8463:8470   */\n      dup6\n        /* \"#utility.yul\":8454:8460   */\n      dup3\n        /* \"#utility.yul\":8443:8452   */\n      dup7\n        /* \"#utility.yul\":8439:8461   */\n      add\n        /* \"#utility.yul\":8408:8471   */\n      tag_137\n      jump\t// in\n    tag_295:\n        /* \"#utility.yul\":8398:8471   */\n      swap2\n      pop\n        /* \"#utility.yul\":8193:8481   */\n      pop\n        /* \"#utility.yul\":7834:8488   */\n      swap3\n      pop\n      swap3\n      swap1\n      pop\n      jump\t// out\n        /* \"#utility.yul\":8494:8612   */\n    tag_157:\n        /* \"#utility.yul\":8581:8605   */\n      tag_297\n        /* \"#utility.yul\":8599:8604   */\n      dup2\n        /* \"#utility.yul\":8581:8605   */\n      tag_153\n      jump\t// in\n    tag_297:\n        /* \"#utility.yul\":8576:8579   */\n      dup3\n        /* \"#utility.yul\":8569:8606   */\n      mstore\n        /* \"#utility.yul\":8494:8612   */\n      pop\n      pop\n      jump\t// out\n        /* \"#utility.yul\":8618:9250   */\n    tag_50:\n        /* \"#utility.yul\":8809:8813   */\n      0x00\n        /* \"#utility.yul\":8847:8850   */\n      0x80\n        /* \"#utility.yul\":8836:8845   */\n      dup3\n        /* \"#utility.yul\":8832:8851   */\n      add\n        /* \"#utility.yul\":8824:8851   */\n      swap1\n      pop\n        /* \"#utility.yul\":8861:8932   */\n      tag_299\n        /* \"#utility.yul\":8929:8930   */\n      0x00\n        /* \"#utility.yul\":8918:8927   */\n      dup4\n        /* \"#utility.yul\":8914:8931   */\n      add\n        /* \"#utility.yul\":8905:8911   */\n      dup8\n        /* \"#utility.yul\":8861:8932   */\n      tag_157\n      jump\t// in\n    tag_299:\n        /* \"#utility.yul\":8979:8988   */\n      dup2\n        /* \"#utility.yul\":8973:8977   */\n      dup2\n        /* \"#utility.yul\":8969:8989   */\n      sub\n        /* \"#utility.yul\":8964:8966   */\n      0x20\n        /* \"#utility.yul\":8953:8962   */\n      dup4\n        /* \"#utility.yul\":8949:8967   */\n      add\n        /* \"#utility.yul\":8942:8990   */\n      mstore\n        /* \"#utility.yul\":9007:9085   */\n      tag_300\n        /* \"#utility.yul\":9080:9084   */\n      dup2\n        /* \"#utility.yul\":9071:9077   */\n      dup7\n        /* \"#utility.yul\":9007:9085   */\n      tag_150\n      jump\t// in\n    tag_300:\n        /* \"#utility.yul\":8999:9085   */\n      swap1\n      pop\n        /* \"#utility.yul\":9095:9161   */\n      tag_301\n        /* \"#utility.yul\":9157:9159   */\n      0x40\n        /* \"#utility.yul\":9146:9155   */\n      dup4\n        /* \"#utility.yul\":9142:9160   */\n      add\n        /* \"#utility.yul\":9133:9139   */\n      dup6\n        /* \"#utility.yul\":9095:9161   */\n      tag_152\n      jump\t// in\n    tag_301:\n        /* \"#utility.yul\":9171:9243   */\n      tag_302\n        /* \"#utility.yul\":9239:9241   */\n      0x60\n        /* \"#utility.yul\":9228:9237   */\n      dup4\n        /* \"#utility.yul\":9224:9242   */\n      add\n        /* \"#utility.yul\":9215:9221   */\n      dup5\n        /* \"#utility.yul\":9171:9243   */\n      tag_156\n      jump\t// in\n    tag_302:\n        /* \"#utility.yul\":8618:9250   */\n      swap6\n      swap5\n      pop\n      pop\n      pop\n      pop\n      pop\n      jump\t// out\n        /* \"#utility.yul\":9256:9431   */\n    tag_158:\n        /* \"#utility.yul\":9396:9423   */\n      0x44726976657220616c7265616479207265676973746572656400000000000000\n        /* \"#utility.yul\":9392:9393   */\n      0x00\n        /* \"#utility.yul\":9384:9390   */\n      dup3\n        /* \"#utility.yul\":9380:9394   */\n      add\n        /* \"#utility.yul\":9373:9424   */\n      mstore\n        /* \"#utility.yul\":9256:9431   */\n      pop\n      jump\t// out\n        /* \"#utility.yul\":9437:9803   */\n    tag_159:\n        /* \"#utility.yul\":9579:9582   */\n      0x00\n        /* \"#utility.yul\":9600:9667   */\n      tag_305\n        /* \"#utility.yul\":9664:9666   */\n      0x19\n        /* \"#utility.yul\":9659:9662   */\n      dup4\n        /* \"#utility.yul\":9600:9667   */\n      tag_148\n      jump\t// in\n    tag_305:\n        /* \"#utility.yul\":9593:9667   */\n      swap2\n      pop\n        /* \"#utility.yul\":9676:9769   */\n      tag_306\n        /* \"#utility.yul\":9765:9768   */\n      dup3\n        /* \"#utility.yul\":9676:9769   */\n      tag_158\n      jump\t// in\n    tag_306:\n        /* \"#utility.yul\":9794:9796   */\n      0x20\n        /* \"#utility.yul\":9789:9792   */\n      dup3\n        /* \"#utility.yul\":9785:9797   */\n      add\n        /* \"#utility.yul\":9778:9797   */\n      swap1\n      pop\n        /* \"#utility.yul\":9437:9803   */\n      swap2\n      swap1\n      pop\n      jump\t// out\n        /* \"#utility.yul\":9809:10228   */\n    tag_54:\n        /* \"#utility.yul\":9975:9979   */\n      0x00\n        /* \"#utility.yul\":10013:10015   */\n      0x20\n        /* \"#utility.yul\":10002:10011   */\n      dup3\n        /* \"#utility.yul\":9998:10016   */\n      add\n        /* \"#utility.yul\":9990:10016   */\n      swap1\n      pop\n        /* \"#utility.yul\":10062:10071   */\n      dup2\n        /* \"#utility.yul\":10056:10060   */\n      dup2\n        /* \"#utility.yul\":10052:10072   */\n      sub\n        /* \"#utility.yul\":10048:10049   */\n      0x00\n        /* \"#utility.yul\":10037:10046   */\n      dup4\n        /* \"#utility.yul\":10033:10050   */\n      add\n        /* \"#utility.yul\":10026:10073   */\n      mstore\n        /* \"#utility.yul\":10090:10221   */\n      tag_308\n        /* \"#utility.yul\":10216:10220   */\n      dup2\n        /* \"#utility.yul\":10090:10221   */\n      tag_159\n      jump\t// in\n    tag_308:\n        /* \"#utility.yul\":10082:10221   */\n      swap1\n      pop\n        /* \"#utility.yul\":9809:10228   */\n      swap2\n      swap1\n      pop\n      jump\t// out\n        /* \"#utility.yul\":10234:10404   */\n    tag_160:\n        /* \"#utility.yul\":10374:10396   */\n      0x4e616d652063616e6e6f7420626520656d707479000000000000000000000000\n        /* \"#utility.yul\":10370:10371   */\n      0x00\n        /* \"#utility.yul\":10362:10368   */\n      dup3\n        /* \"#utility.yul\":10358:10372   */\n      add\n        /* \"#utility.yul\":10351:10397   */\n      mstore\n        /* \"#utility.yul\":10234:10404   */\n      pop\n      jump\t// out\n        /* \"#utility.yul\":10410:10776   */\n    tag_161:\n        /* \"#utility.yul\":10552:10555   */\n      0x00\n        /* \"#utility.yul\":10573:10640   */\n      tag_311\n        /* \"#utility.yul\":10637:10639   */\n      0x14\n        /* \"#utility.yul\":10632:10635   */\n      dup4\n        /* \"#utility.yul\":10573:10640   */\n      tag_148\n      jump\t// in\n    tag_311:\n        /* \"#utility.yul\":10566:10640   */\n      swap2\n      pop\n        /* \"#utility.yul\":10649:10742   */\n      tag_312\n        /* \"#utility.yul\":10738:10741   */\n      dup3\n        /* \"#utility.yul\":10649:10742   */\n      tag_160\n      jump\t// in\n    tag_312:\n        /* \"#utility.yul\":10767:10769   */\n      0x20\n        /* \"#utility.yul\":10762:10765   */\n      dup3\n        /* \"#utility.yul\":10758:10770   */\n      add\n        /* \"#utility.yul\":10751:10770   */\n      swap1\n      pop\n        /* \"#utility.yul\":10410:10776   */\n      swap2\n      swap1\n      pop\n      jump\t// out\n        /* \"#utility.yul\":10782:11201   */\n    tag_57:\n        /* \"#utility.yul\":10948:10952   */\n      0x00\n        /* \"#utility.yul\":10986:10988   */\n      0x20\n        /* \"#utility.yul\":10975:10984   */\n      dup3\n        /* \"#utility.yul\":10971:10989   */\n      add\n        /* \"#utility.yul\":10963:10989   */\n      swap1\n      pop\n        /* \"#utility.yul\":11035:11044   */\n      dup2\n        /* \"#utility.yul\":11029:11033   */\n      dup2\n        /* \"#utility.yul\":11025:11045   */\n      sub\n        /* \"#utility.yul\":11021:11022   */\n      0x00\n        /* \"#utility.yul\":11010:11019   */\n      dup4\n        /* \"#utility.yul\":11006:11023   */\n      add\n        /* \"#utility.yul\":10999:11046   */\n      mstore\n        /* \"#utility.yul\":11063:11194   */\n      tag_314\n        /* \"#utility.yul\":11189:11193   */\n      dup2\n        /* \"#utility.yul\":11063:11194   */\n      tag_161\n      jump\t// in\n    tag_314:\n        /* \"#utility.yul\":11055:11194   */\n      swap1\n      pop\n        /* \"#utility.yul\":10782:11201   */\n      swap2\n      swap1\n      pop\n      jump\t// out\n        /* \"#utility.yul\":11207:11387   */\n    tag_162:\n        /* \"#utility.yul\":11255:11332   */\n      0x4e487b7100000000000000000000000000000000000000000000000000000000\n        /* \"#utility.yul\":11252:11253   */\n      0x00\n        /* \"#utility.yul\":11245:11333   */\n      mstore\n        /* \"#utility.yul\":11352:11356   */\n      0x22\n        /* \"#utility.yul\":11349:11350   */\n      0x04\n        /* \"#utility.yul\":11342:11357   */\n      mstore\n        /* \"#utility.yul\":11376:11380   */\n      0x24\n        /* \"#utility.yul\":11373:11374   */\n      0x00\n        /* \"#utility.yul\":11366:11381   */\n      revert\n        /* \"#utility.yul\":11393:11713   */\n    tag_63:\n        /* \"#utility.yul\":11437:11443   */\n      0x00\n        /* \"#utility.yul\":11474:11475   */\n      0x02\n        /* \"#utility.yul\":11468:11472   */\n      dup3\n        /* \"#utility.yul\":11464:11476   */\n      div\n        /* \"#utility.yul\":11454:11476   */\n      swap1\n      pop\n        /* \"#utility.yul\":11521:11522   */\n      0x01\n        /* \"#utility.yul\":11515:11519   */\n      dup3\n        /* \"#utility.yul\":11511:11523   */\n      and\n        /* \"#utility.yul\":11542:11560   */\n      dup1\n        /* \"#utility.yul\":11532:11613   */\n      tag_317\n      jumpi\n        /* \"#utility.yul\":11598:11602   */\n      0x7f\n        /* \"#utility.yul\":11590:11596   */\n      dup3\n        /* \"#utility.yul\":11586:11603   */\n      and\n        /* \"#utility.yul\":11576:11603   */\n      swap2\n      pop\n        /* \"#utility.yul\":11532:11613   */\n    tag_317:\n        /* \"#utility.yul\":11660:11662   */\n      0x20\n        /* \"#utility.yul\":11652:11658   */\n      dup3\n        /* \"#utility.yul\":11649:11663   */\n      lt\n        /* \"#utility.yul\":11629:11647   */\n      dup2\n        /* \"#utility.yul\":11626:11664   */\n      sub\n        /* \"#utility.yul\":11623:11707   */\n      tag_318\n      jumpi\n        /* \"#utility.yul\":11679:11697   */\n      tag_319\n      tag_162\n      jump\t// in\n    tag_319:\n        /* \"#utility.yul\":11623:11707   */\n    tag_318:\n        /* \"#utility.yul\":11444:11713   */\n      pop\n        /* \"#utility.yul\":11393:11713   */\n      swap2\n      swap1\n      pop\n      jump\t// out\n        /* \"#utility.yul\":11719:11860   */\n    tag_163:\n        /* \"#utility.yul\":11768:11772   */\n      0x00\n        /* \"#utility.yul\":11791:11794   */\n      dup2\n        /* \"#utility.yul\":11783:11794   */\n      swap1\n      pop\n        /* \"#utility.yul\":11814:11817   */\n      dup2\n        /* \"#utility.yul\":11811:11812   */\n      0x00\n        /* \"#utility.yul\":11804:11818   */\n      mstore\n        /* \"#utility.yul\":11848:11852   */\n      0x20\n        /* \"#utility.yul\":11845:11846   */\n      0x00\n        /* \"#utility.yul\":11835:11853   */\n      keccak256\n        /* \"#utility.yul\":11827:11853   */\n      swap1\n      pop\n        /* \"#utility.yul\":11719:11860   */\n      swap2\n      swap1\n      pop\n      jump\t// out\n        /* \"#utility.yul\":11866:11959   */\n    tag_164:\n        /* \"#utility.yul\":11903:11909   */\n      0x00\n        /* \"#utility.yul\":11950:11952   */\n      0x20\n        /* \"#utility.yul\":11945:11947   */\n      0x1f\n        /* \"#utility.yul\":11938:11943   */\n      dup4\n        /* \"#utility.yul\":11934:11948   */\n      add\n        /* \"#utility.yul\":11930:11953   */\n      div\n        /* \"#utility.yul\":11920:11953   */\n      swap1\n      pop\n        /* \"#utility.yul\":11866:11959   */\n      swap2\n      swap1\n      pop\n      jump\t// out\n        /* \"#utility.yul\":11965:12072   */\n    tag_165:\n        /* \"#utility.yul\":12009:12017   */\n      0x00\n        /* \"#utility.yul\":12059:12064   */\n      dup3\n        /* \"#utility.yul\":12053:12057   */\n      dup3\n        /* \"#utility.yul\":12049:12065   */\n      shl\n        /* \"#utility.yul\":12028:12065   */\n      swap1\n      pop\n        /* \"#utility.yul\":11965:12072   */\n      swap3\n      swap2\n      pop\n      pop\n      jump\t// out\n        /* \"#utility.yul\":12078:12471   */\n    tag_166:\n        /* \"#utility.yul\":12147:12153   */\n      0x00\n        /* \"#utility.yul\":12197:12198   */\n      0x08\n        /* \"#utility.yul\":12185:12195   */\n      dup4\n        /* \"#utility.yul\":12181:12199   */\n      mul\n        /* \"#utility.yul\":12220:12317   */\n      tag_324\n        /* \"#utility.yul\":12250:12316   */\n      0xffffffffffffffffffffffffffffffffffffffffffffffffffffffffffffffff\n        /* \"#utility.yul\":12239:12248   */\n      dup3\n        /* \"#utility.yul\":12220:12317   */\n      tag_165\n      jump\t// in\n    tag_324:\n        /* \"#utility.yul\":12338:12377   */\n      tag_325\n        /* \"#utility.yul\":12368:12376   */\n      dup7\n        /* \"#utility.yul\":12357:12366   */\n      dup4\n        /* \"#utility.yul\":12338:12377   */\n      tag_165\n      jump\t// in\n    tag_325:\n        /* \"#utility.yul\":12326:12377   */\n      swap6\n      pop\n        /* \"#utility.yul\":12410:12414   */\n      dup1\n        /* \"#utility.yul\":12406:12415   */\n      not\n        /* \"#utility.yul\":12399:12404   */\n      dup5\n        /* \"#utility.yul\":12395:12416   */\n      and\n        /* \"#utility.yul\":12386:12416   */\n      swap4\n      pop\n        /* \"#utility.yul\":12459:12463   */\n      dup1\n        /* \"#utility.yul\":12449:12457   */\n      dup7\n        /* \"#utility.yul\":12445:12464   */\n      and\n        /* \"#utility.yul\":12438:12443   */\n      dup5\n        /* \"#utility.yul\":12435:12465   */\n      or\n        /* \"#utility.yul\":12425:12465   */\n      swap3\n      pop\n        /* \"#utility.yul\":12154:12471   */\n      pop\n      pop\n        /* \"#utility.yul\":12078:12471   */\n      swap4\n      swap3\n      pop\n      pop\n      pop\n      jump\t// out\n        /* \"#utility.yul\":12477:12619   */\n    tag_167:\n        /* \"#utility.yul\":12527:12536   */\n      0x00\n        /* \"#utility.yul\":12560:12613   */\n      tag_327\n        /* \"#utility.yul\":12578:12612   */\n      tag_328\n        /* \"#utility.yul\":12587:12611   */\n      tag_329\n        /* \"#utility.yul\":12605:12610   */\n      dup5\n        /* \"#utility.yul\":12587:12611   */\n      tag_153\n      jump\t// in\n    tag_329:\n        /* \"#utility.yul\":12578:12612   */\n      tag_139\n      jump\t// in\n    tag_328:\n        /* \"#utility.yul\":12560:12613   */\n      tag_153\n      jump\t// in\n    tag_327:\n        /* \"#utility.yul\":12547:12613   */\n      swap1\n      pop\n        /* \"#utility.yul\":12477:12619   */\n      swap2\n      swap1\n      pop\n      jump\t// out\n        /* \"#utility.yul\":12625:12700   */\n    tag_168:\n        /* \"#utility.yul\":12668:12671   */\n      0x00\n        /* \"#utility.yul\":12689:12694   */\n      dup2\n        /* \"#utility.yul\":12682:12694   */\n      swap1\n      pop\n        /* \"#utility.yul\":12625:12700   */\n      swap2\n      swap1\n      pop\n      jump\t// out\n        /* \"#utility.yul\":12706:12975   */\n    tag_169:\n        /* \"#utility.yul\":12816:12855   */\n      tag_332\n        /* \"#utility.yul\":12847:12854   */\n      dup4\n        /* \"#utility.yul\":12816:12855   */\n      tag_167\n      jump\t// in\n    tag_332:\n        /* \"#utility.yul\":12877:12968   */\n      tag_333\n        /* \"#utility.yul\":12926:12967   */\n      tag_334\n        /* \"#utility.yul\":12950:12966   */\n      dup3\n        /* \"#utility.yul\":12926:12967   */\n      tag_168\n      jump\t// in\n    tag_334:\n        /* \"#utility.yul\":12918:12924   */\n      dup5\n        /* \"#utility.yul\":12911:12915   */\n      dup5\n        /* \"#utility.yul\":12905:12916   */\n      sload\n        /* \"#utility.yul\":12877:12968   */\n      tag_166\n      jump\t// in\n    tag_333:\n        /* \"#utility.yul\":12871:12875   */\n      dup3\n        /* \"#utility.yul\":12864:12969   */\n      sstore\n        /* \"#utility.yul\":12782:12975   */\n      pop\n        /* \"#utility.yul\":12706:12975   */\n      pop\n      pop\n      pop\n      jump\t// out\n        /* \"#utility.yul\":12981:13054   */\n    tag_170:\n        /* \"#utility.yul\":13026:13029   */\n      0x00\n        /* \"#utility.yul\":13047:13048   */\n      0x00\n        /* \"#utility.yul\":13040:13048   */\n      swap1\n      pop\n        /* \"#utility.yul\":12981:13054   */\n      swap1\n      jump\t// out\n        /* \"#utility.yul\":13060:13249   */\n    tag_171:\n        /* \"#utility.yul\":13137:13169   */\n      tag_337\n      tag_170\n      jump\t// in\n    tag_337:\n        /* \"#utility.yul\":13178:13243   */\n      tag_338\n        /* \"#utility.yul\":13236:13242   */\n      dup2\n        /* \"#utility.yul\":13228:13234   */\n      dup5\n        /* \"#utility.yul\":13222:13226   */\n      dup5\n        /* \"#utility.yul\":13178:13243   */\n      tag_169\n      jump\t// in\n    tag_338:\n        /* \"#utility.yul\":13113:13249   */\n      pop\n        /* \"#utility.yul\":13060:13249   */\n      pop\n      pop\n      jump\t// out\n        /* \"#utility.yul\":13255:13441   */\n    tag_172:\n        /* \"#utility.yul\":13315:13435   */\n    tag_340:\n        /* \"#utility.yul\":13332:13335   */\n      dup2\n        /* \"#utility.yul\":13325:13330   */\n      dup2\n        /* \"#utility.yul\":13322:13336   */\n      lt\n        /* \"#utility.yul\":13315:13435   */\n      iszero\n      tag_342\n      jumpi\n        /* \"#utility.yul\":13386:13425   */\n      tag_343\n        /* \"#utility.yul\":13423:13424   */\n      0x00\n        /* \"#utility.yul\":13416:13421   */\n      dup3\n        /* \"#utility.yul\":13386:13425   */\n      tag_171\n      jump\t// in\n    tag_343:\n        /* \"#utility.yul\":13359:13360   */\n      0x01\n        /* \"#utility.yul\":13352:13357   */\n      dup2\n        /* \"#utility.yul\":13348:13361   */\n      add\n        /* \"#utility.yul\":13339:13361   */\n      swap1\n      pop\n        /* \"#utility.yul\":13315:13435   */\n      jump(tag_340)\n    tag_342:\n        /* \"#utility.yul\":13255:13441   */\n      pop\n      pop\n      jump\t// out\n        /* \"#utility.yul\":13447:13990   */\n    tag_173:\n        /* \"#utility.yul\":13548:13550   */\n      0x1f\n        /* \"#utility.yul\":13543:13546   */\n      dup3\n        /* \"#utility.yul\":13540:13551   */\n      gt\n        /* \"#utility.yul\":13537:13983   */\n      iszero\n      tag_345\n      jumpi\n        /* \"#utility.yul\":13582:13620   */\n      tag_346\n        /* \"#utility.yul\":13614:13619   */\n      dup2\n        /* \"#utility.yul\":13582:13620   */\n      tag_163\n      jump\t// in\n    tag_346:\n        /* \"#utility.yul\":13666:13695   */\n      tag_347\n        /* \"#utility.yul\":13684:13694   */\n      dup5\n        /* \"#utility.yul\":13666:13695   */\n      tag_164\n      jump\t// in\n    tag_347:\n        /* \"#utility.yul\":13656:13664   */\n      dup2\n        /* \"#utility.yul\":13652:13696   */\n      add\n        /* \"#utility.yul\":13849:13851   */\n      0x20\n        /* \"#utility.yul\":13837:13847   */\n      dup6\n        /* \"#utility.yul\":13834:13852   */\n      lt\n        /* \"#utility.yul\":13831:13880   */\n      iszero\n      tag_348\n      jumpi\n        /* \"#utility.yul\":13870:13878   */\n      dup2\n        /* \"#utility.yul\":13855:13878   */\n      swap1\n      pop\n        /* \"#utility.yul\":13831:13880   */\n    tag_348:\n        /* \"#utility.yul\":13893:13973   */\n      tag_349\n        /* \"#utility.yul\":13949:13971   */\n      tag_350\n        /* \"#utility.yul\":13967:13970   */\n      dup6\n        /* \"#utility.yul\":13949:13971   */\n      tag_164\n      jump\t// in\n    tag_350:\n        /* \"#utility.yul\":13939:13947   */\n      dup4\n        /* \"#utility.yul\":13935:13972   */\n      add\n        /* \"#utility.yul\":13922:13933   */\n      dup3\n        /* \"#utility.yul\":13893:13973   */\n      tag_172\n      jump\t// in\n    tag_349:\n        /* \"#utility.yul\":13552:13983   */\n      pop\n      pop\n        /* \"#utility.yul\":13537:13983   */\n    tag_345:\n        /* \"#utility.yul\":13447:13990   */\n      pop\n      pop\n      pop\n      jump\t// out\n        /* \"#utility.yul\":13996:14113   */\n    tag_174:\n        /* \"#utility.yul\":14050:14058   */\n      0x00\n        /* \"#utility.yul\":14100:14105   */\n      dup3\n        /* \"#utility.yul\":14094:14098   */\n      dup3\n        /* \"#utility.yul\":14090:14106   */\n      shr\n        /* \"#utility.yul\":14069:14106   */\n      swap1\n      pop\n        /* \"#utility.yul\":13996:14113   */\n      swap3\n      swap2\n      pop\n      pop\n      jump\t// out\n        /* \"#utility.yul\":14119:14288   */\n    tag_175:\n        /* \"#utility.yul\":14163:14169   */\n      0x00\n        /* \"#utility.yul\":14196:14247   */\n      tag_353\n        /* \"#utility.yul\":14244:14245   */\n      0x00\n        /* \"#utility.yul\":14240:14246   */\n      not\n        /* \"#utility.yul\":14232:14237   */\n      dup5\n        /* \"#utility.yul\":14229:14230   */\n      0x08\n        /* \"#utility.yul\":14225:14238   */\n      mul\n        /* \"#utility.yul\":14196:14247   */\n      tag_174\n      jump\t// in\n    tag_353:\n        /* \"#utility.yul\":14192:14248   */\n      not\n        /* \"#utility.yul\":14277:14281   */\n      dup1\n        /* \"#utility.yul\":14271:14275   */\n      dup4\n        /* \"#utility.yul\":14267:14282   */\n      and\n        /* \"#utility.yul\":14257:14282   */\n      swap2\n      pop\n        /* \"#utility.yul\":14170:14288   */\n      pop\n        /* \"#utility.yul\":14119:14288   */\n      swap3\n      swap2\n      pop\n      pop\n      jump\t// out\n        /* \"#utility.yul\":14293:14588   */\n    tag_176:\n        /* \"#utility.yul\":14369:14373   */\n      0x00\n        /* \"#utility.yul\":14515:14544   */\n      tag_355\n        /* \"#utility.yul\":14540:14543   */\n      dup4\n        /* \"#utility.yul\":14534:14538   */\n      dup4\n        /* \"#utility.yul\":14515:14544   */\n      tag_175\n      jump\t// in\n    tag_355:\n        /* \"#utility.yul\":14507:14544   */\n      swap2\n      pop\n        /* \"#utility.yul\":14577:14580   */\n      dup3\n        /* \"#utility.yul\":14574:14575   */\n      0x02\n        /* \"#utility.yul\":14570:14581   */\n      mul\n        /* \"#utility.yul\":14564:14568   */\n      dup3\n        /* \"#utility.yul\":14561:14582   */\n      or\n        /* \"#utility.yul\":14553:14582   */\n      swap1\n      pop\n        /* \"#utility.yul\":14293:14588   */\n      swap3\n      swap2\n      pop\n      pop\n      jump\t// out\n        /* \"#utility.yul\":14593:15988   */\n    tag_59:\n        /* \"#utility.yul\":14710:14747   */\n      tag_357\n        /* \"#utility.yul\":14743:14746   */\n      dup3\n        /* \"#utility.yul\":14710:14747   */\n      tag_147\n      jump\t// in\n    tag_357:\n        /* \"#utility.yul\":14812:14830   */\n      0xffffffffffffffff\n        /* \"#utility.yul\":14804:14810   */\n      dup2\n        /* \"#utility.yul\":14801:14831   */\n      gt\n        /* \"#utility.yul\":14798:14854   */\n      iszero\n      tag_358\n      jumpi\n        /* \"#utility.yul\":14834:14852   */\n      tag_359\n      tag_131\n      jump\t// in\n    tag_359:\n        /* \"#utility.yul\":14798:14854   */\n    tag_358:\n        /* \"#utility.yul\":14878:14916   */\n      tag_360\n        /* \"#utility.yul\":14910:14914   */\n      dup3\n        /* \"#utility.yul\":14904:14915   */\n      sload\n        /* \"#utility.yul\":14878:14916   */\n      tag_63\n      jump\t// in\n    tag_360:\n        /* \"#utility.yul\":14963:15030   */\n      tag_361\n        /* \"#utility.yul\":15023:15029   */\n      dup3\n        /* \"#utility.yul\":15015:15021   */\n      dup3\n        /* \"#utility.yul\":15009:15013   */\n      dup6\n        /* \"#utility.yul\":14963:15030   */\n      tag_173\n      jump\t// in\n    tag_361:\n        /* \"#utility.yul\":15057:15058   */\n      0x00\n        /* \"#utility.yul\":15081:15085   */\n      0x20\n        /* \"#utility.yul\":15068:15085   */\n      swap1\n      pop\n        /* \"#utility.yul\":15113:15115   */\n      0x1f\n        /* \"#utility.yul\":15105:15111   */\n      dup4\n        /* \"#utility.yul\":15102:15116   */\n      gt\n        /* \"#utility.yul\":15130:15131   */\n      0x01\n        /* \"#utility.yul\":15125:15743   */\n      dup2\n      eq\n      tag_363\n      jumpi\n        /* \"#utility.yul\":15787:15788   */\n      0x00\n        /* \"#utility.yul\":15804:15810   */\n      dup5\n        /* \"#utility.yul\":15801:15878   */\n      iszero\n      tag_364\n      jumpi\n        /* \"#utility.yul\":15853:15862   */\n      dup3\n        /* \"#utility.yul\":15848:15851   */\n      dup8\n        /* \"#utility.yul\":15844:15863   */\n      add\n        /* \"#utility.yul\":15838:15864   */\n      mload\n        /* \"#utility.yul\":15829:15864   */\n      swap1\n      pop\n        /* \"#utility.yul\":15801:15878   */\n    tag_364:\n        /* \"#utility.yul\":15904:15971   */\n      tag_365\n        /* \"#utility.yul\":15964:15970   */\n      dup6\n        /* \"#utility.yul\":15957:15962   */\n      dup3\n        /* \"#utility.yul\":15904:15971   */\n      tag_176\n      jump\t// in\n    tag_365:\n        /* \"#utility.yul\":15898:15902   */\n      dup7\n        /* \"#utility.yul\":15891:15972   */\n      sstore\n        /* \"#utility.yul\":15760:15982   */\n      pop\n        /* \"#utility.yul\":15095:15982   */\n      jump(tag_362)\n        /* \"#utility.yul\":15125:15743   */\n    tag_363:\n        /* \"#utility.yul\":15177:15181   */\n      0x1f\n        /* \"#utility.yul\":15173:15182   */\n      not\n        /* \"#utility.yul\":15165:15171   */\n      dup5\n        /* \"#utility.yul\":15161:15183   */\n      and\n        /* \"#utility.yul\":15211:15248   */\n      tag_366\n        /* \"#utility.yul\":15243:15247   */\n      dup7\n        /* \"#utility.yul\":15211:15248   */\n      tag_163\n      jump\t// in\n    tag_366:\n        /* \"#utility.yul\":15270:15271   */\n      0x00\n        /* \"#utility.yul\":15284:15492   */\n    tag_367:\n        /* \"#utility.yul\":15298:15305   */\n      dup3\n        /* \"#utility.yul\":15295:15296   */\n      dup2\n        /* \"#utility.yul\":15292:15306   */\n      lt\n        /* \"#utility.yul\":15284:15492   */\n      iszero\n      tag_369\n      jumpi\n        /* \"#utility.yul\":15377:15386   */\n      dup5\n        /* \"#utility.yul\":15372:15375   */\n      dup10\n        /* \"#utility.yul\":15368:15387   */\n      add\n        /* \"#utility.yul\":15362:15388   */\n      mload\n        /* \"#utility.yul\":15354:15360   */\n      dup3\n        /* \"#utility.yul\":15347:15389   */\n      sstore\n        /* \"#utility.yul\":15428:15429   */\n      0x01\n        /* \"#utility.yul\":15420:15426   */\n      dup3\n        /* \"#utility.yul\":15416:15430   */\n      add\n        /* \"#utility.yul\":15406:15430   */\n      swap2\n      pop\n        /* \"#utility.yul\":15475:15477   */\n      0x20\n        /* \"#utility.yul\":15464:15473   */\n      dup6\n        /* \"#utility.yul\":15460:15478   */\n      add\n        /* \"#utility.yul\":15447:15478   */\n      swap5\n      pop\n        /* \"#utility.yul\":15321:15325   */\n      0x20\n        /* \"#utility.yul\":15318:15319   */\n      dup2\n        /* \"#utility.yul\":15314:15326   */\n      add\n        /* \"#utility.yul\":15309:15326   */\n      swap1\n      pop\n        /* \"#utility.yul\":15284:15492   */\n      jump(tag_367)\n    tag_369:\n        /* \"#utility.yul\":15520:15526   */\n      dup7\n        /* \"#utility.yul\":15511:15518   */\n      dup4\n        /* \"#utility.yul\":15508:15527   */\n      lt\n        /* \"#utility.yul\":15505:15684   */\n      iszero\n      tag_370\n      jumpi\n        /* \"#utility.yul\":15578:15587   */\n      dup5\n        /* \"#utility.yul\":15573:15576   */\n      dup10\n        /* \"#utility.yul\":15569:15588   */\n      add\n        /* \"#utility.yul\":15563:15589   */\n      mload\n        /* \"#utility.yul\":15621:15669   */\n      tag_371\n        /* \"#utility.yul\":15663:15667   */\n      0x1f\n        /* \"#utility.yul\":15655:15661   */\n      dup10\n        /* \"#utility.yul\":15651:15668   */\n      and\n        /* \"#utility.yul\":15640:15649   */\n      dup3\n        /* \"#utility.yul\":15621:15669   */\n      tag_175\n      jump\t// in\n    tag_371:\n        /* \"#utility.yul\":15613:15619   */\n      dup4\n        /* \"#utility.yul\":15606:15670   */\n      sstore\n        /* \"#utility.yul\":15528:15684   */\n      pop\n        /* \"#utility.yul\":15505:15684   */\n    tag_370:\n        /* \"#utility.yul\":15730:15731   */\n      0x01\n        /* \"#utility.yul\":15726:15727   */\n      0x02\n        /* \"#utility.yul\":15718:15724   */\n      dup9\n        /* \"#utility.yul\":15714:15728   */\n      mul\n        /* \"#utility.yul\":15710:15732   */\n      add\n        /* \"#utility.yul\":15704:15708   */\n      dup9\n        /* \"#utility.yul\":15697:15733   */\n      sstore\n        /* \"#utility.yul\":15132:15743   */\n      pop\n      pop\n      pop\n        /* \"#utility.yul\":15095:15982   */\n    tag_362:\n      pop\n        /* \"#utility.yul\":14685:15988   */\n      pop\n      pop\n      pop\n        /* \"#utility.yul\":14593:15988   */\n      pop\n      pop\n      jump\t// out\n        /* \"#utility.yul\":15994:16307   */\n    tag_61:\n        /* \"#utility.yul\":16107:16111   */\n      0x00\n        /* \"#utility.yul\":16145:16147   */\n      0x20\n        /* \"#utility.yul\":16134:16143   */\n      dup3\n        /* \"#utility.yul\":16130:16148   */\n      add\n        /* \"#utility.yul\":16122:16148   */\n      swap1\n      pop\n        /* \"#utility.yul\":16194:16203   */\n      dup2\n        /* \"#utility.yul\":16188:16192   */\n      dup2\n        /* \"#utility.yul\":16184:16204   */\n      sub\n        /* \"#utility.yul\":16180:16181   */\n      0x00\n        /* \"#utility.yul\":16169:16178   */\n      dup4\n        /* \"#utility.yul\":16165:16182   */\n      add\n        /* \"#utility.yul\":16158:16205   */\n      mstore\n        /* \"#utility.yul\":16222:16300   */\n      tag_373\n        /* \"#utility.yul\":16295:16299   */\n      dup2\n        /* \"#utility.yul\":16286:16292   */\n      dup5\n        /* \"#utility.yul\":16222:16300   */\n      tag_150\n      jump\t// in\n    tag_373:\n        /* \"#utility.yul\":16214:16300   */\n      swap1\n      pop\n        /* \"#utility.yul\":15994:16307   */\n      swap3\n      swap2\n      pop\n      pop\n      jump\t// out\n        /* \"#utility.yul\":16313:16484   */\n    tag_177:\n        /* \"#utility.yul\":16453:16476   */\n      0x447269766572206e6f7420726567697374657265640000000000000000000000\n        /* \"#utility.yul\":16449:16450   */\n      0x00\n        /* \"#utility.yul\":16441:16447   */\n      dup3\n        /* \"#utility.yul\":16437:16451   */\n      add\n        /* \"#utility.yul\":16430:16477   */\n      mstore\n        /* \"#utility.yul\":16313:16484   */\n      pop\n      jump\t// out\n        /* \"#utility.yul\":16490:16856   */\n    tag_178:\n        /* \"#utility.yul\":16632:16635   */\n      0x00\n        /* \"#utility.yul\":16653:16720   */\n      tag_376\n        /* \"#utility.yul\":16717:16719   */\n      0x15\n        /* \"#utility.yul\":16712:16715   */\n      dup4\n        /* \"#utility.yul\":16653:16720   */\n      tag_148\n      jump\t// in\n    tag_376:\n        /* \"#utility.yul\":16646:16720   */\n      swap2\n      pop\n        /* \"#utility.yul\":16729:16822   */\n      tag_377\n        /* \"#utility.yul\":16818:16821   */\n      dup3\n        /* \"#utility.yul\":16729:16822   */\n      tag_177\n      jump\t// in\n    tag_377:\n        /* \"#utility.yul\":16847:16849   */\n      0x20\n        /* \"#utility.yul\":16842:16845   */\n      dup3\n        /* \"#utility.yul\":16838:16850   */\n      add\n        /* \"#utility.yul\":16831:16850   */\n      swap1\n      pop\n        /* \"#utility.yul\":16490:16856   */\n      swap2\n      swap1\n      pop\n      jump\t// out\n        /* \"#utility.yul\":16862:17281   */\n    tag_71:\n        /* \"#utility.yul\":17028:17032   */\n      0x00\n        /* \"#utility.yul\":17066:17068   */\n      0x20\n        /* \"#utility.yul\":17055:17064   */\n      dup3\n        /* \"#utility.yul\":17051:17069   */\n      add\n        /* \"#utility.yul\":17043:17069   */\n      swap1\n      pop\n        /* \"#utility.yul\":17115:17124   */\n      dup2\n        /* \"#utility.yul\":17109:17113   */\n      dup2\n        /* \"#utility.yul\":17105:17125   */\n      sub\n        /* \"#utility.yul\":17101:17102   */\n      0x00\n        /* \"#utility.yul\":17090:17099   */\n      dup4\n        /* \"#utility.yul\":17086:17103   */\n      add\n        /* \"#utility.yul\":17079:17126   */\n      mstore\n        /* \"#utility.yul\":17143:17274   */\n      tag_379\n        /* \"#utility.yul\":17269:17273   */\n      dup2\n        /* \"#utility.yul\":17143:17274   */\n      tag_178\n      jump\t// in\n    tag_379:\n        /* \"#utility.yul\":17135:17274   */\n      swap1\n      pop\n        /* \"#utility.yul\":16862:17281   */\n      swap2\n      swap1\n      pop\n      jump\t// out\n        /* \"#utility.yul\":17287:17464   */\n    tag_179:\n        /* \"#utility.yul\":17427:17456   */\n      0x5061726b696e672073706f7420646f6573206e6f742065786973740000000000\n        /* \"#utility.yul\":17423:17424   */\n      0x00\n        /* \"#utility.yul\":17415:17421   */\n      dup3\n        /* \"#utility.yul\":17411:17425   */\n      add\n        /* \"#utility.yul\":17404:17457   */\n      mstore\n        /* \"#utility.yul\":17287:17464   */\n      pop\n      jump\t// out\n        /* \"#utility.yul\":17470:17836   */\n    tag_180:\n        /* \"#utility.yul\":17612:17615   */\n      0x00\n        /* \"#utility.yul\":17633:17700   */\n      tag_382\n        /* \"#utility.yul\":17697:17699   */\n      0x1b\n        /* \"#utility.yul\":17692:17695   */\n      dup4\n        /* \"#utility.yul\":17633:17700   */\n      tag_148\n      jump\t// in\n    tag_382:\n        /* \"#utility.yul\":17626:17700   */\n      swap2\n      pop\n        /* \"#utility.yul\":17709:17802   */\n      tag_383\n        /* \"#utility.yul\":17798:17801   */\n      dup3\n        /* \"#utility.yul\":17709:17802   */\n      tag_179\n      jump\t// in\n    tag_383:\n        /* \"#utility.yul\":17827:17829   */\n      0x20\n        /* \"#utility.yul\":17822:17825   */\n      dup3\n        /* \"#utility.yul\":17818:17830   */\n      add\n        /* \"#utility.yul\":17811:17830   */\n      swap1\n      pop\n        /* \"#utility.yul\":17470:17836   */\n      swap2\n      swap1\n      pop\n      jump\t// out\n        /* \"#utility.yul\":17842:18261   */\n    tag_75:\n        /* \"#utility.yul\":18008:18012   */\n      0x00\n        /* \"#utility.yul\":18046:18048   */\n      0x20\n        /* \"#utility.yul\":18035:18044   */\n      dup3\n        /* \"#utility.yul\":18031:18049   */\n      add\n        /* \"#utility.yul\":18023:18049   */\n      swap1\n      pop\n        /* \"#utility.yul\":18095:18104   */\n      dup2\n        /* \"#utility.yul\":18089:18093   */\n      dup2\n        /* \"#utility.yul\":18085:18105   */\n      sub\n        /* \"#utility.yul\":18081:18082   */\n      0x00\n        /* \"#utility.yul\":18070:18079   */\n      dup4\n        /* \"#utility.yul\":18066:18083   */\n      add\n        /* \"#utility.yul\":18059:18106   */\n      mstore\n        /* \"#utility.yul\":18123:18254   */\n      tag_385\n        /* \"#utility.yul\":18249:18253   */\n      dup2\n        /* \"#utility.yul\":18123:18254   */\n      tag_180\n      jump\t// in\n    tag_385:\n        /* \"#utility.yul\":18115:18254   */\n      swap1\n      pop\n        /* \"#utility.yul\":17842:18261   */\n      swap2\n      swap1\n      pop\n      jump\t// out\n        /* \"#utility.yul\":18267:18446   */\n    tag_181:\n        /* \"#utility.yul\":18407:18438   */\n      0x5061726b696e672073706f74206973206e6f7420617661696c61626c65000000\n        /* \"#utility.yul\":18403:18404   */\n      0x00\n        /* \"#utility.yul\":18395:18401   */\n      dup3\n        /* \"#utility.yul\":18391:18405   */\n      add\n        /* \"#utility.yul\":18384:18439   */\n      mstore\n        /* \"#utility.yul\":18267:18446   */\n      pop\n      jump\t// out\n        /* \"#utility.yul\":18452:18818   */\n    tag_182:\n        /* \"#utility.yul\":18594:18597   */\n      0x00\n        /* \"#utility.yul\":18615:18682   */\n      tag_388\n        /* \"#utility.yul\":18679:18681   */\n      0x1d\n        /* \"#utility.yul\":18674:18677   */\n      dup4\n        /* \"#utility.yul\":18615:18682   */\n      tag_148\n      jump\t// in\n    tag_388:\n        /* \"#utility.yul\":18608:18682   */\n      swap2\n      pop\n        /* \"#utility.yul\":18691:18784   */\n      tag_389\n        /* \"#utility.yul\":18780:18783   */\n      dup3\n        /* \"#utility.yul\":18691:18784   */\n      tag_181\n      jump\t// in\n    tag_389:\n        /* \"#utility.yul\":18809:18811   */\n      0x20\n        /* \"#utility.yul\":18804:18807   */\n      dup3\n        /* \"#utility.yul\":18800:18812   */\n      add\n        /* \"#utility.yul\":18793:18812   */\n      swap1\n      pop\n        /* \"#utility.yul\":18452:18818   */\n      swap2\n      swap1\n      pop\n      jump\t// out\n        /* \"#utility.yul\":18824:19243   */\n    tag_78:\n        /* \"#utility.yul\":18990:18994   */\n      0x00\n        /* \"#utility.yul\":19028:19030   */\n      0x20\n        /* \"#utility.yul\":19017:19026   */\n      dup3\n        /* \"#utility.yul\":19013:19031   */\n      add\n        /* \"#utility.yul\":19005:19031   */\n      swap1\n      pop\n        /* \"#utility.yul\":19077:19086   */\n      dup2\n        /* \"#utility.yul\":19071:19075   */\n      dup2\n        /* \"#utility.yul\":19067:19087   */\n      sub\n        /* \"#utility.yul\":19063:19064   */\n      0x00\n        /* \"#utility.yul\":19052:19061   */\n      dup4\n        /* \"#utility.yul\":19048:19065   */\n      add\n        /* \"#utility.yul\":19041:19088   */\n      mstore\n        /* \"#utility.yul\":19105:19236   */\n      tag_391\n        /* \"#utility.yul\":19231:19235   */\n      dup2\n        /* \"#utility.yul\":19105:19236   */\n      tag_182\n      jump\t// in\n    tag_391:\n        /* \"#utility.yul\":19097:19236   */\n      swap1\n      pop\n        /* \"#utility.yul\":18824:19243   */\n      swap2\n      swap1\n      pop\n      jump\t// out\n        /* \"#utility.yul\":19249:19412   */\n    tag_183:\n        /* \"#utility.yul\":19389:19404   */\n      0x4e6f7420796f75722073706f7400000000000000000000000000000000000000\n        /* \"#utility.yul\":19385:19386   */\n      0x00\n        /* \"#utility.yul\":19377:19383   */\n      dup3\n        /* \"#utility.yul\":19373:19387   */\n      add\n        /* \"#utility.yul\":19366:19405   */\n      mstore\n        /* \"#utility.yul\":19249:19412   */\n      pop\n      jump\t// out\n        /* \"#utility.yul\":19418:19784   */\n    tag_184:\n        /* \"#utility.yul\":19560:19563   */\n      0x00\n        /* \"#utility.yul\":19581:19648   */\n      tag_394\n        /* \"#utility.yul\":19645:19647   */\n      0x0d\n        /* \"#utility.yul\":19640:19643   */\n      dup4\n        /* \"#utility.yul\":19581:19648   */\n      tag_148\n      jump\t// in\n    tag_394:\n        /* \"#utility.yul\":19574:19648   */\n      swap2\n      pop\n        /* \"#utility.yul\":19657:19750   */\n      tag_395\n        /* \"#utility.yul\":19746:19749   */\n      dup3\n        /* \"#utility.yul\":19657:19750   */\n      tag_183\n      jump\t// in\n    tag_395:\n        /* \"#utility.yul\":19775:19777   */\n      0x20\n        /* \"#utility.yul\":19770:19773   */\n      dup3\n        /* \"#utility.yul\":19766:19778   */\n      add\n        /* \"#utility.yul\":19759:19778   */\n      swap1\n      pop\n        /* \"#utility.yul\":19418:19784   */\n      swap2\n      swap1\n      pop\n      jump\t// out\n        /* \"#utility.yul\":19790:20209   */\n    tag_87:\n        /* \"#utility.yul\":19956:19960   */\n      0x00\n        /* \"#utility.yul\":19994:19996   */\n      0x20\n        /* \"#utility.yul\":19983:19992   */\n      dup3\n        /* \"#utility.yul\":19979:19997   */\n      add\n        /* \"#utility.yul\":19971:19997   */\n      swap1\n      pop\n        /* \"#utility.yul\":20043:20052   */\n      dup2\n        /* \"#utility.yul\":20037:20041   */\n      dup2\n        /* \"#utility.yul\":20033:20053   */\n      sub\n        /* \"#utility.yul\":20029:20030   */\n      0x00\n        /* \"#utility.yul\":20018:20027   */\n      dup4\n        /* \"#utility.yul\":20014:20031   */\n      add\n        /* \"#utility.yul\":20007:20054   */\n      mstore\n        /* \"#utility.yul\":20071:20202   */\n      tag_397\n        /* \"#utility.yul\":20197:20201   */\n      dup2\n        /* \"#utility.yul\":20071:20202   */\n      tag_184\n      jump\t// in\n    tag_397:\n        /* \"#utility.yul\":20063:20202   */\n      swap1\n      pop\n        /* \"#utility.yul\":19790:20209   */\n      swap2\n      swap1\n      pop\n      jump\t// out\n        /* \"#utility.yul\":20215:20442   */\n    tag_185:\n        /* \"#utility.yul\":20355:20389   */\n      0x5061796d656e7420616d6f756e74206d75737420626520677265617465722074\n        /* \"#utility.yul\":20351:20352   */\n      0x00\n        /* \"#utility.yul\":20343:20349   */\n      dup3\n        /* \"#utility.yul\":20339:20353   */\n      add\n        /* \"#utility.yul\":20332:20390   */\n      mstore\n        /* \"#utility.yul\":20424:20434   */\n      0x68616e207a65726f000000000000000000000000000000000000000000000000\n        /* \"#utility.yul\":20419:20421   */\n      0x20\n        /* \"#utility.yul\":20411:20417   */\n      dup3\n        /* \"#utility.yul\":20407:20422   */\n      add\n        /* \"#utility.yul\":20400:20435   */\n      mstore\n        /* \"#utility.yul\":20215:20442   */\n      pop\n      jump\t// out\n        /* \"#utility.yul\":20448:20814   */\n    tag_186:\n        /* \"#utility.yul\":20590:20593   */\n      0x00\n        /* \"#utility.yul\":20611:20678   */\n      tag_400\n        /* \"#utility.yul\":20675:20677   */\n      0x28\n        /* \"#utility.yul\":20670:20673   */\n      dup4\n        /* \"#utility.yul\":20611:20678   */\n      tag_148\n      jump\t// in\n    tag_400:\n        /* \"#utility.yul\":20604:20678   */\n      swap2\n      pop\n        /* \"#utility.yul\":20687:20780   */\n      tag_401\n        /* \"#utility.yul\":20776:20779   */\n      dup3\n        /* \"#utility.yul\":20687:20780   */\n      tag_185\n      jump\t// in\n    tag_401:\n        /* \"#utility.yul\":20805:20807   */\n      0x40\n        /* \"#utility.yul\":20800:20803   */\n      dup3\n        /* \"#utility.yul\":20796:20808   */\n      add\n        /* \"#utility.yul\":20789:20808   */\n      swap1\n      pop\n        /* \"#utility.yul\":20448:20814   */\n      swap2\n      swap1\n      pop\n      jump\t// out\n        /* \"#utility.yul\":20820:21239   */\n    tag_90:\n        /* \"#utility.yul\":20986:20990   */\n      0x00\n        /* \"#utility.yul\":21024:21026   */\n      0x20\n        /* \"#utility.yul\":21013:21022   */\n      dup3\n        /* \"#utility.yul\":21009:21027   */\n      add\n        /* \"#utility.yul\":21001:21027   */\n      swap1\n      pop\n        /* \"#utility.yul\":21073:21082   */\n      dup2\n        /* \"#utility.yul\":21067:21071   */\n      dup2\n        /* \"#utility.yul\":21063:21083   */\n      sub\n        /* \"#utility.yul\":21059:21060   */\n      0x00\n        /* \"#utility.yul\":21048:21057   */\n      dup4\n        /* \"#utility.yul\":21044:21061   */\n      add\n        /* \"#utility.yul\":21037:21084   */\n      mstore\n        /* \"#utility.yul\":21101:21232   */\n      tag_403\n        /* \"#utility.yul\":21227:21231   */\n      dup2\n        /* \"#utility.yul\":21101:21232   */\n      tag_186\n      jump\t// in\n    tag_403:\n        /* \"#utility.yul\":21093:21232   */\n      swap1\n      pop\n        /* \"#utility.yul\":20820:21239   */\n      swap2\n      swap1\n      pop\n      jump\t// out\n        /* \"#utility.yul\":21245:21687   */\n    tag_92:\n        /* \"#utility.yul\":21394:21398   */\n      0x00\n        /* \"#utility.yul\":21432:21434   */\n      0x60\n        /* \"#utility.yul\":21421:21430   */\n      dup3\n        /* \"#utility.yul\":21417:21435   */\n      add\n        /* \"#utility.yul\":21409:21435   */\n      swap1\n      pop\n        /* \"#utility.yul\":21445:21516   */\n      tag_405\n        /* \"#utility.yul\":21513:21514   */\n      0x00\n        /* \"#utility.yul\":21502:21511   */\n      dup4\n        /* \"#utility.yul\":21498:21515   */\n      add\n        /* \"#utility.yul\":21489:21495   */\n      dup7\n        /* \"#utility.yul\":21445:21516   */\n      tag_156\n      jump\t// in\n    tag_405:\n        /* \"#utility.yul\":21526:21598   */\n      tag_406\n        /* \"#utility.yul\":21594:21596   */\n      0x20\n        /* \"#utility.yul\":21583:21592   */\n      dup4\n        /* \"#utility.yul\":21579:21597   */\n      add\n        /* \"#utility.yul\":21570:21576   */\n      dup6\n        /* \"#utility.yul\":21526:21598   */\n      tag_156\n      jump\t// in\n    tag_406:\n        /* \"#utility.yul\":21608:21680   */\n      tag_407\n        /* \"#utility.yul\":21676:21678   */\n      0x40\n        /* \"#utility.yul\":21665:21674   */\n      dup4\n        /* \"#utility.yul\":21661:21679   */\n      add\n        /* \"#utility.yul\":21652:21658   */\n      dup5\n        /* \"#utility.yul\":21608:21680   */\n      tag_157\n      jump\t// in\n    tag_407:\n        /* \"#utility.yul\":21245:21687   */\n      swap5\n      swap4\n      pop\n      pop\n      pop\n      pop\n      jump\t// out\n        /* \"#utility.yul\":21693:21809   */\n    tag_187:\n        /* \"#utility.yul\":21763:21784   */\n      tag_409\n        /* \"#utility.yul\":21778:21783   */\n      dup2\n        /* \"#utility.yul\":21763:21784   */\n      tag_151\n      jump\t// in\n    tag_409:\n        /* \"#utility.yul\":21756:21761   */\n      dup2\n        /* \"#utility.yul\":21753:21785   */\n      eq\n        /* \"#utility.yul\":21743:21803   */\n      tag_410\n      jumpi\n        /* \"#utility.yul\":21799:21800   */\n      0x00\n        /* \"#utility.yul\":21796:21797   */\n      0x00\n        /* \"#utility.yul\":21789:21801   */\n      revert\n        /* \"#utility.yul\":21743:21803   */\n    tag_410:\n        /* \"#utility.yul\":21693:21809   */\n      pop\n      jump\t// out\n        /* \"#utility.yul\":21815:21952   */\n    tag_188:\n        /* \"#utility.yul\":21869:21874   */\n      0x00\n        /* \"#utility.yul\":21900:21906   */\n      dup2\n        /* \"#utility.yul\":21894:21907   */\n      mload\n        /* \"#utility.yul\":21885:21907   */\n      swap1\n      pop\n        /* \"#utility.yul\":21916:21946   */\n      tag_412\n        /* \"#utility.yul\":21940:21945   */\n      dup2\n        /* \"#utility.yul\":21916:21946   */\n      tag_187\n      jump\t// in\n    tag_412:\n        /* \"#utility.yul\":21815:21952   */\n      swap3\n      swap2\n      pop\n      pop\n      jump\t// out\n        /* \"#utility.yul\":21958:22303   */\n    tag_96:\n        /* \"#utility.yul\":22025:22031   */\n      0x00\n        /* \"#utility.yul\":22074:22076   */\n      0x20\n        /* \"#utility.yul\":22062:22071   */\n      dup3\n        /* \"#utility.yul\":22053:22060   */\n      dup5\n        /* \"#utility.yul\":22049:22072   */\n      sub\n        /* \"#utility.yul\":22045:22077   */\n      slt\n        /* \"#utility.yul\":22042:22161   */\n      iszero\n      tag_414\n      jumpi\n        /* \"#utility.yul\":22080:22159   */\n      tag_415\n      tag_126\n      jump\t// in\n    tag_415:\n        /* \"#utility.yul\":22042:22161   */\n    tag_414:\n        /* \"#utility.yul\":22200:22201   */\n      0x00\n        /* \"#utility.yul\":22225:22286   */\n      tag_416\n        /* \"#utility.yul\":22278:22285   */\n      dup5\n        /* \"#utility.yul\":22269:22275   */\n      dup3\n        /* \"#utility.yul\":22258:22267   */\n      dup6\n        /* \"#utility.yul\":22254:22276   */\n      add\n        /* \"#utility.yul\":22225:22286   */\n      tag_188\n      jump\t// in\n    tag_416:\n        /* \"#utility.yul\":22215:22286   */\n      swap2\n      pop\n        /* \"#utility.yul\":22171:22296   */\n      pop\n        /* \"#utility.yul\":21958:22303   */\n      swap3\n      swap2\n      pop\n      pop\n      jump\t// out\n        /* \"#utility.yul\":22309:22531   */\n    tag_98:\n        /* \"#utility.yul\":22402:22406   */\n      0x00\n        /* \"#utility.yul\":22440:22442   */\n      0x20\n        /* \"#utility.yul\":22429:22438   */\n      dup3\n        /* \"#utility.yul\":22425:22443   */\n      add\n        /* \"#utility.yul\":22417:22443   */\n      swap1\n      pop\n        /* \"#utility.yul\":22453:22524   */\n      tag_418\n        /* \"#utility.yul\":22521:22522   */\n      0x00\n        /* \"#utility.yul\":22510:22519   */\n      dup4\n        /* \"#utility.yul\":22506:22523   */\n      add\n        /* \"#utility.yul\":22497:22503   */\n      dup5\n        /* \"#utility.yul\":22453:22524   */\n      tag_157\n      jump\t// in\n    tag_418:\n        /* \"#utility.yul\":22309:22531   */\n      swap3\n      swap2\n      pop\n      pop\n      jump\t// out\n        /* \"#utility.yul\":22537:22767   */\n    tag_189:\n        /* \"#utility.yul\":22677:22711   */\n      0x4f6e6c79206369747920617574686f726974792063616e20706572666f726d20\n        /* \"#utility.yul\":22673:22674   */\n      0x00\n        /* \"#utility.yul\":22665:22671   */\n      dup3\n        /* \"#utility.yul\":22661:22675   */\n      add\n        /* \"#utility.yul\":22654:22712   */\n      mstore\n        /* \"#utility.yul\":22746:22759   */\n      0x7468697320616374696f6e000000000000000000000000000000000000000000\n        /* \"#utility.yul\":22741:22743   */\n      0x20\n        /* \"#utility.yul\":22733:22739   */\n      dup3\n        /* \"#utility.yul\":22729:22744   */\n      add\n        /* \"#utility.yul\":22722:22760   */\n      mstore\n        /* \"#utility.yul\":22537:22767   */\n      pop\n      jump\t// out\n        /* \"#utility.yul\":22773:23139   */\n    tag_190:\n        /* \"#utility.yul\":22915:22918   */\n      0x00\n        /* \"#utility.yul\":22936:23003   */\n      tag_421\n        /* \"#utility.yul\":23000:23002   */\n      0x2b\n        /* \"#utility.yul\":22995:22998   */\n      dup4\n        /* \"#utility.yul\":22936:23003   */\n      tag_148\n      jump\t// in\n    tag_421:\n        /* \"#utility.yul\":22929:23003   */\n      swap2\n      pop\n        /* \"#utility.yul\":23012:23105   */\n      tag_422\n        /* \"#utility.yul\":23101:23104   */\n      dup3\n        /* \"#utility.yul\":23012:23105   */\n      tag_189\n      jump\t// in\n    tag_422:\n        /* \"#utility.yul\":23130:23132   */\n      0x40\n        /* \"#utility.yul\":23125:23128   */\n      dup3\n        /* \"#utility.yul\":23121:23133   */\n      add\n        /* \"#utility.yul\":23114:23133   */\n      swap1\n      pop\n        /* \"#utility.yul\":22773:23139   */\n      swap2\n      swap1\n      pop\n      jump\t// out\n        /* \"#utility.yul\":23145:23564   */\n    tag_110:\n        /* \"#utility.yul\":23311:23315   */\n      0x00\n        /* \"#utility.yul\":23349:23351   */\n      0x20\n        /* \"#utility.yul\":23338:23347   */\n      dup3\n        /* \"#utility.yul\":23334:23352   */\n      add\n        /* \"#utility.yul\":23326:23352   */\n      swap1\n      pop\n        /* \"#utility.yul\":23398:23407   */\n      dup2\n        /* \"#utility.yul\":23392:23396   */\n      dup2\n        /* \"#utility.yul\":23388:23408   */\n      sub\n        /* \"#utility.yul\":23384:23385   */\n      0x00\n        /* \"#utility.yul\":23373:23382   */\n      dup4\n        /* \"#utility.yul\":23369:23386   */\n      add\n        /* \"#utility.yul\":23362:23409   */\n      mstore\n        /* \"#utility.yul\":23426:23557   */\n      tag_424\n        /* \"#utility.yul\":23552:23556   */\n      dup2\n        /* \"#utility.yul\":23426:23557   */\n      tag_190\n      jump\t// in\n    tag_424:\n        /* \"#utility.yul\":23418:23557   */\n      swap1\n      pop\n        /* \"#utility.yul\":23145:23564   */\n      swap2\n      swap1\n      pop\n      jump\t// out\n        /* \"#utility.yul\":23570:23747   */\n    tag_191:\n        /* \"#utility.yul\":23710:23739   */\n      0x5061726b696e672073706f7420616c7265616479206578697374730000000000\n        /* \"#utility.yul\":23706:23707   */\n      0x00\n        /* \"#utility.yul\":23698:23704   */\n      dup3\n        /* \"#utility.yul\":23694:23708   */\n      add\n        /* \"#utility.yul\":23687:23740   */\n      mstore\n        /* \"#utility.yul\":23570:23747   */\n      pop\n      jump\t// out\n        /* \"#utility.yul\":23753:24119   */\n    tag_192:\n        /* \"#utility.yul\":23895:23898   */\n      0x00\n        /* \"#utility.yul\":23916:23983   */\n      tag_427\n        /* \"#utility.yul\":23980:23982   */\n      0x1b\n        /* \"#utility.yul\":23975:23978   */\n      dup4\n        /* \"#utility.yul\":23916:23983   */\n      tag_148\n      jump\t// in\n    tag_427:\n        /* \"#utility.yul\":23909:23983   */\n      swap2\n      pop\n        /* \"#utility.yul\":23992:24085   */\n      tag_428\n        /* \"#utility.yul\":24081:24084   */\n      dup3\n        /* \"#utility.yul\":23992:24085   */\n      tag_191\n      jump\t// in\n    tag_428:\n        /* \"#utility.yul\":24110:24112   */\n      0x20\n        /* \"#utility.yul\":24105:24108   */\n      dup3\n        /* \"#utility.yul\":24101:24113   */\n      add\n        /* \"#utility.yul\":24094:24113   */\n      swap1\n      pop\n        /* \"#utility.yul\":23753:24119   */\n      swap2\n      swap1\n      pop\n      jump\t// out\n        /* \"#utility.yul\":24125:24544   */\n    tag_114:\n        /* \"#utility.yul\":24291:24295   */\n      0x00\n        /* \"#utility.yul\":24329:24331   */\n      0x20\n        /* \"#utility.yul\":24318:24327   */\n      dup3\n        /* \"#utility.yul\":24314:24332   */\n      add\n        /* \"#utility.yul\":24306:24332   */\n      swap1\n      pop\n        /* \"#utility.yul\":24378:24387   */\n      dup2\n        /* \"#utility.yul\":24372:24376   */\n      dup2\n        /* \"#utility.yul\":24368:24388   */\n      sub\n        /* \"#utility.yul\":24364:24365   */\n      0x00\n        /* \"#utility.yul\":24353:24362   */\n      dup4\n        /* \"#utility.yul\":24349:24366   */\n      add\n        /* \"#utility.yul\":24342:24389   */\n      mstore\n        /* \"#utility.yul\":24406:24537   */\n      tag_430\n        /* \"#utility.yul\":24532:24536   */\n      dup2\n        /* \"#utility.yul\":24406:24537   */\n      tag_192\n      jump\t// in\n    tag_430:\n        /* \"#utility.yul\":24398:24537   */\n      swap1\n      pop\n        /* \"#utility.yul\":24125:24544   */\n      swap2\n      swap1\n      pop\n      jump\t// out\n        /* \"#utility.yul\":24550:24724   */\n    tag_193:\n        /* \"#utility.yul\":24690:24716   */\n      0x4c6f636174696f6e2063616e6e6f7420626520656d7074790000000000000000\n        /* \"#utility.yul\":24686:24687   */\n      0x00\n        /* \"#utility.yul\":24678:24684   */\n      dup3\n        /* \"#utility.yul\":24674:24688   */\n      add\n        /* \"#utility.yul\":24667:24717   */\n      mstore\n        /* \"#utility.yul\":24550:24724   */\n      pop\n      jump\t// out\n        /* \"#utility.yul\":24730:25096   */\n    tag_194:\n        /* \"#utility.yul\":24872:24875   */\n      0x00\n        /* \"#utility.yul\":24893:24960   */\n      tag_433\n        /* \"#utility.yul\":24957:24959   */\n      0x18\n        /* \"#utility.yul\":24952:24955   */\n      dup4\n        /* \"#utility.yul\":24893:24960   */\n      tag_148\n      jump\t// in\n    tag_433:\n        /* \"#utility.yul\":24886:24960   */\n      swap2\n      pop\n        /* \"#utility.yul\":24969:25062   */\n      tag_434\n        /* \"#utility.yul\":25058:25061   */\n      dup3\n        /* \"#utility.yul\":24969:25062   */\n      tag_193\n      jump\t// in\n    tag_434:\n        /* \"#utility.yul\":25087:25089   */\n      0x20\n        /* \"#utility.yul\":25082:25085   */\n      dup3\n        /* \"#utility.yul\":25078:25090   */\n      add\n        /* \"#utility.yul\":25071:25090   */\n      swap1\n      pop\n        /* \"#utility.yul\":24730:25096   */\n      swap2\n      swap1\n      pop\n      jump\t// out\n        /* \"#utility.yul\":25102:25521   */\n    tag_117:\n        /* \"#utility.yul\":25268:25272   */\n      0x00\n        /* \"#utility.yul\":25306:25308   */\n      0x20\n        /* \"#utility.yul\":25295:25304   */\n      dup3\n        /* \"#utility.yul\":25291:25309   */\n      add\n        /* \"#utility.yul\":25283:25309   */\n      swap1\n      pop\n        /* \"#utility.yul\":25355:25364   */\n      dup2\n        /* \"#utility.yul\":25349:25353   */\n      dup2\n        /* \"#utility.yul\":25345:25365   */\n      sub\n        /* \"#utility.yul\":25341:25342   */\n      0x00\n        /* \"#utility.yul\":25330:25339   */\n      dup4\n        /* \"#utility.yul\":25326:25343   */\n      add\n        /* \"#utility.yul\":25319:25366   */\n      mstore\n        /* \"#utility.yul\":25383:25514   */\n      tag_436\n        /* \"#utility.yul\":25509:25513   */\n      dup2\n        /* \"#utility.yul\":25383:25514   */\n      tag_194\n      jump\t// in\n    tag_436:\n        /* \"#utility.yul\":25375:25514   */\n      swap1\n      pop\n        /* \"#utility.yul\":25102:25521   */\n      swap2\n      swap1\n      pop\n      jump\t// out\n\n    auxdata: 0xa264697066735822122027a4cd6bab0868d41af3f7ae3edb4bf03947b3141f12a25194711e4e697efee364736f6c634300081e0033\n}\n",
				"bytecode": {
					"linkReferences": {},
					"object": "608060405234801561000f575f5ffd5b50604051611c99380380611c9983398181016040528101906100319190610114565b335f5f6101000a81548173ffffffffffffffffffffffffffffffffffffffff021916908373ffffffffffffffffffffffffffffffffffffffff1602179055508060015f6101000a81548173ffffffffffffffffffffffffffffffffffffffff021916908373ffffffffffffffffffffffffffffffffffffffff1602179055505061013f565b5f5ffd5b5f73ffffffffffffffffffffffffffffffffffffffff82169050919050565b5f6100e3826100ba565b9050919050565b6100f3816100d9565b81146100fd575f5ffd5b50565b5f8151905061010e816100ea565b92915050565b5f60208284031215610129576101286100b6565b5b5f61013684828501610100565b91505092915050565b611b4d8061014c5f395ff3fe608060405234801561000f575f5ffd5b5060043610610091575f3560e01c8063728c34d711610064578063728c34d71461011c578063a127dcd314610138578063c36809e714610154578063f12d4f0914610172578063f5defcd31461018e57610091565b806305f4804c14610095578063309f225d146100b15780634aa60186146100cf578063642a79eb14610100575b5f5ffd5b6100af60048036038101906100aa9190610fd6565b6101c1565b005b6100b961036d565b6040516100c69190611097565b60405180910390f35b6100e960048036038101906100e491906110eb565b610392565b6040516100f7929190611190565b60405180910390f35b61011a600480360381019061011591906111f1565b610444565b005b6101366004803603810190610131919061121c565b61064a565b005b610152600480360381019061014d91906111f1565b610921565b005b61015c610b53565b6040516101699190611269565b60405180910390f35b61018c60048036038101906101879190611282565b610b77565b005b6101a860048036038101906101a391906111f1565b610dab565b6040516101b894939291906112eb565b60405180910390f35b60025f3373ffffffffffffffffffffffffffffffffffffffff1673ffffffffffffffffffffffffffffffffffffffff1681526020019081526020015f206001015f9054906101000a900460ff161561024e576040517f08c379a00000000000000000000000000000000000000000000000000000000081526004016102459061137f565b60405180910390fd5b5f815111610291576040517f08c379a0000000000000000000000000000000000000000000000000000000008152600401610288906113e7565b60405180910390fd5b60405180604001604052808281526020016001151581525060025f3373ffffffffffffffffffffffffffffffffffffffff1673ffffffffffffffffffffffffffffffffffffffff1681526020019081526020015f205f820151815f0190816102f991906115f9565b506020820151816001015f6101000a81548160ff0219169083151502179055509050503373ffffffffffffffffffffffffffffffffffffffff167f9b956fafd6b420070aaa3307dcf792c7a34a3118d4271ee745e1472b281a2f1f8260405161036291906116c8565b60405180910390a250565b60015f9054906101000a900473ffffffffffffffffffffffffffffffffffffffff1681565b6002602052805f5260405f205f91509050805f0180546103b190611432565b80601f01602080910402602001604051908101604052809291908181526020018280546103dd90611432565b80156104285780601f106103ff57610100808354040283529160200191610428565b820191905f5260205f20905b81548152906001019060200180831161040b57829003601f168201915b505050505090806001015f9054906101000a900460ff16905082565b60025f3373ffffffffffffffffffffffffffffffffffffffff1673ffffffffffffffffffffffffffffffffffffffff1681526020019081526020015f206001015f9054906101000a900460ff166104d0576040517f08c379a00000000000000000000000000000000000000000000000000000000081526004016104c790611732565b60405180910390fd5b5f60035f8381526020019081526020015f205f015403610525576040517f08c379a000000000000000000000000000000000000000000000000000000000815260040161051c9061179a565b60405180910390fd5b60035f8281526020019081526020015f206002015f9054906101000a900460ff16610585576040517f08c379a000000000000000000000000000000000000000000000000000000000815260040161057c90611802565b60405180910390fd5b5f60035f8381526020019081526020015f206002015f6101000a81548160ff0219169083151502179055503360035f8381526020019081526020015f2060020160016101000a81548173ffffffffffffffffffffffffffffffffffffffff021916908373ffffffffffffffffffffffffffffffffffffffff160217905550803373ffffffffffffffffffffffffffffffffffffffff167ff188b1697a1957c8cf926acf3bd65c4bbfa00e37d369a477738e28c39aee097d60405160405180910390a350565b60025f3373ffffffffffffffffffffffffffffffffffffffff1673ffffffffffffffffffffffffffffffffffffffff1681526020019081526020015f206001015f9054906101000a900460ff166106d6576040517f08c379a00000000000000000000000000000000000000000000000000000000081526004016106cd90611732565b60405180910390fd5b5f60035f8481526020019081526020015f205f01540361072b576040517f08c379a00000000000000000000000000000000000000000000000000000000081526004016107229061179a565b60405180910390fd5b3373ffffffffffffffffffffffffffffffffffffffff1660035f8481526020019081526020015f2060020160019054906101000a900473ffffffffffffffffffffffffffffffffffffffff1673ffffffffffffffffffffffffffffffffffffffff16146107cd576040517f08c379a00000000000000000000000000000000000000000000000000000000081526004016107c49061186a565b60405180910390fd5b5f811161080f576040517f08c379a0000000000000000000000000000000000000000000000000000000008152600401610806906118f8565b60405180910390fd5b60015f9054906101000a900473ffffffffffffffffffffffffffffffffffffffff1673ffffffffffffffffffffffffffffffffffffffff166323b872dd335f5f9054906101000a900473ffffffffffffffffffffffffffffffffffffffff16846040518463ffffffff1660e01b815260040161088d93929190611916565b6020604051808303815f875af11580156108a9573d5f5f3e3d5ffd5b505050506040513d601f19601f820116820180604052508101906108cd9190611975565b50813373ffffffffffffffffffffffffffffffffffffffff167fe1f3e4d81d3488956ba3579a4ab6f949d3abc6e4d8b93199a9a5dac4671103778360405161091591906119a0565b60405180910390a35050565b60025f3373ffffffffffffffffffffffffffffffffffffffff1673ffffffffffffffffffffffffffffffffffffffff1681526020019081526020015f206001015f9054906101000a900460ff166109ad576040517f08c379a00000000000000000000000000000000000000000000000000000000081526004016109a490611732565b60405180910390fd5b5f60035f8381526020019081526020015f205f015403610a02576040517f08c379a00000000000000000000000000000000000000000000000000000000081526004016109f99061179a565b60405180910390fd5b3373ffffffffffffffffffffffffffffffffffffffff1660035f8381526020019081526020015f2060020160019054906101000a900473ffffffffffffffffffffffffffffffffffffffff1673ffffffffffffffffffffffffffffffffffffffff1614610aa4576040517f08c379a0000000000000000000000000000000000000000000000000000000008152600401610a9b9061186a565b60405180910390fd5b600160035f8381526020019081526020015f206002015f6101000a81548160ff0219169083151502179055505f60035f8381526020019081526020015f2060020160016101000a81548173ffffffffffffffffffffffffffffffffffffffff021916908373ffffffffffffffffffffffffffffffffffffffff160217905550807fae4b5c6d3ebba1a8d3f627e4fc926a0fd83c51769b8f1eb37356bbb02f45275e60405160405180910390a250565b5f5f9054906101000a900473ffffffffffffffffffffffffffffffffffffffff1681565b5f5f9054906101000a900473ffffffffffffffffffffffffffffffffffffffff1673ffffffffffffffffffffffffffffffffffffffff163373ffffffffffffffffffffffffffffffffffffffff1614610c05576040517f08c379a0000000000000000000000000000000000000000000000000000000008152600401610bfc90611a29565b60405180910390fd5b5f60035f8481526020019081526020015f205f015414610c5a576040517f08c379a0000000000000000000000000000000000000000000000000000000008152600401610c5190611a91565b60405180910390fd5b5f815111610c9d576040517f08c379a0000000000000000000000000000000000000000000000000000000008152600401610c9490611af9565b60405180910390fd5b60405180608001604052808381526020018281526020016001151581526020015f73ffffffffffffffffffffffffffffffffffffffff1681525060035f8481526020019081526020015f205f820151815f01556020820151816001019081610d0591906115f9565b506040820151816002015f6101000a81548160ff02191690831515021790555060608201518160020160016101000a81548173ffffffffffffffffffffffffffffffffffffffff021916908373ffffffffffffffffffffffffffffffffffffffff160217905550905050817fdd3fb50a435b63cd06a48cc218b64ede0ad21819d0f89b6e7625fed8d1eb699682604051610d9f91906116c8565b60405180910390a25050565b6003602052805f5260405f205f91509050805f015490806001018054610dd090611432565b80601f0160208091040260200160405190810160405280929190818152602001828054610dfc90611432565b8015610e475780601f10610e1e57610100808354040283529160200191610e47565b820191905f5260205f20905b815481529060010190602001808311610e2a57829003601f168201915b505050505090806002015f9054906101000a900460ff16908060020160019054906101000a900473ffffffffffffffffffffffffffffffffffffffff16905084565b5f604051905090565b5f5ffd5b5f5ffd5b5f5ffd5b5f5ffd5b5f601f19601f8301169050919050565b7f4e487b71000000000000000000000000000000000000000000000000000000005f52604160045260245ffd5b610ee882610ea2565b810181811067ffffffffffffffff82111715610f0757610f06610eb2565b5b80604052505050565b5f610f19610e89565b9050610f258282610edf565b919050565b5f67ffffffffffffffff821115610f4457610f43610eb2565b5b610f4d82610ea2565b9050602081019050919050565b828183375f83830152505050565b5f610f7a610f7584610f2a565b610f10565b905082815260208101848484011115610f9657610f95610e9e565b5b610fa1848285610f5a565b509392505050565b5f82601f830112610fbd57610fbc610e9a565b5b8135610fcd848260208601610f68565b91505092915050565b5f60208284031215610feb57610fea610e92565b5b5f82013567ffffffffffffffff81111561100857611007610e96565b5b61101484828501610fa9565b91505092915050565b5f73ffffffffffffffffffffffffffffffffffffffff82169050919050565b5f819050919050565b5f61105f61105a6110558461101d565b61103c565b61101d565b9050919050565b5f61107082611045565b9050919050565b5f61108182611066565b9050919050565b61109181611077565b82525050565b5f6020820190506110aa5f830184611088565b92915050565b5f6110ba8261101d565b9050919050565b6110ca816110b0565b81146110d4575f5ffd5b50565b5f813590506110e5816110c1565b92915050565b5f60208284031215611100576110ff610e92565b5b5f61110d848285016110d7565b91505092915050565b5f81519050919050565b5f82825260208201905092915050565b8281835e5f83830152505050565b5f61114882611116565b6111528185611120565b9350611162818560208601611130565b61116b81610ea2565b840191505092915050565b5f8115159050919050565b61118a81611176565b82525050565b5f6040820190508181035f8301526111a8818561113e565b90506111b76020830184611181565b9392505050565b5f819050919050565b6111d0816111be565b81146111da575f5ffd5b50565b5f813590506111eb816111c7565b92915050565b5f6020828403121561120657611205610e92565b5b5f611213848285016111dd565b91505092915050565b5f5f6040838503121561123257611231610e92565b5b5f61123f858286016111dd565b9250506020611250858286016111dd565b9150509250929050565b611263816110b0565b82525050565b5f60208201905061127c5f83018461125a565b92915050565b5f5f6040838503121561129857611297610e92565b5b5f6112a5858286016111dd565b925050602083013567ffffffffffffffff8111156112c6576112c5610e96565b5b6112d285828601610fa9565b9150509250929050565b6112e5816111be565b82525050565b5f6080820190506112fe5f8301876112dc565b8181036020830152611310818661113e565b905061131f6040830185611181565b61132c606083018461125a565b95945050505050565b7f44726976657220616c72656164792072656769737465726564000000000000005f82015250565b5f611369601983611120565b915061137482611335565b602082019050919050565b5f6020820190508181035f8301526113968161135d565b9050919050565b7f4e616d652063616e6e6f7420626520656d7074790000000000000000000000005f82015250565b5f6113d1601483611120565b91506113dc8261139d565b602082019050919050565b5f6020820190508181035f8301526113fe816113c5565b9050919050565b7f4e487b71000000000000000000000000000000000000000000000000000000005f52602260045260245ffd5b5f600282049050600182168061144957607f821691505b60208210810361145c5761145b611405565b5b50919050565b5f819050815f5260205f209050919050565b5f6020601f8301049050919050565b5f82821b905092915050565b5f600883026114be7fffffffffffffffffffffffffffffffffffffffffffffffffffffffffffffffff82611483565b6114c88683611483565b95508019841693508086168417925050509392505050565b5f6114fa6114f56114f0846111be565b61103c565b6111be565b9050919050565b5f819050919050565b611513836114e0565b61152761151f82611501565b84845461148f565b825550505050565b5f5f905090565b61153e61152f565b61154981848461150a565b505050565b5b8181101561156c576115615f82611536565b60018101905061154f565b5050565b601f8211156115b15761158281611462565b61158b84611474565b8101602085101561159a578190505b6115ae6115a685611474565b83018261154e565b50505b505050565b5f82821c905092915050565b5f6115d15f19846008026115b6565b1980831691505092915050565b5f6115e983836115c2565b9150826002028217905092915050565b61160282611116565b67ffffffffffffffff81111561161b5761161a610eb2565b5b6116258254611432565b611630828285611570565b5f60209050601f831160018114611661575f841561164f578287015190505b61165985826115de565b8655506116c0565b601f19841661166f86611462565b5f5b8281101561169657848901518255600182019150602085019450602081019050611671565b868310156116b357848901516116af601f8916826115c2565b8355505b6001600288020188555050505b505050505050565b5f6020820190508181035f8301526116e0818461113e565b905092915050565b7f447269766572206e6f74207265676973746572656400000000000000000000005f82015250565b5f61171c601583611120565b9150611727826116e8565b602082019050919050565b5f6020820190508181035f83015261174981611710565b9050919050565b7f5061726b696e672073706f7420646f6573206e6f7420657869737400000000005f82015250565b5f611784601b83611120565b915061178f82611750565b602082019050919050565b5f6020820190508181035f8301526117b181611778565b9050919050565b7f5061726b696e672073706f74206973206e6f7420617661696c61626c650000005f82015250565b5f6117ec601d83611120565b91506117f7826117b8565b602082019050919050565b5f6020820190508181035f830152611819816117e0565b9050919050565b7f4e6f7420796f75722073706f74000000000000000000000000000000000000005f82015250565b5f611854600d83611120565b915061185f82611820565b602082019050919050565b5f6020820190508181035f83015261188181611848565b9050919050565b7f5061796d656e7420616d6f756e74206d757374206265206772656174657220745f8201527f68616e207a65726f000000000000000000000000000000000000000000000000602082015250565b5f6118e2602883611120565b91506118ed82611888565b604082019050919050565b5f6020820190508181035f83015261190f816118d6565b9050919050565b5f6060820190506119295f83018661125a565b611936602083018561125a565b61194360408301846112dc565b949350505050565b61195481611176565b811461195e575f5ffd5b50565b5f8151905061196f8161194b565b92915050565b5f6020828403121561198a57611989610e92565b5b5f61199784828501611961565b91505092915050565b5f6020820190506119b35f8301846112dc565b92915050565b7f4f6e6c79206369747920617574686f726974792063616e20706572666f726d205f8201527f7468697320616374696f6e000000000000000000000000000000000000000000602082015250565b5f611a13602b83611120565b9150611a1e826119b9565b604082019050919050565b5f6020820190508181035f830152611a4081611a07565b9050919050565b7f5061726b696e672073706f7420616c72656164792065786973747300000000005f82015250565b5f611a7b601b83611120565b9150611a8682611a47565b602082019050919050565b5f6020820190508181035f830152611aa881611a6f565b9050919050565b7f4c6f636174696f6e2063616e6e6f7420626520656d70747900000000000000005f82015250565b5f611ae3601883611120565b9150611aee82611aaf565b602082019050919050565b5f6020820190508181035f830152611b1081611ad7565b905091905056fea264697066735822122027a4cd6bab0868d41af3f7ae3edb4bf03947b3141f12a25194711e4e697efee364736f6c634300081e0033",
					"opcodes": "PUSH1 0x80 PUSH1 0x40 MSTORE CALLVALUE DUP1 ISZERO PUSH2 0xF JUMPI PUSH0 PUSH0 REVERT JUMPDEST POP PUSH1 0x40 MLOAD PUSH2 0x1C99 CODESIZE SUB DUP1 PUSH2 0x1C99 DUP4 CODECOPY DUP2 DUP2 ADD PUSH1 0x40 MSTORE DUP2 ADD SWAP1 PUSH2 0x31 SWAP2 SWAP1 PUSH2 0x114 JUMP JUMPDEST CALLER PUSH0 PUSH0 PUSH2 0x100 EXP DUP2 SLOAD DUP2 PUSH20 0xFFFFFFFFFFFFFFFFFFFFFFFFFFFFFFFFFFFFFFFF MUL NOT AND SWAP1 DUP4 PUSH20 0xFFFFFFFFFFFFFFFFFFFFFFFFFFFFFFFFFFFFFFFF AND MUL OR SWAP1 SSTORE POP DUP1 PUSH1 0x1 PUSH0 PUSH2 0x100 EXP DUP2 SLOAD DUP2 PUSH20 0xFFFFFFFFFFFFFFFFFFFFFFFFFFFFFFFFFFFFFFFF MUL NOT AND SWAP1 DUP4 PUSH20 0xFFFFFFFFFFFFFFFFFFFFFFFFFFFFFFFFFFFFFFFF AND MUL OR SWAP1 SSTORE POP POP PUSH2 0x13F JUMP JUMPDEST PUSH0 PUSH0 REVERT JUMPDEST PUSH0 PUSH20 0xFFFFFFFFFFFFFFFFFFFFFFFFFFFFFFFFFFFFFFFF DUP3 AND SWAP1 POP SWAP2 SWAP1 POP JUMP JUMPDEST PUSH0 PUSH2 0xE3 DUP3 PUSH2 0xBA JUMP JUMPDEST SWAP1 POP SWAP2 SWAP1 POP JUMP JUMPDEST PUSH2 0xF3 DUP2 PUSH2 0xD9 JUMP JUMPDEST DUP2 EQ PUSH2 0xFD JUMPI PUSH0 PUSH0 REVERT JUMPDEST POP JUMP JUMPDEST PUSH0 DUP2 MLOAD SWAP1 POP PUSH2 0x10E DUP2 PUSH2 0xEA JUMP JUMPDEST SWAP3 SWAP2 POP POP JUMP JUMPDEST PUSH0 PUSH1 0x20 DUP3 DUP5 SUB SLT ISZERO PUSH2 0x129 JUMPI PUSH2 0x128 PUSH2 0xB6 JUMP JUMPDEST JUMPDEST PUSH0 PUSH2 0x136 DUP5 DUP3 DUP6 ADD PUSH2 0x100 JUMP JUMPDEST SWAP2 POP POP SWAP3 SWAP2 POP POP JUMP JUMPDEST PUSH2 0x1B4D DUP1 PUSH2 0x14C PUSH0 CODECOPY PUSH0 RETURN INVALID PUSH1 0x80 PUSH1 0x40 MSTORE CALLVALUE DUP1 ISZERO PUSH2 0xF JUMPI PUSH0 PUSH0 REVERT JUMPDEST POP PUSH1 0x4 CALLDATASIZE LT PUSH2 0x91 JUMPI PUSH0 CALLDATALOAD PUSH1 0xE0 SHR DUP1 PUSH4 0x728C34D7 GT PUSH2 0x64 JUMPI DUP1 PUSH4 0x728C34D7 EQ PUSH2 0x11C JUMPI DUP1 PUSH4 0xA127DCD3 EQ PUSH2 0x138 JUMPI DUP1 PUSH4 0xC36809E7 EQ PUSH2 0x154 JUMPI DUP1 PUSH4 0xF12D4F09 EQ PUSH2 0x172 JUMPI DUP1 PUSH4 0xF5DEFCD3 EQ PUSH2 0x18E JUMPI PUSH2 0x91 JUMP JUMPDEST DUP1 PUSH4 0x5F4804C EQ PUSH2 0x95 JUMPI DUP1 PUSH4 0x309F225D EQ PUSH2 0xB1 JUMPI DUP1 PUSH4 0x4AA60186 EQ PUSH2 0xCF JUMPI DUP1 PUSH4 0x642A79EB EQ PUSH2 0x100 JUMPI JUMPDEST PUSH0 PUSH0 REVERT JUMPDEST PUSH2 0xAF PUSH1 0x4 DUP1 CALLDATASIZE SUB DUP2 ADD SWAP1 PUSH2 0xAA SWAP2 SWAP1 PUSH2 0xFD6 JUMP JUMPDEST PUSH2 0x1C1 JUMP JUMPDEST STOP JUMPDEST PUSH2 0xB9 PUSH2 0x36D JUMP JUMPDEST PUSH1 0x40 MLOAD PUSH2 0xC6 SWAP2 SWAP1 PUSH2 0x1097 JUMP JUMPDEST PUSH1 0x40 MLOAD DUP1 SWAP2 SUB SWAP1 RETURN JUMPDEST PUSH2 0xE9 PUSH1 0x4 DUP1 CALLDATASIZE SUB DUP2 ADD SWAP1 PUSH2 0xE4 SWAP2 SWAP1 PUSH2 0x10EB JUMP JUMPDEST PUSH2 0x392 JUMP JUMPDEST PUSH1 0x40 MLOAD PUSH2 0xF7 SWAP3 SWAP2 SWAP1 PUSH2 0x1190 JUMP JUMPDEST PUSH1 0x40 MLOAD DUP1 SWAP2 SUB SWAP1 RETURN JUMPDEST PUSH2 0x11A PUSH1 0x4 DUP1 CALLDATASIZE SUB DUP2 ADD SWAP1 PUSH2 0x115 SWAP2 SWAP1 PUSH2 0x11F1 JUMP JUMPDEST PUSH2 0x444 JUMP JUMPDEST STOP JUMPDEST PUSH2 0x136 PUSH1 0x4 DUP1 CALLDATASIZE SUB DUP2 ADD SWAP1 PUSH2 0x131 SWAP2 SWAP1 PUSH2 0x121C JUMP JUMPDEST PUSH2 0x64A JUMP JUMPDEST STOP JUMPDEST PUSH2 0x152 PUSH1 0x4 DUP1 CALLDATASIZE SUB DUP2 ADD SWAP1 PUSH2 0x14D SWAP2 SWAP1 PUSH2 0x11F1 JUMP JUMPDEST PUSH2 0x921 JUMP JUMPDEST STOP JUMPDEST PUSH2 0x15C PUSH2 0xB53 JUMP JUMPDEST PUSH1 0x40 MLOAD PUSH2 0x169 SWAP2 SWAP1 PUSH2 0x1269 JUMP JUMPDEST PUSH1 0x40 MLOAD DUP1 SWAP2 SUB SWAP1 RETURN JUMPDEST PUSH2 0x18C PUSH1 0x4 DUP1 CALLDATASIZE SUB DUP2 ADD SWAP1 PUSH2 0x187 SWAP2 SWAP1 PUSH2 0x1282 JUMP JUMPDEST PUSH2 0xB77 JUMP JUMPDEST STOP JUMPDEST PUSH2 0x1A8 PUSH1 0x4 DUP1 CALLDATASIZE SUB DUP2 ADD SWAP1 PUSH2 0x1A3 SWAP2 SWAP1 PUSH2 0x11F1 JUMP JUMPDEST PUSH2 0xDAB JUMP JUMPDEST PUSH1 0x40 MLOAD PUSH2 0x1B8 SWAP5 SWAP4 SWAP3 SWAP2 SWAP1 PUSH2 0x12EB JUMP JUMPDEST PUSH1 0x40 MLOAD DUP1 SWAP2 SUB SWAP1 RETURN JUMPDEST PUSH1 0x2 PUSH0 CALLER PUSH20 0xFFFFFFFFFFFFFFFFFFFFFFFFFFFFFFFFFFFFFFFF AND PUSH20 0xFFFFFFFFFFFFFFFFFFFFFFFFFFFFFFFFFFFFFFFF AND DUP2 MSTORE PUSH1 0x20 ADD SWAP1 DUP2 MSTORE PUSH1 0x20 ADD PUSH0 KECCAK256 PUSH1 0x1 ADD PUSH0 SWAP1 SLOAD SWAP1 PUSH2 0x100 EXP SWAP1 DIV PUSH1 0xFF AND ISZERO PUSH2 0x24E JUMPI PUSH1 0x40 MLOAD PUSH32 0x8C379A000000000000000000000000000000000000000000000000000000000 DUP2 MSTORE PUSH1 0x4 ADD PUSH2 0x245 SWAP1 PUSH2 0x137F JUMP JUMPDEST PUSH1 0x40 MLOAD DUP1 SWAP2 SUB SWAP1 REVERT JUMPDEST PUSH0 DUP2 MLOAD GT PUSH2 0x291 JUMPI PUSH1 0x40 MLOAD PUSH32 0x8C379A000000000000000000000000000000000000000000000000000000000 DUP2 MSTORE PUSH1 0x4 ADD PUSH2 0x288 SWAP1 PUSH2 0x13E7 JUMP JUMPDEST PUSH1 0x40 MLOAD DUP1 SWAP2 SUB SWAP1 REVERT JUMPDEST PUSH1 0x40 MLOAD DUP1 PUSH1 0x40 ADD PUSH1 0x40 MSTORE DUP1 DUP3 DUP2 MSTORE PUSH1 0x20 ADD PUSH1 0x1 ISZERO ISZERO DUP2 MSTORE POP PUSH1 0x2 PUSH0 CALLER PUSH20 0xFFFFFFFFFFFFFFFFFFFFFFFFFFFFFFFFFFFFFFFF AND PUSH20 0xFFFFFFFFFFFFFFFFFFFFFFFFFFFFFFFFFFFFFFFF AND DUP2 MSTORE PUSH1 0x20 ADD SWAP1 DUP2 MSTORE PUSH1 0x20 ADD PUSH0 KECCAK256 PUSH0 DUP3 ADD MLOAD DUP2 PUSH0 ADD SWAP1 DUP2 PUSH2 0x2F9 SWAP2 SWAP1 PUSH2 0x15F9 JUMP JUMPDEST POP PUSH1 0x20 DUP3 ADD MLOAD DUP2 PUSH1 0x1 ADD PUSH0 PUSH2 0x100 EXP DUP2 SLOAD DUP2 PUSH1 0xFF MUL NOT AND SWAP1 DUP4 ISZERO ISZERO MUL OR SWAP1 SSTORE POP SWAP1 POP POP CALLER PUSH20 0xFFFFFFFFFFFFFFFFFFFFFFFFFFFFFFFFFFFFFFFF AND PUSH32 0x9B956FAFD6B420070AAA3307DCF792C7A34A3118D4271EE745E1472B281A2F1F DUP3 PUSH1 0x40 MLOAD PUSH2 0x362 SWAP2 SWAP1 PUSH2 0x16C8 JUMP JUMPDEST PUSH1 0x40 MLOAD DUP1 SWAP2 SUB SWAP1 LOG2 POP JUMP JUMPDEST PUSH1 0x1 PUSH0 SWAP1 SLOAD SWAP1 PUSH2 0x100 EXP SWAP1 DIV PUSH20 0xFFFFFFFFFFFFFFFFFFFFFFFFFFFFFFFFFFFFFFFF AND DUP2 JUMP JUMPDEST PUSH1 0x2 PUSH1 0x20 MSTORE DUP1 PUSH0 MSTORE PUSH1 0x40 PUSH0 KECCAK256 PUSH0 SWAP2 POP SWAP1 POP DUP1 PUSH0 ADD DUP1 SLOAD PUSH2 0x3B1 SWAP1 PUSH2 0x1432 JUMP JUMPDEST DUP1 PUSH1 0x1F ADD PUSH1 0x20 DUP1 SWAP2 DIV MUL PUSH1 0x20 ADD PUSH1 0x40 MLOAD SWAP1 DUP2 ADD PUSH1 0x40 MSTORE DUP1 SWAP3 SWAP2 SWAP1 DUP2 DUP2 MSTORE PUSH1 0x20 ADD DUP3 DUP1 SLOAD PUSH2 0x3DD SWAP1 PUSH2 0x1432 JUMP JUMPDEST DUP1 ISZERO PUSH2 0x428 JUMPI DUP1 PUSH1 0x1F LT PUSH2 0x3FF JUMPI PUSH2 0x100 DUP1 DUP4 SLOAD DIV MUL DUP4 MSTORE SWAP2 PUSH1 0x20 ADD SWAP2 PUSH2 0x428 JUMP JUMPDEST DUP3 ADD SWAP2 SWAP1 PUSH0 MSTORE PUSH1 0x20 PUSH0 KECCAK256 SWAP1 JUMPDEST DUP2 SLOAD DUP2 MSTORE SWAP1 PUSH1 0x1 ADD SWAP1 PUSH1 0x20 ADD DUP1 DUP4 GT PUSH2 0x40B JUMPI DUP3 SWAP1 SUB PUSH1 0x1F AND DUP3 ADD SWAP2 JUMPDEST POP POP POP POP POP SWAP1 DUP1 PUSH1 0x1 ADD PUSH0 SWAP1 SLOAD SWAP1 PUSH2 0x100 EXP SWAP1 DIV PUSH1 0xFF AND SWAP1 POP DUP3 JUMP JUMPDEST PUSH1 0x2 PUSH0 CALLER PUSH20 0xFFFFFFFFFFFFFFFFFFFFFFFFFFFFFFFFFFFFFFFF AND PUSH20 0xFFFFFFFFFFFFFFFFFFFFFFFFFFFFFFFFFFFFFFFF AND DUP2 MSTORE PUSH1 0x20 ADD SWAP1 DUP2 MSTORE PUSH1 0x20 ADD PUSH0 KECCAK256 PUSH1 0x1 ADD PUSH0 SWAP1 SLOAD SWAP1 PUSH2 0x100 EXP SWAP1 DIV PUSH1 0xFF AND PUSH2 0x4D0 JUMPI PUSH1 0x40 MLOAD PUSH32 0x8C379A000000000000000000000000000000000000000000000000000000000 DUP2 MSTORE PUSH1 0x4 ADD PUSH2 0x4C7 SWAP1 PUSH2 0x1732 JUMP JUMPDEST PUSH1 0x40 MLOAD DUP1 SWAP2 SUB SWAP1 REVERT JUMPDEST PUSH0 PUSH1 0x3 PUSH0 DUP4 DUP2 MSTORE PUSH1 0x20 ADD SWAP1 DUP2 MSTORE PUSH1 0x20 ADD PUSH0 KECCAK256 PUSH0 ADD SLOAD SUB PUSH2 0x525 JUMPI PUSH1 0x40 MLOAD PUSH32 0x8C379A000000000000000000000000000000000000000000000000000000000 DUP2 MSTORE PUSH1 0x4 ADD PUSH2 0x51C SWAP1 PUSH2 0x179A JUMP JUMPDEST PUSH1 0x40 MLOAD DUP1 SWAP2 SUB SWAP1 REVERT JUMPDEST PUSH1 0x3 PUSH0 DUP3 DUP2 MSTORE PUSH1 0x20 ADD SWAP1 DUP2 MSTORE PUSH1 0x20 ADD PUSH0 KECCAK256 PUSH1 0x2 ADD PUSH0 SWAP1 SLOAD SWAP1 PUSH2 0x100 EXP SWAP1 DIV PUSH1 0xFF AND PUSH2 0x585 JUMPI PUSH1 0x40 MLOAD PUSH32 0x8C379A000000000000000000000000000000000000000000000000000000000 DUP2 MSTORE PUSH1 0x4 ADD PUSH2 0x57C SWAP1 PUSH2 0x1802 JUMP JUMPDEST PUSH1 0x40 MLOAD DUP1 SWAP2 SUB SWAP1 REVERT JUMPDEST PUSH0 PUSH1 0x3 PUSH0 DUP4 DUP2 MSTORE PUSH1 0x20 ADD SWAP1 DUP2 MSTORE PUSH1 0x20 ADD PUSH0 KECCAK256 PUSH1 0x2 ADD PUSH0 PUSH2 0x100 EXP DUP2 SLOAD DUP2 PUSH1 0xFF MUL NOT AND SWAP1 DUP4 ISZERO ISZERO MUL OR SWAP1 SSTORE POP CALLER PUSH1 0x3 PUSH0 DUP4 DUP2 MSTORE PUSH1 0x20 ADD SWAP1 DUP2 MSTORE PUSH1 0x20 ADD PUSH0 KECCAK256 PUSH1 0x2 ADD PUSH1 0x1 PUSH2 0x100 EXP DUP2 SLOAD DUP2 PUSH20 0xFFFFFFFFFFFFFFFFFFFFFFFFFFFFFFFFFFFFFFFF MUL NOT AND SWAP1 DUP4 PUSH20 0xFFFFFFFFFFFFFFFFFFFFFFFFFFFFFFFFFFFFFFFF AND MUL OR SWAP1 SSTORE POP DUP1 CALLER PUSH20 0xFFFFFFFFFFFFFFFFFFFFFFFFFFFFFFFFFFFFFFFF AND PUSH32 0xF188B1697A1957C8CF926ACF3BD65C4BBFA00E37D369A477738E28C39AEE097D PUSH1 0x40 MLOAD PUSH1 0x40 MLOAD DUP1 SWAP2 SUB SWAP1 LOG3 POP JUMP JUMPDEST PUSH1 0x2 PUSH0 CALLER PUSH20 0xFFFFFFFFFFFFFFFFFFFFFFFFFFFFFFFFFFFFFFFF AND PUSH20 0xFFFFFFFFFFFFFFFFFFFFFFFFFFFFFFFFFFFFFFFF AND DUP2 MSTORE PUSH1 0x20 ADD SWAP1 DUP2 MSTORE PUSH1 0x20 ADD PUSH0 KECCAK256 PUSH1 0x1 ADD PUSH0 SWAP1 SLOAD SWAP1 PUSH2 0x100 EXP SWAP1 DIV PUSH1 0xFF AND PUSH2 0x6D6 JUMPI PUSH1 0x40 MLOAD PUSH32 0x8C379A000000000000000000000000000000000000000000000000000000000 DUP2 MSTORE PUSH1 0x4 ADD PUSH2 0x6CD SWAP1 PUSH2 0x1732 JUMP JUMPDEST PUSH1 0x40 MLOAD DUP1 SWAP2 SUB SWAP1 REVERT JUMPDEST PUSH0 PUSH1 0x3 PUSH0 DUP5 DUP2 MSTORE PUSH1 0x20 ADD SWAP1 DUP2 MSTORE PUSH1 0x20 ADD PUSH0 KECCAK256 PUSH0 ADD SLOAD SUB PUSH2 0x72B JUMPI PUSH1 0x40 MLOAD PUSH32 0x8C379A000000000000000000000000000000000000000000000000000000000 DUP2 MSTORE PUSH1 0x4 ADD PUSH2 0x722 SWAP1 PUSH2 0x179A JUMP JUMPDEST PUSH1 0x40 MLOAD DUP1 SWAP2 SUB SWAP1 REVERT JUMPDEST CALLER PUSH20 0xFFFFFFFFFFFFFFFFFFFFFFFFFFFFFFFFFFFFFFFF AND PUSH1 0x3 PUSH0 DUP5 DUP2 MSTORE PUSH1 0x20 ADD SWAP1 DUP2 MSTORE PUSH1 0x20 ADD PUSH0 KECCAK256 PUSH1 0x2 ADD PUSH1 0x1 SWAP1 SLOAD SWAP1 PUSH2 0x100 EXP SWAP1 DIV PUSH20 0xFFFFFFFFFFFFFFFFFFFFFFFFFFFFFFFFFFFFFFFF AND PUSH20 0xFFFFFFFFFFFFFFFFFFFFFFFFFFFFFFFFFFFFFFFF AND EQ PUSH2 0x7CD JUMPI PUSH1 0x40 MLOAD PUSH32 0x8C379A000000000000000000000000000000000000000000000000000000000 DUP2 MSTORE PUSH1 0x4 ADD PUSH2 0x7C4 SWAP1 PUSH2 0x186A JUMP JUMPDEST PUSH1 0x40 MLOAD DUP1 SWAP2 SUB SWAP1 REVERT JUMPDEST PUSH0 DUP2 GT PUSH2 0x80F JUMPI PUSH1 0x40 MLOAD PUSH32 0x8C379A000000000000000000000000000000000000000000000000000000000 DUP2 MSTORE PUSH1 0x4 ADD PUSH2 0x806 SWAP1 PUSH2 0x18F8 JUMP JUMPDEST PUSH1 0x40 MLOAD DUP1 SWAP2 SUB SWAP1 REVERT JUMPDEST PUSH1 0x1 PUSH0 SWAP1 SLOAD SWAP1 PUSH2 0x100 EXP SWAP1 DIV PUSH20 0xFFFFFFFFFFFFFFFFFFFFFFFFFFFFFFFFFFFFFFFF AND PUSH20 0xFFFFFFFFFFFFFFFFFFFFFFFFFFFFFFFFFFFFFFFF AND PUSH4 0x23B872DD CALLER PUSH0 PUSH0 SWAP1 SLOAD SWAP1 PUSH2 0x100 EXP SWAP1 DIV PUSH20 0xFFFFFFFFFFFFFFFFFFFFFFFFFFFFFFFFFFFFFFFF AND DUP5 PUSH1 0x40 MLOAD DUP5 PUSH4 0xFFFFFFFF AND PUSH1 0xE0 SHL DUP2 MSTORE PUSH1 0x4 ADD PUSH2 0x88D SWAP4 SWAP3 SWAP2 SWAP1 PUSH2 0x1916 JUMP JUMPDEST PUSH1 0x20 PUSH1 0x40 MLOAD DUP1 DUP4 SUB DUP2 PUSH0 DUP8 GAS CALL ISZERO DUP1 ISZERO PUSH2 0x8A9 JUMPI RETURNDATASIZE PUSH0 PUSH0 RETURNDATACOPY RETURNDATASIZE PUSH0 REVERT JUMPDEST POP POP POP POP PUSH1 0x40 MLOAD RETURNDATASIZE PUSH1 0x1F NOT PUSH1 0x1F DUP3 ADD AND DUP3 ADD DUP1 PUSH1 0x40 MSTORE POP DUP2 ADD SWAP1 PUSH2 0x8CD SWAP2 SWAP1 PUSH2 0x1975 JUMP JUMPDEST POP DUP2 CALLER PUSH20 0xFFFFFFFFFFFFFFFFFFFFFFFFFFFFFFFFFFFFFFFF AND PUSH32 0xE1F3E4D81D3488956BA3579A4AB6F949D3ABC6E4D8B93199A9A5DAC467110377 DUP4 PUSH1 0x40 MLOAD PUSH2 0x915 SWAP2 SWAP1 PUSH2 0x19A0 JUMP JUMPDEST PUSH1 0x40 MLOAD DUP1 SWAP2 SUB SWAP1 LOG3 POP POP JUMP JUMPDEST PUSH1 0x2 PUSH0 CALLER PUSH20 0xFFFFFFFFFFFFFFFFFFFFFFFFFFFFFFFFFFFFFFFF AND PUSH20 0xFFFFFFFFFFFFFFFFFFFFFFFFFFFFFFFFFFFFFFFF AND DUP2 MSTORE PUSH1 0x20 ADD SWAP1 DUP2 MSTORE PUSH1 0x20 ADD PUSH0 KECCAK256 PUSH1 0x1 ADD PUSH0 SWAP1 SLOAD SWAP1 PUSH2 0x100 EXP SWAP1 DIV PUSH1 0xFF AND PUSH2 0x9AD JUMPI PUSH1 0x40 MLOAD PUSH32 0x8C379A000000000000000000000000000000000000000000000000000000000 DUP2 MSTORE PUSH1 0x4 ADD PUSH2 0x9A4 SWAP1 PUSH2 0x1732 JUMP JUMPDEST PUSH1 0x40 MLOAD DUP1 SWAP2 SUB SWAP1 REVERT JUMPDEST PUSH0 PUSH1 0x3 PUSH0 DUP4 DUP2 MSTORE PUSH1 0x20 ADD SWAP1 DUP2 MSTORE PUSH1 0x20 ADD PUSH0 KECCAK256 PUSH0 ADD SLOAD SUB PUSH2 0xA02 JUMPI PUSH1 0x40 MLOAD PUSH32 0x8C379A000000000000000000000000000000000000000000000000000000000 DUP2 MSTORE PUSH1 0x4 ADD PUSH2 0x9F9 SWAP1 PUSH2 0x179A JUMP JUMPDEST PUSH1 0x40 MLOAD DUP1 SWAP2 SUB SWAP1 REVERT JUMPDEST CALLER PUSH20 0xFFFFFFFFFFFFFFFFFFFFFFFFFFFFFFFFFFFFFFFF AND PUSH1 0x3 PUSH0 DUP4 DUP2 MSTORE PUSH1 0x20 ADD SWAP1 DUP2 MSTORE PUSH1 0x20 ADD PUSH0 KECCAK256 PUSH1 0x2 ADD PUSH1 0x1 SWAP1 SLOAD SWAP1 PUSH2 0x100 EXP SWAP1 DIV PUSH20 0xFFFFFFFFFFFFFFFFFFFFFFFFFFFFFFFFFFFFFFFF AND PUSH20 0xFFFFFFFFFFFFFFFFFFFFFFFFFFFFFFFFFFFFFFFF AND EQ PUSH2 0xAA4 JUMPI PUSH1 0x40 MLOAD PUSH32 0x8C379A000000000000000000000000000000000000000000000000000000000 DUP2 MSTORE PUSH1 0x4 ADD PUSH2 0xA9B SWAP1 PUSH2 0x186A JUMP JUMPDEST PUSH1 0x40 MLOAD DUP1 SWAP2 SUB SWAP1 REVERT JUMPDEST PUSH1 0x1 PUSH1 0x3 PUSH0 DUP4 DUP2 MSTORE PUSH1 0x20 ADD SWAP1 DUP2 MSTORE PUSH1 0x20 ADD PUSH0 KECCAK256 PUSH1 0x2 ADD PUSH0 PUSH2 0x100 EXP DUP2 SLOAD DUP2 PUSH1 0xFF MUL NOT AND SWAP1 DUP4 ISZERO ISZERO MUL OR SWAP1 SSTORE POP PUSH0 PUSH1 0x3 PUSH0 DUP4 DUP2 MSTORE PUSH1 0x20 ADD SWAP1 DUP2 MSTORE PUSH1 0x20 ADD PUSH0 KECCAK256 PUSH1 0x2 ADD PUSH1 0x1 PUSH2 0x100 EXP DUP2 SLOAD DUP2 PUSH20 0xFFFFFFFFFFFFFFFFFFFFFFFFFFFFFFFFFFFFFFFF MUL NOT AND SWAP1 DUP4 PUSH20 0xFFFFFFFFFFFFFFFFFFFFFFFFFFFFFFFFFFFFFFFF AND MUL OR SWAP1 SSTORE POP DUP1 PUSH32 0xAE4B5C6D3EBBA1A8D3F627E4FC926A0FD83C51769B8F1EB37356BBB02F45275E PUSH1 0x40 MLOAD PUSH1 0x40 MLOAD DUP1 SWAP2 SUB SWAP1 LOG2 POP JUMP JUMPDEST PUSH0 PUSH0 SWAP1 SLOAD SWAP1 PUSH2 0x100 EXP SWAP1 DIV PUSH20 0xFFFFFFFFFFFFFFFFFFFFFFFFFFFFFFFFFFFFFFFF AND DUP2 JUMP JUMPDEST PUSH0 PUSH0 SWAP1 SLOAD SWAP1 PUSH2 0x100 EXP SWAP1 DIV PUSH20 0xFFFFFFFFFFFFFFFFFFFFFFFFFFFFFFFFFFFFFFFF AND PUSH20 0xFFFFFFFFFFFFFFFFFFFFFFFFFFFFFFFFFFFFFFFF AND CALLER PUSH20 0xFFFFFFFFFFFFFFFFFFFFFFFFFFFFFFFFFFFFFFFF AND EQ PUSH2 0xC05 JUMPI PUSH1 0x40 MLOAD PUSH32 0x8C379A000000000000000000000000000000000000000000000000000000000 DUP2 MSTORE PUSH1 0x4 ADD PUSH2 0xBFC SWAP1 PUSH2 0x1A29 JUMP JUMPDEST PUSH1 0x40 MLOAD DUP1 SWAP2 SUB SWAP1 REVERT JUMPDEST PUSH0 PUSH1 0x3 PUSH0 DUP5 DUP2 MSTORE PUSH1 0x20 ADD SWAP1 DUP2 MSTORE PUSH1 0x20 ADD PUSH0 KECCAK256 PUSH0 ADD SLOAD EQ PUSH2 0xC5A JUMPI PUSH1 0x40 MLOAD PUSH32 0x8C379A000000000000000000000000000000000000000000000000000000000 DUP2 MSTORE PUSH1 0x4 ADD PUSH2 0xC51 SWAP1 PUSH2 0x1A91 JUMP JUMPDEST PUSH1 0x40 MLOAD DUP1 SWAP2 SUB SWAP1 REVERT JUMPDEST PUSH0 DUP2 MLOAD GT PUSH2 0xC9D JUMPI PUSH1 0x40 MLOAD PUSH32 0x8C379A000000000000000000000000000000000000000000000000000000000 DUP2 MSTORE PUSH1 0x4 ADD PUSH2 0xC94 SWAP1 PUSH2 0x1AF9 JUMP JUMPDEST PUSH1 0x40 MLOAD DUP1 SWAP2 SUB SWAP1 REVERT JUMPDEST PUSH1 0x40 MLOAD DUP1 PUSH1 0x80 ADD PUSH1 0x40 MSTORE DUP1 DUP4 DUP2 MSTORE PUSH1 0x20 ADD DUP3 DUP2 MSTORE PUSH1 0x20 ADD PUSH1 0x1 ISZERO ISZERO DUP2 MSTORE PUSH1 0x20 ADD PUSH0 PUSH20 0xFFFFFFFFFFFFFFFFFFFFFFFFFFFFFFFFFFFFFFFF AND DUP2 MSTORE POP PUSH1 0x3 PUSH0 DUP5 DUP2 MSTORE PUSH1 0x20 ADD SWAP1 DUP2 MSTORE PUSH1 0x20 ADD PUSH0 KECCAK256 PUSH0 DUP3 ADD MLOAD DUP2 PUSH0 ADD SSTORE PUSH1 0x20 DUP3 ADD MLOAD DUP2 PUSH1 0x1 ADD SWAP1 DUP2 PUSH2 0xD05 SWAP2 SWAP1 PUSH2 0x15F9 JUMP JUMPDEST POP PUSH1 0x40 DUP3 ADD MLOAD DUP2 PUSH1 0x2 ADD PUSH0 PUSH2 0x100 EXP DUP2 SLOAD DUP2 PUSH1 0xFF MUL NOT AND SWAP1 DUP4 ISZERO ISZERO MUL OR SWAP1 SSTORE POP PUSH1 0x60 DUP3 ADD MLOAD DUP2 PUSH1 0x2 ADD PUSH1 0x1 PUSH2 0x100 EXP DUP2 SLOAD DUP2 PUSH20 0xFFFFFFFFFFFFFFFFFFFFFFFFFFFFFFFFFFFFFFFF MUL NOT AND SWAP1 DUP4 PUSH20 0xFFFFFFFFFFFFFFFFFFFFFFFFFFFFFFFFFFFFFFFF AND MUL OR SWAP1 SSTORE POP SWAP1 POP POP DUP2 PUSH32 0xDD3FB50A435B63CD06A48CC218B64EDE0AD21819D0F89B6E7625FED8D1EB6996 DUP3 PUSH1 0x40 MLOAD PUSH2 0xD9F SWAP2 SWAP1 PUSH2 0x16C8 JUMP JUMPDEST PUSH1 0x40 MLOAD DUP1 SWAP2 SUB SWAP1 LOG2 POP POP JUMP JUMPDEST PUSH1 0x3 PUSH1 0x20 MSTORE DUP1 PUSH0 MSTORE PUSH1 0x40 PUSH0 KECCAK256 PUSH0 SWAP2 POP SWAP1 POP DUP1 PUSH0 ADD SLOAD SWAP1 DUP1 PUSH1 0x1 ADD DUP1 SLOAD PUSH2 0xDD0 SWAP1 PUSH2 0x1432 JUMP JUMPDEST DUP1 PUSH1 0x1F ADD PUSH1 0x20 DUP1 SWAP2 DIV MUL PUSH1 0x20 ADD PUSH1 0x40 MLOAD SWAP1 DUP2 ADD PUSH1 0x40 MSTORE DUP1 SWAP3 SWAP2 SWAP1 DUP2 DUP2 MSTORE PUSH1 0x20 ADD DUP3 DUP1 SLOAD PUSH2 0xDFC SWAP1 PUSH2 0x1432 JUMP JUMPDEST DUP1 ISZERO PUSH2 0xE47 JUMPI DUP1 PUSH1 0x1F LT PUSH2 0xE1E JUMPI PUSH2 0x100 DUP1 DUP4 SLOAD DIV MUL DUP4 MSTORE SWAP2 PUSH1 0x20 ADD SWAP2 PUSH2 0xE47 JUMP JUMPDEST DUP3 ADD SWAP2 SWAP1 PUSH0 MSTORE PUSH1 0x20 PUSH0 KECCAK256 SWAP1 JUMPDEST DUP2 SLOAD DUP2 MSTORE SWAP1 PUSH1 0x1 ADD SWAP1 PUSH1 0x20 ADD DUP1 DUP4 GT PUSH2 0xE2A JUMPI DUP3 SWAP1 SUB PUSH1 0x1F AND DUP3 ADD SWAP2 JUMPDEST POP POP POP POP POP SWAP1 DUP1 PUSH1 0x2 ADD PUSH0 SWAP1 SLOAD SWAP1 PUSH2 0x100 EXP SWAP1 DIV PUSH1 0xFF AND SWAP1 DUP1 PUSH1 0x2 ADD PUSH1 0x1 SWAP1 SLOAD SWAP1 PUSH2 0x100 EXP SWAP1 DIV PUSH20 0xFFFFFFFFFFFFFFFFFFFFFFFFFFFFFFFFFFFFFFFF AND SWAP1 POP DUP5 JUMP JUMPDEST PUSH0 PUSH1 0x40 MLOAD SWAP1 POP SWAP1 JUMP JUMPDEST PUSH0 PUSH0 REVERT JUMPDEST PUSH0 PUSH0 REVERT JUMPDEST PUSH0 PUSH0 REVERT JUMPDEST PUSH0 PUSH0 REVERT JUMPDEST PUSH0 PUSH1 0x1F NOT PUSH1 0x1F DUP4 ADD AND SWAP1 POP SWAP2 SWAP1 POP JUMP JUMPDEST PUSH32 0x4E487B7100000000000000000000000000000000000000000000000000000000 PUSH0 MSTORE PUSH1 0x41 PUSH1 0x4 MSTORE PUSH1 0x24 PUSH0 REVERT JUMPDEST PUSH2 0xEE8 DUP3 PUSH2 0xEA2 JUMP JUMPDEST DUP2 ADD DUP2 DUP2 LT PUSH8 0xFFFFFFFFFFFFFFFF DUP3 GT OR ISZERO PUSH2 0xF07 JUMPI PUSH2 0xF06 PUSH2 0xEB2 JUMP JUMPDEST JUMPDEST DUP1 PUSH1 0x40 MSTORE POP POP POP JUMP JUMPDEST PUSH0 PUSH2 0xF19 PUSH2 0xE89 JUMP JUMPDEST SWAP1 POP PUSH2 0xF25 DUP3 DUP3 PUSH2 0xEDF JUMP JUMPDEST SWAP2 SWAP1 POP JUMP JUMPDEST PUSH0 PUSH8 0xFFFFFFFFFFFFFFFF DUP3 GT ISZERO PUSH2 0xF44 JUMPI PUSH2 0xF43 PUSH2 0xEB2 JUMP JUMPDEST JUMPDEST PUSH2 0xF4D DUP3 PUSH2 0xEA2 JUMP JUMPDEST SWAP1 POP PUSH1 0x20 DUP2 ADD SWAP1 POP SWAP2 SWAP1 POP JUMP JUMPDEST DUP3 DUP2 DUP4 CALLDATACOPY PUSH0 DUP4 DUP4 ADD MSTORE POP POP POP JUMP JUMPDEST PUSH0 PUSH2 0xF7A PUSH2 0xF75 DUP5 PUSH2 0xF2A JUMP JUMPDEST PUSH2 0xF10 JUMP JUMPDEST SWAP1 POP DUP3 DUP2 MSTORE PUSH1 0x20 DUP2 ADD DUP5 DUP5 DUP5 ADD GT ISZERO PUSH2 0xF96 JUMPI PUSH2 0xF95 PUSH2 0xE9E JUMP JUMPDEST JUMPDEST PUSH2 0xFA1 DUP5 DUP3 DUP6 PUSH2 0xF5A JUMP JUMPDEST POP SWAP4 SWAP3 POP POP POP JUMP JUMPDEST PUSH0 DUP3 PUSH1 0x1F DUP4 ADD SLT PUSH2 0xFBD JUMPI PUSH2 0xFBC PUSH2 0xE9A JUMP JUMPDEST JUMPDEST DUP2 CALLDATALOAD PUSH2 0xFCD DUP5 DUP3 PUSH1 0x20 DUP7 ADD PUSH2 0xF68 JUMP JUMPDEST SWAP2 POP POP SWAP3 SWAP2 POP POP JUMP JUMPDEST PUSH0 PUSH1 0x20 DUP3 DUP5 SUB SLT ISZERO PUSH2 0xFEB JUMPI PUSH2 0xFEA PUSH2 0xE92 JUMP JUMPDEST JUMPDEST PUSH0 DUP3 ADD CALLDATALOAD PUSH8 0xFFFFFFFFFFFFFFFF DUP2 GT ISZERO PUSH2 0x1008 JUMPI PUSH2 0x1007 PUSH2 0xE96 JUMP JUMPDEST JUMPDEST PUSH2 0x1014 DUP5 DUP3 DUP6 ADD PUSH2 0xFA9 JUMP JUMPDEST SWAP2 POP POP SWAP3 SWAP2 POP POP JUMP JUMPDEST PUSH0 PUSH20 0xFFFFFFFFFFFFFFFFFFFFFFFFFFFFFFFFFFFFFFFF DUP3 AND SWAP1 POP SWAP2 SWAP1 POP JUMP JUMPDEST PUSH0 DUP2 SWAP1 POP SWAP2 SWAP1 POP JUMP JUMPDEST PUSH0 PUSH2 0x105F PUSH2 0x105A PUSH2 0x1055 DUP5 PUSH2 0x101D JUMP JUMPDEST PUSH2 0x103C JUMP JUMPDEST PUSH2 0x101D JUMP JUMPDEST SWAP1 POP SWAP2 SWAP1 POP JUMP JUMPDEST PUSH0 PUSH2 0x1070 DUP3 PUSH2 0x1045 JUMP JUMPDEST SWAP1 POP SWAP2 SWAP1 POP JUMP JUMPDEST PUSH0 PUSH2 0x1081 DUP3 PUSH2 0x1066 JUMP JUMPDEST SWAP1 POP SWAP2 SWAP1 POP JUMP JUMPDEST PUSH2 0x1091 DUP2 PUSH2 0x1077 JUMP JUMPDEST DUP3 MSTORE POP POP JUMP JUMPDEST PUSH0 PUSH1 0x20 DUP3 ADD SWAP1 POP PUSH2 0x10AA PUSH0 DUP4 ADD DUP5 PUSH2 0x1088 JUMP JUMPDEST SWAP3 SWAP2 POP POP JUMP JUMPDEST PUSH0 PUSH2 0x10BA DUP3 PUSH2 0x101D JUMP JUMPDEST SWAP1 POP SWAP2 SWAP1 POP JUMP JUMPDEST PUSH2 0x10CA DUP2 PUSH2 0x10B0 JUMP JUMPDEST DUP2 EQ PUSH2 0x10D4 JUMPI PUSH0 PUSH0 REVERT JUMPDEST POP JUMP JUMPDEST PUSH0 DUP2 CALLDATALOAD SWAP1 POP PUSH2 0x10E5 DUP2 PUSH2 0x10C1 JUMP JUMPDEST SWAP3 SWAP2 POP POP JUMP JUMPDEST PUSH0 PUSH1 0x20 DUP3 DUP5 SUB SLT ISZERO PUSH2 0x1100 JUMPI PUSH2 0x10FF PUSH2 0xE92 JUMP JUMPDEST JUMPDEST PUSH0 PUSH2 0x110D DUP5 DUP3 DUP6 ADD PUSH2 0x10D7 JUMP JUMPDEST SWAP2 POP POP SWAP3 SWAP2 POP POP JUMP JUMPDEST PUSH0 DUP2 MLOAD SWAP1 POP SWAP2 SWAP1 POP JUMP JUMPDEST PUSH0 DUP3 DUP3 MSTORE PUSH1 0x20 DUP3 ADD SWAP1 POP SWAP3 SWAP2 POP POP JUMP JUMPDEST DUP3 DUP2 DUP4 MCOPY PUSH0 DUP4 DUP4 ADD MSTORE POP POP POP JUMP JUMPDEST PUSH0 PUSH2 0x1148 DUP3 PUSH2 0x1116 JUMP JUMPDEST PUSH2 0x1152 DUP2 DUP6 PUSH2 0x1120 JUMP JUMPDEST SWAP4 POP PUSH2 0x1162 DUP2 DUP6 PUSH1 0x20 DUP7 ADD PUSH2 0x1130 JUMP JUMPDEST PUSH2 0x116B DUP2 PUSH2 0xEA2 JUMP JUMPDEST DUP5 ADD SWAP2 POP POP SWAP3 SWAP2 POP POP JUMP JUMPDEST PUSH0 DUP2 ISZERO ISZERO SWAP1 POP SWAP2 SWAP1 POP JUMP JUMPDEST PUSH2 0x118A DUP2 PUSH2 0x1176 JUMP JUMPDEST DUP3 MSTORE POP POP JUMP JUMPDEST PUSH0 PUSH1 0x40 DUP3 ADD SWAP1 POP DUP2 DUP2 SUB PUSH0 DUP4 ADD MSTORE PUSH2 0x11A8 DUP2 DUP6 PUSH2 0x113E JUMP JUMPDEST SWAP1 POP PUSH2 0x11B7 PUSH1 0x20 DUP4 ADD DUP5 PUSH2 0x1181 JUMP JUMPDEST SWAP4 SWAP3 POP POP POP JUMP JUMPDEST PUSH0 DUP2 SWAP1 POP SWAP2 SWAP1 POP JUMP JUMPDEST PUSH2 0x11D0 DUP2 PUSH2 0x11BE JUMP JUMPDEST DUP2 EQ PUSH2 0x11DA JUMPI PUSH0 PUSH0 REVERT JUMPDEST POP JUMP JUMPDEST PUSH0 DUP2 CALLDATALOAD SWAP1 POP PUSH2 0x11EB DUP2 PUSH2 0x11C7 JUMP JUMPDEST SWAP3 SWAP2 POP POP JUMP JUMPDEST PUSH0 PUSH1 0x20 DUP3 DUP5 SUB SLT ISZERO PUSH2 0x1206 JUMPI PUSH2 0x1205 PUSH2 0xE92 JUMP JUMPDEST JUMPDEST PUSH0 PUSH2 0x1213 DUP5 DUP3 DUP6 ADD PUSH2 0x11DD JUMP JUMPDEST SWAP2 POP POP SWAP3 SWAP2 POP POP JUMP JUMPDEST PUSH0 PUSH0 PUSH1 0x40 DUP4 DUP6 SUB SLT ISZERO PUSH2 0x1232 JUMPI PUSH2 0x1231 PUSH2 0xE92 JUMP JUMPDEST JUMPDEST PUSH0 PUSH2 0x123F DUP6 DUP3 DUP7 ADD PUSH2 0x11DD JUMP JUMPDEST SWAP3 POP POP PUSH1 0x20 PUSH2 0x1250 DUP6 DUP3 DUP7 ADD PUSH2 0x11DD JUMP JUMPDEST SWAP2 POP POP SWAP3 POP SWAP3 SWAP1 POP JUMP JUMPDEST PUSH2 0x1263 DUP2 PUSH2 0x10B0 JUMP JUMPDEST DUP3 MSTORE POP POP JUMP JUMPDEST PUSH0 PUSH1 0x20 DUP3 ADD SWAP1 POP PUSH2 0x127C PUSH0 DUP4 ADD DUP5 PUSH2 0x125A JUMP JUMPDEST SWAP3 SWAP2 POP POP JUMP JUMPDEST PUSH0 PUSH0 PUSH1 0x40 DUP4 DUP6 SUB SLT ISZERO PUSH2 0x1298 JUMPI PUSH2 0x1297 PUSH2 0xE92 JUMP JUMPDEST JUMPDEST PUSH0 PUSH2 0x12A5 DUP6 DUP3 DUP7 ADD PUSH2 0x11DD JUMP JUMPDEST SWAP3 POP POP PUSH1 0x20 DUP4 ADD CALLDATALOAD PUSH8 0xFFFFFFFFFFFFFFFF DUP2 GT ISZERO PUSH2 0x12C6 JUMPI PUSH2 0x12C5 PUSH2 0xE96 JUMP JUMPDEST JUMPDEST PUSH2 0x12D2 DUP6 DUP3 DUP7 ADD PUSH2 0xFA9 JUMP JUMPDEST SWAP2 POP POP SWAP3 POP SWAP3 SWAP1 POP JUMP JUMPDEST PUSH2 0x12E5 DUP2 PUSH2 0x11BE JUMP JUMPDEST DUP3 MSTORE POP POP JUMP JUMPDEST PUSH0 PUSH1 0x80 DUP3 ADD SWAP1 POP PUSH2 0x12FE PUSH0 DUP4 ADD DUP8 PUSH2 0x12DC JUMP JUMPDEST DUP2 DUP2 SUB PUSH1 0x20 DUP4 ADD MSTORE PUSH2 0x1310 DUP2 DUP7 PUSH2 0x113E JUMP JUMPDEST SWAP1 POP PUSH2 0x131F PUSH1 0x40 DUP4 ADD DUP6 PUSH2 0x1181 JUMP JUMPDEST PUSH2 0x132C PUSH1 0x60 DUP4 ADD DUP5 PUSH2 0x125A JUMP JUMPDEST SWAP6 SWAP5 POP POP POP POP POP JUMP JUMPDEST PUSH32 0x44726976657220616C7265616479207265676973746572656400000000000000 PUSH0 DUP3 ADD MSTORE POP JUMP JUMPDEST PUSH0 PUSH2 0x1369 PUSH1 0x19 DUP4 PUSH2 0x1120 JUMP JUMPDEST SWAP2 POP PUSH2 0x1374 DUP3 PUSH2 0x1335 JUMP JUMPDEST PUSH1 0x20 DUP3 ADD SWAP1 POP SWAP2 SWAP1 POP JUMP JUMPDEST PUSH0 PUSH1 0x20 DUP3 ADD SWAP1 POP DUP2 DUP2 SUB PUSH0 DUP4 ADD MSTORE PUSH2 0x1396 DUP2 PUSH2 0x135D JUMP JUMPDEST SWAP1 POP SWAP2 SWAP1 POP JUMP JUMPDEST PUSH32 0x4E616D652063616E6E6F7420626520656D707479000000000000000000000000 PUSH0 DUP3 ADD MSTORE POP JUMP JUMPDEST PUSH0 PUSH2 0x13D1 PUSH1 0x14 DUP4 PUSH2 0x1120 JUMP JUMPDEST SWAP2 POP PUSH2 0x13DC DUP3 PUSH2 0x139D JUMP JUMPDEST PUSH1 0x20 DUP3 ADD SWAP1 POP SWAP2 SWAP1 POP JUMP JUMPDEST PUSH0 PUSH1 0x20 DUP3 ADD SWAP1 POP DUP2 DUP2 SUB PUSH0 DUP4 ADD MSTORE PUSH2 0x13FE DUP2 PUSH2 0x13C5 JUMP JUMPDEST SWAP1 POP SWAP2 SWAP1 POP JUMP JUMPDEST PUSH32 0x4E487B7100000000000000000000000000000000000000000000000000000000 PUSH0 MSTORE PUSH1 0x22 PUSH1 0x4 MSTORE PUSH1 0x24 PUSH0 REVERT JUMPDEST PUSH0 PUSH1 0x2 DUP3 DIV SWAP1 POP PUSH1 0x1 DUP3 AND DUP1 PUSH2 0x1449 JUMPI PUSH1 0x7F DUP3 AND SWAP2 POP JUMPDEST PUSH1 0x20 DUP3 LT DUP2 SUB PUSH2 0x145C JUMPI PUSH2 0x145B PUSH2 0x1405 JUMP JUMPDEST JUMPDEST POP SWAP2 SWAP1 POP JUMP JUMPDEST PUSH0 DUP2 SWAP1 POP DUP2 PUSH0 MSTORE PUSH1 0x20 PUSH0 KECCAK256 SWAP1 POP SWAP2 SWAP1 POP JUMP JUMPDEST PUSH0 PUSH1 0x20 PUSH1 0x1F DUP4 ADD DIV SWAP1 POP SWAP2 SWAP1 POP JUMP JUMPDEST PUSH0 DUP3 DUP3 SHL SWAP1 POP SWAP3 SWAP2 POP POP JUMP JUMPDEST PUSH0 PUSH1 0x8 DUP4 MUL PUSH2 0x14BE PUSH32 0xFFFFFFFFFFFFFFFFFFFFFFFFFFFFFFFFFFFFFFFFFFFFFFFFFFFFFFFFFFFFFFFF DUP3 PUSH2 0x1483 JUMP JUMPDEST PUSH2 0x14C8 DUP7 DUP4 PUSH2 0x1483 JUMP JUMPDEST SWAP6 POP DUP1 NOT DUP5 AND SWAP4 POP DUP1 DUP7 AND DUP5 OR SWAP3 POP POP POP SWAP4 SWAP3 POP POP POP JUMP JUMPDEST PUSH0 PUSH2 0x14FA PUSH2 0x14F5 PUSH2 0x14F0 DUP5 PUSH2 0x11BE JUMP JUMPDEST PUSH2 0x103C JUMP JUMPDEST PUSH2 0x11BE JUMP JUMPDEST SWAP1 POP SWAP2 SWAP1 POP JUMP JUMPDEST PUSH0 DUP2 SWAP1 POP SWAP2 SWAP1 POP JUMP JUMPDEST PUSH2 0x1513 DUP4 PUSH2 0x14E0 JUMP JUMPDEST PUSH2 0x1527 PUSH2 0x151F DUP3 PUSH2 0x1501 JUMP JUMPDEST DUP5 DUP5 SLOAD PUSH2 0x148F JUMP JUMPDEST DUP3 SSTORE POP POP POP POP JUMP JUMPDEST PUSH0 PUSH0 SWAP1 POP SWAP1 JUMP JUMPDEST PUSH2 0x153E PUSH2 0x152F JUMP JUMPDEST PUSH2 0x1549 DUP2 DUP5 DUP5 PUSH2 0x150A JUMP JUMPDEST POP POP POP JUMP JUMPDEST JUMPDEST DUP2 DUP2 LT ISZERO PUSH2 0x156C JUMPI PUSH2 0x1561 PUSH0 DUP3 PUSH2 0x1536 JUMP JUMPDEST PUSH1 0x1 DUP2 ADD SWAP1 POP PUSH2 0x154F JUMP JUMPDEST POP POP JUMP JUMPDEST PUSH1 0x1F DUP3 GT ISZERO PUSH2 0x15B1 JUMPI PUSH2 0x1582 DUP2 PUSH2 0x1462 JUMP JUMPDEST PUSH2 0x158B DUP5 PUSH2 0x1474 JUMP JUMPDEST DUP2 ADD PUSH1 0x20 DUP6 LT ISZERO PUSH2 0x159A JUMPI DUP2 SWAP1 POP JUMPDEST PUSH2 0x15AE PUSH2 0x15A6 DUP6 PUSH2 0x1474 JUMP JUMPDEST DUP4 ADD DUP3 PUSH2 0x154E JUMP JUMPDEST POP POP JUMPDEST POP POP POP JUMP JUMPDEST PUSH0 DUP3 DUP3 SHR SWAP1 POP SWAP3 SWAP2 POP POP JUMP JUMPDEST PUSH0 PUSH2 0x15D1 PUSH0 NOT DUP5 PUSH1 0x8 MUL PUSH2 0x15B6 JUMP JUMPDEST NOT DUP1 DUP4 AND SWAP2 POP POP SWAP3 SWAP2 POP POP JUMP JUMPDEST PUSH0 PUSH2 0x15E9 DUP4 DUP4 PUSH2 0x15C2 JUMP JUMPDEST SWAP2 POP DUP3 PUSH1 0x2 MUL DUP3 OR SWAP1 POP SWAP3 SWAP2 POP POP JUMP JUMPDEST PUSH2 0x1602 DUP3 PUSH2 0x1116 JUMP JUMPDEST PUSH8 0xFFFFFFFFFFFFFFFF DUP2 GT ISZERO PUSH2 0x161B JUMPI PUSH2 0x161A PUSH2 0xEB2 JUMP JUMPDEST JUMPDEST PUSH2 0x1625 DUP3 SLOAD PUSH2 0x1432 JUMP JUMPDEST PUSH2 0x1630 DUP3 DUP3 DUP6 PUSH2 0x1570 JUMP JUMPDEST PUSH0 PUSH1 0x20 SWAP1 POP PUSH1 0x1F DUP4 GT PUSH1 0x1 DUP2 EQ PUSH2 0x1661 JUMPI PUSH0 DUP5 ISZERO PUSH2 0x164F JUMPI DUP3 DUP8 ADD MLOAD SWAP1 POP JUMPDEST PUSH2 0x1659 DUP6 DUP3 PUSH2 0x15DE JUMP JUMPDEST DUP7 SSTORE POP PUSH2 0x16C0 JUMP JUMPDEST PUSH1 0x1F NOT DUP5 AND PUSH2 0x166F DUP7 PUSH2 0x1462 JUMP JUMPDEST PUSH0 JUMPDEST DUP3 DUP2 LT ISZERO PUSH2 0x1696 JUMPI DUP5 DUP10 ADD MLOAD DUP3 SSTORE PUSH1 0x1 DUP3 ADD SWAP2 POP PUSH1 0x20 DUP6 ADD SWAP5 POP PUSH1 0x20 DUP2 ADD SWAP1 POP PUSH2 0x1671 JUMP JUMPDEST DUP7 DUP4 LT ISZERO PUSH2 0x16B3 JUMPI DUP5 DUP10 ADD MLOAD PUSH2 0x16AF PUSH1 0x1F DUP10 AND DUP3 PUSH2 0x15C2 JUMP JUMPDEST DUP4 SSTORE POP JUMPDEST PUSH1 0x1 PUSH1 0x2 DUP9 MUL ADD DUP9 SSTORE POP POP POP JUMPDEST POP POP POP POP POP POP JUMP JUMPDEST PUSH0 PUSH1 0x20 DUP3 ADD SWAP1 POP DUP2 DUP2 SUB PUSH0 DUP4 ADD MSTORE PUSH2 0x16E0 DUP2 DUP5 PUSH2 0x113E JUMP JUMPDEST SWAP1 POP SWAP3 SWAP2 POP POP JUMP JUMPDEST PUSH32 0x447269766572206E6F7420726567697374657265640000000000000000000000 PUSH0 DUP3 ADD MSTORE POP JUMP JUMPDEST PUSH0 PUSH2 0x171C PUSH1 0x15 DUP4 PUSH2 0x1120 JUMP JUMPDEST SWAP2 POP PUSH2 0x1727 DUP3 PUSH2 0x16E8 JUMP JUMPDEST PUSH1 0x20 DUP3 ADD SWAP1 POP SWAP2 SWAP1 POP JUMP JUMPDEST PUSH0 PUSH1 0x20 DUP3 ADD SWAP1 POP DUP2 DUP2 SUB PUSH0 DUP4 ADD MSTORE PUSH2 0x1749 DUP2 PUSH2 0x1710 JUMP JUMPDEST SWAP1 POP SWAP2 SWAP1 POP JUMP JUMPDEST PUSH32 0x5061726B696E672073706F7420646F6573206E6F742065786973740000000000 PUSH0 DUP3 ADD MSTORE POP JUMP JUMPDEST PUSH0 PUSH2 0x1784 PUSH1 0x1B DUP4 PUSH2 0x1120 JUMP JUMPDEST SWAP2 POP PUSH2 0x178F DUP3 PUSH2 0x1750 JUMP JUMPDEST PUSH1 0x20 DUP3 ADD SWAP1 POP SWAP2 SWAP1 POP JUMP JUMPDEST PUSH0 PUSH1 0x20 DUP3 ADD SWAP1 POP DUP2 DUP2 SUB PUSH0 DUP4 ADD MSTORE PUSH2 0x17B1 DUP2 PUSH2 0x1778 JUMP JUMPDEST SWAP1 POP SWAP2 SWAP1 POP JUMP JUMPDEST PUSH32 0x5061726B696E672073706F74206973206E6F7420617661696C61626C65000000 PUSH0 DUP3 ADD MSTORE POP JUMP JUMPDEST PUSH0 PUSH2 0x17EC PUSH1 0x1D DUP4 PUSH2 0x1120 JUMP JUMPDEST SWAP2 POP PUSH2 0x17F7 DUP3 PUSH2 0x17B8 JUMP JUMPDEST PUSH1 0x20 DUP3 ADD SWAP1 POP SWAP2 SWAP1 POP JUMP JUMPDEST PUSH0 PUSH1 0x20 DUP3 ADD SWAP1 POP DUP2 DUP2 SUB PUSH0 DUP4 ADD MSTORE PUSH2 0x1819 DUP2 PUSH2 0x17E0 JUMP JUMPDEST SWAP1 POP SWAP2 SWAP1 POP JUMP JUMPDEST PUSH32 0x4E6F7420796F75722073706F7400000000000000000000000000000000000000 PUSH0 DUP3 ADD MSTORE POP JUMP JUMPDEST PUSH0 PUSH2 0x1854 PUSH1 0xD DUP4 PUSH2 0x1120 JUMP JUMPDEST SWAP2 POP PUSH2 0x185F DUP3 PUSH2 0x1820 JUMP JUMPDEST PUSH1 0x20 DUP3 ADD SWAP1 POP SWAP2 SWAP1 POP JUMP JUMPDEST PUSH0 PUSH1 0x20 DUP3 ADD SWAP1 POP DUP2 DUP2 SUB PUSH0 DUP4 ADD MSTORE PUSH2 0x1881 DUP2 PUSH2 0x1848 JUMP JUMPDEST SWAP1 POP SWAP2 SWAP1 POP JUMP JUMPDEST PUSH32 0x5061796D656E7420616D6F756E74206D75737420626520677265617465722074 PUSH0 DUP3 ADD MSTORE PUSH32 0x68616E207A65726F000000000000000000000000000000000000000000000000 PUSH1 0x20 DUP3 ADD MSTORE POP JUMP JUMPDEST PUSH0 PUSH2 0x18E2 PUSH1 0x28 DUP4 PUSH2 0x1120 JUMP JUMPDEST SWAP2 POP PUSH2 0x18ED DUP3 PUSH2 0x1888 JUMP JUMPDEST PUSH1 0x40 DUP3 ADD SWAP1 POP SWAP2 SWAP1 POP JUMP JUMPDEST PUSH0 PUSH1 0x20 DUP3 ADD SWAP1 POP DUP2 DUP2 SUB PUSH0 DUP4 ADD MSTORE PUSH2 0x190F DUP2 PUSH2 0x18D6 JUMP JUMPDEST SWAP1 POP SWAP2 SWAP1 POP JUMP JUMPDEST PUSH0 PUSH1 0x60 DUP3 ADD SWAP1 POP PUSH2 0x1929 PUSH0 DUP4 ADD DUP7 PUSH2 0x125A JUMP JUMPDEST PUSH2 0x1936 PUSH1 0x20 DUP4 ADD DUP6 PUSH2 0x125A JUMP JUMPDEST PUSH2 0x1943 PUSH1 0x40 DUP4 ADD DUP5 PUSH2 0x12DC JUMP JUMPDEST SWAP5 SWAP4 POP POP POP POP JUMP JUMPDEST PUSH2 0x1954 DUP2 PUSH2 0x1176 JUMP JUMPDEST DUP2 EQ PUSH2 0x195E JUMPI PUSH0 PUSH0 REVERT JUMPDEST POP JUMP JUMPDEST PUSH0 DUP2 MLOAD SWAP1 POP PUSH2 0x196F DUP2 PUSH2 0x194B JUMP JUMPDEST SWAP3 SWAP2 POP POP JUMP JUMPDEST PUSH0 PUSH1 0x20 DUP3 DUP5 SUB SLT ISZERO PUSH2 0x198A JUMPI PUSH2 0x1989 PUSH2 0xE92 JUMP JUMPDEST JUMPDEST PUSH0 PUSH2 0x1997 DUP5 DUP3 DUP6 ADD PUSH2 0x1961 JUMP JUMPDEST SWAP2 POP POP SWAP3 SWAP2 POP POP JUMP JUMPDEST PUSH0 PUSH1 0x20 DUP3 ADD SWAP1 POP PUSH2 0x19B3 PUSH0 DUP4 ADD DUP5 PUSH2 0x12DC JUMP JUMPDEST SWAP3 SWAP2 POP POP JUMP JUMPDEST PUSH32 0x4F6E6C79206369747920617574686F726974792063616E20706572666F726D20 PUSH0 DUP3 ADD MSTORE PUSH32 0x7468697320616374696F6E000000000000000000000000000000000000000000 PUSH1 0x20 DUP3 ADD MSTORE POP JUMP JUMPDEST PUSH0 PUSH2 0x1A13 PUSH1 0x2B DUP4 PUSH2 0x1120 JUMP JUMPDEST SWAP2 POP PUSH2 0x1A1E DUP3 PUSH2 0x19B9 JUMP JUMPDEST PUSH1 0x40 DUP3 ADD SWAP1 POP SWAP2 SWAP1 POP JUMP JUMPDEST PUSH0 PUSH1 0x20 DUP3 ADD SWAP1 POP DUP2 DUP2 SUB PUSH0 DUP4 ADD MSTORE PUSH2 0x1A40 DUP2 PUSH2 0x1A07 JUMP JUMPDEST SWAP1 POP SWAP2 SWAP1 POP JUMP JUMPDEST PUSH32 0x5061726B696E672073706F7420616C7265616479206578697374730000000000 PUSH0 DUP3 ADD MSTORE POP JUMP JUMPDEST PUSH0 PUSH2 0x1A7B PUSH1 0x1B DUP4 PUSH2 0x1120 JUMP JUMPDEST SWAP2 POP PUSH2 0x1A86 DUP3 PUSH2 0x1A47 JUMP JUMPDEST PUSH1 0x20 DUP3 ADD SWAP1 POP SWAP2 SWAP1 POP JUMP JUMPDEST PUSH0 PUSH1 0x20 DUP3 ADD SWAP1 POP DUP2 DUP2 SUB PUSH0 DUP4 ADD MSTORE PUSH2 0x1AA8 DUP2 PUSH2 0x1A6F JUMP JUMPDEST SWAP1 POP SWAP2 SWAP1 POP JUMP JUMPDEST PUSH32 0x4C6F636174696F6E2063616E6E6F7420626520656D7074790000000000000000 PUSH0 DUP3 ADD MSTORE POP JUMP JUMPDEST PUSH0 PUSH2 0x1AE3 PUSH1 0x18 DUP4 PUSH2 0x1120 JUMP JUMPDEST SWAP2 POP PUSH2 0x1AEE DUP3 PUSH2 0x1AAF JUMP JUMPDEST PUSH1 0x20 DUP3 ADD SWAP1 POP SWAP2 SWAP1 POP JUMP JUMPDEST PUSH0 PUSH1 0x20 DUP3 ADD SWAP1 POP DUP2 DUP2 SUB PUSH0 DUP4 ADD MSTORE PUSH2 0x1B10 DUP2 PUSH2 0x1AD7 JUMP JUMPDEST SWAP1 POP SWAP2 SWAP1 POP JUMP INVALID LOG2 PUSH5 0x6970667358 0x22 SLT KECCAK256 0x27 LOG4 0xCD PUSH12 0xAB0868D41AF3F7AE3EDB4BF0 CODECOPY SELFBALANCE 0xB3 EQ 0x1F SLT LOG2 MLOAD SWAP5 PUSH18 0x1E4E697EFEE364736F6C634300081E003300 "
				},
				"gasEstimates": {
					"creation": {
						"codeDepositCost": "1397800",
						"executionCost": "infinite",
						"totalCost": "infinite"
					},
					"external": {
						"cityAuthority()": "2551",
						"drivers(address)": "infinite",
						"parkingSpots(uint256)": "infinite",
						"parkingToken()": "infinite",
						"payForParking(uint256,uint256)": "infinite",
						"registerDriver(string)": "infinite",
						"registerParkingSpot(uint256,string)": "infinite",
						"releaseSpot(uint256)": "57074",
						"reserveSpot(uint256)": "57433"
					}
				},
				"methodIdentifiers": {
					"cityAuthority()": "c36809e7",
					"drivers(address)": "4aa60186",
					"parkingSpots(uint256)": "f5defcd3",
					"parkingToken()": "309f225d",
					"payForParking(uint256,uint256)": "728c34d7",
					"registerDriver(string)": "05f4804c",
					"registerParkingSpot(uint256,string)": "f12d4f09",
					"releaseSpot(uint256)": "a127dcd3",
					"reserveSpot(uint256)": "642a79eb"
				}
			},
			"storageLayout": {
				"storage": [
					{
						"astId": 231,
						"contract": "SmartCityParking.sol:SmartCityParking",
						"label": "cityAuthority",
						"offset": 0,
						"slot": "0",
						"type": "t_address"
					},
					{
						"astId": 234,
						"contract": "SmartCityParking.sol:SmartCityParking",
						"label": "parkingToken",
						"offset": 0,
						"slot": "1",
						"type": "t_contract(CityParkingToken)226"
					},
					{
						"astId": 253,
						"contract": "SmartCityParking.sol:SmartCityParking",
						"label": "drivers",
						"offset": 0,
						"slot": "2",
						"type": "t_mapping(t_address,t_struct(Driver)239_storage)"
					},
					{
						"astId": 258,
						"contract": "SmartCityParking.sol:SmartCityParking",
						"label": "parkingSpots",
						"offset": 0,
						"slot": "3",
						"type": "t_mapping(t_uint256,t_struct(ParkingSpot)248_storage)"
					}
				],
				"types": {
					"t_address": {
						"encoding": "inplace",
						"label": "address",
						"numberOfBytes": "20"
					},
					"t_bool": {
						"encoding": "inplace",
						"label": "bool",
						"numberOfBytes": "1"
					},
					"t_contract(CityParkingToken)226": {
						"encoding": "inplace",
						"label": "contract CityParkingToken",
						"numberOfBytes": "20"
					},
					"t_mapping(t_address,t_struct(Driver)239_storage)": {
						"encoding": "mapping",
						"key": "t_address",
						"label": "mapping(address => struct SmartCityParking.Driver)",
						"numberOfBytes": "32",
						"value": "t_struct(Driver)239_storage"
					},
					"t_mapping(t_uint256,t_struct(ParkingSpot)248_storage)": {
						"encoding": "mapping",
						"key": "t_uint256",
						"label": "mapping(uint256 => struct SmartCityParking.ParkingSpot)",
						"numberOfBytes": "32",
						"value": "t_struct(ParkingSpot)248_storage"
					},
					"t_string_storage": {
						"encoding": "bytes",
						"label": "string",
						"numberOfBytes": "32"
					},
					"t_struct(Driver)239_storage": {
						"encoding": "inplace",
						"label": "struct SmartCityParking.Driver",
						"members": [
							{
								"astId": 236,
								"contract": "SmartCityParking.sol:SmartCityParking",
								"label": "name",
								"offset": 0,
								"slot": "0",
								"type": "t_string_storage"
							},
							{
								"astId": 238,
								"contract": "SmartCityParking.sol:SmartCityParking",
								"label": "isRegistered",
								"offset": 0,
								"slot": "1",
								"type": "t_bool"
							}
						],
						"numberOfBytes": "64"
					},
					"t_struct(ParkingSpot)248_storage": {
						"encoding": "inplace",
						"label": "struct SmartCityParking.ParkingSpot",
						"members": [
							{
								"astId": 241,
								"contract": "SmartCityParking.sol:SmartCityParking",
								"label": "id",
								"offset": 0,
								"slot": "0",
								"type": "t_uint256"
							},
							{
								"astId": 243,
								"contract": "SmartCityParking.sol:SmartCityParking",
								"label": "location",
								"offset": 0,
								"slot": "1",
								"type": "t_string_storage"
							},
							{
								"astId": 245,
								"contract": "SmartCityParking.sol:SmartCityParking",
								"label": "isAvailable",
								"offset": 0,
								"slot": "2",
								"type": "t_bool"
							},
							{
								"astId": 247,
								"contract": "SmartCityParking.sol:SmartCityParking",
								"label": "occupant",
								"offset": 1,
								"slot": "2",
								"type": "t_address"
							}
						],
						"numberOfBytes": "96"
					},
					"t_uint256": {
						"encoding": "inplace",
						"label": "uint256",
						"numberOfBytes": "32"
					}
				}
			},
			"userdoc": {
				"kind": "user",
				"methods": {},
				"version": 1
			}
		}
	}
}