{
	"CityReport.sol": {
		"SmartCityReportSystem": {
			"abi": [
				{
					"anonymous": false,
					"inputs": [
						{
							"indexed": true,
							"internalType": "address",
							"name": "user",
							"type": "address"
						},
						{
							"indexed": false,
							"internalType": "string",
							"name": "name",
							"type": "string"
						},
						{
							"indexed": false,
							"internalType": "uint256",
							"name": "idNumber",
							"type": "uint256"
						}
					],
					"name": "CitizenRegistered",
					"type": "event"
				},
				{
					"anonymous": false,
					"inputs": [
						{
							"indexed": true,
							"internalType": "address",
							"name": "user",
							"type": "address"
						},
						{
							"indexed": false,
							"internalType": "uint256",
							"name": "totalPoints",
							"type": "uint256"
						}
					],
					"name": "PointsAwarded",
					"type": "event"
				},
				{
					"anonymous": false,
					"inputs": [
						{
							"indexed": true,
							"internalType": "address",
							"name": "user",
							"type": "address"
						},
						{
							"indexed": false,
							"internalType": "string",
							"name": "description",
							"type": "string"
						},
						{
							"indexed": false,
							"internalType": "uint256",
							"name": "timestamp",
							"type": "uint256"
						}
					],
					"name": "ReportSubmitted",
					"type": "event"
				},
				{
					"inputs": [
						{
							"internalType": "address",
							"name": "",
							"type": "address"
						}
					],
					"name": "citizens",
					"outputs": [
						{
							"internalType": "string",
							"name": "name",
							"type": "string"
						},
						{
							"internalType": "uint256",
							"name": "idNumber",
							"type": "uint256"
						},
						{
							"internalType": "bool",
							"name": "isRegistered",
							"type": "bool"
						}
					],
					"stateMutability": "view",
					"type": "function"
				},
				{
					"inputs": [
						{
							"internalType": "address",
							"name": "_user",
							"type": "address"
						},
						{
							"internalType": "uint256",
							"name": "index",
							"type": "uint256"
						}
					],
					"name": "getReportByIndex",
					"outputs": [
						{
							"internalType": "string",
							"name": "",
							"type": "string"
						},
						{
							"internalType": "uint256",
							"name": "",
							"type": "uint256"
						}
					],
					"stateMutability": "view",
					"type": "function"
				},
				{
					"inputs": [
						{
							"internalType": "address",
							"name": "_user",
							"type": "address"
						}
					],
					"name": "getReportCount",
					"outputs": [
						{
							"internalType": "uint256",
							"name": "",
							"type": "uint256"
						}
					],
					"stateMutability": "view",
					"type": "function"
				},
				{
					"inputs": [
						{
							"internalType": "string",
							"name": "_name",
							"type": "string"
						},
						{
							"internalType": "uint256",
							"name": "_idNumber",
							"type": "uint256"
						}
					],
					"name": "registerCitizen",
					"outputs": [],
					"stateMutability": "nonpayable",
					"type": "function"
				},
				{
					"inputs": [
						{
							"internalType": "address",
							"name": "",
							"type": "address"
						}
					],
					"name": "reportPoints",
					"outputs": [
						{
							"internalType": "uint256",
							"name": "",
							"type": "uint256"
						}
					],
					"stateMutability": "view",
					"type": "function"
				},
				{
					"inputs": [
						{
							"internalType": "address",
							"name": "",
							"type": "address"
						},
						{
							"internalType": "uint256",
							"name": "",
							"type": "uint256"
						}
					],
					"name": "reports",
					"outputs": [
						{
							"internalType": "string",
							"name": "description",
							"type": "string"
						},
						{
							"internalType": "uint256",
							"name": "timestamp",
							"type": "uint256"
						}
					],
					"stateMutability": "view",
					"type": "function"
				},
				{
					"inputs": [
						{
							"internalType": "string",
							"name": "_description",
							"type": "string"
						}
					],
					"name": "submitReport",
					"outputs": [],
					"stateMutability": "nonpayable",
					"type": "function"
				}
			],
			"devdoc": {
				"kind": "dev",
				"methods": {},
				"title": "Smart City Reporting System",
				"version": 1
			},
			"evm": {
				"assembly": "    /* \"CityReport.sol\":148:2441  contract SmartCityReportSystem {... */\n  mstore(0x40, 0x80)\n  callvalue\n  dup1\n  iszero\n  tag_1\n  jumpi\n  revert(0x00, 0x00)\ntag_1:\n  pop\n  dataSize(sub_0)\n  dup1\n  dataOffset(sub_0)\n  0x00\n  codecopy\n  0x00\n  return\nstop\n\nsub_0: assembly {\n        /* \"CityReport.sol\":148:2441  contract SmartCityReportSystem {... */\n      mstore(0x40, 0x80)\n      callvalue\n      dup1\n      iszero\n      tag_1\n      jumpi\n      revert(0x00, 0x00)\n    tag_1:\n      pop\n      jumpi(tag_2, lt(calldatasize, 0x04))\n      shr(0xe0, calldataload(0x00))\n      dup1\n      0x9e22a893\n      gt\n      tag_10\n      jumpi\n      dup1\n      0x9e22a893\n      eq\n      tag_6\n      jumpi\n      dup1\n      0xbad02c7e\n      eq\n      tag_7\n      jumpi\n      dup1\n      0xd4f910a7\n      eq\n      tag_8\n      jumpi\n      dup1\n      0xf11cd6d2\n      eq\n      tag_9\n      jumpi\n      jump(tag_2)\n    tag_10:\n      dup1\n      0x3e085831\n      eq\n      tag_3\n      jumpi\n      dup1\n      0x635ac1ed\n      eq\n      tag_4\n      jumpi\n      dup1\n      0x7cdade8f\n      eq\n      tag_5\n      jumpi\n    tag_2:\n      revert(0x00, 0x00)\n        /* \"CityReport.sol\":1139:1423  function registerCitizen(string memory _name, uint _idNumber) public {... */\n    tag_3:\n      tag_11\n      0x04\n      dup1\n      calldatasize\n      sub\n      dup2\n      add\n      swap1\n      tag_12\n      swap2\n      swap1\n      tag_13\n      jump\t// in\n    tag_12:\n      tag_14\n      jump\t// in\n    tag_11:\n      stop\n        /* \"CityReport.sol\":1475:1930  function submitReport(string memory _description) public onlyRegisteredCitizen {... */\n    tag_4:\n      tag_15\n      0x04\n      dup1\n      calldatasize\n      sub\n      dup2\n      add\n      swap1\n      tag_16\n      swap2\n      swap1\n      tag_17\n      jump\t// in\n    tag_16:\n      tag_18\n      jump\t// in\n    tag_15:\n      stop\n        /* \"CityReport.sol\":2166:2438  function getReportByIndex(address _user, uint index) public view returns (string memory, uint) {... */\n    tag_5:\n      tag_19\n      0x04\n      dup1\n      calldatasize\n      sub\n      dup2\n      add\n      swap1\n      tag_20\n      swap2\n      swap1\n      tag_21\n      jump\t// in\n    tag_20:\n      tag_22\n      jump\t// in\n    tag_19:\n      mload(0x40)\n      tag_23\n      swap3\n      swap2\n      swap1\n      tag_24\n      jump\t// in\n    tag_23:\n      mload(0x40)\n      dup1\n      swap2\n      sub\n      swap1\n      return\n        /* \"CityReport.sol\":1997:2110  function getReportCount(address _user) public view returns (uint) {... */\n    tag_6:\n      tag_25\n      0x04\n      dup1\n      calldatasize\n      sub\n      dup2\n      add\n      swap1\n      tag_26\n      swap2\n      swap1\n      tag_27\n      jump\t// in\n    tag_26:\n      tag_28\n      jump\t// in\n    tag_25:\n      mload(0x40)\n      tag_29\n      swap2\n      swap1\n      tag_30\n      jump\t// in\n    tag_29:\n      mload(0x40)\n      dup1\n      swap2\n      sub\n      swap1\n      return\n        /* \"CityReport.sol\":495:538  mapping(address => Report[]) public reports */\n    tag_7:\n      tag_31\n      0x04\n      dup1\n      calldatasize\n      sub\n      dup2\n      add\n      swap1\n      tag_32\n      swap2\n      swap1\n      tag_21\n      jump\t// in\n    tag_32:\n      tag_33\n      jump\t// in\n    tag_31:\n      mload(0x40)\n      tag_34\n      swap3\n      swap2\n      swap1\n      tag_24\n      jump\t// in\n    tag_34:\n      mload(0x40)\n      dup1\n      swap2\n      sub\n      swap1\n      return\n        /* \"CityReport.sol\":445:488  mapping(address => Citizen) public citizens */\n    tag_8:\n      tag_35\n      0x04\n      dup1\n      calldatasize\n      sub\n      dup2\n      add\n      swap1\n      tag_36\n      swap2\n      swap1\n      tag_27\n      jump\t// in\n    tag_36:\n      tag_37\n      jump\t// in\n    tag_35:\n      mload(0x40)\n      tag_38\n      swap4\n      swap3\n      swap2\n      swap1\n      tag_39\n      jump\t// in\n    tag_38:\n      mload(0x40)\n      dup1\n      swap2\n      sub\n      swap1\n      return\n        /* \"CityReport.sol\":545:589  mapping(address => uint) public reportPoints */\n    tag_9:\n      tag_40\n      0x04\n      dup1\n      calldatasize\n      sub\n      dup2\n      add\n      swap1\n      tag_41\n      swap2\n      swap1\n      tag_27\n      jump\t// in\n    tag_41:\n      tag_42\n      jump\t// in\n    tag_40:\n      mload(0x40)\n      tag_43\n      swap2\n      swap1\n      tag_30\n      jump\t// in\n    tag_43:\n      mload(0x40)\n      dup1\n      swap2\n      sub\n      swap1\n      return\n        /* \"CityReport.sol\":1139:1423  function registerCitizen(string memory _name, uint _idNumber) public {... */\n    tag_14:\n        /* \"CityReport.sol\":1228:1236  citizens */\n      0x00\n        /* \"CityReport.sol\":1228:1248  citizens[msg.sender] */\n      0x00\n        /* \"CityReport.sol\":1237:1247  msg.sender */\n      caller\n        /* \"CityReport.sol\":1228:1248  citizens[msg.sender] */\n      0xffffffffffffffffffffffffffffffffffffffff\n      and\n      0xffffffffffffffffffffffffffffffffffffffff\n      and\n      dup2\n      mstore\n      0x20\n      add\n      swap1\n      dup2\n      mstore\n      0x20\n      add\n      0x00\n      keccak256\n        /* \"CityReport.sol\":1228:1261  citizens[msg.sender].isRegistered */\n      0x02\n      add\n      0x00\n      swap1\n      sload\n      swap1\n      0x0100\n      exp\n      swap1\n      div\n      0xff\n      and\n        /* \"CityReport.sol\":1227:1261  !citizens[msg.sender].isRegistered */\n      iszero\n        /* \"CityReport.sol\":1219:1285  require(!citizens[msg.sender].isRegistered, \"Already registered.\") */\n      tag_45\n      jumpi\n      mload(0x40)\n      0x08c379a000000000000000000000000000000000000000000000000000000000\n      dup2\n      mstore\n      0x04\n      add\n      tag_46\n      swap1\n      tag_47\n      jump\t// in\n    tag_46:\n      mload(0x40)\n      dup1\n      swap2\n      sub\n      swap1\n      revert\n    tag_45:\n        /* \"CityReport.sol\":1319:1350  Citizen(_name, _idNumber, true) */\n      mload(0x40)\n      dup1\n      0x60\n      add\n      0x40\n      mstore\n      dup1\n        /* \"CityReport.sol\":1327:1332  _name */\n      dup4\n        /* \"CityReport.sol\":1319:1350  Citizen(_name, _idNumber, true) */\n      dup2\n      mstore\n      0x20\n      add\n        /* \"CityReport.sol\":1334:1343  _idNumber */\n      dup3\n        /* \"CityReport.sol\":1319:1350  Citizen(_name, _idNumber, true) */\n      dup2\n      mstore\n      0x20\n      add\n        /* \"CityReport.sol\":1345:1349  true */\n      0x01\n        /* \"CityReport.sol\":1319:1350  Citizen(_name, _idNumber, true) */\n      iszero\n      iszero\n      dup2\n      mstore\n      pop\n        /* \"CityReport.sol\":1296:1304  citizens */\n      0x00\n        /* \"CityReport.sol\":1296:1316  citizens[msg.sender] */\n      0x00\n        /* \"CityReport.sol\":1305:1315  msg.sender */\n      caller\n        /* \"CityReport.sol\":1296:1316  citizens[msg.sender] */\n      0xffffffffffffffffffffffffffffffffffffffff\n      and\n      0xffffffffffffffffffffffffffffffffffffffff\n      and\n      dup2\n      mstore\n      0x20\n      add\n      swap1\n      dup2\n      mstore\n      0x20\n      add\n      0x00\n      keccak256\n        /* \"CityReport.sol\":1296:1350  citizens[msg.sender] = Citizen(_name, _idNumber, true) */\n      0x00\n      dup3\n      add\n      mload\n      dup2\n      0x00\n      add\n      swap1\n      dup2\n      tag_48\n      swap2\n      swap1\n      tag_49\n      jump\t// in\n    tag_48:\n      pop\n      0x20\n      dup3\n      add\n      mload\n      dup2\n      0x01\n      add\n      sstore\n      0x40\n      dup3\n      add\n      mload\n      dup2\n      0x02\n      add\n      exp(0x0100, 0x00)\n      dup2\n      sload\n      dup2\n      0xff\n      mul\n      not\n      and\n      swap1\n      dup4\n      iszero\n      iszero\n      mul\n      or\n      swap1\n      sstore\n      pop\n      swap1\n      pop\n      pop\n        /* \"CityReport.sol\":1386:1396  msg.sender */\n      caller\n        /* \"CityReport.sol\":1368:1415  CitizenRegistered(msg.sender, _name, _idNumber) */\n      0xffffffffffffffffffffffffffffffffffffffff\n      and\n      0x754530224c6d5f086f90f1ddc12ad49176b37c5ec426819ac61035f9427fd2df\n        /* \"CityReport.sol\":1398:1403  _name */\n      dup4\n        /* \"CityReport.sol\":1405:1414  _idNumber */\n      dup4\n        /* \"CityReport.sol\":1368:1415  CitizenRegistered(msg.sender, _name, _idNumber) */\n      mload(0x40)\n      tag_50\n      swap3\n      swap2\n      swap1\n      tag_24\n      jump\t// in\n    tag_50:\n      mload(0x40)\n      dup1\n      swap2\n      sub\n      swap1\n      log2\n        /* \"CityReport.sol\":1139:1423  function registerCitizen(string memory _name, uint _idNumber) public {... */\n      pop\n      pop\n      jump\t// out\n        /* \"CityReport.sol\":1475:1930  function submitReport(string memory _description) public onlyRegisteredCitizen {... */\n    tag_18:\n        /* \"CityReport.sol\":945:953  citizens */\n      0x00\n        /* \"CityReport.sol\":945:965  citizens[msg.sender] */\n      0x00\n        /* \"CityReport.sol\":954:964  msg.sender */\n      caller\n        /* \"CityReport.sol\":945:965  citizens[msg.sender] */\n      0xffffffffffffffffffffffffffffffffffffffff\n      and\n      0xffffffffffffffffffffffffffffffffffffffff\n      and\n      dup2\n      mstore\n      0x20\n      add\n      swap1\n      dup2\n      mstore\n      0x20\n      add\n      0x00\n      keccak256\n        /* \"CityReport.sol\":945:978  citizens[msg.sender].isRegistered */\n      0x02\n      add\n      0x00\n      swap1\n      sload\n      swap1\n      0x0100\n      exp\n      swap1\n      div\n      0xff\n      and\n        /* \"CityReport.sol\":937:1029  require(citizens[msg.sender].isRegistered, \"You must be registered to perform this action.\") */\n      tag_52\n      jumpi\n      mload(0x40)\n      0x08c379a000000000000000000000000000000000000000000000000000000000\n      dup2\n      mstore\n      0x04\n      add\n      tag_53\n      swap1\n      tag_54\n      jump\t// in\n    tag_53:\n      mload(0x40)\n      dup1\n      swap2\n      sub\n      swap1\n      revert\n    tag_52:\n        /* \"CityReport.sol\":1565:1572  reports */\n      0x01\n        /* \"CityReport.sol\":1565:1584  reports[msg.sender] */\n      0x00\n        /* \"CityReport.sol\":1573:1583  msg.sender */\n      caller\n        /* \"CityReport.sol\":1565:1584  reports[msg.sender] */\n      0xffffffffffffffffffffffffffffffffffffffff\n      and\n      0xffffffffffffffffffffffffffffffffffffffff\n      and\n      dup2\n      mstore\n      0x20\n      add\n      swap1\n      dup2\n      mstore\n      0x20\n      add\n      0x00\n      keccak256\n        /* \"CityReport.sol\":1590:1690  Report({... */\n      mload(0x40)\n      dup1\n      0x40\n      add\n      0x40\n      mstore\n      dup1\n        /* \"CityReport.sol\":1625:1637  _description */\n      dup4\n        /* \"CityReport.sol\":1590:1690  Report({... */\n      dup2\n      mstore\n      0x20\n      add\n        /* \"CityReport.sol\":1663:1678  block.timestamp */\n      timestamp\n        /* \"CityReport.sol\":1590:1690  Report({... */\n      dup2\n      mstore\n      pop\n        /* \"CityReport.sol\":1565:1691  reports[msg.sender].push(Report({... */\n      swap1\n      dup1\n      0x01\n      dup2\n      sload\n      add\n      dup1\n      dup3\n      sstore\n      dup1\n      swap2\n      pop\n      pop\n      0x01\n      swap1\n      sub\n      swap1\n      0x00\n      mstore\n      keccak256(0x00, 0x20)\n      swap1\n      0x02\n      mul\n      add\n      0x00\n      swap1\n      swap2\n      swap1\n      swap2\n      swap1\n      swap2\n      pop\n      0x00\n      dup3\n      add\n      mload\n      dup2\n      0x00\n      add\n      swap1\n      dup2\n      tag_57\n      swap2\n      swap1\n      tag_49\n      jump\t// in\n    tag_57:\n      pop\n      0x20\n      dup3\n      add\n      mload\n      dup2\n      0x01\n      add\n      sstore\n      pop\n      pop\n        /* \"CityReport.sol\":1778:1779  1 */\n      0x01\n        /* \"CityReport.sol\":1750:1762  reportPoints */\n      0x02\n        /* \"CityReport.sol\":1750:1774  reportPoints[msg.sender] */\n      0x00\n        /* \"CityReport.sol\":1763:1773  msg.sender */\n      caller\n        /* \"CityReport.sol\":1750:1774  reportPoints[msg.sender] */\n      0xffffffffffffffffffffffffffffffffffffffff\n      and\n      0xffffffffffffffffffffffffffffffffffffffff\n      and\n      dup2\n      mstore\n      0x20\n      add\n      swap1\n      dup2\n      mstore\n      0x20\n      add\n      0x00\n      keccak256\n      0x00\n        /* \"CityReport.sol\":1750:1779  reportPoints[msg.sender] += 1 */\n      dup3\n      dup3\n      sload\n      tag_58\n      swap2\n      swap1\n      tag_59\n      jump\t// in\n    tag_58:\n      swap3\n      pop\n      pop\n      dup2\n      swap1\n      sstore\n      pop\n        /* \"CityReport.sol\":1813:1823  msg.sender */\n      caller\n        /* \"CityReport.sol\":1797:1855  ReportSubmitted(msg.sender, _description, block.timestamp) */\n      0xffffffffffffffffffffffffffffffffffffffff\n      and\n      0x8eee89b637f272e645302f4b1f23e9c8fbe825d2d532be1a72731e14807cfc72\n        /* \"CityReport.sol\":1825:1837  _description */\n      dup3\n        /* \"CityReport.sol\":1839:1854  block.timestamp */\n      timestamp\n        /* \"CityReport.sol\":1797:1855  ReportSubmitted(msg.sender, _description, block.timestamp) */\n      mload(0x40)\n      tag_60\n      swap3\n      swap2\n      swap1\n      tag_24\n      jump\t// in\n    tag_60:\n      mload(0x40)\n      dup1\n      swap2\n      sub\n      swap1\n      log2\n        /* \"CityReport.sol\":1885:1895  msg.sender */\n      caller\n        /* \"CityReport.sol\":1871:1922  PointsAwarded(msg.sender, reportPoints[msg.sender]) */\n      0xffffffffffffffffffffffffffffffffffffffff\n      and\n      0x900825d4808e50002c1a3614c809eb06d2d7142338f0dec06ed9a4057c8a8c99\n        /* \"CityReport.sol\":1897:1909  reportPoints */\n      0x02\n        /* \"CityReport.sol\":1897:1921  reportPoints[msg.sender] */\n      0x00\n        /* \"CityReport.sol\":1910:1920  msg.sender */\n      caller\n        /* \"CityReport.sol\":1897:1921  reportPoints[msg.sender] */\n      0xffffffffffffffffffffffffffffffffffffffff\n      and\n      0xffffffffffffffffffffffffffffffffffffffff\n      and\n      dup2\n      mstore\n      0x20\n      add\n      swap1\n      dup2\n      mstore\n      0x20\n      add\n      0x00\n      keccak256\n      sload\n        /* \"CityReport.sol\":1871:1922  PointsAwarded(msg.sender, reportPoints[msg.sender]) */\n      mload(0x40)\n      tag_61\n      swap2\n      swap1\n      tag_30\n      jump\t// in\n    tag_61:\n      mload(0x40)\n      dup1\n      swap2\n      sub\n      swap1\n      log2\n        /* \"CityReport.sol\":1475:1930  function submitReport(string memory _description) public onlyRegisteredCitizen {... */\n      pop\n      jump\t// out\n        /* \"CityReport.sol\":2166:2438  function getReportByIndex(address _user, uint index) public view returns (string memory, uint) {... */\n    tag_22:\n        /* \"CityReport.sol\":2240:2253  string memory */\n      0x60\n        /* \"CityReport.sol\":2255:2259  uint */\n      0x00\n        /* \"CityReport.sol\":2288:2295  reports */\n      0x01\n        /* \"CityReport.sol\":2288:2302  reports[_user] */\n      0x00\n        /* \"CityReport.sol\":2296:2301  _user */\n      dup6\n        /* \"CityReport.sol\":2288:2302  reports[_user] */\n      0xffffffffffffffffffffffffffffffffffffffff\n      and\n      0xffffffffffffffffffffffffffffffffffffffff\n      and\n      dup2\n      mstore\n      0x20\n      add\n      swap1\n      dup2\n      mstore\n      0x20\n      add\n      0x00\n      keccak256\n        /* \"CityReport.sol\":2288:2309  reports[_user].length */\n      dup1\n      sload\n      swap1\n      pop\n        /* \"CityReport.sol\":2280:2285  index */\n      dup4\n        /* \"CityReport.sol\":2280:2309  index < reports[_user].length */\n      lt\n        /* \"CityReport.sol\":2272:2334  require(index < reports[_user].length, \"Invalid report index\") */\n      tag_63\n      jumpi\n      mload(0x40)\n      0x08c379a000000000000000000000000000000000000000000000000000000000\n      dup2\n      mstore\n      0x04\n      add\n      tag_64\n      swap1\n      tag_65\n      jump\t// in\n    tag_64:\n      mload(0x40)\n      dup1\n      swap2\n      sub\n      swap1\n      revert\n    tag_63:\n        /* \"CityReport.sol\":2345:2360  Report memory r */\n      0x00\n        /* \"CityReport.sol\":2363:2370  reports */\n      0x01\n        /* \"CityReport.sol\":2363:2377  reports[_user] */\n      0x00\n        /* \"CityReport.sol\":2371:2376  _user */\n      dup7\n        /* \"CityReport.sol\":2363:2377  reports[_user] */\n      0xffffffffffffffffffffffffffffffffffffffff\n      and\n      0xffffffffffffffffffffffffffffffffffffffff\n      and\n      dup2\n      mstore\n      0x20\n      add\n      swap1\n      dup2\n      mstore\n      0x20\n      add\n      0x00\n      keccak256\n        /* \"CityReport.sol\":2378:2383  index */\n      dup5\n        /* \"CityReport.sol\":2363:2384  reports[_user][index] */\n      dup2\n      sload\n      dup2\n      lt\n      tag_66\n      jumpi\n      tag_67\n      tag_68\n      jump\t// in\n    tag_67:\n    tag_66:\n      swap1\n      0x00\n      mstore\n      keccak256(0x00, 0x20)\n      swap1\n      0x02\n      mul\n      add\n        /* \"CityReport.sol\":2345:2384  Report memory r = reports[_user][index] */\n      mload(0x40)\n      dup1\n      0x40\n      add\n      0x40\n      mstore\n      swap1\n      dup2\n      0x00\n      dup3\n      add\n      dup1\n      sload\n      tag_70\n      swap1\n      tag_71\n      jump\t// in\n    tag_70:\n      dup1\n      0x1f\n      add\n      0x20\n      dup1\n      swap2\n      div\n      mul\n      0x20\n      add\n      mload(0x40)\n      swap1\n      dup2\n      add\n      0x40\n      mstore\n      dup1\n      swap3\n      swap2\n      swap1\n      dup2\n      dup2\n      mstore\n      0x20\n      add\n      dup3\n      dup1\n      sload\n      tag_72\n      swap1\n      tag_71\n      jump\t// in\n    tag_72:\n      dup1\n      iszero\n      tag_73\n      jumpi\n      dup1\n      0x1f\n      lt\n      tag_74\n      jumpi\n      0x0100\n      dup1\n      dup4\n      sload\n      div\n      mul\n      dup4\n      mstore\n      swap2\n      0x20\n      add\n      swap2\n      jump(tag_73)\n    tag_74:\n      dup3\n      add\n      swap2\n      swap1\n      0x00\n      mstore\n      keccak256(0x00, 0x20)\n      swap1\n    tag_75:\n      dup2\n      sload\n      dup2\n      mstore\n      swap1\n      0x01\n      add\n      swap1\n      0x20\n      add\n      dup1\n      dup4\n      gt\n      tag_75\n      jumpi\n      dup3\n      swap1\n      sub\n      0x1f\n      and\n      dup3\n      add\n      swap2\n    tag_73:\n      pop\n      pop\n      pop\n      pop\n      pop\n      dup2\n      mstore\n      0x20\n      add\n      0x01\n      dup3\n      add\n      sload\n      dup2\n      mstore\n      pop\n      pop\n      swap1\n      pop\n        /* \"CityReport.sol\":2403:2404  r */\n      dup1\n        /* \"CityReport.sol\":2403:2416  r.description */\n      0x00\n      add\n      mload\n        /* \"CityReport.sol\":2418:2419  r */\n      dup2\n        /* \"CityReport.sol\":2418:2429  r.timestamp */\n      0x20\n      add\n      mload\n        /* \"CityReport.sol\":2395:2430  return (r.description, r.timestamp) */\n      swap3\n      pop\n      swap3\n      pop\n      pop\n        /* \"CityReport.sol\":2166:2438  function getReportByIndex(address _user, uint index) public view returns (string memory, uint) {... */\n      swap3\n      pop\n      swap3\n      swap1\n      pop\n      jump\t// out\n        /* \"CityReport.sol\":1997:2110  function getReportCount(address _user) public view returns (uint) {... */\n    tag_28:\n        /* \"CityReport.sol\":2057:2061  uint */\n      0x00\n        /* \"CityReport.sol\":2081:2088  reports */\n      0x01\n        /* \"CityReport.sol\":2081:2095  reports[_user] */\n      0x00\n        /* \"CityReport.sol\":2089:2094  _user */\n      dup4\n        /* \"CityReport.sol\":2081:2095  reports[_user] */\n      0xffffffffffffffffffffffffffffffffffffffff\n      and\n      0xffffffffffffffffffffffffffffffffffffffff\n      and\n      dup2\n      mstore\n      0x20\n      add\n      swap1\n      dup2\n      mstore\n      0x20\n      add\n      0x00\n      keccak256\n        /* \"CityReport.sol\":2081:2102  reports[_user].length */\n      dup1\n      sload\n      swap1\n      pop\n        /* \"CityReport.sol\":2074:2102  return reports[_user].length */\n      swap1\n      pop\n        /* \"CityReport.sol\":1997:2110  function getReportCount(address _user) public view returns (uint) {... */\n      swap2\n      swap1\n      pop\n      jump\t// out\n        /* \"CityReport.sol\":495:538  mapping(address => Report[]) public reports */\n    tag_33:\n      mstore(0x20, 0x01)\n      dup2\n      0x00\n      mstore\n      keccak256(0x00, 0x40)\n      dup2\n      dup2\n      sload\n      dup2\n      lt\n      tag_77\n      jumpi\n      0x00\n      dup1\n      revert\n    tag_77:\n      swap1\n      0x00\n      mstore\n      keccak256(0x00, 0x20)\n      swap1\n      0x02\n      mul\n      add\n      0x00\n      swap2\n      pop\n      swap2\n      pop\n      pop\n      dup1\n      0x00\n      add\n      dup1\n      sload\n      tag_79\n      swap1\n      tag_71\n      jump\t// in\n    tag_79:\n      dup1\n      0x1f\n      add\n      0x20\n      dup1\n      swap2\n      div\n      mul\n      0x20\n      add\n      mload(0x40)\n      swap1\n      dup2\n      add\n      0x40\n      mstore\n      dup1\n      swap3\n      swap2\n      swap1\n      dup2\n      dup2\n      mstore\n      0x20\n      add\n      dup3\n      dup1\n      sload\n      tag_80\n      swap1\n      tag_71\n      jump\t// in\n    tag_80:\n      dup1\n      iszero\n      tag_81\n      jumpi\n      dup1\n      0x1f\n      lt\n      tag_82\n      jumpi\n      0x0100\n      dup1\n      dup4\n      sload\n      div\n      mul\n      dup4\n      mstore\n      swap2\n      0x20\n      add\n      swap2\n      jump(tag_81)\n    tag_82:\n      dup3\n      add\n      swap2\n      swap1\n      0x00\n      mstore\n      keccak256(0x00, 0x20)\n      swap1\n    tag_83:\n      dup2\n      sload\n      dup2\n      mstore\n      swap1\n      0x01\n      add\n      swap1\n      0x20\n      add\n      dup1\n      dup4\n      gt\n      tag_83\n      jumpi\n      dup3\n      swap1\n      sub\n      0x1f\n      and\n      dup3\n      add\n      swap2\n    tag_81:\n      pop\n      pop\n      pop\n      pop\n      pop\n      swap1\n      dup1\n      0x01\n      add\n      sload\n      swap1\n      pop\n      dup3\n      jump\t// out\n        /* \"CityReport.sol\":445:488  mapping(address => Citizen) public citizens */\n    tag_37:\n      mstore(0x20, 0x00)\n      dup1\n      0x00\n      mstore\n      keccak256(0x00, 0x40)\n      0x00\n      swap2\n      pop\n      swap1\n      pop\n      dup1\n      0x00\n      add\n      dup1\n      sload\n      tag_84\n      swap1\n      tag_71\n      jump\t// in\n    tag_84:\n      dup1\n      0x1f\n      add\n      0x20\n      dup1\n      swap2\n      div\n      mul\n      0x20\n      add\n      mload(0x40)\n      swap1\n      dup2\n      add\n      0x40\n      mstore\n      dup1\n      swap3\n      swap2\n      swap1\n      dup2\n      dup2\n      mstore\n      0x20\n      add\n      dup3\n      dup1\n      sload\n      tag_85\n      swap1\n      tag_71\n      jump\t// in\n    tag_85:\n      dup1\n      iszero\n      tag_86\n      jumpi\n      dup1\n      0x1f\n      lt\n      tag_87\n      jumpi\n      0x0100\n      dup1\n      dup4\n      sload\n      div\n      mul\n      dup4\n      mstore\n      swap2\n      0x20\n      add\n      swap2\n      jump(tag_86)\n    tag_87:\n      dup3\n      add\n      swap2\n      swap1\n      0x00\n      mstore\n      keccak256(0x00, 0x20)\n      swap1\n    tag_88:\n      dup2\n      sload\n      dup2\n      mstore\n      swap1\n      0x01\n      add\n      swap1\n      0x20\n      add\n      dup1\n      dup4\n      gt\n      tag_88\n      jumpi\n      dup3\n      swap1\n      sub\n      0x1f\n      and\n      dup3\n      add\n      swap2\n    tag_86:\n      pop\n      pop\n      pop\n      pop\n      pop\n      swap1\n      dup1\n      0x01\n      add\n      sload\n      swap1\n      dup1\n      0x02\n      add\n      0x00\n      swap1\n      sload\n      swap1\n      0x0100\n      exp\n      swap1\n      div\n      0xff\n      and\n      swap1\n      pop\n      dup4\n      jump\t// out\n        /* \"CityReport.sol\":545:589  mapping(address => uint) public reportPoints */\n    tag_42:\n      mstore(0x20, 0x02)\n      dup1\n      0x00\n      mstore\n      keccak256(0x00, 0x40)\n      0x00\n      swap2\n      pop\n      swap1\n      pop\n      sload\n      dup2\n      jump\t// out\n        /* \"#utility.yul\":7:82   */\n    tag_89:\n        /* \"#utility.yul\":40:46   */\n      0x00\n        /* \"#utility.yul\":73:75   */\n      0x40\n        /* \"#utility.yul\":67:76   */\n      mload\n        /* \"#utility.yul\":57:76   */\n      swap1\n      pop\n        /* \"#utility.yul\":7:82   */\n      swap1\n      jump\t// out\n        /* \"#utility.yul\":88:205   */\n    tag_90:\n        /* \"#utility.yul\":197:198   */\n      0x00\n        /* \"#utility.yul\":194:195   */\n      0x00\n        /* \"#utility.yul\":187:199   */\n      revert\n        /* \"#utility.yul\":211:328   */\n    tag_91:\n        /* \"#utility.yul\":320:321   */\n      0x00\n        /* \"#utility.yul\":317:318   */\n      0x00\n        /* \"#utility.yul\":310:322   */\n      revert\n        /* \"#utility.yul\":334:451   */\n    tag_92:\n        /* \"#utility.yul\":443:444   */\n      0x00\n        /* \"#utility.yul\":440:441   */\n      0x00\n        /* \"#utility.yul\":433:445   */\n      revert\n        /* \"#utility.yul\":457:574   */\n    tag_93:\n        /* \"#utility.yul\":566:567   */\n      0x00\n        /* \"#utility.yul\":563:564   */\n      0x00\n        /* \"#utility.yul\":556:568   */\n      revert\n        /* \"#utility.yul\":580:682   */\n    tag_94:\n        /* \"#utility.yul\":621:627   */\n      0x00\n        /* \"#utility.yul\":672:674   */\n      0x1f\n        /* \"#utility.yul\":668:675   */\n      not\n        /* \"#utility.yul\":663:665   */\n      0x1f\n        /* \"#utility.yul\":656:661   */\n      dup4\n        /* \"#utility.yul\":652:666   */\n      add\n        /* \"#utility.yul\":648:676   */\n      and\n        /* \"#utility.yul\":638:676   */\n      swap1\n      pop\n        /* \"#utility.yul\":580:682   */\n      swap2\n      swap1\n      pop\n      jump\t// out\n        /* \"#utility.yul\":688:868   */\n    tag_95:\n        /* \"#utility.yul\":736:813   */\n      0x4e487b7100000000000000000000000000000000000000000000000000000000\n        /* \"#utility.yul\":733:734   */\n      0x00\n        /* \"#utility.yul\":726:814   */\n      mstore\n        /* \"#utility.yul\":833:837   */\n      0x41\n        /* \"#utility.yul\":830:831   */\n      0x04\n        /* \"#utility.yul\":823:838   */\n      mstore\n        /* \"#utility.yul\":857:861   */\n      0x24\n        /* \"#utility.yul\":854:855   */\n      0x00\n        /* \"#utility.yul\":847:862   */\n      revert\n        /* \"#utility.yul\":874:1155   */\n    tag_96:\n        /* \"#utility.yul\":957:984   */\n      tag_148\n        /* \"#utility.yul\":979:983   */\n      dup3\n        /* \"#utility.yul\":957:984   */\n      tag_94\n      jump\t// in\n    tag_148:\n        /* \"#utility.yul\":949:955   */\n      dup2\n        /* \"#utility.yul\":945:985   */\n      add\n        /* \"#utility.yul\":1087:1093   */\n      dup2\n        /* \"#utility.yul\":1075:1085   */\n      dup2\n        /* \"#utility.yul\":1072:1094   */\n      lt\n        /* \"#utility.yul\":1051:1069   */\n      0xffffffffffffffff\n        /* \"#utility.yul\":1039:1049   */\n      dup3\n        /* \"#utility.yul\":1036:1070   */\n      gt\n        /* \"#utility.yul\":1033:1095   */\n      or\n        /* \"#utility.yul\":1030:1118   */\n      iszero\n      tag_149\n      jumpi\n        /* \"#utility.yul\":1098:1116   */\n      tag_150\n      tag_95\n      jump\t// in\n    tag_150:\n        /* \"#utility.yul\":1030:1118   */\n    tag_149:\n        /* \"#utility.yul\":1138:1148   */\n      dup1\n        /* \"#utility.yul\":1134:1136   */\n      0x40\n        /* \"#utility.yul\":1127:1149   */\n      mstore\n        /* \"#utility.yul\":917:1155   */\n      pop\n        /* \"#utility.yul\":874:1155   */\n      pop\n      pop\n      jump\t// out\n        /* \"#utility.yul\":1161:1290   */\n    tag_97:\n        /* \"#utility.yul\":1195:1201   */\n      0x00\n        /* \"#utility.yul\":1222:1242   */\n      tag_152\n      tag_89\n      jump\t// in\n    tag_152:\n        /* \"#utility.yul\":1212:1242   */\n      swap1\n      pop\n        /* \"#utility.yul\":1251:1284   */\n      tag_153\n        /* \"#utility.yul\":1279:1283   */\n      dup3\n        /* \"#utility.yul\":1271:1277   */\n      dup3\n        /* \"#utility.yul\":1251:1284   */\n      tag_96\n      jump\t// in\n    tag_153:\n        /* \"#utility.yul\":1161:1290   */\n      swap2\n      swap1\n      pop\n      jump\t// out\n        /* \"#utility.yul\":1296:1604   */\n    tag_98:\n        /* \"#utility.yul\":1358:1362   */\n      0x00\n        /* \"#utility.yul\":1448:1466   */\n      0xffffffffffffffff\n        /* \"#utility.yul\":1440:1446   */\n      dup3\n        /* \"#utility.yul\":1437:1467   */\n      gt\n        /* \"#utility.yul\":1434:1490   */\n      iszero\n      tag_155\n      jumpi\n        /* \"#utility.yul\":1470:1488   */\n      tag_156\n      tag_95\n      jump\t// in\n    tag_156:\n        /* \"#utility.yul\":1434:1490   */\n    tag_155:\n        /* \"#utility.yul\":1508:1537   */\n      tag_157\n        /* \"#utility.yul\":1530:1536   */\n      dup3\n        /* \"#utility.yul\":1508:1537   */\n      tag_94\n      jump\t// in\n    tag_157:\n        /* \"#utility.yul\":1500:1537   */\n      swap1\n      pop\n        /* \"#utility.yul\":1592:1596   */\n      0x20\n        /* \"#utility.yul\":1586:1590   */\n      dup2\n        /* \"#utility.yul\":1582:1597   */\n      add\n        /* \"#utility.yul\":1574:1597   */\n      swap1\n      pop\n        /* \"#utility.yul\":1296:1604   */\n      swap2\n      swap1\n      pop\n      jump\t// out\n        /* \"#utility.yul\":1610:1758   */\n    tag_99:\n        /* \"#utility.yul\":1708:1714   */\n      dup3\n        /* \"#utility.yul\":1703:1706   */\n      dup2\n        /* \"#utility.yul\":1698:1701   */\n      dup4\n        /* \"#utility.yul\":1685:1715   */\n      calldatacopy\n        /* \"#utility.yul\":1749:1750   */\n      0x00\n        /* \"#utility.yul\":1740:1746   */\n      dup4\n        /* \"#utility.yul\":1735:1738   */\n      dup4\n        /* \"#utility.yul\":1731:1747   */\n      add\n        /* \"#utility.yul\":1724:1751   */\n      mstore\n        /* \"#utility.yul\":1610:1758   */\n      pop\n      pop\n      pop\n      jump\t// out\n        /* \"#utility.yul\":1764:2189   */\n    tag_100:\n        /* \"#utility.yul\":1842:1847   */\n      0x00\n        /* \"#utility.yul\":1867:1933   */\n      tag_160\n        /* \"#utility.yul\":1883:1932   */\n      tag_161\n        /* \"#utility.yul\":1925:1931   */\n      dup5\n        /* \"#utility.yul\":1883:1932   */\n      tag_98\n      jump\t// in\n    tag_161:\n        /* \"#utility.yul\":1867:1933   */\n      tag_97\n      jump\t// in\n    tag_160:\n        /* \"#utility.yul\":1858:1933   */\n      swap1\n      pop\n        /* \"#utility.yul\":1956:1962   */\n      dup3\n        /* \"#utility.yul\":1949:1954   */\n      dup2\n        /* \"#utility.yul\":1942:1963   */\n      mstore\n        /* \"#utility.yul\":1994:1998   */\n      0x20\n        /* \"#utility.yul\":1987:1992   */\n      dup2\n        /* \"#utility.yul\":1983:1999   */\n      add\n        /* \"#utility.yul\":2032:2035   */\n      dup5\n        /* \"#utility.yul\":2023:2029   */\n      dup5\n        /* \"#utility.yul\":2018:2021   */\n      dup5\n        /* \"#utility.yul\":2014:2030   */\n      add\n        /* \"#utility.yul\":2011:2036   */\n      gt\n        /* \"#utility.yul\":2008:2120   */\n      iszero\n      tag_162\n      jumpi\n        /* \"#utility.yul\":2039:2118   */\n      tag_163\n      tag_93\n      jump\t// in\n    tag_163:\n        /* \"#utility.yul\":2008:2120   */\n    tag_162:\n        /* \"#utility.yul\":2129:2183   */\n      tag_164\n        /* \"#utility.yul\":2176:2182   */\n      dup5\n        /* \"#utility.yul\":2171:2174   */\n      dup3\n        /* \"#utility.yul\":2166:2169   */\n      dup6\n        /* \"#utility.yul\":2129:2183   */\n      tag_99\n      jump\t// in\n    tag_164:\n        /* \"#utility.yul\":1848:2189   */\n      pop\n        /* \"#utility.yul\":1764:2189   */\n      swap4\n      swap3\n      pop\n      pop\n      pop\n      jump\t// out\n        /* \"#utility.yul\":2209:2549   */\n    tag_101:\n        /* \"#utility.yul\":2265:2270   */\n      0x00\n        /* \"#utility.yul\":2314:2317   */\n      dup3\n        /* \"#utility.yul\":2307:2311   */\n      0x1f\n        /* \"#utility.yul\":2299:2305   */\n      dup4\n        /* \"#utility.yul\":2295:2312   */\n      add\n        /* \"#utility.yul\":2291:2318   */\n      slt\n        /* \"#utility.yul\":2281:2403   */\n      tag_166\n      jumpi\n        /* \"#utility.yul\":2322:2401   */\n      tag_167\n      tag_92\n      jump\t// in\n    tag_167:\n        /* \"#utility.yul\":2281:2403   */\n    tag_166:\n        /* \"#utility.yul\":2439:2445   */\n      dup2\n        /* \"#utility.yul\":2426:2446   */\n      calldataload\n        /* \"#utility.yul\":2464:2543   */\n      tag_168\n        /* \"#utility.yul\":2539:2542   */\n      dup5\n        /* \"#utility.yul\":2531:2537   */\n      dup3\n        /* \"#utility.yul\":2524:2528   */\n      0x20\n        /* \"#utility.yul\":2516:2522   */\n      dup7\n        /* \"#utility.yul\":2512:2529   */\n      add\n        /* \"#utility.yul\":2464:2543   */\n      tag_100\n      jump\t// in\n    tag_168:\n        /* \"#utility.yul\":2455:2543   */\n      swap2\n      pop\n        /* \"#utility.yul\":2271:2549   */\n      pop\n        /* \"#utility.yul\":2209:2549   */\n      swap3\n      swap2\n      pop\n      pop\n      jump\t// out\n        /* \"#utility.yul\":2555:2632   */\n    tag_102:\n        /* \"#utility.yul\":2592:2599   */\n      0x00\n        /* \"#utility.yul\":2621:2626   */\n      dup2\n        /* \"#utility.yul\":2610:2626   */\n      swap1\n      pop\n        /* \"#utility.yul\":2555:2632   */\n      swap2\n      swap1\n      pop\n      jump\t// out\n        /* \"#utility.yul\":2638:2760   */\n    tag_103:\n        /* \"#utility.yul\":2711:2735   */\n      tag_171\n        /* \"#utility.yul\":2729:2734   */\n      dup2\n        /* \"#utility.yul\":2711:2735   */\n      tag_102\n      jump\t// in\n    tag_171:\n        /* \"#utility.yul\":2704:2709   */\n      dup2\n        /* \"#utility.yul\":2701:2736   */\n      eq\n        /* \"#utility.yul\":2691:2754   */\n      tag_172\n      jumpi\n        /* \"#utility.yul\":2750:2751   */\n      0x00\n        /* \"#utility.yul\":2747:2748   */\n      0x00\n        /* \"#utility.yul\":2740:2752   */\n      revert\n        /* \"#utility.yul\":2691:2754   */\n    tag_172:\n        /* \"#utility.yul\":2638:2760   */\n      pop\n      jump\t// out\n        /* \"#utility.yul\":2766:2905   */\n    tag_104:\n        /* \"#utility.yul\":2812:2817   */\n      0x00\n        /* \"#utility.yul\":2850:2856   */\n      dup2\n        /* \"#utility.yul\":2837:2857   */\n      calldataload\n        /* \"#utility.yul\":2828:2857   */\n      swap1\n      pop\n        /* \"#utility.yul\":2866:2899   */\n      tag_174\n        /* \"#utility.yul\":2893:2898   */\n      dup2\n        /* \"#utility.yul\":2866:2899   */\n      tag_103\n      jump\t// in\n    tag_174:\n        /* \"#utility.yul\":2766:2905   */\n      swap3\n      swap2\n      pop\n      pop\n      jump\t// out\n        /* \"#utility.yul\":2911:3565   */\n    tag_13:\n        /* \"#utility.yul\":2989:2995   */\n      0x00\n        /* \"#utility.yul\":2997:3003   */\n      0x00\n        /* \"#utility.yul\":3046:3048   */\n      0x40\n        /* \"#utility.yul\":3034:3043   */\n      dup4\n        /* \"#utility.yul\":3025:3032   */\n      dup6\n        /* \"#utility.yul\":3021:3044   */\n      sub\n        /* \"#utility.yul\":3017:3049   */\n      slt\n        /* \"#utility.yul\":3014:3133   */\n      iszero\n      tag_176\n      jumpi\n        /* \"#utility.yul\":3052:3131   */\n      tag_177\n      tag_90\n      jump\t// in\n    tag_177:\n        /* \"#utility.yul\":3014:3133   */\n    tag_176:\n        /* \"#utility.yul\":3200:3201   */\n      0x00\n        /* \"#utility.yul\":3189:3198   */\n      dup4\n        /* \"#utility.yul\":3185:3202   */\n      add\n        /* \"#utility.yul\":3172:3203   */\n      calldataload\n        /* \"#utility.yul\":3230:3248   */\n      0xffffffffffffffff\n        /* \"#utility.yul\":3222:3228   */\n      dup2\n        /* \"#utility.yul\":3219:3249   */\n      gt\n        /* \"#utility.yul\":3216:3333   */\n      iszero\n      tag_178\n      jumpi\n        /* \"#utility.yul\":3252:3331   */\n      tag_179\n      tag_91\n      jump\t// in\n    tag_179:\n        /* \"#utility.yul\":3216:3333   */\n    tag_178:\n        /* \"#utility.yul\":3357:3420   */\n      tag_180\n        /* \"#utility.yul\":3412:3419   */\n      dup6\n        /* \"#utility.yul\":3403:3409   */\n      dup3\n        /* \"#utility.yul\":3392:3401   */\n      dup7\n        /* \"#utility.yul\":3388:3410   */\n      add\n        /* \"#utility.yul\":3357:3420   */\n      tag_101\n      jump\t// in\n    tag_180:\n        /* \"#utility.yul\":3347:3420   */\n      swap3\n      pop\n        /* \"#utility.yul\":3143:3430   */\n      pop\n        /* \"#utility.yul\":3469:3471   */\n      0x20\n        /* \"#utility.yul\":3495:3548   */\n      tag_181\n        /* \"#utility.yul\":3540:3547   */\n      dup6\n        /* \"#utility.yul\":3531:3537   */\n      dup3\n        /* \"#utility.yul\":3520:3529   */\n      dup7\n        /* \"#utility.yul\":3516:3538   */\n      add\n        /* \"#utility.yul\":3495:3548   */\n      tag_104\n      jump\t// in\n    tag_181:\n        /* \"#utility.yul\":3485:3548   */\n      swap2\n      pop\n        /* \"#utility.yul\":3440:3558   */\n      pop\n        /* \"#utility.yul\":2911:3565   */\n      swap3\n      pop\n      swap3\n      swap1\n      pop\n      jump\t// out\n        /* \"#utility.yul\":3571:4080   */\n    tag_17:\n        /* \"#utility.yul\":3640:3646   */\n      0x00\n        /* \"#utility.yul\":3689:3691   */\n      0x20\n        /* \"#utility.yul\":3677:3686   */\n      dup3\n        /* \"#utility.yul\":3668:3675   */\n      dup5\n        /* \"#utility.yul\":3664:3687   */\n      sub\n        /* \"#utility.yul\":3660:3692   */\n      slt\n        /* \"#utility.yul\":3657:3776   */\n      iszero\n      tag_183\n      jumpi\n        /* \"#utility.yul\":3695:3774   */\n      tag_184\n      tag_90\n      jump\t// in\n    tag_184:\n        /* \"#utility.yul\":3657:3776   */\n    tag_183:\n        /* \"#utility.yul\":3843:3844   */\n      0x00\n        /* \"#utility.yul\":3832:3841   */\n      dup3\n        /* \"#utility.yul\":3828:3845   */\n      add\n        /* \"#utility.yul\":3815:3846   */\n      calldataload\n        /* \"#utility.yul\":3873:3891   */\n      0xffffffffffffffff\n        /* \"#utility.yul\":3865:3871   */\n      dup2\n        /* \"#utility.yul\":3862:3892   */\n      gt\n        /* \"#utility.yul\":3859:3976   */\n      iszero\n      tag_185\n      jumpi\n        /* \"#utility.yul\":3895:3974   */\n      tag_186\n      tag_91\n      jump\t// in\n    tag_186:\n        /* \"#utility.yul\":3859:3976   */\n    tag_185:\n        /* \"#utility.yul\":4000:4063   */\n      tag_187\n        /* \"#utility.yul\":4055:4062   */\n      dup5\n        /* \"#utility.yul\":4046:4052   */\n      dup3\n        /* \"#utility.yul\":4035:4044   */\n      dup6\n        /* \"#utility.yul\":4031:4053   */\n      add\n        /* \"#utility.yul\":4000:4063   */\n      tag_101\n      jump\t// in\n    tag_187:\n        /* \"#utility.yul\":3990:4063   */\n      swap2\n      pop\n        /* \"#utility.yul\":3786:4073   */\n      pop\n        /* \"#utility.yul\":3571:4080   */\n      swap3\n      swap2\n      pop\n      pop\n      jump\t// out\n        /* \"#utility.yul\":4086:4212   */\n    tag_105:\n        /* \"#utility.yul\":4123:4130   */\n      0x00\n        /* \"#utility.yul\":4163:4205   */\n      0xffffffffffffffffffffffffffffffffffffffff\n        /* \"#utility.yul\":4156:4161   */\n      dup3\n        /* \"#utility.yul\":4152:4206   */\n      and\n        /* \"#utility.yul\":4141:4206   */\n      swap1\n      pop\n        /* \"#utility.yul\":4086:4212   */\n      swap2\n      swap1\n      pop\n      jump\t// out\n        /* \"#utility.yul\":4218:4314   */\n    tag_106:\n        /* \"#utility.yul\":4255:4262   */\n      0x00\n        /* \"#utility.yul\":4284:4308   */\n      tag_190\n        /* \"#utility.yul\":4302:4307   */\n      dup3\n        /* \"#utility.yul\":4284:4308   */\n      tag_105\n      jump\t// in\n    tag_190:\n        /* \"#utility.yul\":4273:4308   */\n      swap1\n      pop\n        /* \"#utility.yul\":4218:4314   */\n      swap2\n      swap1\n      pop\n      jump\t// out\n        /* \"#utility.yul\":4320:4442   */\n    tag_107:\n        /* \"#utility.yul\":4393:4417   */\n      tag_192\n        /* \"#utility.yul\":4411:4416   */\n      dup2\n        /* \"#utility.yul\":4393:4417   */\n      tag_106\n      jump\t// in\n    tag_192:\n        /* \"#utility.yul\":4386:4391   */\n      dup2\n        /* \"#utility.yul\":4383:4418   */\n      eq\n        /* \"#utility.yul\":4373:4436   */\n      tag_193\n      jumpi\n        /* \"#utility.yul\":4432:4433   */\n      0x00\n        /* \"#utility.yul\":4429:4430   */\n      0x00\n        /* \"#utility.yul\":4422:4434   */\n      revert\n        /* \"#utility.yul\":4373:4436   */\n    tag_193:\n        /* \"#utility.yul\":4320:4442   */\n      pop\n      jump\t// out\n        /* \"#utility.yul\":4448:4587   */\n    tag_108:\n        /* \"#utility.yul\":4494:4499   */\n      0x00\n        /* \"#utility.yul\":4532:4538   */\n      dup2\n        /* \"#utility.yul\":4519:4539   */\n      calldataload\n        /* \"#utility.yul\":4510:4539   */\n      swap1\n      pop\n        /* \"#utility.yul\":4548:4581   */\n      tag_195\n        /* \"#utility.yul\":4575:4580   */\n      dup2\n        /* \"#utility.yul\":4548:4581   */\n      tag_107\n      jump\t// in\n    tag_195:\n        /* \"#utility.yul\":4448:4587   */\n      swap3\n      swap2\n      pop\n      pop\n      jump\t// out\n        /* \"#utility.yul\":4593:5067   */\n    tag_21:\n        /* \"#utility.yul\":4661:4667   */\n      0x00\n        /* \"#utility.yul\":4669:4675   */\n      0x00\n        /* \"#utility.yul\":4718:4720   */\n      0x40\n        /* \"#utility.yul\":4706:4715   */\n      dup4\n        /* \"#utility.yul\":4697:4704   */\n      dup6\n        /* \"#utility.yul\":4693:4716   */\n      sub\n        /* \"#utility.yul\":4689:4721   */\n      slt\n        /* \"#utility.yul\":4686:4805   */\n      iszero\n      tag_197\n      jumpi\n        /* \"#utility.yul\":4724:4803   */\n      tag_198\n      tag_90\n      jump\t// in\n    tag_198:\n        /* \"#utility.yul\":4686:4805   */\n    tag_197:\n        /* \"#utility.yul\":4844:4845   */\n      0x00\n        /* \"#utility.yul\":4869:4922   */\n      tag_199\n        /* \"#utility.yul\":4914:4921   */\n      dup6\n        /* \"#utility.yul\":4905:4911   */\n      dup3\n        /* \"#utility.yul\":4894:4903   */\n      dup7\n        /* \"#utility.yul\":4890:4912   */\n      add\n        /* \"#utility.yul\":4869:4922   */\n      tag_108\n      jump\t// in\n    tag_199:\n        /* \"#utility.yul\":4859:4922   */\n      swap3\n      pop\n        /* \"#utility.yul\":4815:4932   */\n      pop\n        /* \"#utility.yul\":4971:4973   */\n      0x20\n        /* \"#utility.yul\":4997:5050   */\n      tag_200\n        /* \"#utility.yul\":5042:5049   */\n      dup6\n        /* \"#utility.yul\":5033:5039   */\n      dup3\n        /* \"#utility.yul\":5022:5031   */\n      dup7\n        /* \"#utility.yul\":5018:5040   */\n      add\n        /* \"#utility.yul\":4997:5050   */\n      tag_104\n      jump\t// in\n    tag_200:\n        /* \"#utility.yul\":4987:5050   */\n      swap2\n      pop\n        /* \"#utility.yul\":4942:5060   */\n      pop\n        /* \"#utility.yul\":4593:5067   */\n      swap3\n      pop\n      swap3\n      swap1\n      pop\n      jump\t// out\n        /* \"#utility.yul\":5073:5172   */\n    tag_109:\n        /* \"#utility.yul\":5125:5131   */\n      0x00\n        /* \"#utility.yul\":5159:5164   */\n      dup2\n        /* \"#utility.yul\":5153:5165   */\n      mload\n        /* \"#utility.yul\":5143:5165   */\n      swap1\n      pop\n        /* \"#utility.yul\":5073:5172   */\n      swap2\n      swap1\n      pop\n      jump\t// out\n        /* \"#utility.yul\":5178:5347   */\n    tag_110:\n        /* \"#utility.yul\":5262:5273   */\n      0x00\n        /* \"#utility.yul\":5296:5302   */\n      dup3\n        /* \"#utility.yul\":5291:5294   */\n      dup3\n        /* \"#utility.yul\":5284:5303   */\n      mstore\n        /* \"#utility.yul\":5336:5340   */\n      0x20\n        /* \"#utility.yul\":5331:5334   */\n      dup3\n        /* \"#utility.yul\":5327:5341   */\n      add\n        /* \"#utility.yul\":5312:5341   */\n      swap1\n      pop\n        /* \"#utility.yul\":5178:5347   */\n      swap3\n      swap2\n      pop\n      pop\n      jump\t// out\n        /* \"#utility.yul\":5353:5492   */\n    tag_111:\n        /* \"#utility.yul\":5442:5448   */\n      dup3\n        /* \"#utility.yul\":5437:5440   */\n      dup2\n        /* \"#utility.yul\":5432:5435   */\n      dup4\n        /* \"#utility.yul\":5426:5449   */\n      mcopy\n        /* \"#utility.yul\":5483:5484   */\n      0x00\n        /* \"#utility.yul\":5474:5480   */\n      dup4\n        /* \"#utility.yul\":5469:5472   */\n      dup4\n        /* \"#utility.yul\":5465:5481   */\n      add\n        /* \"#utility.yul\":5458:5485   */\n      mstore\n        /* \"#utility.yul\":5353:5492   */\n      pop\n      pop\n      pop\n      jump\t// out\n        /* \"#utility.yul\":5498:5875   */\n    tag_112:\n        /* \"#utility.yul\":5586:5589   */\n      0x00\n        /* \"#utility.yul\":5614:5653   */\n      tag_205\n        /* \"#utility.yul\":5647:5652   */\n      dup3\n        /* \"#utility.yul\":5614:5653   */\n      tag_109\n      jump\t// in\n    tag_205:\n        /* \"#utility.yul\":5669:5740   */\n      tag_206\n        /* \"#utility.yul\":5733:5739   */\n      dup2\n        /* \"#utility.yul\":5728:5731   */\n      dup6\n        /* \"#utility.yul\":5669:5740   */\n      tag_110\n      jump\t// in\n    tag_206:\n        /* \"#utility.yul\":5662:5740   */\n      swap4\n      pop\n        /* \"#utility.yul\":5749:5814   */\n      tag_207\n        /* \"#utility.yul\":5807:5813   */\n      dup2\n        /* \"#utility.yul\":5802:5805   */\n      dup6\n        /* \"#utility.yul\":5795:5799   */\n      0x20\n        /* \"#utility.yul\":5788:5793   */\n      dup7\n        /* \"#utility.yul\":5784:5800   */\n      add\n        /* \"#utility.yul\":5749:5814   */\n      tag_111\n      jump\t// in\n    tag_207:\n        /* \"#utility.yul\":5839:5868   */\n      tag_208\n        /* \"#utility.yul\":5861:5867   */\n      dup2\n        /* \"#utility.yul\":5839:5868   */\n      tag_94\n      jump\t// in\n    tag_208:\n        /* \"#utility.yul\":5834:5837   */\n      dup5\n        /* \"#utility.yul\":5830:5869   */\n      add\n        /* \"#utility.yul\":5823:5869   */\n      swap2\n      pop\n        /* \"#utility.yul\":5590:5875   */\n      pop\n        /* \"#utility.yul\":5498:5875   */\n      swap3\n      swap2\n      pop\n      pop\n      jump\t// out\n        /* \"#utility.yul\":5881:5999   */\n    tag_113:\n        /* \"#utility.yul\":5968:5992   */\n      tag_210\n        /* \"#utility.yul\":5986:5991   */\n      dup2\n        /* \"#utility.yul\":5968:5992   */\n      tag_102\n      jump\t// in\n    tag_210:\n        /* \"#utility.yul\":5963:5966   */\n      dup3\n        /* \"#utility.yul\":5956:5993   */\n      mstore\n        /* \"#utility.yul\":5881:5999   */\n      pop\n      pop\n      jump\t// out\n        /* \"#utility.yul\":6005:6428   */\n    tag_24:\n        /* \"#utility.yul\":6146:6150   */\n      0x00\n        /* \"#utility.yul\":6184:6186   */\n      0x40\n        /* \"#utility.yul\":6173:6182   */\n      dup3\n        /* \"#utility.yul\":6169:6187   */\n      add\n        /* \"#utility.yul\":6161:6187   */\n      swap1\n      pop\n        /* \"#utility.yul\":6233:6242   */\n      dup2\n        /* \"#utility.yul\":6227:6231   */\n      dup2\n        /* \"#utility.yul\":6223:6243   */\n      sub\n        /* \"#utility.yul\":6219:6220   */\n      0x00\n        /* \"#utility.yul\":6208:6217   */\n      dup4\n        /* \"#utility.yul\":6204:6221   */\n      add\n        /* \"#utility.yul\":6197:6244   */\n      mstore\n        /* \"#utility.yul\":6261:6339   */\n      tag_212\n        /* \"#utility.yul\":6334:6338   */\n      dup2\n        /* \"#utility.yul\":6325:6331   */\n      dup6\n        /* \"#utility.yul\":6261:6339   */\n      tag_112\n      jump\t// in\n    tag_212:\n        /* \"#utility.yul\":6253:6339   */\n      swap1\n      pop\n        /* \"#utility.yul\":6349:6421   */\n      tag_213\n        /* \"#utility.yul\":6417:6419   */\n      0x20\n        /* \"#utility.yul\":6406:6415   */\n      dup4\n        /* \"#utility.yul\":6402:6420   */\n      add\n        /* \"#utility.yul\":6393:6399   */\n      dup5\n        /* \"#utility.yul\":6349:6421   */\n      tag_113\n      jump\t// in\n    tag_213:\n        /* \"#utility.yul\":6005:6428   */\n      swap4\n      swap3\n      pop\n      pop\n      pop\n      jump\t// out\n        /* \"#utility.yul\":6434:6763   */\n    tag_27:\n        /* \"#utility.yul\":6493:6499   */\n      0x00\n        /* \"#utility.yul\":6542:6544   */\n      0x20\n        /* \"#utility.yul\":6530:6539   */\n      dup3\n        /* \"#utility.yul\":6521:6528   */\n      dup5\n        /* \"#utility.yul\":6517:6540   */\n      sub\n        /* \"#utility.yul\":6513:6545   */\n      slt\n        /* \"#utility.yul\":6510:6629   */\n      iszero\n      tag_215\n      jumpi\n        /* \"#utility.yul\":6548:6627   */\n      tag_216\n      tag_90\n      jump\t// in\n    tag_216:\n        /* \"#utility.yul\":6510:6629   */\n    tag_215:\n        /* \"#utility.yul\":6668:6669   */\n      0x00\n        /* \"#utility.yul\":6693:6746   */\n      tag_217\n        /* \"#utility.yul\":6738:6745   */\n      dup5\n        /* \"#utility.yul\":6729:6735   */\n      dup3\n        /* \"#utility.yul\":6718:6727   */\n      dup6\n        /* \"#utility.yul\":6714:6736   */\n      add\n        /* \"#utility.yul\":6693:6746   */\n      tag_108\n      jump\t// in\n    tag_217:\n        /* \"#utility.yul\":6683:6746   */\n      swap2\n      pop\n        /* \"#utility.yul\":6639:6756   */\n      pop\n        /* \"#utility.yul\":6434:6763   */\n      swap3\n      swap2\n      pop\n      pop\n      jump\t// out\n        /* \"#utility.yul\":6769:6991   */\n    tag_30:\n        /* \"#utility.yul\":6862:6866   */\n      0x00\n        /* \"#utility.yul\":6900:6902   */\n      0x20\n        /* \"#utility.yul\":6889:6898   */\n      dup3\n        /* \"#utility.yul\":6885:6903   */\n      add\n        /* \"#utility.yul\":6877:6903   */\n      swap1\n      pop\n        /* \"#utility.yul\":6913:6984   */\n      tag_219\n        /* \"#utility.yul\":6981:6982   */\n      0x00\n        /* \"#utility.yul\":6970:6979   */\n      dup4\n        /* \"#utility.yul\":6966:6983   */\n      add\n        /* \"#utility.yul\":6957:6963   */\n      dup5\n        /* \"#utility.yul\":6913:6984   */\n      tag_113\n      jump\t// in\n    tag_219:\n        /* \"#utility.yul\":6769:6991   */\n      swap3\n      swap2\n      pop\n      pop\n      jump\t// out\n        /* \"#utility.yul\":6997:7087   */\n    tag_114:\n        /* \"#utility.yul\":7031:7038   */\n      0x00\n        /* \"#utility.yul\":7074:7079   */\n      dup2\n        /* \"#utility.yul\":7067:7080   */\n      iszero\n        /* \"#utility.yul\":7060:7081   */\n      iszero\n        /* \"#utility.yul\":7049:7081   */\n      swap1\n      pop\n        /* \"#utility.yul\":6997:7087   */\n      swap2\n      swap1\n      pop\n      jump\t// out\n        /* \"#utility.yul\":7093:7202   */\n    tag_115:\n        /* \"#utility.yul\":7174:7195   */\n      tag_222\n        /* \"#utility.yul\":7189:7194   */\n      dup2\n        /* \"#utility.yul\":7174:7195   */\n      tag_114\n      jump\t// in\n    tag_222:\n        /* \"#utility.yul\":7169:7172   */\n      dup3\n        /* \"#utility.yul\":7162:7196   */\n      mstore\n        /* \"#utility.yul\":7093:7202   */\n      pop\n      pop\n      jump\t// out\n        /* \"#utility.yul\":7208:7729   */\n    tag_39:\n        /* \"#utility.yul\":7371:7375   */\n      0x00\n        /* \"#utility.yul\":7409:7411   */\n      0x60\n        /* \"#utility.yul\":7398:7407   */\n      dup3\n        /* \"#utility.yul\":7394:7412   */\n      add\n        /* \"#utility.yul\":7386:7412   */\n      swap1\n      pop\n        /* \"#utility.yul\":7458:7467   */\n      dup2\n        /* \"#utility.yul\":7452:7456   */\n      dup2\n        /* \"#utility.yul\":7448:7468   */\n      sub\n        /* \"#utility.yul\":7444:7445   */\n      0x00\n        /* \"#utility.yul\":7433:7442   */\n      dup4\n        /* \"#utility.yul\":7429:7446   */\n      add\n        /* \"#utility.yul\":7422:7469   */\n      mstore\n        /* \"#utility.yul\":7486:7564   */\n      tag_224\n        /* \"#utility.yul\":7559:7563   */\n      dup2\n        /* \"#utility.yul\":7550:7556   */\n      dup7\n        /* \"#utility.yul\":7486:7564   */\n      tag_112\n      jump\t// in\n    tag_224:\n        /* \"#utility.yul\":7478:7564   */\n      swap1\n      pop\n        /* \"#utility.yul\":7574:7646   */\n      tag_225\n        /* \"#utility.yul\":7642:7644   */\n      0x20\n        /* \"#utility.yul\":7631:7640   */\n      dup4\n        /* \"#utility.yul\":7627:7645   */\n      add\n        /* \"#utility.yul\":7618:7624   */\n      dup6\n        /* \"#utility.yul\":7574:7646   */\n      tag_113\n      jump\t// in\n    tag_225:\n        /* \"#utility.yul\":7656:7722   */\n      tag_226\n        /* \"#utility.yul\":7718:7720   */\n      0x40\n        /* \"#utility.yul\":7707:7716   */\n      dup4\n        /* \"#utility.yul\":7703:7721   */\n      add\n        /* \"#utility.yul\":7694:7700   */\n      dup5\n        /* \"#utility.yul\":7656:7722   */\n      tag_115\n      jump\t// in\n    tag_226:\n        /* \"#utility.yul\":7208:7729   */\n      swap5\n      swap4\n      pop\n      pop\n      pop\n      pop\n      jump\t// out\n        /* \"#utility.yul\":7735:7904   */\n    tag_116:\n        /* \"#utility.yul\":7875:7896   */\n      0x416c726561647920726567697374657265642e00000000000000000000000000\n        /* \"#utility.yul\":7871:7872   */\n      0x00\n        /* \"#utility.yul\":7863:7869   */\n      dup3\n        /* \"#utility.yul\":7859:7873   */\n      add\n        /* \"#utility.yul\":7852:7897   */\n      mstore\n        /* \"#utility.yul\":7735:7904   */\n      pop\n      jump\t// out\n        /* \"#utility.yul\":7910:8276   */\n    tag_117:\n        /* \"#utility.yul\":8052:8055   */\n      0x00\n        /* \"#utility.yul\":8073:8140   */\n      tag_229\n        /* \"#utility.yul\":8137:8139   */\n      0x13\n        /* \"#utility.yul\":8132:8135   */\n      dup4\n        /* \"#utility.yul\":8073:8140   */\n      tag_110\n      jump\t// in\n    tag_229:\n        /* \"#utility.yul\":8066:8140   */\n      swap2\n      pop\n        /* \"#utility.yul\":8149:8242   */\n      tag_230\n        /* \"#utility.yul\":8238:8241   */\n      dup3\n        /* \"#utility.yul\":8149:8242   */\n      tag_116\n      jump\t// in\n    tag_230:\n        /* \"#utility.yul\":8267:8269   */\n      0x20\n        /* \"#utility.yul\":8262:8265   */\n      dup3\n        /* \"#utility.yul\":8258:8270   */\n      add\n        /* \"#utility.yul\":8251:8270   */\n      swap1\n      pop\n        /* \"#utility.yul\":7910:8276   */\n      swap2\n      swap1\n      pop\n      jump\t// out\n        /* \"#utility.yul\":8282:8701   */\n    tag_47:\n        /* \"#utility.yul\":8448:8452   */\n      0x00\n        /* \"#utility.yul\":8486:8488   */\n      0x20\n        /* \"#utility.yul\":8475:8484   */\n      dup3\n        /* \"#utility.yul\":8471:8489   */\n      add\n        /* \"#utility.yul\":8463:8489   */\n      swap1\n      pop\n        /* \"#utility.yul\":8535:8544   */\n      dup2\n        /* \"#utility.yul\":8529:8533   */\n      dup2\n        /* \"#utility.yul\":8525:8545   */\n      sub\n        /* \"#utility.yul\":8521:8522   */\n      0x00\n        /* \"#utility.yul\":8510:8519   */\n      dup4\n        /* \"#utility.yul\":8506:8523   */\n      add\n        /* \"#utility.yul\":8499:8546   */\n      mstore\n        /* \"#utility.yul\":8563:8694   */\n      tag_232\n        /* \"#utility.yul\":8689:8693   */\n      dup2\n        /* \"#utility.yul\":8563:8694   */\n      tag_117\n      jump\t// in\n    tag_232:\n        /* \"#utility.yul\":8555:8694   */\n      swap1\n      pop\n        /* \"#utility.yul\":8282:8701   */\n      swap2\n      swap1\n      pop\n      jump\t// out\n        /* \"#utility.yul\":8707:8887   */\n    tag_118:\n        /* \"#utility.yul\":8755:8832   */\n      0x4e487b7100000000000000000000000000000000000000000000000000000000\n        /* \"#utility.yul\":8752:8753   */\n      0x00\n        /* \"#utility.yul\":8745:8833   */\n      mstore\n        /* \"#utility.yul\":8852:8856   */\n      0x22\n        /* \"#utility.yul\":8849:8850   */\n      0x04\n        /* \"#utility.yul\":8842:8857   */\n      mstore\n        /* \"#utility.yul\":8876:8880   */\n      0x24\n        /* \"#utility.yul\":8873:8874   */\n      0x00\n        /* \"#utility.yul\":8866:8881   */\n      revert\n        /* \"#utility.yul\":8893:9213   */\n    tag_71:\n        /* \"#utility.yul\":8937:8943   */\n      0x00\n        /* \"#utility.yul\":8974:8975   */\n      0x02\n        /* \"#utility.yul\":8968:8972   */\n      dup3\n        /* \"#utility.yul\":8964:8976   */\n      div\n        /* \"#utility.yul\":8954:8976   */\n      swap1\n      pop\n        /* \"#utility.yul\":9021:9022   */\n      0x01\n        /* \"#utility.yul\":9015:9019   */\n      dup3\n        /* \"#utility.yul\":9011:9023   */\n      and\n        /* \"#utility.yul\":9042:9060   */\n      dup1\n        /* \"#utility.yul\":9032:9113   */\n      tag_235\n      jumpi\n        /* \"#utility.yul\":9098:9102   */\n      0x7f\n        /* \"#utility.yul\":9090:9096   */\n      dup3\n        /* \"#utility.yul\":9086:9103   */\n      and\n        /* \"#utility.yul\":9076:9103   */\n      swap2\n      pop\n        /* \"#utility.yul\":9032:9113   */\n    tag_235:\n        /* \"#utility.yul\":9160:9162   */\n      0x20\n        /* \"#utility.yul\":9152:9158   */\n      dup3\n        /* \"#utility.yul\":9149:9163   */\n      lt\n        /* \"#utility.yul\":9129:9147   */\n      dup2\n        /* \"#utility.yul\":9126:9164   */\n      sub\n        /* \"#utility.yul\":9123:9207   */\n      tag_236\n      jumpi\n        /* \"#utility.yul\":9179:9197   */\n      tag_237\n      tag_118\n      jump\t// in\n    tag_237:\n        /* \"#utility.yul\":9123:9207   */\n    tag_236:\n        /* \"#utility.yul\":8944:9213   */\n      pop\n        /* \"#utility.yul\":8893:9213   */\n      swap2\n      swap1\n      pop\n      jump\t// out\n        /* \"#utility.yul\":9219:9360   */\n    tag_119:\n        /* \"#utility.yul\":9268:9272   */\n      0x00\n        /* \"#utility.yul\":9291:9294   */\n      dup2\n        /* \"#utility.yul\":9283:9294   */\n      swap1\n      pop\n        /* \"#utility.yul\":9314:9317   */\n      dup2\n        /* \"#utility.yul\":9311:9312   */\n      0x00\n        /* \"#utility.yul\":9304:9318   */\n      mstore\n        /* \"#utility.yul\":9348:9352   */\n      0x20\n        /* \"#utility.yul\":9345:9346   */\n      0x00\n        /* \"#utility.yul\":9335:9353   */\n      keccak256\n        /* \"#utility.yul\":9327:9353   */\n      swap1\n      pop\n        /* \"#utility.yul\":9219:9360   */\n      swap2\n      swap1\n      pop\n      jump\t// out\n        /* \"#utility.yul\":9366:9459   */\n    tag_120:\n        /* \"#utility.yul\":9403:9409   */\n      0x00\n        /* \"#utility.yul\":9450:9452   */\n      0x20\n        /* \"#utility.yul\":9445:9447   */\n      0x1f\n        /* \"#utility.yul\":9438:9443   */\n      dup4\n        /* \"#utility.yul\":9434:9448   */\n      add\n        /* \"#utility.yul\":9430:9453   */\n      div\n        /* \"#utility.yul\":9420:9453   */\n      swap1\n      pop\n        /* \"#utility.yul\":9366:9459   */\n      swap2\n      swap1\n      pop\n      jump\t// out\n        /* \"#utility.yul\":9465:9572   */\n    tag_121:\n        /* \"#utility.yul\":9509:9517   */\n      0x00\n        /* \"#utility.yul\":9559:9564   */\n      dup3\n        /* \"#utility.yul\":9553:9557   */\n      dup3\n        /* \"#utility.yul\":9549:9565   */\n      shl\n        /* \"#utility.yul\":9528:9565   */\n      swap1\n      pop\n        /* \"#utility.yul\":9465:9572   */\n      swap3\n      swap2\n      pop\n      pop\n      jump\t// out\n        /* \"#utility.yul\":9578:9971   */\n    tag_122:\n        /* \"#utility.yul\":9647:9653   */\n      0x00\n        /* \"#utility.yul\":9697:9698   */\n      0x08\n        /* \"#utility.yul\":9685:9695   */\n      dup4\n        /* \"#utility.yul\":9681:9699   */\n      mul\n        /* \"#utility.yul\":9720:9817   */\n      tag_242\n        /* \"#utility.yul\":9750:9816   */\n      0xffffffffffffffffffffffffffffffffffffffffffffffffffffffffffffffff\n        /* \"#utility.yul\":9739:9748   */\n      dup3\n        /* \"#utility.yul\":9720:9817   */\n      tag_121\n      jump\t// in\n    tag_242:\n        /* \"#utility.yul\":9838:9877   */\n      tag_243\n        /* \"#utility.yul\":9868:9876   */\n      dup7\n        /* \"#utility.yul\":9857:9866   */\n      dup4\n        /* \"#utility.yul\":9838:9877   */\n      tag_121\n      jump\t// in\n    tag_243:\n        /* \"#utility.yul\":9826:9877   */\n      swap6\n      pop\n        /* \"#utility.yul\":9910:9914   */\n      dup1\n        /* \"#utility.yul\":9906:9915   */\n      not\n        /* \"#utility.yul\":9899:9904   */\n      dup5\n        /* \"#utility.yul\":9895:9916   */\n      and\n        /* \"#utility.yul\":9886:9916   */\n      swap4\n      pop\n        /* \"#utility.yul\":9959:9963   */\n      dup1\n        /* \"#utility.yul\":9949:9957   */\n      dup7\n        /* \"#utility.yul\":9945:9964   */\n      and\n        /* \"#utility.yul\":9938:9943   */\n      dup5\n        /* \"#utility.yul\":9935:9965   */\n      or\n        /* \"#utility.yul\":9925:9965   */\n      swap3\n      pop\n        /* \"#utility.yul\":9654:9971   */\n      pop\n      pop\n        /* \"#utility.yul\":9578:9971   */\n      swap4\n      swap3\n      pop\n      pop\n      pop\n      jump\t// out\n        /* \"#utility.yul\":9977:10037   */\n    tag_123:\n        /* \"#utility.yul\":10005:10008   */\n      0x00\n        /* \"#utility.yul\":10026:10031   */\n      dup2\n        /* \"#utility.yul\":10019:10031   */\n      swap1\n      pop\n        /* \"#utility.yul\":9977:10037   */\n      swap2\n      swap1\n      pop\n      jump\t// out\n        /* \"#utility.yul\":10043:10185   */\n    tag_124:\n        /* \"#utility.yul\":10093:10102   */\n      0x00\n        /* \"#utility.yul\":10126:10179   */\n      tag_246\n        /* \"#utility.yul\":10144:10178   */\n      tag_247\n        /* \"#utility.yul\":10153:10177   */\n      tag_248\n        /* \"#utility.yul\":10171:10176   */\n      dup5\n        /* \"#utility.yul\":10153:10177   */\n      tag_102\n      jump\t// in\n    tag_248:\n        /* \"#utility.yul\":10144:10178   */\n      tag_123\n      jump\t// in\n    tag_247:\n        /* \"#utility.yul\":10126:10179   */\n      tag_102\n      jump\t// in\n    tag_246:\n        /* \"#utility.yul\":10113:10179   */\n      swap1\n      pop\n        /* \"#utility.yul\":10043:10185   */\n      swap2\n      swap1\n      pop\n      jump\t// out\n        /* \"#utility.yul\":10191:10266   */\n    tag_125:\n        /* \"#utility.yul\":10234:10237   */\n      0x00\n        /* \"#utility.yul\":10255:10260   */\n      dup2\n        /* \"#utility.yul\":10248:10260   */\n      swap1\n      pop\n        /* \"#utility.yul\":10191:10266   */\n      swap2\n      swap1\n      pop\n      jump\t// out\n        /* \"#utility.yul\":10272:10541   */\n    tag_126:\n        /* \"#utility.yul\":10382:10421   */\n      tag_251\n        /* \"#utility.yul\":10413:10420   */\n      dup4\n        /* \"#utility.yul\":10382:10421   */\n      tag_124\n      jump\t// in\n    tag_251:\n        /* \"#utility.yul\":10443:10534   */\n      tag_252\n        /* \"#utility.yul\":10492:10533   */\n      tag_253\n        /* \"#utility.yul\":10516:10532   */\n      dup3\n        /* \"#utility.yul\":10492:10533   */\n      tag_125\n      jump\t// in\n    tag_253:\n        /* \"#utility.yul\":10484:10490   */\n      dup5\n        /* \"#utility.yul\":10477:10481   */\n      dup5\n        /* \"#utility.yul\":10471:10482   */\n      sload\n        /* \"#utility.yul\":10443:10534   */\n      tag_122\n      jump\t// in\n    tag_252:\n        /* \"#utility.yul\":10437:10441   */\n      dup3\n        /* \"#utility.yul\":10430:10535   */\n      sstore\n        /* \"#utility.yul\":10348:10541   */\n      pop\n        /* \"#utility.yul\":10272:10541   */\n      pop\n      pop\n      pop\n      jump\t// out\n        /* \"#utility.yul\":10547:10620   */\n    tag_127:\n        /* \"#utility.yul\":10592:10595   */\n      0x00\n        /* \"#utility.yul\":10613:10614   */\n      0x00\n        /* \"#utility.yul\":10606:10614   */\n      swap1\n      pop\n        /* \"#utility.yul\":10547:10620   */\n      swap1\n      jump\t// out\n        /* \"#utility.yul\":10626:10815   */\n    tag_128:\n        /* \"#utility.yul\":10703:10735   */\n      tag_256\n      tag_127\n      jump\t// in\n    tag_256:\n        /* \"#utility.yul\":10744:10809   */\n      tag_257\n        /* \"#utility.yul\":10802:10808   */\n      dup2\n        /* \"#utility.yul\":10794:10800   */\n      dup5\n        /* \"#utility.yul\":10788:10792   */\n      dup5\n        /* \"#utility.yul\":10744:10809   */\n      tag_126\n      jump\t// in\n    tag_257:\n        /* \"#utility.yul\":10679:10815   */\n      pop\n        /* \"#utility.yul\":10626:10815   */\n      pop\n      pop\n      jump\t// out\n        /* \"#utility.yul\":10821:11007   */\n    tag_129:\n        /* \"#utility.yul\":10881:11001   */\n    tag_259:\n        /* \"#utility.yul\":10898:10901   */\n      dup2\n        /* \"#utility.yul\":10891:10896   */\n      dup2\n        /* \"#utility.yul\":10888:10902   */\n      lt\n        /* \"#utility.yul\":10881:11001   */\n      iszero\n      tag_261\n      jumpi\n        /* \"#utility.yul\":10952:10991   */\n      tag_262\n        /* \"#utility.yul\":10989:10990   */\n      0x00\n        /* \"#utility.yul\":10982:10987   */\n      dup3\n        /* \"#utility.yul\":10952:10991   */\n      tag_128\n      jump\t// in\n    tag_262:\n        /* \"#utility.yul\":10925:10926   */\n      0x01\n        /* \"#utility.yul\":10918:10923   */\n      dup2\n        /* \"#utility.yul\":10914:10927   */\n      add\n        /* \"#utility.yul\":10905:10927   */\n      swap1\n      pop\n        /* \"#utility.yul\":10881:11001   */\n      jump(tag_259)\n    tag_261:\n        /* \"#utility.yul\":10821:11007   */\n      pop\n      pop\n      jump\t// out\n        /* \"#utility.yul\":11013:11556   */\n    tag_130:\n        /* \"#utility.yul\":11114:11116   */\n      0x1f\n        /* \"#utility.yul\":11109:11112   */\n      dup3\n        /* \"#utility.yul\":11106:11117   */\n      gt\n        /* \"#utility.yul\":11103:11549   */\n      iszero\n      tag_264\n      jumpi\n        /* \"#utility.yul\":11148:11186   */\n      tag_265\n        /* \"#utility.yul\":11180:11185   */\n      dup2\n        /* \"#utility.yul\":11148:11186   */\n      tag_119\n      jump\t// in\n    tag_265:\n        /* \"#utility.yul\":11232:11261   */\n      tag_266\n        /* \"#utility.yul\":11250:11260   */\n      dup5\n        /* \"#utility.yul\":11232:11261   */\n      tag_120\n      jump\t// in\n    tag_266:\n        /* \"#utility.yul\":11222:11230   */\n      dup2\n        /* \"#utility.yul\":11218:11262   */\n      add\n        /* \"#utility.yul\":11415:11417   */\n      0x20\n        /* \"#utility.yul\":11403:11413   */\n      dup6\n        /* \"#utility.yul\":11400:11418   */\n      lt\n        /* \"#utility.yul\":11397:11446   */\n      iszero\n      tag_267\n      jumpi\n        /* \"#utility.yul\":11436:11444   */\n      dup2\n        /* \"#utility.yul\":11421:11444   */\n      swap1\n      pop\n        /* \"#utility.yul\":11397:11446   */\n    tag_267:\n        /* \"#utility.yul\":11459:11539   */\n      tag_268\n        /* \"#utility.yul\":11515:11537   */\n      tag_269\n        /* \"#utility.yul\":11533:11536   */\n      dup6\n        /* \"#utility.yul\":11515:11537   */\n      tag_120\n      jump\t// in\n    tag_269:\n        /* \"#utility.yul\":11505:11513   */\n      dup4\n        /* \"#utility.yul\":11501:11538   */\n      add\n        /* \"#utility.yul\":11488:11499   */\n      dup3\n        /* \"#utility.yul\":11459:11539   */\n      tag_129\n      jump\t// in\n    tag_268:\n        /* \"#utility.yul\":11118:11549   */\n      pop\n      pop\n        /* \"#utility.yul\":11103:11549   */\n    tag_264:\n        /* \"#utility.yul\":11013:11556   */\n      pop\n      pop\n      pop\n      jump\t// out\n        /* \"#utility.yul\":11562:11679   */\n    tag_131:\n        /* \"#utility.yul\":11616:11624   */\n      0x00\n        /* \"#utility.yul\":11666:11671   */\n      dup3\n        /* \"#utility.yul\":11660:11664   */\n      dup3\n        /* \"#utility.yul\":11656:11672   */\n      shr\n        /* \"#utility.yul\":11635:11672   */\n      swap1\n      pop\n        /* \"#utility.yul\":11562:11679   */\n      swap3\n      swap2\n      pop\n      pop\n      jump\t// out\n        /* \"#utility.yul\":11685:11854   */\n    tag_132:\n        /* \"#utility.yul\":11729:11735   */\n      0x00\n        /* \"#utility.yul\":11762:11813   */\n      tag_272\n        /* \"#utility.yul\":11810:11811   */\n      0x00\n        /* \"#utility.yul\":11806:11812   */\n      not\n        /* \"#utility.yul\":11798:11803   */\n      dup5\n        /* \"#utility.yul\":11795:11796   */\n      0x08\n        /* \"#utility.yul\":11791:11804   */\n      mul\n        /* \"#utility.yul\":11762:11813   */\n      tag_131\n      jump\t// in\n    tag_272:\n        /* \"#utility.yul\":11758:11814   */\n      not\n        /* \"#utility.yul\":11843:11847   */\n      dup1\n        /* \"#utility.yul\":11837:11841   */\n      dup4\n        /* \"#utility.yul\":11833:11848   */\n      and\n        /* \"#utility.yul\":11823:11848   */\n      swap2\n      pop\n        /* \"#utility.yul\":11736:11854   */\n      pop\n        /* \"#utility.yul\":11685:11854   */\n      swap3\n      swap2\n      pop\n      pop\n      jump\t// out\n        /* \"#utility.yul\":11859:12154   */\n    tag_133:\n        /* \"#utility.yul\":11935:11939   */\n      0x00\n        /* \"#utility.yul\":12081:12110   */\n      tag_274\n        /* \"#utility.yul\":12106:12109   */\n      dup4\n        /* \"#utility.yul\":12100:12104   */\n      dup4\n        /* \"#utility.yul\":12081:12110   */\n      tag_132\n      jump\t// in\n    tag_274:\n        /* \"#utility.yul\":12073:12110   */\n      swap2\n      pop\n        /* \"#utility.yul\":12143:12146   */\n      dup3\n        /* \"#utility.yul\":12140:12141   */\n      0x02\n        /* \"#utility.yul\":12136:12147   */\n      mul\n        /* \"#utility.yul\":12130:12134   */\n      dup3\n        /* \"#utility.yul\":12127:12148   */\n      or\n        /* \"#utility.yul\":12119:12148   */\n      swap1\n      pop\n        /* \"#utility.yul\":11859:12154   */\n      swap3\n      swap2\n      pop\n      pop\n      jump\t// out\n        /* \"#utility.yul\":12159:13554   */\n    tag_49:\n        /* \"#utility.yul\":12276:12313   */\n      tag_276\n        /* \"#utility.yul\":12309:12312   */\n      dup3\n        /* \"#utility.yul\":12276:12313   */\n      tag_109\n      jump\t// in\n    tag_276:\n        /* \"#utility.yul\":12378:12396   */\n      0xffffffffffffffff\n        /* \"#utility.yul\":12370:12376   */\n      dup2\n        /* \"#utility.yul\":12367:12397   */\n      gt\n        /* \"#utility.yul\":12364:12420   */\n      iszero\n      tag_277\n      jumpi\n        /* \"#utility.yul\":12400:12418   */\n      tag_278\n      tag_95\n      jump\t// in\n    tag_278:\n        /* \"#utility.yul\":12364:12420   */\n    tag_277:\n        /* \"#utility.yul\":12444:12482   */\n      tag_279\n        /* \"#utility.yul\":12476:12480   */\n      dup3\n        /* \"#utility.yul\":12470:12481   */\n      sload\n        /* \"#utility.yul\":12444:12482   */\n      tag_71\n      jump\t// in\n    tag_279:\n        /* \"#utility.yul\":12529:12596   */\n      tag_280\n        /* \"#utility.yul\":12589:12595   */\n      dup3\n        /* \"#utility.yul\":12581:12587   */\n      dup3\n        /* \"#utility.yul\":12575:12579   */\n      dup6\n        /* \"#utility.yul\":12529:12596   */\n      tag_130\n      jump\t// in\n    tag_280:\n        /* \"#utility.yul\":12623:12624   */\n      0x00\n        /* \"#utility.yul\":12647:12651   */\n      0x20\n        /* \"#utility.yul\":12634:12651   */\n      swap1\n      pop\n        /* \"#utility.yul\":12679:12681   */\n      0x1f\n        /* \"#utility.yul\":12671:12677   */\n      dup4\n        /* \"#utility.yul\":12668:12682   */\n      gt\n        /* \"#utility.yul\":12696:12697   */\n      0x01\n        /* \"#utility.yul\":12691:13309   */\n      dup2\n      eq\n      tag_282\n      jumpi\n        /* \"#utility.yul\":13353:13354   */\n      0x00\n        /* \"#utility.yul\":13370:13376   */\n      dup5\n        /* \"#utility.yul\":13367:13444   */\n      iszero\n      tag_283\n      jumpi\n        /* \"#utility.yul\":13419:13428   */\n      dup3\n        /* \"#utility.yul\":13414:13417   */\n      dup8\n        /* \"#utility.yul\":13410:13429   */\n      add\n        /* \"#utility.yul\":13404:13430   */\n      mload\n        /* \"#utility.yul\":13395:13430   */\n      swap1\n      pop\n        /* \"#utility.yul\":13367:13444   */\n    tag_283:\n        /* \"#utility.yul\":13470:13537   */\n      tag_284\n        /* \"#utility.yul\":13530:13536   */\n      dup6\n        /* \"#utility.yul\":13523:13528   */\n      dup3\n        /* \"#utility.yul\":13470:13537   */\n      tag_133\n      jump\t// in\n    tag_284:\n        /* \"#utility.yul\":13464:13468   */\n      dup7\n        /* \"#utility.yul\":13457:13538   */\n      sstore\n        /* \"#utility.yul\":13326:13548   */\n      pop\n        /* \"#utility.yul\":12661:13548   */\n      jump(tag_281)\n        /* \"#utility.yul\":12691:13309   */\n    tag_282:\n        /* \"#utility.yul\":12743:12747   */\n      0x1f\n        /* \"#utility.yul\":12739:12748   */\n      not\n        /* \"#utility.yul\":12731:12737   */\n      dup5\n        /* \"#utility.yul\":12727:12749   */\n      and\n        /* \"#utility.yul\":12777:12814   */\n      tag_285\n        /* \"#utility.yul\":12809:12813   */\n      dup7\n        /* \"#utility.yul\":12777:12814   */\n      tag_119\n      jump\t// in\n    tag_285:\n        /* \"#utility.yul\":12836:12837   */\n      0x00\n        /* \"#utility.yul\":12850:13058   */\n    tag_286:\n        /* \"#utility.yul\":12864:12871   */\n      dup3\n        /* \"#utility.yul\":12861:12862   */\n      dup2\n        /* \"#utility.yul\":12858:12872   */\n      lt\n        /* \"#utility.yul\":12850:13058   */\n      iszero\n      tag_288\n      jumpi\n        /* \"#utility.yul\":12943:12952   */\n      dup5\n        /* \"#utility.yul\":12938:12941   */\n      dup10\n        /* \"#utility.yul\":12934:12953   */\n      add\n        /* \"#utility.yul\":12928:12954   */\n      mload\n        /* \"#utility.yul\":12920:12926   */\n      dup3\n        /* \"#utility.yul\":12913:12955   */\n      sstore\n        /* \"#utility.yul\":12994:12995   */\n      0x01\n        /* \"#utility.yul\":12986:12992   */\n      dup3\n        /* \"#utility.yul\":12982:12996   */\n      add\n        /* \"#utility.yul\":12972:12996   */\n      swap2\n      pop\n        /* \"#utility.yul\":13041:13043   */\n      0x20\n        /* \"#utility.yul\":13030:13039   */\n      dup6\n        /* \"#utility.yul\":13026:13044   */\n      add\n        /* \"#utility.yul\":13013:13044   */\n      swap5\n      pop\n        /* \"#utility.yul\":12887:12891   */\n      0x20\n        /* \"#utility.yul\":12884:12885   */\n      dup2\n        /* \"#utility.yul\":12880:12892   */\n      add\n        /* \"#utility.yul\":12875:12892   */\n      swap1\n      pop\n        /* \"#utility.yul\":12850:13058   */\n      jump(tag_286)\n    tag_288:\n        /* \"#utility.yul\":13086:13092   */\n      dup7\n        /* \"#utility.yul\":13077:13084   */\n      dup4\n        /* \"#utility.yul\":13074:13093   */\n      lt\n        /* \"#utility.yul\":13071:13250   */\n      iszero\n      tag_289\n      jumpi\n        /* \"#utility.yul\":13144:13153   */\n      dup5\n        /* \"#utility.yul\":13139:13142   */\n      dup10\n        /* \"#utility.yul\":13135:13154   */\n      add\n        /* \"#utility.yul\":13129:13155   */\n      mload\n        /* \"#utility.yul\":13187:13235   */\n      tag_290\n        /* \"#utility.yul\":13229:13233   */\n      0x1f\n        /* \"#utility.yul\":13221:13227   */\n      dup10\n        /* \"#utility.yul\":13217:13234   */\n      and\n        /* \"#utility.yul\":13206:13215   */\n      dup3\n        /* \"#utility.yul\":13187:13235   */\n      tag_132\n      jump\t// in\n    tag_290:\n        /* \"#utility.yul\":13179:13185   */\n      dup4\n        /* \"#utility.yul\":13172:13236   */\n      sstore\n        /* \"#utility.yul\":13094:13250   */\n      pop\n        /* \"#utility.yul\":13071:13250   */\n    tag_289:\n        /* \"#utility.yul\":13296:13297   */\n      0x01\n        /* \"#utility.yul\":13292:13293   */\n      0x02\n        /* \"#utility.yul\":13284:13290   */\n      dup9\n        /* \"#utility.yul\":13280:13294   */\n      mul\n        /* \"#utility.yul\":13276:13298   */\n      add\n        /* \"#utility.yul\":13270:13274   */\n      dup9\n        /* \"#utility.yul\":13263:13299   */\n      sstore\n        /* \"#utility.yul\":12698:13309   */\n      pop\n      pop\n      pop\n        /* \"#utility.yul\":12661:13548   */\n    tag_281:\n      pop\n        /* \"#utility.yul\":12251:13554   */\n      pop\n      pop\n      pop\n        /* \"#utility.yul\":12159:13554   */\n      pop\n      pop\n      jump\t// out\n        /* \"#utility.yul\":13560:13793   */\n    tag_134:\n        /* \"#utility.yul\":13700:13734   */\n      0x596f75206d757374206265207265676973746572656420746f20706572666f72\n        /* \"#utility.yul\":13696:13697   */\n      0x00\n        /* \"#utility.yul\":13688:13694   */\n      dup3\n        /* \"#utility.yul\":13684:13698   */\n      add\n        /* \"#utility.yul\":13677:13735   */\n      mstore\n        /* \"#utility.yul\":13769:13785   */\n      0x6d207468697320616374696f6e2e000000000000000000000000000000000000\n        /* \"#utility.yul\":13764:13766   */\n      0x20\n        /* \"#utility.yul\":13756:13762   */\n      dup3\n        /* \"#utility.yul\":13752:13767   */\n      add\n        /* \"#utility.yul\":13745:13786   */\n      mstore\n        /* \"#utility.yul\":13560:13793   */\n      pop\n      jump\t// out\n        /* \"#utility.yul\":13799:14165   */\n    tag_135:\n        /* \"#utility.yul\":13941:13944   */\n      0x00\n        /* \"#utility.yul\":13962:14029   */\n      tag_293\n        /* \"#utility.yul\":14026:14028   */\n      0x2e\n        /* \"#utility.yul\":14021:14024   */\n      dup4\n        /* \"#utility.yul\":13962:14029   */\n      tag_110\n      jump\t// in\n    tag_293:\n        /* \"#utility.yul\":13955:14029   */\n      swap2\n      pop\n        /* \"#utility.yul\":14038:14131   */\n      tag_294\n        /* \"#utility.yul\":14127:14130   */\n      dup3\n        /* \"#utility.yul\":14038:14131   */\n      tag_134\n      jump\t// in\n    tag_294:\n        /* \"#utility.yul\":14156:14158   */\n      0x40\n        /* \"#utility.yul\":14151:14154   */\n      dup3\n        /* \"#utility.yul\":14147:14159   */\n      add\n        /* \"#utility.yul\":14140:14159   */\n      swap1\n      pop\n        /* \"#utility.yul\":13799:14165   */\n      swap2\n      swap1\n      pop\n      jump\t// out\n        /* \"#utility.yul\":14171:14590   */\n    tag_54:\n        /* \"#utility.yul\":14337:14341   */\n      0x00\n        /* \"#utility.yul\":14375:14377   */\n      0x20\n        /* \"#utility.yul\":14364:14373   */\n      dup3\n        /* \"#utility.yul\":14360:14378   */\n      add\n        /* \"#utility.yul\":14352:14378   */\n      swap1\n      pop\n        /* \"#utility.yul\":14424:14433   */\n      dup2\n        /* \"#utility.yul\":14418:14422   */\n      dup2\n        /* \"#utility.yul\":14414:14434   */\n      sub\n        /* \"#utility.yul\":14410:14411   */\n      0x00\n        /* \"#utility.yul\":14399:14408   */\n      dup4\n        /* \"#utility.yul\":14395:14412   */\n      add\n        /* \"#utility.yul\":14388:14435   */\n      mstore\n        /* \"#utility.yul\":14452:14583   */\n      tag_296\n        /* \"#utility.yul\":14578:14582   */\n      dup2\n        /* \"#utility.yul\":14452:14583   */\n      tag_135\n      jump\t// in\n    tag_296:\n        /* \"#utility.yul\":14444:14583   */\n      swap1\n      pop\n        /* \"#utility.yul\":14171:14590   */\n      swap2\n      swap1\n      pop\n      jump\t// out\n        /* \"#utility.yul\":14596:14776   */\n    tag_136:\n        /* \"#utility.yul\":14644:14721   */\n      0x4e487b7100000000000000000000000000000000000000000000000000000000\n        /* \"#utility.yul\":14641:14642   */\n      0x00\n        /* \"#utility.yul\":14634:14722   */\n      mstore\n        /* \"#utility.yul\":14741:14745   */\n      0x11\n        /* \"#utility.yul\":14738:14739   */\n      0x04\n        /* \"#utility.yul\":14731:14746   */\n      mstore\n        /* \"#utility.yul\":14765:14769   */\n      0x24\n        /* \"#utility.yul\":14762:14763   */\n      0x00\n        /* \"#utility.yul\":14755:14770   */\n      revert\n        /* \"#utility.yul\":14782:14973   */\n    tag_59:\n        /* \"#utility.yul\":14822:14825   */\n      0x00\n        /* \"#utility.yul\":14841:14861   */\n      tag_299\n        /* \"#utility.yul\":14859:14860   */\n      dup3\n        /* \"#utility.yul\":14841:14861   */\n      tag_102\n      jump\t// in\n    tag_299:\n        /* \"#utility.yul\":14836:14861   */\n      swap2\n      pop\n        /* \"#utility.yul\":14875:14895   */\n      tag_300\n        /* \"#utility.yul\":14893:14894   */\n      dup4\n        /* \"#utility.yul\":14875:14895   */\n      tag_102\n      jump\t// in\n    tag_300:\n        /* \"#utility.yul\":14870:14895   */\n      swap3\n      pop\n        /* \"#utility.yul\":14918:14919   */\n      dup3\n        /* \"#utility.yul\":14915:14916   */\n      dup3\n        /* \"#utility.yul\":14911:14920   */\n      add\n        /* \"#utility.yul\":14904:14920   */\n      swap1\n      pop\n        /* \"#utility.yul\":14939:14942   */\n      dup1\n        /* \"#utility.yul\":14936:14937   */\n      dup3\n        /* \"#utility.yul\":14933:14943   */\n      gt\n        /* \"#utility.yul\":14930:14966   */\n      iszero\n      tag_301\n      jumpi\n        /* \"#utility.yul\":14946:14964   */\n      tag_302\n      tag_136\n      jump\t// in\n    tag_302:\n        /* \"#utility.yul\":14930:14966   */\n    tag_301:\n        /* \"#utility.yul\":14782:14973   */\n      swap3\n      swap2\n      pop\n      pop\n      jump\t// out\n        /* \"#utility.yul\":14979:15149   */\n    tag_137:\n        /* \"#utility.yul\":15119:15141   */\n      0x496e76616c6964207265706f727420696e646578000000000000000000000000\n        /* \"#utility.yul\":15115:15116   */\n      0x00\n        /* \"#utility.yul\":15107:15113   */\n      dup3\n        /* \"#utility.yul\":15103:15117   */\n      add\n        /* \"#utility.yul\":15096:15142   */\n      mstore\n        /* \"#utility.yul\":14979:15149   */\n      pop\n      jump\t// out\n        /* \"#utility.yul\":15155:15521   */\n    tag_138:\n        /* \"#utility.yul\":15297:15300   */\n      0x00\n        /* \"#utility.yul\":15318:15385   */\n      tag_305\n        /* \"#utility.yul\":15382:15384   */\n      0x14\n        /* \"#utility.yul\":15377:15380   */\n      dup4\n        /* \"#utility.yul\":15318:15385   */\n      tag_110\n      jump\t// in\n    tag_305:\n        /* \"#utility.yul\":15311:15385   */\n      swap2\n      pop\n        /* \"#utility.yul\":15394:15487   */\n      tag_306\n        /* \"#utility.yul\":15483:15486   */\n      dup3\n        /* \"#utility.yul\":15394:15487   */\n      tag_137\n      jump\t// in\n    tag_306:\n        /* \"#utility.yul\":15512:15514   */\n      0x20\n        /* \"#utility.yul\":15507:15510   */\n      dup3\n        /* \"#utility.yul\":15503:15515   */\n      add\n        /* \"#utility.yul\":15496:15515   */\n      swap1\n      pop\n        /* \"#utility.yul\":15155:15521   */\n      swap2\n      swap1\n      pop\n      jump\t// out\n        /* \"#utility.yul\":15527:15946   */\n    tag_65:\n        /* \"#utility.yul\":15693:15697   */\n      0x00\n        /* \"#utility.yul\":15731:15733   */\n      0x20\n        /* \"#utility.yul\":15720:15729   */\n      dup3\n        /* \"#utility.yul\":15716:15734   */\n      add\n        /* \"#utility.yul\":15708:15734   */\n      swap1\n      pop\n        /* \"#utility.yul\":15780:15789   */\n      dup2\n        /* \"#utility.yul\":15774:15778   */\n      dup2\n        /* \"#utility.yul\":15770:15790   */\n      sub\n        /* \"#utility.yul\":15766:15767   */\n      0x00\n        /* \"#utility.yul\":15755:15764   */\n      dup4\n        /* \"#utility.yul\":15751:15768   */\n      add\n        /* \"#utility.yul\":15744:15791   */\n      mstore\n        /* \"#utility.yul\":15808:15939   */\n      tag_308\n        /* \"#utility.yul\":15934:15938   */\n      dup2\n        /* \"#utility.yul\":15808:15939   */\n      tag_138\n      jump\t// in\n    tag_308:\n        /* \"#utility.yul\":15800:15939   */\n      swap1\n      pop\n        /* \"#utility.yul\":15527:15946   */\n      swap2\n      swap1\n      pop\n      jump\t// out\n        /* \"#utility.yul\":15952:16132   */\n    tag_68:\n        /* \"#utility.yul\":16000:16077   */\n      0x4e487b7100000000000000000000000000000000000000000000000000000000\n        /* \"#utility.yul\":15997:15998   */\n      0x00\n        /* \"#utility.yul\":15990:16078   */\n      mstore\n        /* \"#utility.yul\":16097:16101   */\n      0x32\n        /* \"#utility.yul\":16094:16095   */\n      0x04\n        /* \"#utility.yul\":16087:16102   */\n      mstore\n        /* \"#utility.yul\":16121:16125   */\n      0x24\n        /* \"#utility.yul\":16118:16119   */\n      0x00\n        /* \"#utility.yul\":16111:16126   */\n      revert\n\n    auxdata: 0xa26469706673582212204948393200d208af9a0844b4e80004b130b08bb7ca089b900b7d0fcf134a5f2a64736f6c634300081e0033\n}\n",
				"bytecode": {
					"linkReferences": {},
					"object": "6080604052348015600e575f5ffd5b506111c88061001c5f395ff3fe608060405234801561000f575f5ffd5b506004361061007b575f3560e01c80639e22a893116100595780639e22a893146100e8578063bad02c7e14610118578063d4f910a714610149578063f11cd6d21461017b5761007b565b80633e0858311461007f578063635ac1ed1461009b5780637cdade8f146100b7575b5f5ffd5b61009960048036038101906100949190610a6b565b6101ab565b005b6100b560048036038101906100b09190610ac5565b610325565b005b6100d160048036038101906100cc9190610b66565b61057a565b6040516100df929190610c13565b60405180910390f35b61010260048036038101906100fd9190610c41565b610716565b60405161010f9190610c6c565b60405180910390f35b610132600480360381019061012d9190610b66565b61075f565b604051610140929190610c13565b60405180910390f35b610163600480360381019061015e9190610c41565b61081f565b60405161017293929190610c9f565b60405180910390f35b61019560048036038101906101909190610c41565b6108d6565b6040516101a29190610c6c565b60405180910390f35b5f5f3373ffffffffffffffffffffffffffffffffffffffff1673ffffffffffffffffffffffffffffffffffffffff1681526020019081526020015f206002015f9054906101000a900460ff1615610237576040517f08c379a000000000000000000000000000000000000000000000000000000000815260040161022e90610d25565b60405180910390fd5b6040518060600160405280838152602001828152602001600115158152505f5f3373ffffffffffffffffffffffffffffffffffffffff1673ffffffffffffffffffffffffffffffffffffffff1681526020019081526020015f205f820151815f0190816102a49190610f40565b50602082015181600101556040820151816002015f6101000a81548160ff0219169083151502179055509050503373ffffffffffffffffffffffffffffffffffffffff167f754530224c6d5f086f90f1ddc12ad49176b37c5ec426819ac61035f9427fd2df8383604051610319929190610c13565b60405180910390a25050565b5f5f3373ffffffffffffffffffffffffffffffffffffffff1673ffffffffffffffffffffffffffffffffffffffff1681526020019081526020015f206002015f9054906101000a900460ff166103b0576040517f08c379a00000000000000000000000000000000000000000000000000000000081526004016103a79061107f565b60405180910390fd5b60015f3373ffffffffffffffffffffffffffffffffffffffff1673ffffffffffffffffffffffffffffffffffffffff1681526020019081526020015f20604051806040016040528083815260200142815250908060018154018082558091505060019003905f5260205f2090600202015f909190919091505f820151815f01908161043b9190610f40565b50602082015181600101555050600160025f3373ffffffffffffffffffffffffffffffffffffffff1673ffffffffffffffffffffffffffffffffffffffff1681526020019081526020015f205f82825461049591906110ca565b925050819055503373ffffffffffffffffffffffffffffffffffffffff167f8eee89b637f272e645302f4b1f23e9c8fbe825d2d532be1a72731e14807cfc7282426040516104e4929190610c13565b60405180910390a23373ffffffffffffffffffffffffffffffffffffffff167f900825d4808e50002c1a3614c809eb06d2d7142338f0dec06ed9a4057c8a8c9960025f3373ffffffffffffffffffffffffffffffffffffffff1673ffffffffffffffffffffffffffffffffffffffff1681526020019081526020015f205460405161056f9190610c6c565b60405180910390a250565b60605f60015f8573ffffffffffffffffffffffffffffffffffffffff1673ffffffffffffffffffffffffffffffffffffffff1681526020019081526020015f208054905083106105ff576040517f08c379a00000000000000000000000000000000000000000000000000000000081526004016105f690611147565b60405180910390fd5b5f60015f8673ffffffffffffffffffffffffffffffffffffffff1673ffffffffffffffffffffffffffffffffffffffff1681526020019081526020015f20848154811061064f5761064e611165565b5b905f5260205f2090600202016040518060400160405290815f8201805461067590610d70565b80601f01602080910402602001604051908101604052809291908181526020018280546106a190610d70565b80156106ec5780601f106106c3576101008083540402835291602001916106ec565b820191905f5260205f20905b8154815290600101906020018083116106cf57829003601f168201915b505050505081526020016001820154815250509050805f0151816020015192509250509250929050565b5f60015f8373ffffffffffffffffffffffffffffffffffffffff1673ffffffffffffffffffffffffffffffffffffffff1681526020019081526020015f20805490509050919050565b6001602052815f5260405f208181548110610778575f80fd5b905f5260205f2090600202015f9150915050805f01805461079890610d70565b80601f01602080910402602001604051908101604052809291908181526020018280546107c490610d70565b801561080f5780601f106107e65761010080835404028352916020019161080f565b820191905f5260205f20905b8154815290600101906020018083116107f257829003601f168201915b5050505050908060010154905082565b5f602052805f5260405f205f91509050805f01805461083d90610d70565b80601f016020809104026020016040519081016040528092919081815260200182805461086990610d70565b80156108b45780601f1061088b576101008083540402835291602001916108b4565b820191905f5260205f20905b81548152906001019060200180831161089757829003601f168201915b505050505090806001015490806002015f9054906101000a900460ff16905083565b6002602052805f5260405f205f915090505481565b5f604051905090565b5f5ffd5b5f5ffd5b5f5ffd5b5f5ffd5b5f601f19601f8301169050919050565b7f4e487b71000000000000000000000000000000000000000000000000000000005f52604160045260245ffd5b61094a82610904565b810181811067ffffffffffffffff8211171561096957610968610914565b5b80604052505050565b5f61097b6108eb565b90506109878282610941565b919050565b5f67ffffffffffffffff8211156109a6576109a5610914565b5b6109af82610904565b9050602081019050919050565b828183375f83830152505050565b5f6109dc6109d78461098c565b610972565b9050828152602081018484840111156109f8576109f7610900565b5b610a038482856109bc565b509392505050565b5f82601f830112610a1f57610a1e6108fc565b5b8135610a2f8482602086016109ca565b91505092915050565b5f819050919050565b610a4a81610a38565b8114610a54575f5ffd5b50565b5f81359050610a6581610a41565b92915050565b5f5f60408385031215610a8157610a806108f4565b5b5f83013567ffffffffffffffff811115610a9e57610a9d6108f8565b5b610aaa85828601610a0b565b9250506020610abb85828601610a57565b9150509250929050565b5f60208284031215610ada57610ad96108f4565b5b5f82013567ffffffffffffffff811115610af757610af66108f8565b5b610b0384828501610a0b565b91505092915050565b5f73ffffffffffffffffffffffffffffffffffffffff82169050919050565b5f610b3582610b0c565b9050919050565b610b4581610b2b565b8114610b4f575f5ffd5b50565b5f81359050610b6081610b3c565b92915050565b5f5f60408385031215610b7c57610b7b6108f4565b5b5f610b8985828601610b52565b9250506020610b9a85828601610a57565b9150509250929050565b5f81519050919050565b5f82825260208201905092915050565b8281835e5f83830152505050565b5f610bd682610ba4565b610be08185610bae565b9350610bf0818560208601610bbe565b610bf981610904565b840191505092915050565b610c0d81610a38565b82525050565b5f6040820190508181035f830152610c2b8185610bcc565b9050610c3a6020830184610c04565b9392505050565b5f60208284031215610c5657610c556108f4565b5b5f610c6384828501610b52565b91505092915050565b5f602082019050610c7f5f830184610c04565b92915050565b5f8115159050919050565b610c9981610c85565b82525050565b5f6060820190508181035f830152610cb78186610bcc565b9050610cc66020830185610c04565b610cd36040830184610c90565b949350505050565b7f416c726561647920726567697374657265642e000000000000000000000000005f82015250565b5f610d0f601383610bae565b9150610d1a82610cdb565b602082019050919050565b5f6020820190508181035f830152610d3c81610d03565b9050919050565b7f4e487b71000000000000000000000000000000000000000000000000000000005f52602260045260245ffd5b5f6002820490506001821680610d8757607f821691505b602082108103610d9a57610d99610d43565b5b50919050565b5f819050815f5260205f209050919050565b5f6020601f8301049050919050565b5f82821b905092915050565b5f60088302610dfc7fffffffffffffffffffffffffffffffffffffffffffffffffffffffffffffffff82610dc1565b610e068683610dc1565b95508019841693508086168417925050509392505050565b5f819050919050565b5f610e41610e3c610e3784610a38565b610e1e565b610a38565b9050919050565b5f819050919050565b610e5a83610e27565b610e6e610e6682610e48565b848454610dcd565b825550505050565b5f5f905090565b610e85610e76565b610e90818484610e51565b505050565b5b81811015610eb357610ea85f82610e7d565b600181019050610e96565b5050565b601f821115610ef857610ec981610da0565b610ed284610db2565b81016020851015610ee1578190505b610ef5610eed85610db2565b830182610e95565b50505b505050565b5f82821c905092915050565b5f610f185f1984600802610efd565b1980831691505092915050565b5f610f308383610f09565b9150826002028217905092915050565b610f4982610ba4565b67ffffffffffffffff811115610f6257610f61610914565b5b610f6c8254610d70565b610f77828285610eb7565b5f60209050601f831160018114610fa8575f8415610f96578287015190505b610fa08582610f25565b865550611007565b601f198416610fb686610da0565b5f5b82811015610fdd57848901518255600182019150602085019450602081019050610fb8565b86831015610ffa5784890151610ff6601f891682610f09565b8355505b6001600288020188555050505b505050505050565b7f596f75206d757374206265207265676973746572656420746f20706572666f725f8201527f6d207468697320616374696f6e2e000000000000000000000000000000000000602082015250565b5f611069602e83610bae565b91506110748261100f565b604082019050919050565b5f6020820190508181035f8301526110968161105d565b9050919050565b7f4e487b71000000000000000000000000000000000000000000000000000000005f52601160045260245ffd5b5f6110d482610a38565b91506110df83610a38565b92508282019050808211156110f7576110f661109d565b5b92915050565b7f496e76616c6964207265706f727420696e6465780000000000000000000000005f82015250565b5f611131601483610bae565b915061113c826110fd565b602082019050919050565b5f6020820190508181035f83015261115e81611125565b9050919050565b7f4e487b71000000000000000000000000000000000000000000000000000000005f52603260045260245ffdfea26469706673582212204948393200d208af9a0844b4e80004b130b08bb7ca089b900b7d0fcf134a5f2a64736f6c634300081e0033",
					"opcodes": "PUSH1 0x80 PUSH1 0x40 MSTORE CALLVALUE DUP1 ISZERO PUSH1 0xE JUMPI PUSH0 PUSH0 REVERT JUMPDEST POP PUSH2 0x11C8 DUP1 PUSH2 0x1C PUSH0 CODECOPY PUSH0 RETURN INVALID PUSH1 0x80 PUSH1 0x40 MSTORE CALLVALUE DUP1 ISZERO PUSH2 0xF JUMPI PUSH0 PUSH0 REVERT JUMPDEST POP PUSH1 0x4 CALLDATASIZE LT PUSH2 0x7B JUMPI PUSH0 CALLDATALOAD PUSH1 0xE0 SHR DUP1 PUSH4 0x9E22A893 GT PUSH2 0x59 JUMPI DUP1 PUSH4 0x9E22A893 EQ PUSH2 0xE8 JUMPI DUP1 PUSH4 0xBAD02C7E EQ PUSH2 0x118 JUMPI DUP1 PUSH4 0xD4F910A7 EQ PUSH2 0x149 JUMPI DUP1 PUSH4 0xF11CD6D2 EQ PUSH2 0x17B JUMPI PUSH2 0x7B JUMP JUMPDEST DUP1 PUSH4 0x3E085831 EQ PUSH2 0x7F JUMPI DUP1 PUSH4 0x635AC1ED EQ PUSH2 0x9B JUMPI DUP1 PUSH4 0x7CDADE8F EQ PUSH2 0xB7 JUMPI JUMPDEST PUSH0 PUSH0 REVERT JUMPDEST PUSH2 0x99 PUSH1 0x4 DUP1 CALLDATASIZE SUB DUP2 ADD SWAP1 PUSH2 0x94 SWAP2 SWAP1 PUSH2 0xA6B JUMP JUMPDEST PUSH2 0x1AB JUMP JUMPDEST STOP JUMPDEST PUSH2 0xB5 PUSH1 0x4 DUP1 CALLDATASIZE SUB DUP2 ADD SWAP1 PUSH2 0xB0 SWAP2 SWAP1 PUSH2 0xAC5 JUMP JUMPDEST PUSH2 0x325 JUMP JUMPDEST STOP JUMPDEST PUSH2 0xD1 PUSH1 0x4 DUP1 CALLDATASIZE SUB DUP2 ADD SWAP1 PUSH2 0xCC SWAP2 SWAP1 PUSH2 0xB66 JUMP JUMPDEST PUSH2 0x57A JUMP JUMPDEST PUSH1 0x40 MLOAD PUSH2 0xDF SWAP3 SWAP2 SWAP1 PUSH2 0xC13 JUMP JUMPDEST PUSH1 0x40 MLOAD DUP1 SWAP2 SUB SWAP1 RETURN JUMPDEST PUSH2 0x102 PUSH1 0x4 DUP1 CALLDATASIZE SUB DUP2 ADD SWAP1 PUSH2 0xFD SWAP2 SWAP1 PUSH2 0xC41 JUMP JUMPDEST PUSH2 0x716 JUMP JUMPDEST PUSH1 0x40 MLOAD PUSH2 0x10F SWAP2 SWAP1 PUSH2 0xC6C JUMP JUMPDEST PUSH1 0x40 MLOAD DUP1 SWAP2 SUB SWAP1 RETURN JUMPDEST PUSH2 0x132 PUSH1 0x4 DUP1 CALLDATASIZE SUB DUP2 ADD SWAP1 PUSH2 0x12D SWAP2 SWAP1 PUSH2 0xB66 JUMP JUMPDEST PUSH2 0x75F JUMP JUMPDEST PUSH1 0x40 MLOAD PUSH2 0x140 SWAP3 SWAP2 SWAP1 PUSH2 0xC13 JUMP JUMPDEST PUSH1 0x40 MLOAD DUP1 SWAP2 SUB SWAP1 RETURN JUMPDEST PUSH2 0x163 PUSH1 0x4 DUP1 CALLDATASIZE SUB DUP2 ADD SWAP1 PUSH2 0x15E SWAP2 SWAP1 PUSH2 0xC41 JUMP JUMPDEST PUSH2 0x81F JUMP JUMPDEST PUSH1 0x40 MLOAD PUSH2 0x172 SWAP4 SWAP3 SWAP2 SWAP1 PUSH2 0xC9F JUMP JUMPDEST PUSH1 0x40 MLOAD DUP1 SWAP2 SUB SWAP1 RETURN JUMPDEST PUSH2 0x195 PUSH1 0x4 DUP1 CALLDATASIZE SUB DUP2 ADD SWAP1 PUSH2 0x190 SWAP2 SWAP1 PUSH2 0xC41 JUMP JUMPDEST PUSH2 0x8D6 JUMP JUMPDEST PUSH1 0x40 MLOAD PUSH2 0x1A2 SWAP2 SWAP1 PUSH2 0xC6C JUMP JUMPDEST PUSH1 0x40 MLOAD DUP1 SWAP2 SUB SWAP1 RETURN JUMPDEST PUSH0 PUSH0 CALLER PUSH20 0xFFFFFFFFFFFFFFFFFFFFFFFFFFFFFFFFFFFFFFFF AND PUSH20 0xFFFFFFFFFFFFFFFFFFFFFFFFFFFFFFFFFFFFFFFF AND DUP2 MSTORE PUSH1 0x20 ADD SWAP1 DUP2 MSTORE PUSH1 0x20 ADD PUSH0 KECCAK256 PUSH1 0x2 ADD PUSH0 SWAP1 SLOAD SWAP1 PUSH2 0x100 EXP SWAP1 DIV PUSH1 0xFF AND ISZERO PUSH2 0x237 JUMPI PUSH1 0x40 MLOAD PUSH32 0x8C379A000000000000000000000000000000000000000000000000000000000 DUP2 MSTORE PUSH1 0x4 ADD PUSH2 0x22E SWAP1 PUSH2 0xD25 JUMP JUMPDEST PUSH1 0x40 MLOAD DUP1 SWAP2 SUB SWAP1 REVERT JUMPDEST PUSH1 0x40 MLOAD DUP1 PUSH1 0x60 ADD PUSH1 0x40 MSTORE DUP1 DUP4 DUP2 MSTORE PUSH1 0x20 ADD DUP3 DUP2 MSTORE PUSH1 0x20 ADD PUSH1 0x1 ISZERO ISZERO DUP2 MSTORE POP PUSH0 PUSH0 CALLER PUSH20 0xFFFFFFFFFFFFFFFFFFFFFFFFFFFFFFFFFFFFFFFF AND PUSH20 0xFFFFFFFFFFFFFFFFFFFFFFFFFFFFFFFFFFFFFFFF AND DUP2 MSTORE PUSH1 0x20 ADD SWAP1 DUP2 MSTORE PUSH1 0x20 ADD PUSH0 KECCAK256 PUSH0 DUP3 ADD MLOAD DUP2 PUSH0 ADD SWAP1 DUP2 PUSH2 0x2A4 SWAP2 SWAP1 PUSH2 0xF40 JUMP JUMPDEST POP PUSH1 0x20 DUP3 ADD MLOAD DUP2 PUSH1 0x1 ADD SSTORE PUSH1 0x40 DUP3 ADD MLOAD DUP2 PUSH1 0x2 ADD PUSH0 PUSH2 0x100 EXP DUP2 SLOAD DUP2 PUSH1 0xFF MUL NOT AND SWAP1 DUP4 ISZERO ISZERO MUL OR SWAP1 SSTORE POP SWAP1 POP POP CALLER PUSH20 0xFFFFFFFFFFFFFFFFFFFFFFFFFFFFFFFFFFFFFFFF AND PUSH32 0x754530224C6D5F086F90F1DDC12AD49176B37C5EC426819AC61035F9427FD2DF DUP4 DUP4 PUSH1 0x40 MLOAD PUSH2 0x319 SWAP3 SWAP2 SWAP1 PUSH2 0xC13 JUMP JUMPDEST PUSH1 0x40 MLOAD DUP1 SWAP2 SUB SWAP1 LOG2 POP POP JUMP JUMPDEST PUSH0 PUSH0 CALLER PUSH20 0xFFFFFFFFFFFFFFFFFFFFFFFFFFFFFFFFFFFFFFFF AND PUSH20 0xFFFFFFFFFFFFFFFFFFFFFFFFFFFFFFFFFFFFFFFF AND DUP2 MSTORE PUSH1 0x20 ADD SWAP1 DUP2 MSTORE PUSH1 0x20 ADD PUSH0 KECCAK256 PUSH1 0x2 ADD PUSH0 SWAP1 SLOAD SWAP1 PUSH2 0x100 EXP SWAP1 DIV PUSH1 0xFF AND PUSH2 0x3B0 JUMPI PUSH1 0x40 MLOAD PUSH32 0x8C379A000000000000000000000000000000000000000000000000000000000 DUP2 MSTORE PUSH1 0x4 ADD PUSH2 0x3A7 SWAP1 PUSH2 0x107F JUMP JUMPDEST PUSH1 0x40 MLOAD DUP1 SWAP2 SUB SWAP1 REVERT JUMPDEST PUSH1 0x1 PUSH0 CALLER PUSH20 0xFFFFFFFFFFFFFFFFFFFFFFFFFFFFFFFFFFFFFFFF AND PUSH20 0xFFFFFFFFFFFFFFFFFFFFFFFFFFFFFFFFFFFFFFFF AND DUP2 MSTORE PUSH1 0x20 ADD SWAP1 DUP2 MSTORE PUSH1 0x20 ADD PUSH0 KECCAK256 PUSH1 0x40 MLOAD DUP1 PUSH1 0x40 ADD PUSH1 0x40 MSTORE DUP1 DUP4 DUP2 MSTORE PUSH1 0x20 ADD TIMESTAMP DUP2 MSTORE POP SWAP1 DUP1 PUSH1 0x1 DUP2 SLOAD ADD DUP1 DUP3 SSTORE DUP1 SWAP2 POP POP PUSH1 0x1 SWAP1 SUB SWAP1 PUSH0 MSTORE PUSH1 0x20 PUSH0 KECCAK256 SWAP1 PUSH1 0x2 MUL ADD PUSH0 SWAP1 SWAP2 SWAP1 SWAP2 SWAP1 SWAP2 POP PUSH0 DUP3 ADD MLOAD DUP2 PUSH0 ADD SWAP1 DUP2 PUSH2 0x43B SWAP2 SWAP1 PUSH2 0xF40 JUMP JUMPDEST POP PUSH1 0x20 DUP3 ADD MLOAD DUP2 PUSH1 0x1 ADD SSTORE POP POP PUSH1 0x1 PUSH1 0x2 PUSH0 CALLER PUSH20 0xFFFFFFFFFFFFFFFFFFFFFFFFFFFFFFFFFFFFFFFF AND PUSH20 0xFFFFFFFFFFFFFFFFFFFFFFFFFFFFFFFFFFFFFFFF AND DUP2 MSTORE PUSH1 0x20 ADD SWAP1 DUP2 MSTORE PUSH1 0x20 ADD PUSH0 KECCAK256 PUSH0 DUP3 DUP3 SLOAD PUSH2 0x495 SWAP2 SWAP1 PUSH2 0x10CA JUMP JUMPDEST SWAP3 POP POP DUP2 SWAP1 SSTORE POP CALLER PUSH20 0xFFFFFFFFFFFFFFFFFFFFFFFFFFFFFFFFFFFFFFFF AND PUSH32 0x8EEE89B637F272E645302F4B1F23E9C8FBE825D2D532BE1A72731E14807CFC72 DUP3 TIMESTAMP PUSH1 0x40 MLOAD PUSH2 0x4E4 SWAP3 SWAP2 SWAP1 PUSH2 0xC13 JUMP JUMPDEST PUSH1 0x40 MLOAD DUP1 SWAP2 SUB SWAP1 LOG2 CALLER PUSH20 0xFFFFFFFFFFFFFFFFFFFFFFFFFFFFFFFFFFFFFFFF AND PUSH32 0x900825D4808E50002C1A3614C809EB06D2D7142338F0DEC06ED9A4057C8A8C99 PUSH1 0x2 PUSH0 CALLER PUSH20 0xFFFFFFFFFFFFFFFFFFFFFFFFFFFFFFFFFFFFFFFF AND PUSH20 0xFFFFFFFFFFFFFFFFFFFFFFFFFFFFFFFFFFFFFFFF AND DUP2 MSTORE PUSH1 0x20 ADD SWAP1 DUP2 MSTORE PUSH1 0x20 ADD PUSH0 KECCAK256 SLOAD PUSH1 0x40 MLOAD PUSH2 0x56F SWAP2 SWAP1 PUSH2 0xC6C JUMP JUMPDEST PUSH1 0x40 MLOAD DUP1 SWAP2 SUB SWAP1 LOG2 POP JUMP JUMPDEST PUSH1 0x60 PUSH0 PUSH1 0x1 PUSH0 DUP6 PUSH20 0xFFFFFFFFFFFFFFFFFFFFFFFFFFFFFFFFFFFFFFFF AND PUSH20 0xFFFFFFFFFFFFFFFFFFFFFFFFFFFFFFFFFFFFFFFF AND DUP2 MSTORE PUSH1 0x20 ADD SWAP1 DUP2 MSTORE PUSH1 0x20 ADD PUSH0 KECCAK256 DUP1 SLOAD SWAP1 POP DUP4 LT PUSH2 0x5FF JUMPI PUSH1 0x40 MLOAD PUSH32 0x8C379A000000000000000000000000000000000000000000000000000000000 DUP2 MSTORE PUSH1 0x4 ADD PUSH2 0x5F6 SWAP1 PUSH2 0x1147 JUMP JUMPDEST PUSH1 0x40 MLOAD DUP1 SWAP2 SUB SWAP1 REVERT JUMPDEST PUSH0 PUSH1 0x1 PUSH0 DUP7 PUSH20 0xFFFFFFFFFFFFFFFFFFFFFFFFFFFFFFFFFFFFFFFF AND PUSH20 0xFFFFFFFFFFFFFFFFFFFFFFFFFFFFFFFFFFFFFFFF AND DUP2 MSTORE PUSH1 0x20 ADD SWAP1 DUP2 MSTORE PUSH1 0x20 ADD PUSH0 KECCAK256 DUP5 DUP2 SLOAD DUP2 LT PUSH2 0x64F JUMPI PUSH2 0x64E PUSH2 0x1165 JUMP JUMPDEST JUMPDEST SWAP1 PUSH0 MSTORE PUSH1 0x20 PUSH0 KECCAK256 SWAP1 PUSH1 0x2 MUL ADD PUSH1 0x40 MLOAD DUP1 PUSH1 0x40 ADD PUSH1 0x40 MSTORE SWAP1 DUP2 PUSH0 DUP3 ADD DUP1 SLOAD PUSH2 0x675 SWAP1 PUSH2 0xD70 JUMP JUMPDEST DUP1 PUSH1 0x1F ADD PUSH1 0x20 DUP1 SWAP2 DIV MUL PUSH1 0x20 ADD PUSH1 0x40 MLOAD SWAP1 DUP2 ADD PUSH1 0x40 MSTORE DUP1 SWAP3 SWAP2 SWAP1 DUP2 DUP2 MSTORE PUSH1 0x20 ADD DUP3 DUP1 SLOAD PUSH2 0x6A1 SWAP1 PUSH2 0xD70 JUMP JUMPDEST DUP1 ISZERO PUSH2 0x6EC JUMPI DUP1 PUSH1 0x1F LT PUSH2 0x6C3 JUMPI PUSH2 0x100 DUP1 DUP4 SLOAD DIV MUL DUP4 MSTORE SWAP2 PUSH1 0x20 ADD SWAP2 PUSH2 0x6EC JUMP JUMPDEST DUP3 ADD SWAP2 SWAP1 PUSH0 MSTORE PUSH1 0x20 PUSH0 KECCAK256 SWAP1 JUMPDEST DUP2 SLOAD DUP2 MSTORE SWAP1 PUSH1 0x1 ADD SWAP1 PUSH1 0x20 ADD DUP1 DUP4 GT PUSH2 0x6CF JUMPI DUP3 SWAP1 SUB PUSH1 0x1F AND DUP3 ADD SWAP2 JUMPDEST POP POP POP POP POP DUP2 MSTORE PUSH1 0x20 ADD PUSH1 0x1 DUP3 ADD SLOAD DUP2 MSTORE POP POP SWAP1 POP DUP1 PUSH0 ADD MLOAD DUP2 PUSH1 0x20 ADD MLOAD SWAP3 POP SWAP3 POP POP SWAP3 POP SWAP3 SWAP1 POP JUMP JUMPDEST PUSH0 PUSH1 0x1 PUSH0 DUP4 PUSH20 0xFFFFFFFFFFFFFFFFFFFFFFFFFFFFFFFFFFFFFFFF AND PUSH20 0xFFFFFFFFFFFFFFFFFFFFFFFFFFFFFFFFFFFFFFFF AND DUP2 MSTORE PUSH1 0x20 ADD SWAP1 DUP2 MSTORE PUSH1 0x20 ADD PUSH0 KECCAK256 DUP1 SLOAD SWAP1 POP SWAP1 POP SWAP2 SWAP1 POP JUMP JUMPDEST PUSH1 0x1 PUSH1 0x20 MSTORE DUP2 PUSH0 MSTORE PUSH1 0x40 PUSH0 KECCAK256 DUP2 DUP2 SLOAD DUP2 LT PUSH2 0x778 JUMPI PUSH0 DUP1 REVERT JUMPDEST SWAP1 PUSH0 MSTORE PUSH1 0x20 PUSH0 KECCAK256 SWAP1 PUSH1 0x2 MUL ADD PUSH0 SWAP2 POP SWAP2 POP POP DUP1 PUSH0 ADD DUP1 SLOAD PUSH2 0x798 SWAP1 PUSH2 0xD70 JUMP JUMPDEST DUP1 PUSH1 0x1F ADD PUSH1 0x20 DUP1 SWAP2 DIV MUL PUSH1 0x20 ADD PUSH1 0x40 MLOAD SWAP1 DUP2 ADD PUSH1 0x40 MSTORE DUP1 SWAP3 SWAP2 SWAP1 DUP2 DUP2 MSTORE PUSH1 0x20 ADD DUP3 DUP1 SLOAD PUSH2 0x7C4 SWAP1 PUSH2 0xD70 JUMP JUMPDEST DUP1 ISZERO PUSH2 0x80F JUMPI DUP1 PUSH1 0x1F LT PUSH2 0x7E6 JUMPI PUSH2 0x100 DUP1 DUP4 SLOAD DIV MUL DUP4 MSTORE SWAP2 PUSH1 0x20 ADD SWAP2 PUSH2 0x80F JUMP JUMPDEST DUP3 ADD SWAP2 SWAP1 PUSH0 MSTORE PUSH1 0x20 PUSH0 KECCAK256 SWAP1 JUMPDEST DUP2 SLOAD DUP2 MSTORE SWAP1 PUSH1 0x1 ADD SWAP1 PUSH1 0x20 ADD DUP1 DUP4 GT PUSH2 0x7F2 JUMPI DUP3 SWAP1 SUB PUSH1 0x1F AND DUP3 ADD SWAP2 JUMPDEST POP POP POP POP POP SWAP1 DUP1 PUSH1 0x1 ADD SLOAD SWAP1 POP DUP3 JUMP JUMPDEST PUSH0 PUSH1 0x20 MSTORE DUP1 PUSH0 MSTORE PUSH1 0x40 PUSH0 KECCAK256 PUSH0 SWAP2 POP SWAP1 POP DUP1 PUSH0 ADD DUP1 SLOAD PUSH2 0x83D SWAP1 PUSH2 0xD70 JUMP JUMPDEST DUP1 PUSH1 0x1F ADD PUSH1 0x20 DUP1 SWAP2 DIV MUL PUSH1 0x20 ADD PUSH1 0x40 MLOAD SWAP1 DUP2 ADD PUSH1 0x40 MSTORE DUP1 SWAP3 SWAP2 SWAP1 DUP2 DUP2 MSTORE PUSH1 0x20 ADD DUP3 DUP1 SLOAD PUSH2 0x869 SWAP1 PUSH2 0xD70 JUMP JUMPDEST DUP1 ISZERO PUSH2 0x8B4 JUMPI DUP1 PUSH1 0x1F LT PUSH2 0x88B JUMPI PUSH2 0x100 DUP1 DUP4 SLOAD DIV MUL DUP4 MSTORE SWAP2 PUSH1 0x20 ADD SWAP2 PUSH2 0x8B4 JUMP JUMPDEST DUP3 ADD SWAP2 SWAP1 PUSH0 MSTORE PUSH1 0x20 PUSH0 KECCAK256 SWAP1 JUMPDEST DUP2 SLOAD DUP2 MSTORE SWAP1 PUSH1 0x1 ADD SWAP1 PUSH1 0x20 ADD DUP1 DUP4 GT PUSH2 0x897 JUMPI DUP3 SWAP1 SUB PUSH1 0x1F AND DUP3 ADD SWAP2 JUMPDEST POP POP POP POP POP SWAP1 DUP1 PUSH1 0x1 ADD SLOAD SWAP1 DUP1 PUSH1 0x2 ADD PUSH0 SWAP1 SLOAD SWAP1 PUSH2 0x100 EXP SWAP1 DIV PUSH1 0xFF AND SWAP1 POP DUP4 JUMP JUMPDEST PUSH1 0x2 PUSH1 0x20 MSTORE DUP1 PUSH0 MSTORE PUSH1 0x40 PUSH0 KECCAK256 PUSH0 SWAP2 POP SWAP1 POP SLOAD DUP2 JUMP JUMPDEST PUSH0 PUSH1 0x40 MLOAD SWAP1 POP SWAP1 JUMP JUMPDEST PUSH0 PUSH0 REVERT JUMPDEST PUSH0 PUSH0 REVERT JUMPDEST PUSH0 PUSH0 REVERT JUMPDEST PUSH0 PUSH0 REVERT JUMPDEST PUSH0 PUSH1 0x1F NOT PUSH1 0x1F DUP4 ADD AND SWAP1 POP SWAP2 SWAP1 POP JUMP JUMPDEST PUSH32 0x4E487B7100000000000000000000000000000000000000000000000000000000 PUSH0 MSTORE PUSH1 0x41 PUSH1 0x4 MSTORE PUSH1 0x24 PUSH0 REVERT JUMPDEST PUSH2 0x94A DUP3 PUSH2 0x904 JUMP JUMPDEST DUP2 ADD DUP2 DUP2 LT PUSH8 0xFFFFFFFFFFFFFFFF DUP3 GT OR ISZERO PUSH2 0x969 JUMPI PUSH2 0x968 PUSH2 0x914 JUMP JUMPDEST JUMPDEST DUP1 PUSH1 0x40 MSTORE POP POP POP JUMP JUMPDEST PUSH0 PUSH2 0x97B PUSH2 0x8EB JUMP JUMPDEST SWAP1 POP PUSH2 0x987 DUP3 DUP3 PUSH2 0x941 JUMP JUMPDEST SWAP2 SWAP1 POP JUMP JUMPDEST PUSH0 PUSH8 0xFFFFFFFFFFFFFFFF DUP3 GT ISZERO PUSH2 0x9A6 JUMPI PUSH2 0x9A5 PUSH2 0x914 JUMP JUMPDEST JUMPDEST PUSH2 0x9AF DUP3 PUSH2 0x904 JUMP JUMPDEST SWAP1 POP PUSH1 0x20 DUP2 ADD SWAP1 POP SWAP2 SWAP1 POP JUMP JUMPDEST DUP3 DUP2 DUP4 CALLDATACOPY PUSH0 DUP4 DUP4 ADD MSTORE POP POP POP JUMP JUMPDEST PUSH0 PUSH2 0x9DC PUSH2 0x9D7 DUP5 PUSH2 0x98C JUMP JUMPDEST PUSH2 0x972 JUMP JUMPDEST SWAP1 POP DUP3 DUP2 MSTORE PUSH1 0x20 DUP2 ADD DUP5 DUP5 DUP5 ADD GT ISZERO PUSH2 0x9F8 JUMPI PUSH2 0x9F7 PUSH2 0x900 JUMP JUMPDEST JUMPDEST PUSH2 0xA03 DUP5 DUP3 DUP6 PUSH2 0x9BC JUMP JUMPDEST POP SWAP4 SWAP3 POP POP POP JUMP JUMPDEST PUSH0 DUP3 PUSH1 0x1F DUP4 ADD SLT PUSH2 0xA1F JUMPI PUSH2 0xA1E PUSH2 0x8FC JUMP JUMPDEST JUMPDEST DUP2 CALLDATALOAD PUSH2 0xA2F DUP5 DUP3 PUSH1 0x20 DUP7 ADD PUSH2 0x9CA JUMP JUMPDEST SWAP2 POP POP SWAP3 SWAP2 POP POP JUMP JUMPDEST PUSH0 DUP2 SWAP1 POP SWAP2 SWAP1 POP JUMP JUMPDEST PUSH2 0xA4A DUP2 PUSH2 0xA38 JUMP JUMPDEST DUP2 EQ PUSH2 0xA54 JUMPI PUSH0 PUSH0 REVERT JUMPDEST POP JUMP JUMPDEST PUSH0 DUP2 CALLDATALOAD SWAP1 POP PUSH2 0xA65 DUP2 PUSH2 0xA41 JUMP JUMPDEST SWAP3 SWAP2 POP POP JUMP JUMPDEST PUSH0 PUSH0 PUSH1 0x40 DUP4 DUP6 SUB SLT ISZERO PUSH2 0xA81 JUMPI PUSH2 0xA80 PUSH2 0x8F4 JUMP JUMPDEST JUMPDEST PUSH0 DUP4 ADD CALLDATALOAD PUSH8 0xFFFFFFFFFFFFFFFF DUP2 GT ISZERO PUSH2 0xA9E JUMPI PUSH2 0xA9D PUSH2 0x8F8 JUMP JUMPDEST JUMPDEST PUSH2 0xAAA DUP6 DUP3 DUP7 ADD PUSH2 0xA0B JUMP JUMPDEST SWAP3 POP POP PUSH1 0x20 PUSH2 0xABB DUP6 DUP3 DUP7 ADD PUSH2 0xA57 JUMP JUMPDEST SWAP2 POP POP SWAP3 POP SWAP3 SWAP1 POP JUMP JUMPDEST PUSH0 PUSH1 0x20 DUP3 DUP5 SUB SLT ISZERO PUSH2 0xADA JUMPI PUSH2 0xAD9 PUSH2 0x8F4 JUMP JUMPDEST JUMPDEST PUSH0 DUP3 ADD CALLDATALOAD PUSH8 0xFFFFFFFFFFFFFFFF DUP2 GT ISZERO PUSH2 0xAF7 JUMPI PUSH2 0xAF6 PUSH2 0x8F8 JUMP JUMPDEST JUMPDEST PUSH2 0xB03 DUP5 DUP3 DUP6 ADD PUSH2 0xA0B JUMP JUMPDEST SWAP2 POP POP SWAP3 SWAP2 POP POP JUMP JUMPDEST PUSH0 PUSH20 0xFFFFFFFFFFFFFFFFFFFFFFFFFFFFFFFFFFFFFFFF DUP3 AND SWAP1 POP SWAP2 SWAP1 POP JUMP JUMPDEST PUSH0 PUSH2 0xB35 DUP3 PUSH2 0xB0C JUMP JUMPDEST SWAP1 POP SWAP2 SWAP1 POP JUMP JUMPDEST PUSH2 0xB45 DUP2 PUSH2 0xB2B JUMP JUMPDEST DUP2 EQ PUSH2 0xB4F JUMPI PUSH0 PUSH0 REVERT JUMPDEST POP JUMP JUMPDEST PUSH0 DUP2 CALLDATALOAD SWAP1 POP PUSH2 0xB60 DUP2 PUSH2 0xB3C JUMP JUMPDEST SWAP3 SWAP2 POP POP JUMP JUMPDEST PUSH0 PUSH0 PUSH1 0x40 DUP4 DUP6 SUB SLT ISZERO PUSH2 0xB7C JUMPI PUSH2 0xB7B PUSH2 0x8F4 JUMP JUMPDEST JUMPDEST PUSH0 PUSH2 0xB89 DUP6 DUP3 DUP7 ADD PUSH2 0xB52 JUMP JUMPDEST SWAP3 POP POP PUSH1 0x20 PUSH2 0xB9A DUP6 DUP3 DUP7 ADD PUSH2 0xA57 JUMP JUMPDEST SWAP2 POP POP SWAP3 POP SWAP3 SWAP1 POP JUMP JUMPDEST PUSH0 DUP2 MLOAD SWAP1 POP SWAP2 SWAP1 POP JUMP JUMPDEST PUSH0 DUP3 DUP3 MSTORE PUSH1 0x20 DUP3 ADD SWAP1 POP SWAP3 SWAP2 POP POP JUMP JUMPDEST DUP3 DUP2 DUP4 MCOPY PUSH0 DUP4 DUP4 ADD MSTORE POP POP POP JUMP JUMPDEST PUSH0 PUSH2 0xBD6 DUP3 PUSH2 0xBA4 JUMP JUMPDEST PUSH2 0xBE0 DUP2 DUP6 PUSH2 0xBAE JUMP JUMPDEST SWAP4 POP PUSH2 0xBF0 DUP2 DUP6 PUSH1 0x20 DUP7 ADD PUSH2 0xBBE JUMP JUMPDEST PUSH2 0xBF9 DUP2 PUSH2 0x904 JUMP JUMPDEST DUP5 ADD SWAP2 POP POP SWAP3 SWAP2 POP POP JUMP JUMPDEST PUSH2 0xC0D DUP2 PUSH2 0xA38 JUMP JUMPDEST DUP3 MSTORE POP POP JUMP JUMPDEST PUSH0 PUSH1 0x40 DUP3 ADD SWAP1 POP DUP2 DUP2 SUB PUSH0 DUP4 ADD MSTORE PUSH2 0xC2B DUP2 DUP6 PUSH2 0xBCC JUMP JUMPDEST SWAP1 POP PUSH2 0xC3A PUSH1 0x20 DUP4 ADD DUP5 PUSH2 0xC04 JUMP JUMPDEST SWAP4 SWAP3 POP POP POP JUMP JUMPDEST PUSH0 PUSH1 0x20 DUP3 DUP5 SUB SLT ISZERO PUSH2 0xC56 JUMPI PUSH2 0xC55 PUSH2 0x8F4 JUMP JUMPDEST JUMPDEST PUSH0 PUSH2 0xC63 DUP5 DUP3 DUP6 ADD PUSH2 0xB52 JUMP JUMPDEST SWAP2 POP POP SWAP3 SWAP2 POP POP JUMP JUMPDEST PUSH0 PUSH1 0x20 DUP3 ADD SWAP1 POP PUSH2 0xC7F PUSH0 DUP4 ADD DUP5 PUSH2 0xC04 JUMP JUMPDEST SWAP3 SWAP2 POP POP JUMP JUMPDEST PUSH0 DUP2 ISZERO ISZERO SWAP1 POP SWAP2 SWAP1 POP JUMP JUMPDEST PUSH2 0xC99 DUP2 PUSH2 0xC85 JUMP JUMPDEST DUP3 MSTORE POP POP JUMP JUMPDEST PUSH0 PUSH1 0x60 DUP3 ADD SWAP1 POP DUP2 DUP2 SUB PUSH0 DUP4 ADD MSTORE PUSH2 0xCB7 DUP2 DUP7 PUSH2 0xBCC JUMP JUMPDEST SWAP1 POP PUSH2 0xCC6 PUSH1 0x20 DUP4 ADD DUP6 PUSH2 0xC04 JUMP JUMPDEST PUSH2 0xCD3 PUSH1 0x40 DUP4 ADD DUP5 PUSH2 0xC90 JUMP JUMPDEST SWAP5 SWAP4 POP POP POP POP JUMP JUMPDEST PUSH32 0x416C726561647920726567697374657265642E00000000000000000000000000 PUSH0 DUP3 ADD MSTORE POP JUMP JUMPDEST PUSH0 PUSH2 0xD0F PUSH1 0x13 DUP4 PUSH2 0xBAE JUMP JUMPDEST SWAP2 POP PUSH2 0xD1A DUP3 PUSH2 0xCDB JUMP JUMPDEST PUSH1 0x20 DUP3 ADD SWAP1 POP SWAP2 SWAP1 POP JUMP JUMPDEST PUSH0 PUSH1 0x20 DUP3 ADD SWAP1 POP DUP2 DUP2 SUB PUSH0 DUP4 ADD MSTORE PUSH2 0xD3C DUP2 PUSH2 0xD03 JUMP JUMPDEST SWAP1 POP SWAP2 SWAP1 POP JUMP JUMPDEST PUSH32 0x4E487B7100000000000000000000000000000000000000000000000000000000 PUSH0 MSTORE PUSH1 0x22 PUSH1 0x4 MSTORE PUSH1 0x24 PUSH0 REVERT JUMPDEST PUSH0 PUSH1 0x2 DUP3 DIV SWAP1 POP PUSH1 0x1 DUP3 AND DUP1 PUSH2 0xD87 JUMPI PUSH1 0x7F DUP3 AND SWAP2 POP JUMPDEST PUSH1 0x20 DUP3 LT DUP2 SUB PUSH2 0xD9A JUMPI PUSH2 0xD99 PUSH2 0xD43 JUMP JUMPDEST JUMPDEST POP SWAP2 SWAP1 POP JUMP JUMPDEST PUSH0 DUP2 SWAP1 POP DUP2 PUSH0 MSTORE PUSH1 0x20 PUSH0 KECCAK256 SWAP1 POP SWAP2 SWAP1 POP JUMP JUMPDEST PUSH0 PUSH1 0x20 PUSH1 0x1F DUP4 ADD DIV SWAP1 POP SWAP2 SWAP1 POP JUMP JUMPDEST PUSH0 DUP3 DUP3 SHL SWAP1 POP SWAP3 SWAP2 POP POP JUMP JUMPDEST PUSH0 PUSH1 0x8 DUP4 MUL PUSH2 0xDFC PUSH32 0xFFFFFFFFFFFFFFFFFFFFFFFFFFFFFFFFFFFFFFFFFFFFFFFFFFFFFFFFFFFFFFFF DUP3 PUSH2 0xDC1 JUMP JUMPDEST PUSH2 0xE06 DUP7 DUP4 PUSH2 0xDC1 JUMP JUMPDEST SWAP6 POP DUP1 NOT DUP5 AND SWAP4 POP DUP1 DUP7 AND DUP5 OR SWAP3 POP POP POP SWAP4 SWAP3 POP POP POP JUMP JUMPDEST PUSH0 DUP2 SWAP1 POP SWAP2 SWAP1 POP JUMP JUMPDEST PUSH0 PUSH2 0xE41 PUSH2 0xE3C PUSH2 0xE37 DUP5 PUSH2 0xA38 JUMP JUMPDEST PUSH2 0xE1E JUMP JUMPDEST PUSH2 0xA38 JUMP JUMPDEST SWAP1 POP SWAP2 SWAP1 POP JUMP JUMPDEST PUSH0 DUP2 SWAP1 POP SWAP2 SWAP1 POP JUMP JUMPDEST PUSH2 0xE5A DUP4 PUSH2 0xE27 JUMP JUMPDEST PUSH2 0xE6E PUSH2 0xE66 DUP3 PUSH2 0xE48 JUMP JUMPDEST DUP5 DUP5 SLOAD PUSH2 0xDCD JUMP JUMPDEST DUP3 SSTORE POP POP POP POP JUMP JUMPDEST PUSH0 PUSH0 SWAP1 POP SWAP1 JUMP JUMPDEST PUSH2 0xE85 PUSH2 0xE76 JUMP JUMPDEST PUSH2 0xE90 DUP2 DUP5 DUP5 PUSH2 0xE51 JUMP JUMPDEST POP POP POP JUMP JUMPDEST JUMPDEST DUP2 DUP2 LT ISZERO PUSH2 0xEB3 JUMPI PUSH2 0xEA8 PUSH0 DUP3 PUSH2 0xE7D JUMP JUMPDEST PUSH1 0x1 DUP2 ADD SWAP1 POP PUSH2 0xE96 JUMP JUMPDEST POP POP JUMP JUMPDEST PUSH1 0x1F DUP3 GT ISZERO PUSH2 0xEF8 JUMPI PUSH2 0xEC9 DUP2 PUSH2 0xDA0 JUMP JUMPDEST PUSH2 0xED2 DUP5 PUSH2 0xDB2 JUMP JUMPDEST DUP2 ADD PUSH1 0x20 DUP6 LT ISZERO PUSH2 0xEE1 JUMPI DUP2 SWAP1 POP JUMPDEST PUSH2 0xEF5 PUSH2 0xEED DUP6 PUSH2 0xDB2 JUMP JUMPDEST DUP4 ADD DUP3 PUSH2 0xE95 JUMP JUMPDEST POP POP JUMPDEST POP POP POP JUMP JUMPDEST PUSH0 DUP3 DUP3 SHR SWAP1 POP SWAP3 SWAP2 POP POP JUMP JUMPDEST PUSH0 PUSH2 0xF18 PUSH0 NOT DUP5 PUSH1 0x8 MUL PUSH2 0xEFD JUMP JUMPDEST NOT DUP1 DUP4 AND SWAP2 POP POP SWAP3 SWAP2 POP POP JUMP JUMPDEST PUSH0 PUSH2 0xF30 DUP4 DUP4 PUSH2 0xF09 JUMP JUMPDEST SWAP2 POP DUP3 PUSH1 0x2 MUL DUP3 OR SWAP1 POP SWAP3 SWAP2 POP POP JUMP JUMPDEST PUSH2 0xF49 DUP3 PUSH2 0xBA4 JUMP JUMPDEST PUSH8 0xFFFFFFFFFFFFFFFF DUP2 GT ISZERO PUSH2 0xF62 JUMPI PUSH2 0xF61 PUSH2 0x914 JUMP JUMPDEST JUMPDEST PUSH2 0xF6C DUP3 SLOAD PUSH2 0xD70 JUMP JUMPDEST PUSH2 0xF77 DUP3 DUP3 DUP6 PUSH2 0xEB7 JUMP JUMPDEST PUSH0 PUSH1 0x20 SWAP1 POP PUSH1 0x1F DUP4 GT PUSH1 0x1 DUP2 EQ PUSH2 0xFA8 JUMPI PUSH0 DUP5 ISZERO PUSH2 0xF96 JUMPI DUP3 DUP8 ADD MLOAD SWAP1 POP JUMPDEST PUSH2 0xFA0 DUP6 DUP3 PUSH2 0xF25 JUMP JUMPDEST DUP7 SSTORE POP PUSH2 0x1007 JUMP JUMPDEST PUSH1 0x1F NOT DUP5 AND PUSH2 0xFB6 DUP7 PUSH2 0xDA0 JUMP JUMPDEST PUSH0 JUMPDEST DUP3 DUP2 LT ISZERO PUSH2 0xFDD JUMPI DUP5 DUP10 ADD MLOAD DUP3 SSTORE PUSH1 0x1 DUP3 ADD SWAP2 POP PUSH1 0x20 DUP6 ADD SWAP5 POP PUSH1 0x20 DUP2 ADD SWAP1 POP PUSH2 0xFB8 JUMP JUMPDEST DUP7 DUP4 LT ISZERO PUSH2 0xFFA JUMPI DUP5 DUP10 ADD MLOAD PUSH2 0xFF6 PUSH1 0x1F DUP10 AND DUP3 PUSH2 0xF09 JUMP JUMPDEST DUP4 SSTORE POP JUMPDEST PUSH1 0x1 PUSH1 0x2 DUP9 MUL ADD DUP9 SSTORE POP POP POP JUMPDEST POP POP POP POP POP POP JUMP JUMPDEST PUSH32 0x596F75206D757374206265207265676973746572656420746F20706572666F72 PUSH0 DUP3 ADD MSTORE PUSH32 0x6D207468697320616374696F6E2E000000000000000000000000000000000000 PUSH1 0x20 DUP3 ADD MSTORE POP JUMP JUMPDEST PUSH0 PUSH2 0x1069 PUSH1 0x2E DUP4 PUSH2 0xBAE JUMP JUMPDEST SWAP2 POP PUSH2 0x1074 DUP3 PUSH2 0x100F JUMP JUMPDEST PUSH1 0x40 DUP3 ADD SWAP1 POP SWAP2 SWAP1 POP JUMP JUMPDEST PUSH0 PUSH1 0x20 DUP3 ADD SWAP1 POP DUP2 DUP2 SUB PUSH0 DUP4 ADD MSTORE PUSH2 0x1096 DUP2 PUSH2 0x105D JUMP JUMPDEST SWAP1 POP SWAP2 SWAP1 POP JUMP JUMPDEST PUSH32 0x4E487B7100000000000000000000000000000000000000000000000000000000 PUSH0 MSTORE PUSH1 0x11 PUSH1 0x4 MSTORE PUSH1 0x24 PUSH0 REVERT JUMPDEST PUSH0 PUSH2 0x10D4 DUP3 PUSH2 0xA38 JUMP JUMPDEST SWAP2 POP PUSH2 0x10DF DUP4 PUSH2 0xA38 JUMP JUMPDEST SWAP3 POP DUP3 DUP3 ADD SWAP1 POP DUP1 DUP3 GT ISZERO PUSH2 0x10F7 JUMPI PUSH2 0x10F6 PUSH2 0x109D JUMP JUMPDEST JUMPDEST SWAP3 SWAP2 POP POP JUMP JUMPDEST PUSH32 0x496E76616C6964207265706F727420696E646578000000000000000000000000 PUSH0 DUP3 ADD MSTORE POP JUMP JUMPDEST PUSH0 PUSH2 0x1131 PUSH1 0x14 DUP4 PUSH2 0xBAE JUMP JUMPDEST SWAP2 POP PUSH2 0x113C DUP3 PUSH2 0x10FD JUMP JUMPDEST PUSH1 0x20 DUP3 ADD SWAP1 POP SWAP2 SWAP1 POP JUMP JUMPDEST PUSH0 PUSH1 0x20 DUP3 ADD SWAP1 POP DUP2 DUP2 SUB PUSH0 DUP4 ADD MSTORE PUSH2 0x115E DUP2 PUSH2 0x1125 JUMP JUMPDEST SWAP1 POP SWAP2 SWAP1 POP JUMP JUMPDEST PUSH32 0x4E487B7100000000000000000000000000000000000000000000000000000000 PUSH0 MSTORE PUSH1 0x32 PUSH1 0x4 MSTORE PUSH1 0x24 PUSH0 REVERT INVALID LOG2 PUSH5 0x6970667358 0x22 SLT KECCAK256 BLOBHASH BASEFEE CODECOPY ORIGIN STOP 0xD2 ADDMOD 0xAF SWAP11 ADDMOD PREVRANDAO 0xB4 0xE8 STOP DIV 0xB1 ADDRESS 0xB0 DUP12 0xB7 0xCA ADDMOD SWAP12 SWAP1 SIGNEXTEND PUSH30 0xFCF134A5F2A64736F6C634300081E003300000000000000000000000000 "
				},
				"gasEstimates": {
					"creation": {
						"codeDepositCost": "910400",
						"executionCost": "946",
						"totalCost": "911346"
					},
					"external": {
						"citizens(address)": "infinite",
						"getReportByIndex(address,uint256)": "infinite",
						"getReportCount(address)": "2837",
						"registerCitizen(string,uint256)": "infinite",
						"reportPoints(address)": "2868",
						"reports(address,uint256)": "infinite",
						"submitReport(string)": "infinite"
					}
				},
				"methodIdentifiers": {
					"citizens(address)": "d4f910a7",
					"getReportByIndex(address,uint256)": "7cdade8f",
					"getReportCount(address)": "9e22a893",
					"registerCitizen(string,uint256)": "3e085831",
					"reportPoints(address)": "f11cd6d2",
					"reports(address,uint256)": "bad02c7e",
					"submitReport(string)": "635ac1ed"
				}
			},
			"storageLayout": {
				"storage": [
					{
						"astId": 19,
						"contract": "CityReport.sol:SmartCityReportSystem",
						"label": "citizens",
						"offset": 0,
						"slot": "0",
						"type": "t_mapping(t_address,t_struct(Citizen)9_storage)"
					},
					{
						"astId": 25,
						"contract": "CityReport.sol:SmartCityReportSystem",
						"label": "reports",
						"offset": 0,
						"slot": "1",
						"type": "t_mapping(t_address,t_array(t_struct(Report)14_storage)dyn_storage)"
					},
					{
						"astId": 29,
						"contract": "CityReport.sol:SmartCityReportSystem",
						"label": "reportPoints",
						"offset": 0,
						"slot": "2",
						"type": "t_mapping(t_address,t_uint256)"
					}
				],
				"types": {
					"t_address": {
						"encoding": "inplace",
						"label": "address",
						"numberOfBytes": "20"
					},
					"t_array(t_struct(Report)14_storage)dyn_storage": {
						"base": "t_struct(Report)14_storage",
						"encoding": "dynamic_array",
						"label": "struct SmartCityReportSystem.Report[]",
						"numberOfBytes": "32"
					},
					"t_bool": {
						"encoding": "inplace",
						"label": "bool",
						"numberOfBytes": "1"
					},
					"t_mapping(t_address,t_array(t_struct(Report)14_storage)dyn_storage)": {
						"encoding": "mapping",
						"key": "t_address",
						"label": "mapping(address => struct SmartCityReportSystem.Report[])",
						"numberOfBytes": "32",
						"value": "t_array(t_struct(Report)14_storage)dyn_storage"
					},
					"t_mapping(t_address,t_struct(Citizen)9_storage)": {
						"encoding": "mapping",
						"key": "t_address",
						"label": "mapping(address => struct SmartCityReportSystem.Citizen)",
						"numberOfBytes": "32",
						"value": "t_struct(Citizen)9_storage"
					},
					"t_mapping(t_address,t_uint256)": {
						"encoding": "mapping",
						"key": "t_address",
						"label": "mapping(address => uint256)",
						"numberOfBytes": "32",
						"value": "t_uint256"
					},
					"t_string_storage": {
						"encoding": "bytes",
						"label": "string",
						"numberOfBytes": "32"
					},
					"t_struct(Citizen)9_storage": {
						"encoding": "inplace",
						"label": "struct SmartCityReportSystem.Citizen",
						"members": [
							{
								"astId": 4,
								"contract": "CityReport.sol:SmartCityReportSystem",
								"label": "name",
								"offset": 0,
								"slot": "0",
								"type": "t_string_storage"
							},
							{
								"astId": 6,
								"contract": "CityReport.sol:SmartCityReportSystem",
								"label": "idNumber",
								"offset": 0,
								"slot": "1",
								"type": "t_uint256"
							},
							{
								"astId": 8,
								"contract": "CityReport.sol:SmartCityReportSystem",
								"label": "isRegistered",
								"offset": 0,
								"slot": "2",
								"type": "t_bool"
							}
						],
						"numberOfBytes": "96"
					},
					"t_struct(Report)14_storage": {
						"encoding": "inplace",
						"label": "struct SmartCityReportSystem.Report",
						"members": [
							{
								"astId": 11,
								"contract": "CityReport.sol:SmartCityReportSystem",
								"label": "description",
								"offset": 0,
								"slot": "0",
								"type": "t_string_storage"
							},
							{
								"astId": 13,
								"contract": "CityReport.sol:SmartCityReportSystem",
								"label": "timestamp",
								"offset": 0,
								"slot": "1",
								"type": "t_uint256"
							}
						],
						"numberOfBytes": "64"
					},
					"t_uint256": {
						"encoding": "inplace",
						"label": "uint256",
						"numberOfBytes": "32"
					}
				}
			},
			"userdoc": {
				"kind": "user",
				"methods": {
					"getReportByIndex(address,uint256)": {
						"notice": "Get a specific report by index"
					},
					"getReportCount(address)": {
						"notice": "Get number of reports submitted by a user"
					},
					"registerCitizen(string,uint256)": {
						"notice": "Register a citizen (only once)"
					},
					"submitReport(string)": {
						"notice": "Submit a city issue report"
					}
				},
				"notice": "Citizens can register and submit city issue reports",
				"version": 1
			}
		}
	}
}